:100000000C9440040C9468040C9468040C946804E8
:100010000C9468040C9468040C9468040C946804B0
:100020000C9468040C9468040C9468040C944D18A7
:100030000C9468040C9468040C9468040C94680490
:100040000C94C0180C9468040C9468040C94680414
:100050000C9468040C9468040C9468040C94680470
:100060000C9468040C94680420436F6E6E6563748E
:10007000696E672E2E2E0050726573732016000075
:100080002F3400426174746572793A002020202078
:100090004C6F6164696E672E2E2E2E00C400BC006A
:1000A000B000A4004368616E67652047616D65001C
:1000B0004D756C7469706C61796572004F7074690C
:1000C0006F6E7300537572766976616C00583000FC
:1000D0000000000000000000000000000000000020
:1000E0000000000000000000000000000000000010
:1000F0000000000000000000000000000000000000
:1001000000000000000000000000000000000000EF
:1001100000000000000000000000000000000000DF
:1001200000000000000000000000000000000000CF
:1001300000000000000000000000000000000000BF
:1001400000000000000000000000000000000000AF
:10015000000000000000000000000000000000009F
:10016000000000000000000000000000000000008F
:10017000000000000000000000000000000000007F
:10018000000000000000000000000000000000006F
:10019000000000000000000000000000000000005F
:1001A000000000000000000000000072221C88080F
:1001B0008B80E78439108B65228814CA41144A4524
:1001C0001082A8A08822AA210451411072A89CF88C
:1001D000229A21079139F00A2F82883E8A21051F31
:1001E00005108A28A288228A411491451072289C01
:1001F00088228B80E45139100000000000000000CC
:1002000000000000000000000000000000000000EE
:1002100000000000000000000000000000000000DE
:1002200000000000000000000000000000000000CE
:1002300000000000000000000000000000000000BE
:1002400000000000000003CF3E71C0051140000017
:10025000000228A08A200529400000000228A08270
:100260000000440000000003CF3C71C000440000C7
:100270000000020A200820007C0000000002092083
:100280008A200044000000000208BE71C000440043
:1002900000000000000000000000007FF0000000EF
:1002A00000000000000080000000000000000000CE
:1002B0000135500000000000000000024650000020
:1002C00000000000000004242000000000000000E6
:1002D0000008162000000000000000001065200843
:1002E00008FCCEC7FFFFC786FC0808183C246642FE
:1002F000C3817E1804000000FFFFFFFFFFFFFFFF28
:10030000FF58040000000000000000000000FFFF94
:10031000FFFFFFFFFFFFFFFFFFFFFFFFFFFFFFFFED
:10032000FFFFFFFFFFFFFFFFFFFFFFFFFFFFFF08D4
:10033000083C6A6A6A3C24240003053F213F1208F6
:10034000120A100A0E1C0E0C1E0C141A14161F167C
:100350001E131E1E1B1E1E1F1E3F213F3A2F3A1743
:100360003D173F213F181F02040A041F0E04040E0C
:100370001F0A1F0A0E0E1F04110E2E252E2F2A2EC5
:10038000262929021F02081F08150E04040E150E47
:1003900015151B151B040604040C040000000017AF
:1003A000000300031F0A1F16371A1904130A153A0F
:1003B000000300000E11110E000A040A040E0400CE
:1003C00030000404040010001804031F111F121F42
:1003D000101D151711151F07041F17151D1F151DBB
:1003E00001011F1F151F17151F000A00003200040E
:1003F0000A110A0A0A110A040115020E11171E0534
:100400001E1F150A0E110A1F110E1F15111F0501BF
:100410000E111D1F041F111F1108100F1F041B1F99
:1004200010101F061F1E040F0E110E1F09060E11BD
:100430002E1F051A121509011F011F101F0F180F7B
:100440001F0C1F1B041B031C03191513001F110392
:100450000418111F000201022020200001020C12CA
:100460001E1F120C0C12120C121F0C1A14041E0563
:10047000242A1E1F021C141D1020201D1F081411E9
:100480001F101E041E1E021C0C120C3E0A040C122D
:100490003E1E040214160A020F120E101E0E100E3B
:1004A0001E081E120C1226281E322A26041E2100A7
:1004B0001F00211E040102013F213F05077F41412A
:1004C000417F3E5B4F5B3E3E6B4F6B3E183C783C42
:1004D00018183C7E3C181C577D571C1C5E7F5E1C08
:1004E000007E43437E007E73737E007E7F7F7E7F2F
:1004F0004141417F30483A060E06297929067F415D
:1005000041417F60703F02042A1C361C2A7F3E1C3A
:10051000080000081C3E7F14227F22143C3C3C7ED5
:10052000FF18423C817E3E6375633E3E616B633ED5
:100530003E636B6B3E04027F020410207F20100894
:10054000082A1C08081C2A0808143E554122637515
:1005500069756310181C1810040C1C0C04000000B2
:10056000000000005F00000007000700147F147FF8
:1005700014042A7F2A102313086462364956205037
:100580000008070300001C2241000041221C002A31
:100590001C3E1C2A08083E080800E060000008080D
:1005A000080808006060000060100804033E51491C
:1005B000453E00427F400062514949462141494D34
:1005C000331814127F1027454545393C4A494930B4
:1005D00041211109073649494936064949291E0072
:1005E000002400000080640000081422410014145C
:1005F000141414004122140802015909063E415DF9
:10060000594E7C1211127C7F494949363E41414185
:10061000227F4141221C7F494949417F0909090143
:100620003E414151327F0808087F00417F41002050
:1006300041413F017F081422417F404040407F02FA
:100640000C027F7F0204087F3E4141413E7F090941
:1006500009063E416141BE7F09192946264949499B
:100660003201017F01013F4040403F1F2040201FD9
:100670003F4038403F631408146303047804036167
:1006800051494543007F4141000304081060004187
:10069000417F000402010204808080808000030703
:1006A000080020545478407F284444383844444457
:1006B00028384444287F3854545418087E090902C5
:1006C00018A4A49C787F0804047800447D400000AE
:1006D0006080847D7F1010284400417F40007C04AE
:1006E0007804787C080404783844444438FC18249E
:1006F000241818242418FC7C0804040808545454B2
:1007000020043F4444203C4040207C1C2040201CCE
:100710003C4020403C44281028444C9090907C441D
:1007200064544C44000836410000007F0000004142
:10073000360800180408100C7F4141417F0A4E6FB3
:100740002053442063617264206F720A6E6F204CE4
:100750004F414445522E4845580A0A153A45786992
:1007600074001D20466C617368696E670A20206CF6
:100770006F616465722E2E2E0A0A444F4E27542054
:100780005455524E204F464621000A0A153A4967F1
:100790006E6F7265006D560A0A504C4541534520F4
:1007A0005455524E204F464620004C4F5720424150
:1007B000545445525921200005008930080238025E
:1007C000497868140000F6E8DBCFC3B8AEA49B926A
:1007D0008A827B746E68625C57524E4945413E3A4C
:1007E0003734312E2C29272523211F1D1C1A1917B8
:1007F000161514131211100F0E0D0C0B0A09080711
:100800000645006801000005006801380100000588
:10081000003801680100001F081B080101FF0301E7
:1008200001F70300000008000201000003040700B4
:1008300000000000000000010204081020408001B8
:100840000204081020010204081020040404040417
:10085000040404020202020202030303030303006E
:1008600000000023002600290000000000250028C9
:10087000002B0000000000240027002A0000EF07E2
:1008800011241FBECFEFD8E0DEBFCDBF11E0A0E046
:10089000B1E0E2E2FEE302C005900D92A635B10799
:1008A000D9F723E0A6E5B1E001C01D92AB3FB20746
:1008B000E1F718E0C0E8D8E004C02297FE010E94EA
:1008C000971ECE37D107C9F70E94DA1A0C940F1F72
:1008D0000C94000084E691E00E9490118823D1F3EB
:1008E0002DEC30E040E060E082EB91E00E94280CCB
:1008F00064E08EE691E00E943D09882339F089E8A2
:1009000091E00E94711810927C01089561E08EE6DA
:1009100091E00E943D09882349F061E089E891E077
:100920000E94B31889E891E00E94711863E08EE696
:1009300091E00E943D09882349F089E891E00E94F6
:10094000871860E089E891E00E94B31866E08EE6BF
:1009500091E00E943D09882309F4BCCF84E691E030
:100960000E949C13B7CF84E691E00E9456146BEB73
:1009700074E082EB91E00E94740E0E946A0410926F
:100980007C011092B80108955F926F927F928F92CE
:100990009F92AF92BF92CF92DF92EF92FF920F930E
:1009A0001F93CF93DF93C7E1D0E055245394F7E230
:1009B000AF2EB12CA7EF8A2E99249A9466246394C3
:1009C000712C84E691E00E9490118823D1F38091EC
:1009D0000A01882309F48FC160915E0170915F0163
:1009E0006F5F7F4F70935F0160935E014AE050E05C
:1009F00082EB91E00E94261C29EE32E040915A01E0
:100A000060915C0182EB91E00E94280C80915A0178
:100A100090915B01019690935B0180935A012FEDB9
:100A200032E0409156016091580182EB91E00E94C2
:100A3000280C809158019091590101969093590189
:100A400080935801409110015091110180916001F3
:100A500090916101480F591F50931101409310016B
:100A6000E090620100E02FE233E06091120182EB3E
:100A700091E00E94870D21E033E04CE260E082EBE0
:100A800091E00E94280C23EF32E04CE164E182EB1C
:100A900091E00E94280C42E060E08EE691E00E9426
:100AA0004609882341F08091120190911301181694
:100AB00019060CF47BC142E062E08EE691E00E94F0
:100AC0004609882341F020911201309113012C3402
:100AD00031050CF47AC144E164E08EE691E00E94B5
:100AE0004609882321F080910B0181117DC140913D
:100AF000100150911101609112017091130131E0C8
:100B0000C32E33E0D32EECE2EE2EF12C00E010E009
:100B10002FE233E084E691E00E94E214882329F07A
:100B2000B0921101A09210011DC04091100150918E
:100B30001101609112017091130193EFC92E92E09F
:100B4000D92E2CE1E22EF12C04E110E02FE233E06B
:100B500084E691E00E94E214882359F0D0931101B9
:100B6000C0931001109261011092600150920B012C
:100B70000BC0809160019091610101969093610199
:100B80008093600110920B01E0905A01F0905B019C
:100B900000915C0110915D01409110015091110193
:100BA000609112017091130189EEC82E82E0D82E57
:100BB0002FE233E084E691E00E94E214811110926A
:100BC0000A0140915A0150915B0160915C01709162
:100BD0005D01B1E0CB2EB3E0DB2E1CE2E12EF12C67
:100BE00000E010E029EE32E084E691E00E94E21499
:100BF00081110CC140915A0150915B0160915C01DF
:100C000070915D01F3EFCF2EF2E0DF2EACE1EA2E22
:100C1000F12C04E110E029EE32E084E691E00E943C
:100C2000E2148111F3C0E0905601F0905701009159
:100C3000580110915901409110015091110160919A
:100C4000120170911301EFEDCE2EE2E0DE2E2FE2C5
:100C500033E084E691E00E94E214811110920A01CF
:100C6000409156015091570160915801709159017E
:100C700021E0C22E23E0D22E3CE2E32EF12C00E054
:100C800010E02FED32E084E691E00E94E214811141
:100C9000CFC0409156015091570160915801709119
:100CA000590183EFC82E82E0D82E9CE1E92EF12C69
:100CB00004E110E02FED32E084E691E00E94E214BE
:100CC0008111B6C0809158019091590180359105EC
:100CD00094F0109259011092580128E230E040E05F
:100CE00050E064E170E080E090E00E94841C70932A
:100CF00057016093560180910A01811162CE1092D2
:100D0000BB011092BC0166E171E082EB91E00E94B0
:100D1000691B68E471E082EB91E00E94691B60E26C
:100D200071E082EB91E00E94691B60915E0170911D
:100D30005F014AE050E082EB91E00E941E1C66E2F7
:100D400071E082EB91E00E94691B68E471E082EB44
:100D500091E00E94691B6FE271E082EB91E00E94DA
:100D6000691B65E08EE691E00E943D09882309F445
:100D700028CE89E891E00E94871810925F011092B6
:100D80005E016BEB74E082EB91E0DF91CF911F91FC
:100D90000F91FF90EF90DF90CF90BF90AF909F901A
:100DA0008F907F906F905F900C94740E20910E0145
:100DB00030910F01821B930B9093130180931201CA
:100DC000709263016092620176CE80910E019091E3
:100DD0000F01820F931F90931301809312011092C1
:100DE00063011092620177CE89E891E00E94711848
:100DF00080911001909111010197909311018093BE
:100E00001001909261018092600171CE10925B019D
:100E100010925A012CE430E040E050E060E070E0D5
:100E2000CB010E94841C70935D0160935C01FBCE3A
:100E3000109259011092580128E230E040E050E051
:100E400064E170E080E090E00E94841C70935701A0
:100E50006093560137CFCF9310927C0144E06CE948
:100E600070E084E691E00E944A12813009F46CC07F
:100E70000CF05CC08F3F09F464C08111AEC06CE817
:100E800070E082EB91E00E94271B84E691E00E94D3
:100E90002A1084E190E090931301809312019093C3
:100EA000110180931001109263011092620182E09F
:100EB00090E090930F0180930E0181E090E0909379
:100EC0000D0180930C019093610180936001109259
:100ED0005B0110925A012CE430E040E050E060E009
:100EE00070E0CB010E94841C70935D0160935C01F3
:100EF000109259011092580128E230E040E050E091
:100F000064E170E080E090E00E94841C70935701DF
:100F10006093560181E080930A0169E373E082EBFC
:100F200091E00E94740ECF910C94C404823009F4B5
:100F300047C0833009F051C084E691E0CF910C9412
:100F40009C13CF910C946A04C1E084E691E00E9466
:100F500090118823D1F365E08EE691E00E943D096F
:100F6000882339F089E891E00E94871810927C016B
:100F700034C01092BB011092BC0163E870E082EBB8
:100F800091E00E94271B4AE050E060917D0182EBD6
:100F900091E00E944B1C60E870E082EB91E00E94BF
:100FA000571B6FE770E082EB91E00E94571B67E7E9
:100FB00070E082EB91E00E94571BC0937C01C5CF8B
:100FC00068E670E082EB91E00E94271B64E670E027
:100FD00080E090E0CF910C943919CF910895109250
:100FE000B5011092B4018BE391E09093B30180932B
:100FF000B2012CE430E040E050E060E070E0CB0172
:101000000E94841C70935D0160935C0128E230E0D3
:1010100040E050E064E170E080E090E00E94841CD9
:1010200070935701609356010895CF93CFB7F8940A
:101030008091EB01811127C0E5E5F8E08491E1E4BE
:10104000F8E09491E82FF0E0EE0FFF1FED58F74F16
:10105000A591B4918C91892321F461E08AE00E94EA
:101060007A1A61E08AE00E94411A8CB580618CBDD9
:101070008CB580648CBD61E08DE00E94411A61E016
:101080008BE00E94411A8091EB018F5F8093EB010E
:10109000CFBFCF91089521E0FC012083089570E037
:1010A00085E00C94B919AF92BF92CF92DF92EF9284
:1010B000FF920F931F93CF93DF93EC0189819A8165
:1010C0002FE0289F8001299F100D112485E10E94A7
:1010D0009C19800F911F24E0969587952A95E1F73A
:1010E0009A8389832881222391F1AC81AD80B12C30
:1010F000C12CD12CE885F9857F0100E010E06E81DC
:101100007F819B0140E050E08617970728F0BC01E3
:10111000E817F90708F4BF0180E090E01F921F92E2
:101120001F92AF930E94A01C6B830F900F900F90A3
:101130000F9070E085E0DF91CF911F910F91FF90AC
:10114000EF90DF90CF90BF90AF900C94B919DF91E2
:10115000CF911F910F91FF90EF90DF90CF90BF90B4
:10116000AF900895FC018CE39FE09383828384E039
:10117000818381E084870895CF93DF93EC018C8194
:101180009D81892B81F18C858F7151F584E10E94BD
:101190009C19BC01882777FD8095982F0E94161D09
:1011A00026EE3FE34EEC50E40E94A21D0E94E81C94
:1011B0009B017B836A836115710581F084E08983DB
:1011C000FE0140E0848195812817390710F4498396
:1011D0000AC04F5F32964430A9F702C08FEF89836F
:1011E0008C858F5F8C87DF91CF910895FC0188E01B
:1011F000808389E0818387E0828386E0838384E043
:10120000848382E0858381E186830895DF92EF9273
:10121000FF920F931F93CF93DF937C01EC0100E0CB
:1012200010E0DD24DA9462E088810E94411A88810E
:101230000E94B01AF701E00FF11F892B21F487817A
:101240008F5F878308C08781882349F08F3F11F41F
:10125000178201C0D78260E088810E94411A0F5F27
:101260001F4F219607301105F1F6DF91CF911F91A5
:101270000F91FF90EF90DF900895FC01E60FF11DB4
:1012800081E09781913009F080E00895262F30E0C9
:10129000FC01E20FF31F8781423028F481508E3F1A
:1012A00048F080E008958F3FE1F3642F0E94151EFF
:1012B0009130B9F781E008958EBD00000DB407FEAE
:1012C000FDCF8EB50895DC01643508F053C040337E
:1012D00008F050C090968C919097342F35953595A5
:1012E0003595E62FFF27E7FDF095242F27708230F4
:1012F00099F4DF01A451BE4F84E53802A00DB11D61
:1013000011248C9190E0022E02C0959587950A9445
:10131000E2F78095817009C0833039F446271C9626
:101320008C91482740FF03C014C0811112C084E58E
:101330003802E00DF11D1124E451FE4F81E090E0F0
:10134000022E01C0880F0A94EAF7809590819823B5
:1013500010C084E53802E00DF11D1124E451FE4F68
:1013600081E090E0022E01C0880F0A94EAF7908194
:10137000982B908308951F93CF93DF93EC01162F42
:10138000F89460E08F850E947A1A888918161CF4F8
:1013900060E00E947A1A812F0E945C0988891816E1
:1013A0001CF461E00E947A1A7894DF91CF911F912A
:1013B000089528EF31E0ECEEF1E0DF01A9011D9284
:1013C00041505040E1F7DC0119961C9219971A968A
:1013D0001C920895DF92EF92FF920F931F93CF9389
:1013E000DF93EC018C858F5F8C878CEEE82E81E09B
:1013F000F82ED12C6D2D6064CE010E94BB0960E8EF
:10140000CE010E94BB0961E08F850E947A1A88890B
:1014100018161CF460E00E947A1A00E010E0F70150
:10142000E00FF11F80810E945C090F5F1F4F0435A0
:101430001105A9F7888918161CF461E00E947A1A30
:10144000D39484E5E80EF11C86E0D812D3CF60E493
:10145000CE01DF91CF911F910F91FF90EF90DF9020
:101460000C94BB09FC0160A361A30895FC0160A377
:1014700041A30895CF92DF92FF920F931F93CF93D2
:10148000DF931F92CDB7DEB76C01062FF42E10E06C
:10149000121754F4412F4F0D602FC60129830E946B
:1014A00063091F5F2981F4CF0F90DF91CF911F91C6
:1014B0000F91FF90DF90CF900895CF92DF92FF922F
:1014C0000F931F93CF93DF931F92CDB7DEB76C01BD
:1014D000062FF42E10E0121754F4612F600F4F2DD9
:1014E000C60129830E9463091F5F2981F4CF0F90F1
:1014F000DF91CF911F910F91FF90DF90CF900895D2
:10150000DF92EF92FF920F931F93CF93DF93EC0143
:10151000E62ED22EF42E112707FD1095040F111D73
:1015200047FD1A958F2D992787FD90958017910774
:1015300044F42D2D4F2D6E2DCE010E945D0AF394A3
:10154000F1CFDF91CF911F910F91FF90EF90DF903E
:1015500008958F929F92AF92BF92CF92DF92EF92B7
:10156000FF920F931F93CF93DF93EC01E62ED42EBF
:10157000122FCC24C394C21AB22EB194BB0CF12CFE
:10158000802F8470A82E802F8270982E802F8870D4
:10159000882E0170F1160CF04DC0C7FC04C011502C
:1015A000B394B394CB0CF3948F2D880F8F5FC80E38
:1015B000AA2071F0412F4D0D6F2D6E0DCE010E94AE
:1015C00063094F2D4D0D612F6E0DCE010E946309F1
:1015D000992071F04D2D411B6F2D6E0DCE010E9493
:1015E00063094D2D4F19612F6E0DCE010E946309C5
:1015F000882071F04F2D4D0D6E2D611BCE010E9484
:101600006309412F4D0D6E2D6F19CE010E946309A4
:10161000002309F4BFCF4D2D4F196E2D611BCE0154
:101620000E9463094D2D411B6E2D6F19CE010E9442
:101630006309B0CFDF91CF911F910F91FF90EF9091
:10164000DF90CF90BF90AF909F908F9008958F9232
:101650009F92AF92BF92CF92DF92EF92FF920F9341
:101660001F93CF93DF93EC01B62EA42E122FDD240F
:10167000D394D21AC22EC194CC0CFF24F394802FA1
:101680008170882E992493949E0C02708FEF8F0D99
:101690008117C4F5D7FC04C01150C394C394DC0C6B
:1016A0008F2D880F8F5FD80E882099F0212F220F61
:1016B000290D4A2D411B6F2D6B0DCE010E943A0A58
:1016C00023E02E0D4A2D4F19612F6B0DCE010E9484
:1016D0003A0A002399F0212F220F290D4A2D411B90
:1016E0006B2D6F19CE010E943A0A23E02E0D4A2D70
:1016F0004F196B2D611BCE010E943A0AF394E394BB
:10170000E394C4CFDF91CF911F910F91FF90EF90A1
:10171000DF90CF90BF90AF909F908F9008959F9251
:10172000AF92BF92CF92DF92EF92FF920F931F93EF
:10173000CF93DF93EC01B62EF42EA22EDE2CD194A3
:10174000DD0C9D2C920E1E2D160F292D612F0E944F
:101750005D0ACC24CA94C00ECF0C292D4C2D612FCC
:10176000CE010E945D0AD00EFE0C2D2D4F2D6B2D4B
:10177000CE010E943A0ABA0C6FEF6B0D2D2D4F2D42
:10178000CE010E943A0A01E02E2D4F2D612FCE018D
:101790000E94A90ADE2CD094DB0C02E02E2D4F2DE6
:1017A0006D2DCE010E94A90ACE1804E02E2D4C2DDD
:1017B0006D2DCE010E94A90A08E02E2D4C2D612F1F
:1017C000CE010E94A90ADF91CF911F910F91FF9046
:1017D000EF90DF90CF90BF90AF909F900895AF9221
:1017E000BF92CF92DF92EF92FF920F931F93CF930E
:1017F000DF93EC01A62EC42EB22EF02E1E2DE19406
:10180000EE0CD12ED60E2E2D2B0D6D2D0E94800AA2
:10181000FA94FE0CC10E6FEF6A0D6B0D611BEF2C7D
:1018200001E0212F4C2DCE010E94270B02E0212F39
:101830004C2D6D2DCE010E94270BDF91CF911F9172
:101840000F91FF90EF90DF90CF90BF90AF900895F1
:101850006F927F928F929F92AF92BF92CF92DF92C0
:10186000EF92FF920F931F93CF93DF93F901A49010
:1018700031965491FC01F0A064350CF00CC1BB24EE
:10188000A7FCB094A62FBB27A7FDB095FD01EA0DDC
:10189000FB1D1E161F060CF0FEC040330CF0FBC0F3
:1018A000C52E042F112707FD1095E801C50FD11D86
:1018B00057FDDA951C161D060CF0EDC0E9012296C5
:1018C0009501295F3F4F37FF02C0295F3F4F73E00B
:1018D000359527957A95E1F747FF0AC0C52EC40EC6
:1018E000209FA001219F500D1124C41BD50B40E067
:1018F0000C2D112707FD1095040F111D47FD1A959A
:10190000013311051CF070E3C72EC41A67FD60E0B7
:10191000E535F10514F0E4E5F0E01E2FFC017485D7
:101920007427862F992787FD9095FC01EA1BFB0BF6
:10193000DF015F01F7E0AF22BB24E0E8F0E002C086
:10194000F595E795AA94E2F70E2FB7FD179653E0A9
:10195000B595A7955A95E1F7AC0FBD1FE42FE77039
:1019600051E001C0550FEA95EAF745954595459533
:10197000E4E54E02800D911D112484519E4F40E0FC
:10198000DD24C7FCD094BB24B3943327E42FF0E0CC
:10199000EC15FD050CF07FC0FD01E490F1E0FF12B5
:1019A00019C0EC01A02EFD01862E881A9C2E980CE1
:1019B000911608F067C09E2C9A2019F09880952AFD
:1019C0009882A69429F43196E4906894AA24A7F802
:1019D0002196ECCFF1101BC0752E7094EC01A02E57
:1019E000FD01862E881A9C2E980C911608F04AC08C
:1019F0009E2C9A2019F0988097209882A69429F41A
:101A00003196E4906894AA24A7F82196ECCFE3E0FD
:101A1000FE1631F0EC01A02EFD01862E881A2EC094
:101A2000752E7094962EEC01A02EFD019116B0F447
:101A30008E2C8A2049F08880692C672660FE02C0BF
:101A4000852A01C087208882A69429F43196E490E3
:101A50006894AA24A7F893942196E8CF7B2512C016
:101A60009E2C9A2019F0988095269882A69429F4A5
:101A70003196E4906894AA24A7F821969C2E980C9D
:101A8000911670F3550F19F48C5A9F4F51E04F5F28
:101A9000A20FB31F7BCFDF91CF911F910F91FF90CA
:101AA000EF90DF90CF90BF90AF909F908F907F90FE
:101AB0006F900895FB01A491842F90E0E3E0959549
:101AC0008795EA95E1F70296B0E01796F3E0B595B1
:101AD000A795FA95E1F72A9FF0012B9FF00D1124AD
:101AE0008E0F9F1F860F971FFC018491282F30E0D7
:101AF000477080E890E002C0959587954A95E2F797
:101B00002823392381E0232B09F480E008952F92C4
:101B10003F924F925F926F927F928F929F92AF927D
:101B2000BF92CF92DF92EF92FF920F931F93CF93CA
:101B3000DF93CDB7DEB72A970FB6F894DEBF0FBE9E
:101B4000CDBF6C01262E542F01111CC0E1101AC00C
:101B50002A960FB6F894DEBF0FBECDBFDF91CF91AE
:101B60001F910F91FF90EF90DF90CF90BF90AF90BB
:101B70009F908F907F906F905F904F903F902F90AD
:101B80000C94280CF901849131963490B9016E5F60
:101B90007F4F7A836983A82EB12C9501295F3F4F2F
:101BA000B3E035952795BA95E1F73A872987037011
:101BB0002FEF280F522E10E07FEF730D832D90E052
:101BC0009C838B83812F992787FD90958A159B0590
:101BD0000CF071C0812F17FF02C087E0810F682EC3
:101BE000659465946594812F877887FF03C0815041
:101BF000886F8F5FA0E88A2E912C02C095948794FD
:101C00008A95E2F7472EF12C772467FC70948F2D8C
:101C1000992787FD9095EB81FC818E179F070CF02B
:101C200047C0A985BA858A9FF0018B9FF00D9A9FC6
:101C3000F00D1124E60DF71D89819A81E80FF91F37
:101C4000E491F0E0E821F921EF2B79F1023039F04D
:101C5000033041F0013049F4452D6F2D08C0652D4A
:101C6000442D05C0642D412F02C04F2D612FEE2061
:101C700069F03E2D3370E0FE03C0922F961B692F52
:101C8000E1FE05C0A32DA41B4A2F01C030E0620D68
:101C9000450FC6012E833D835F8378870E946309C9
:101CA0003D81E32E78855F812E81F3944A94AFCFF6
:101CB0001F5F5A9487CF2A960FB6F894DEBF0FBEE7
:101CC000CDBFDF91CF911F910F91FF90EF90DF90EB
:101CD000CF90BF90AF909F908F907F906F905F90CC
:101CE0004F903F902F900895DC01FB0184918F5F0E
:101CF00014968C9314973196E491EF5F1596EC93BC
:101D000015976E5F7F4F5F967C936E935E970895F5
:101D1000EF920F93CF93DF93EC014E876D872F8760
:101D2000E98A088B81E0888788A319A28F8369E3F9
:101D300073E0CE010E94740E0E9415088CB58F7D51
:101D40008CBD8CB58C7F81608CBD8DB581608DBD67
:101D50008CB58C608CBD61E08E850E94411A61E07B
:101D60008D850E94411A61E08F850E94411A898900
:101D700018161CF461E00E94411A888918161CF498
:101D800061E00E94411A898918166CF460E00E9493
:101D90007A1A6AE070E080E090E00E94391961E010
:101DA00089890E947A1A8D85992787FD9095FC0173
:101DB000E55BF74FE491F0E0EE0FFF1FE759F74FB7
:101DC000259134913D8B2C8BFC01E95CF74F84917C
:101DD0008B8F8E85992787FD9095FC01E55BF74FEA
:101DE000E491F0E0EE0FFF1FE759F74F2591349192
:101DF0003B8B2A8BFC01E95CF74F84918A8F8889A1
:101E0000992787FD9095FC01E55BF74FE491F0E0A1
:101E1000EE0FFF1FE759F74F259134913F8B2E8B23
:101E2000FC01E95CF74F84918C8F8F85992787FDA2
:101E30009095FC01E55BF74FE491F0E0EE0FFF1F9A
:101E4000E759F74F25913491398F288FFC01E95CD0
:101E5000F74F84918D8F61E2CE010E94BB0964E14E
:101E6000CE010E94BB098B8587FF02C08FE78B875D
:101E70006B856068CE010E94BB0960E2CE010E94C2
:101E8000BB096CE0CE010E94BB09CE01DF91CF916E
:101E90000F91EF900C94EA096F927F928F929F922C
:101EA000AF92BF92CF92DF92EF92FF920F931F9368
:101EB000CF93DF93EC01162FF42EB02EE8A06435FB
:101EC0000CF081C08FE284170CF47DC0EC81F0E04F
:101ED00031970E9FC0010F9F900D1124860F911D09
:101EE00067FD9A95181619060CF06DC08D81809FBC
:101EF000C0011124840F911D47FD9A9518161906EB
:101F00000CF061C0A62E962EC22ED12C8A2D811BDC
:101F1000992787FD90952C8130E0821793070CF06C
:101F200051C0215031098217930779F0C29ED00128
:101F3000C39EB00DD29EB00D1124A80FB91FEE8D17
:101F4000FF8DEA0FFB1F749001C0712C8F2C6F2C3A
:101F5000282D2F19332727FD30958D8190E02817E4
:101F600039076CF570FE11C081E0B81206C0482D2B
:101F70006A2DCE010E9463091EC00B2D2B2D462D0C
:101F8000692DCE010E94800A16C089A198A18917E7
:101F900091F088A381E0B81206C0482D6A2DCE01C9
:101FA0000E94630907C00B2D2B2D462D692DCE01F4
:101FB0000E94800AE8A276946B0C8394C9CF9B0C94
:101FC000A394A4CFE8A2DF91CF911F910F91FF902E
:101FD000EF90DF90CF90BF90AF909F908F907F90C9
:101FE0006F9008950F93CF93DF93EC01262F6A3003
:101FF00039F42D8198858A85299F800D112422C06E
:102000006D3011F108854A8569850E944C0F48851D
:102010005C812985549F200D112429878F81882375
:1020200099F0332727FD309584E590E0459F80198E
:1020300091091124821793073CF49D818A85499F59
:10204000800D11248A87198681E090E0DF91CF917D
:102050000F9108958F929F92AF92BF92CF92DF928D
:10206000EF92FF92CF93DF93EC01CA8CDB8CC0948C
:10207000D094E12CF12C0E9416194B015C010E94B6
:102080001619A501940120953095409550956095BD
:102090007095809590950E94051E9B01AC01C7012B
:1020A000B6010E94051E6B017C0189809A80A12CDB
:1020B000B12C0E941619680D791D8A1D9B1D6C0D8F
:1020C0007D1D8E1D9F1DDF91CF91FF90EF90DF90C2
:1020D000CF90BF90AF909F908F900C94581C8F9290
:1020E0009F92AF92BF92CF92DF92EF92FF920F93A7
:1020F0001F93CF93DF93EC015C0186E8A80EB11C1F
:10210000D5018C91882309F44DC08C3018F41CE063
:10211000181B01C010E0FE01EA5AFF4F81E08083E6
:102120006E01BEE4CB0ED11C60E0C6010E94320AF3
:102130004E01E3E58E0E911CD4018C9103E0080F53
:102140009DE2F92E4F2D481B410F23E0E22E24E59E
:1021500060E0C6010E94EF0B61E0C6010E94320AF6
:10216000F401808103E0080F4F2D481B410F24E547
:1021700060E0C6010E948F0BFE01E95AFF4F84E028
:1021800080833196D4018C91181B115D1083CC573C
:10219000DF4F68817981C6010E94271BF50180818C
:1021A00081508083DF91CF911F910F91FF90EF902D
:1021B000DF90CF90BF90AF909F908F900895DF9267
:1021C000EF92FF920F931F93CF93DF93EC018C8DCF
:1021D0009D8D892B09F49CC08E01025B1F4F40E04E
:1021E00061E0C8010E94360A85E5FE01EE5AFF4F04
:1021F0009081891B3596808331961082698D61307C
:1022000009F462C028F0888D653008F074C06FC092
:10221000CE0185960E94F31681E0FE01EA5AFF4F37
:10222000808369E373E0C8010E94740E1D8E1C8ECA
:10223000FE01EC5AFF4F108238EAD32E7E018AE06D
:10224000E80EF11CCE010E9490118823D9F36AEAAE
:1022500077E0C8010E94271B6A8D7B8D4AE050E021
:10226000C8010E94521C65E977E0C8010E94271B43
:102270006D2D62956F7070E04AE050E0C8010E94D9
:102280001E1C6AE877E0C8010E94271B64E0C701B2
:102290000E943D0981113CC0DA94A1F660E0CE01B4
:1022A0000E944F0883B7817F846083BF83B78160BA
:1022B00083BF83B7816083BF889583B78E7F83BFD9
:1022C00083B78E7F83BFBECFCF58DF4F4881598100
:1022D0006A817B814F7055276627772748305105E3
:1022E0006105710510F467E009C068E707C088233D
:1022F00079F06B5F03C0882359F06FE2C801DF916A
:10230000CF911F910F91FF90EF90DF900C944C1B99
:10231000DF91CF911F910F91FF90EF90DF90089583
:102320008F929F92AF92BF92EF92FF920F931F9363
:10233000CF93DF93EC017C0100E8E00EF11CF70184
:1023400080809180A280B3800E940A199501840147
:10235000061B170B280B390BB901A8015E011FE7FB
:10236000A10EB11CF501808190E0A0E0B0E08E01EB
:1023700005581F4F84179507A607B70750F4F801B3
:1023800080819181A281B381892B8A2B8B2B09F0CB
:1023900040C0F80180819181A281B381892B8A2B71
:1023A0008B2BA9F57E01F5E2EF0EF11CC7010E940F
:1023B000F016C7010E945D17C7010E942118CE01C7
:1023C0000E946F10CE010E94DF107E012EE4E20E0B
:1023D000F11CC7010E94EA09FE01EC5AFF4F8081FF
:1023E000811103C0C7010E94D9090E941619F80182
:1023F0006083718382839383FE01EB58FF4FC9583A
:10240000DF4F28813981621B730B7183608380E009
:1024100036C00E940A19F5012081620F711D811DCD
:10242000911DF7016083718382839383FE01EF58CE
:10243000FF4F40815181628173814F5F5F4F6F4FCA
:102440007F4F4083518362837383F801108211822E
:10245000128213820E941619FE01E958FF4F608311
:10246000718382839383CE010E945308CE010A9622
:102470000E940609CE0148960E94BC0881E0DF91C7
:10248000CF911F910F91FF90EF90BF90AF909F90D1
:102490008F9008952F923F924F925F926F927F920A
:1024A0008F929F92AF92BF92CF92DF92EF92FF9264
:1024B0000F931F93CF93DF93CDB7DEB766970FB619
:1024C000F894DEBF0FBECDBF9E8B8D8B6F87788B50
:1024D000942EFC01EC5AFF4F108288248A941C82AF
:1024E000A12C30E33B83B12C6C018AE0C80ED11CD7
:1024F0006D887E8893E5690E711CED89FE89B5961D
:102500002F01242F30E03A8729878D899E89895AA7
:102510009F4F9E838D83ED89FE89E85AFF4FF88790
:10252000EF832D893E892A5A3F4F3C872B878D891F
:102530009E898B5A9F4F9E878D87ED89FE89E25B2E
:10254000FF4F1F018D899E890E9490118823D1F32E
:1025500064E0C6010E943D093B81032F112707FD5E
:10256000109581113EC065E0C6010E943D098111B0
:1025700038C066E0C6010E943D09811132C03C812D
:10258000311142C044E063E0C6010E94460988233D
:1025900021F0B394C2010E949D1844E061E0C6019D
:1025A0000E944609882321F0BA94C2010E949D1816
:1025B0008B2D992787FD9095E985FA858E179F07C2
:1025C00031F0B7FE05C0BB24BA94B90C01C0B12CE0
:1025D000F301808174E0A72EA80E8B9DA018112412
:1025E0001DC0F301A08064E0C6010E943D0988235C
:1025F00009F484C0C2010E9471188B2CA194A99C7B
:10260000A02C1124AA94AA94C8018A199109A7FCA4
:10261000939502970CF476C031E03C830A0D111DAE
:10262000A7FC1A9517FF02C00F5F1F4FC8019595B1
:1026300087959A83898329812B83ED81FE8110827E
:10264000EF81F885808381E0EB85FC858083ED85D3
:10265000FE8510820F851889E12CF12C4B2D552712
:1026600047FD509533E0E91420F5E416F50669F4CA
:10267000ED81FE813083F3018081F22FB89EF00D51
:1026800011248F2FEF81F8858083F8016591749173
:10269000C101298B3C8B4A8B5B8B0E94571BFFEF40
:1026A000EF1AFF0A0E5F1F4F5B894A893C8929890F
:1026B000DACF60E0C1010E94320AF30180814981D2
:1026C000B89E400D1124415024E560E0C1010E94F4
:1026D0005D0A61E0C1010E94320AF301808103E0DA
:1026E000080F4981B89E400D1124425053E0E52E59
:1026F00024E560E0C1010E948F0B24CFC2010E943B
:1027000087187CCF882D66960FB6F894DEBF0FBE73
:10271000CDBFDF91CF911F910F91FF90EF90DF9090
:10272000CF90BF90AF909F908F907F906F905F9071
:102730004F903F902F9008950F931F93CF93DF9367
:102740008C01EC01C25BDF4FCE010E94D90962E629
:1027500077E0CE010E94271BCE010E94EA098CB5CA
:1027600083608CBD8DB58E7F8DBD8FE391E0EEEFE4
:10277000FFE30995F801EC5AFF4F10826DE377E013
:10278000CE010E94571BCE010E94EA09065F1F4F2F
:10279000C8010E94060964E0C8010E943D09811138
:1027A00007C062E370E080E090E00E943919F0CF4A
:1027B000DF91CF911F910F910895E0E8F7E7259100
:1027C000349181E02130304C09F080E00895CF93BE
:1027D000DF93EC010E94DD139E01275A3F4FDE017B
:1027E000A059BF4F882309F43CC0E6E9F7E784917C
:1027F000F9018083E7E9F7E7E491EC83E8E9F7E79B
:10280000E491ED83E9E9F7E7859194919F838E83C5
:10281000EBE9F7E78591949199878887EDE9F7E7E8
:10282000E491EBA7EEE9F7E7E491EAA7EFE9F7E730
:10283000E491EC93E0EAF7E7859194919D8F8C8F7A
:10284000E2EAF7E7859194919F8F8E8FE4EAF7E7AC
:102850008591949199A388A3E6EAF7E785919491ED
:1028600020C08CE3F90180831C822FEF2D8380E24E
:1028700093E09F838E8384ED93E09987888781E03E
:102880008BA78AA72C938CEA9DE09D8F8C8F8EED71
:102890009DE09F8F8E8F84E79EE099A388A38CE3B1
:1028A0009FE09BA38AA3DF91CF910895CF92DF92FF
:1028B000EF920F93CF93DF93EC01FC01E158FF4FB0
:1028C00082E38083349741E050E060E070E0408331
:1028D0005183628373833B978FEF8083CE010E9485
:1028E000E713CE010E944B086FEFCE010E944F0804
:1028F0006E018AE0C80ED11CC6010E94F608C6010E
:102900000E940609CE0148960E94B2083EE0E32EDE
:102910000FE020E14BE06DE0CE01825B9F4F0E9413
:10292000880EA596CE010E94061665E0C6010E949B
:102930003D09882351F060E0CE01DF91CF910F91E6
:10294000EF90DF90CF900C94B31840E068EB77E005
:10295000CE01DF91CF910F91EF90DF90CF900C944B
:10296000A5168F929F92AF92BF92CF92DF92EF9275
:10297000FF920F931F93CF93DF93CDB7DEB7260F50
:10298000371FE216F30684F4EA0CFB1C6E157F0574
:102990005CF4040F151FC016D10634F4C80CD91C02
:1029A00081E04C155D050CF080E0DF91CF911F9127
:1029B0000F91FF90EF90DF90CF90BF90AF909F90DE
:1029C0008F9008952F923F924F925F926F927F92D5
:1029D0008F929F92AF92BF92CF92DF92EF92FF922F
:1029E0000F931F93CF93DF93CDB7DEB760970FB6EA
:1029F000F894DEBF0FBECDBF9E878D87788B6F8723
:102A00003A013E832D8318012701D886CF82F90130
:102A10008491282F30E03A832983ED81FE8131961D
:102A2000E4916E2F70E07C836B83EF81F885849155
:102A3000282F30E03A872987EF81F8853196E49195
:102A40006E2F70E07C876B874B01A984BA84670185
:102A500078010B811C8129813A816F8578898D8568
:102A60009E850E94B114811102C080E079C08F85DB
:102A700098898215930534F4C101AF85B8898A1B02
:102A80009B0B02C080E090E06414750424F4920172
:102A90002619370902C020E030E049855A85420DE9
:102AA000531D69817A81EF85F8896E0F7F1F641746
:102AB00075072CF0BA016E1B7F0B7A8369834B85F7
:102AC0005C85440D551D6B817C81660D771D6417F7
:102AD00075072CF0DA01A619B709BC83AB83B22EB7
:102AE00000E010E0782EED84FE84BEE4EB0EF11CD5
:102AF0006418620ECF84C218C80E202E3B2C300EF4
:102B0000832D90E02B813C81821793070CF0ADCF91
:102B1000412C512C260CD42C472D440D842F90E0B1
:102B2000E981FA818E179F07A4F4232D6D817E81A0
:102B3000C7010E945A0D882379F04C2D4D0D222D8E
:102B40006F817885C7010E945A0D882329F081E0A2
:102B500007C00F5F1F4FD1CF3FEF431A530ADBCFA0
:102B600060960FB6F894DEBF0FBECDBFDF91CF9158
:102B70001F910F91FF90EF90DF90CF90BF90AF909B
:102B80009F908F907F906F905F904F903F902F908D
:102B90000895CF93DF9350E0FA01EE0FFF1FE80F87
:102BA000F91F37852089E32FF22FE60FF11DE60F7D
:102BB000F11D25913491FA01EE0FFF1FE80FF91F67
:102BC00030A3278FF90165917491FC01D481D69FC0
:102BD000C02D1124E40FF51FC1A3F901A591B491F3
:102BE0006B2F70E0EC2FF0E0DC01A40FB51F6E1727
:102BF0007F0720F4F90125913491C32FCD9FC02D7B
:102C000011249296CC93DF91CF91089521E0FC019D
:102C1000248324E020A727E138E0308B278740E099
:102C200060E00E94C91561E070E083E00E94B9197C
:102C3000E1EBF0E08081887F81608083F8941092DE
:102C40008000E1E8F0E0108210928500109284008C
:102C500088E191E09093890080938800808188606A
:102C60008083808181608083EFE6F0E080818260F4
:102C70008083789408950F93FC01862F642F0111AF
:102C800029C08230D1F048F4882391F0813011F5C9
:102C900040E0CF010F910C94C9158330A9F0843026
:102CA000C9F48481489F602D1124658F268F12C03E
:102CB0004B3008F06AE0668B0DC08481489F602D20
:102CC0001124618F228F06C08481489F602D1124BA
:102CD000638F248F0F910895FC0121110EC0648B26
:102CE0008481489F402D1124458B15A214A213A264
:102CF00081E0878B8093F003108E08958091F0031C
:102D0000882319F08091ED0301C080E08093B40026
:102D10000895FC0161110DC0178A158A14A213A22F
:102D2000108E1092ED031092EE031092F0030C94AB
:102D30007E160895CF93DF93EC01611103C00E94CA
:102D400089161982DF91CF9108950F931F93CF9326
:102D5000DF93EC018B0141110EC060E00E949A16D6
:102D60001E870D871B8A1A8A81E0898389E08E8BF2
:102D7000198E1B8E1D8EDF91CF911F910F9108959B
:102D8000CF93DF93EC01611128C08881882329F15A
:102D90008981811122C089852F819885E22FF92FA1
:102DA000E80FF11DE80FF11D859194918F3F2FEFF2
:102DB000920711F4188211C09C879927880F991FD8
:102DC000EA85FB85E80FF91F6591749140E0CE011B
:102DD0000E94A51689858F5F8987DF91CF9108951D
:102DE00060E00C94C01660E00C949A160F93CF9399
:102DF000DF93EC0161115DC08981882309F459C01A
:102E00008D89811156C02D853E858A899B89880FC1
:102E1000991F820F931FFC01859194910097D1F423
:102E20008989882321F01B8A1A8AF90111C0198225
:102E3000888160E0882331F0CE010E94C0168A8923
:102E40009B8925C0CE01DF91CF910F910C948916FB
:102E500085919491BC01769567957695679580FFED
:102E60001DC0AC01A6E056954795AA95E1F7292F1C
:102E700026952695269520514F716F7000E0CE0162
:102E80000E943B168A899B8901969B8B8A8B880FAF
:102E9000991FED85FE85E80FF91FDACF492F6F7373
:102EA00020E0CE010E946C168A899B8901969B8B3B
:102EB0008A8BDF91CF910F91089560E00C94F61604
:102EC000CF93DF93EC016111B9C08F89882309F496
:102ED000B5C08D89811105C0CE01DF91CF910C94D1
:102EE000891681508D8B8DA1811138C08BA19CA139
:102EF00001969C01220F331FEF8DF8A1E20FF31F03
:102F000025913491422F47704EA3A90163E0569555
:102F100047956A95E1F7BA0176956795232F26952F
:102F200026952FA36F732C81629F602D11246DA3B2
:102F300041704093EC039CA38BA329A130E082173E
:102F4000930760F08AA1882329F0281B31093CA34C
:102F50002BA304C060E0CE010E9489168DA1815090
:102F60008DA3288D2F5F288F4C893FA1340F8C852E
:102F7000380F3A836B8D662361F070E0822F9927BA
:102F800087FD90950E94351E8C8D869F300D1124F3
:102F90003A838A8190E0CB966BE370E00E94351E05
:102FA0008A833E893B83698D662371F0772767FDAD
:102FB0007095822F992787FD90950E94351E8A8DE6
:102FC000869F300D11243B836D8D662391F0822FF7
:102FD000992787FD909570E00E94351ECB0162E035
:102FE00070E00E94351E2E8D9B81289F900D11242C
:102FF0009B838B814F3339F08A300CF089E087FD59
:1030000080E08B8301C01B82F894EA81F0E0EA53F0
:10301000F84FE491E093EF0398A58D81989F802D60
:1030200011249B81899F802D11249EA1899F802D31
:1030300011248093EE038093ED037894DF91CF9178
:10304000089560E00C9460176091EE03662321F10F
:103050008091F1038F5F8093F1039091EF038917C3
:10306000D8F08091F00391E089278093F0031092CB
:10307000F1038091EC03882369F09091140183E4BB
:10308000989F802D1124895B809314010E94151E46
:103090009093ED030C947E1608951F920F920FB635
:1030A0000F9211242F933F934F935F936F937F93CE
:1030B0008F939F93AF93BF93EF93FF930E94241836
:1030C000FF91EF91BF91AF919F918F917F916F9100
:1030D0005F914F913F912F910F900FBE0F901F90D6
:1030E0001895CF93DF93EC0160E00E949A168FE071
:1030F00098E09E878D871B8A1A8A81E0898389E000
:103100008E8B198E1B8E1D8EDF91CF910895CF93DC
:10311000DF93EC0160E00E949A1687E098E09E87BA
:103120008D871B8A1A8A81E0898389E08E8B198EAC
:103130001B8E1D8EDF91CF910895CF93DF93EC010D
:1031400060E00E949A1681E098E09E878D871B8A36
:103150001A8A81E0898389E08E8B198E1B8E1D8EE1
:10316000DF91CF910895FC01862F992787FD9095D7
:10317000668170E06F5F7F4F0E94351E85830895E2
:103180001F920F920FB60F9211242F933F938F939C
:103190009F93AF93BF938091F3039091F403A09119
:1031A000F503B091F6033091F20323E0230F2D379E
:1031B00020F40196A11DB11D05C026E8230F02963B
:1031C000A11DB11D2093F2038093F3039093F403A8
:1031D000A093F503B093F6038091F7039091F80361
:1031E000A091F903B091FA030196A11DB11D80933E
:1031F000F7039093F803A093F903B093FA03BF91F8
:10320000AF919F918F913F912F910F900FBE0F9093
:103210001F9018952FB7F8946091F3037091F40301
:103220008091F5039091F6032FBF08953FB7F8946E
:103230008091F7039091F803A091F903B091FA03FC
:1032400026B5A89B05C02F3F19F00196A11DB11D01
:103250003FBF6627782F892F9A2F620F711D811D1E
:10326000911D42E0660F771F881F991F4A95D1F77D
:103270000895CF92DF92EF92FF92CF93DF936B018D
:103280007C010E941619EB01C114D104E104F10480
:1032900089F00E94E71C0E9416196C1B7D0B683E8A
:1032A000734090F381E0C81AD108E108F108C851D1
:1032B000DC4FEACFDF91CF91FF90EF90DF90CF907E
:1032C0000895789484B5826084BD84B5816084BD9E
:1032D00085B5826085BD85B5816085BDEEE6F0E08F
:1032E000808181608083E1E8F0E0108280818260EB
:1032F0008083808181608083E0E8F0E0808181606C
:103300008083E1EBF0E0808184608083E0EBF0E09B
:10331000808181608083EAE7F0E08081846080833F
:1033200080818260808380818160808380818068E9
:1033300080831092C10008958E3008F08E508770FF
:103340002091150190E4299F90011124822B8093F4
:103350007C0080917A00806480937A0080917A006A
:1033600086FDFCCF809178002091790090E0922B2F
:1033700008951F93CF93DF93182FEB0161E00E9414
:10338000411A209711F460E004C0CF3FD10539F411
:1033900061E0812FDF91CF911F910C947A1AE12F78
:1033A000F0E0ED5DF74FE491E330F9F048F4E130FF
:1033B000B9F0E230A1F584B5806284BDC8BD34C0E7
:1033C000E730E9F0E83019F1E43049F58091800008
:1033D000806280938000D0938B00C0938A0024C0C9
:1033E00084B5806884BDC7BD1FC08091800080689F
:1033F00080938000D0938900C093880015C080918D
:10340000B00080688093B000C093B3000DC080917D
:10341000B00080628093B000C093B40005C0C03893
:10342000D1050CF0B5CFAFCFDF91CF911F910895AB
:10343000833081F028F4813099F08230A1F0089532
:103440008730A9F08830B9F08430D1F480918000C1
:103450008F7D03C0809180008F77809380000895D6
:1034600084B58F7702C084B58F7D84BD0895809127
:10347000B0008F7703C08091B0008F7D8093B00043
:103480000895CF93DF9390E0FC01E95CF74F24911E
:10349000FC01E55BF74F8491882349F190E0880FA8
:1034A000991FFC01ED58F74FA591B4918759974F9B
:1034B000FC01C591D4919FB7611108C0F8948C911B
:1034C000209582238C93888182230AC0623051F434
:1034D000F8948C91322F309583238C938881822BA2
:1034E000888304C0F8948C91822B8C939FBFDF91CA
:1034F000CF9108950F931F93CF93DF931F92CDB772
:10350000DEB7282F30E0F901ED5DF74F8491F90126
:10351000E95CF74F1491F901E55BF74F0491002343
:10352000C9F0882321F069830E94181A6981E02F6D
:10353000F0E0EE0FFF1FE759F74FA591B4919FB749
:10354000F8948C91611103C01095812301C0812BE7
:103550008C939FBF0F90DF91CF911F910F91089592
:10356000CF93DF93282F30E0F901ED5DF74F849181
:10357000F901E95CF74FD491F901E55BF74FC4918C
:10358000CC2391F081110E94181AEC2FF0E0EE0F7D
:10359000FF1FE15AF74FA591B4912C912D2381E0A3
:1035A00090E021F480E002C080E090E0DF91CF91D4
:1035B000089508950E9461190E94D91A0E94B304C7
:1035C000C0E0D0E00E942B072097E1F30E940000AA
:1035D000F9CFCF92DF92EF92FF920F931F93CF9389
:1035E000DF936C017A01EB01E60EF71E00E010E0BC
:1035F000CE15DF0561F06991D601ED91FC91019046
:10360000F081E02DC6010995080F191FF1CFC801FF
:10361000DF91CF911F910F91FF90EF90DF90CF90AE
:1036200008956115710581F0DB010D900020E9F727
:10363000AD0141505109461B570BDC01ED91FC9146
:103640000280F381E02D099480E090E00895EF92EC
:10365000FF920F931F93CF93DF938C01FB01C0E088
:10366000D0E064917F018FEFE81AF80A662361F0D9
:10367000D801ED91FC910190F081E02DC8010995F0
:10368000C80FD91FF701EDCFCE01DF91CF911F9168
:103690000F91FF90EF900895DC01ED91FC91019066
:1036A000F081E02D099466E471E00C94111B0F93F6
:1036B0001F93CF93DF93EC010E94271B8C01CE0157
:1036C0000E94531B800F911FDF91CF911F910F918B
:1036D00008950F931F93CF93DF93EC010E94111B6A
:1036E0008C01CE010E94531B800F911FDF91CF915F
:1036F0001F910F9108958F929F92AF92BF92CF9298
:10370000DF92EF92FF920F931F93CF93DF93CDB78A
:10371000DEB7A1970FB6F894DEBF0FBECDBF7C0118
:10372000C42EE52FCB01D22E19A221E02D1510F0C9
:103730002AE0D22E8E010F5D1F4F8D2C912CA12CD3
:10374000B12C6C2D7E2FA50194010E94491E8C2D59
:10375000D29E80191124015011098A3014F4805D21
:1037600001C0895CF80180832115310541055105AF
:1037700021F0C22EE32FCA01E4CFB801C7010E9495
:10378000111BA1960FB6F894DEBF0FBECDBFDF911F
:10379000CF911F910F91FF90EF90DF90CF90BF904E
:1037A000AF909F908F900895CF92DF92EF92FF920B
:1037B0000F931F93CF93DF93EC016A017B012115D7
:1037C000310579F4E881F9810190F081E02D642FD1
:1037D000DF91CF911F910F91FF90EF90DF90CF90ED
:1037E00009942A303105E9F477FF1AC06DE20E948E
:1037F0004C1B8C0144275527BA014C195D096E09F1
:103800007F092AE0CE010E947B1B800F911FDF9170
:10381000CF911F910F91FF90EF90DF90CF9008957F
:103820002AE0B701A601CE01DF91CF911F910F9140
:10383000FF90EF90DF90CF900C947B1B9A01AB012F
:10384000662757FD6095762F0C94D41B0F931F931A
:10385000CF93DF93EC019A01AB01662757FD60958A
:10386000762F0E94D41B8C01CE010E94531B800F27
:10387000911FDF91CF911F910F910895211531056F
:1038800041F4DC01ED91FC910190F081E02D642F79
:1038900009940C947B1B9A01462F50E060E070E085
:1038A0000C943E1C9A01AB0160E070E00C943E1C4D
:1038B000611571058105910511F00C94FE1E0895A6
:1038C000CF93DF9300D000D0CDB7DEB79B01AC0122
:1038D000611571058105910569F069833A834B8310
:1038E0005C830E94F91E29813A814B815C810E9490
:1038F0006B1E03C060E070E0CB010F900F900F9043
:103900000F90DF91CF910895CF92DF92EF92FF92C7
:103910006B017C01621773078407950764F4CA0181
:10392000B9016C197D098E099F090E94601C6C0DFC
:103930007D1D8E1D9F1DFF90EF90DF90CF9008950D
:103940004F925F926F927F92AF92BF92CF92DF922F
:10395000EF92FF920F931F93CF93DF93CDB7DEB714
:1039600029013A01621B730B840B950B29893A8953
:103970004B895C892A193B094C095D09298B3A8BD3
:103980004B8B5C8B9B01AC0169897A898B899C8903
:103990000E94051EE418F50806091709A8019701F9
:1039A0000E946B1E2A0D3B1D4C1D5D1DCA01B901F5
:1039B000DF91CF911F910F91FF90EF90DF90CF900B
:1039C000BF90AF907F906F905F904F900895089553
:1039D00098D088F09F5790F0B92F9927B751A0F051
:1039E000D1F0660F771F881F991F1AF0BA95C9F793
:1039F00012C0B13081F09FD0B1E008959CC0672F14
:103A0000782F8827B85F39F0B93FCCF38695779542
:103A10006795B395D9F73EF490958095709561952B
:103A20007F4F8F4F9F4F0895E89409C097FB3EF456
:103A300090958095709561957F4F8F4F9F4F9923FB
:103A4000A9F0F92F96E9BB279395F6958795779579
:103A50006795B795F111F8CFFAF4BB0F11F460FF39
:103A60001BC06F5F7F4F8F4F9F4F16C0882311F091
:103A700096E911C0772321F09EE8872F762F05C0A5
:103A8000662371F096E8862F70E060E02AF09A9540
:103A9000660F771F881FDAF7880F9695879597F935
:103AA000089597F99F6780E870E060E008959FEFC0
:103AB00080EC089500240A941616170618060906C5
:103AC000089500240A941216130614060506089594
:103AD000092E0394000C11F4882352F0BB0F40F41C
:103AE000BF2B11F460FF04C06F5F7F4F8F4F9F4F5C
:103AF000089557FD9058440F551F59F05F3F71F0DE
:103B00004795880F97FB991F61F09F3F79F0879544
:103B10000895121613061406551FF2CF4695F1DFCD
:103B200008C0161617061806991FF1CF869571055D
:103B3000610508940895E894BB2766277727CB0191
:103B400097F908950BD0C4CFB5DF28F0BADF18F08D
:103B5000952309F0A6CFABCF1124EECFCADFA0F397
:103B6000959FD1F3950F50E0551F629FF001729F12
:103B7000BB27F00DB11D639FAA27F00DB11DAA1F31
:103B8000649F6627B00DA11D661F829F2227B00D7E
:103B9000A11D621F739FB00DA11D621F839FA00D09
:103BA000611D221F749F3327A00D611D231F849F59
:103BB000600D211D822F762F6A2F11249F575040B0
:103BC0008AF0E1F088234AF0EE0FFF1FBB1F661F4B
:103BD000771F881F91505040A9F79E3F510570F004
:103BE00060CFAACF5F3FECF3983EDCF386957795E4
:103BF0006795B795F795E7959F5FC1F7FE2B880FFF
:103C0000911D9695879597F90895DB018F939F9362
:103C10000E948A1EBF91AF91A29F800D911DA39F0C
:103C2000900DB29F900D11240895991B79E004C066
:103C3000991F961708F0961B881F7A95C9F78095EB
:103C40000895AA1BBB1B51E107C0AA1FBB1FA617E3
:103C5000B70710F0A61BB70B881F991F5A95A9F735
:103C600080959095BC01CD01089597FB072E16F421
:103C7000009407D077FD09D00E94211E07FC05D0D3
:103C80003EF4909581959F4F0895709561957F4F73
:103C90000895A1E21A2EAA1BBB1BFD010DC0AA1F8D
:103CA000BB1FEE1FFF1FA217B307E407F50720F0A5
:103CB000A21BB30BE40BF50B661F771F881F991F20
:103CC0001A9469F760957095809590959B01AC0169
:103CD000BD01CF010895052E97FB1EF400940E94AC
:103CE000821E57FD07D00E94491E07FC03D04EF4E8
:103CF0000C94821E50954095309521953F4F4F4F23
:103D00005F4F089590958095709561957F4F8F4F87
:103D10009F4F08950E949B1EA59F900DB49F900DEC
:103D2000A49F800D911D11240895EE0FFF1F059093
:103D3000F491E02D0994A29FB001B39FC001A39F0D
:103D4000700D811D1124911DB29F700D811D1124D4
:103D5000911D08958F929F92AF92BF92CF92DF9262
:103D6000EF92FF92CF93DF93EC01688179818A8192
:103D70009B81611571058105910521F464E279ED5E
:103D80008BE597E02DE133EF41E050E00E946B1EA0
:103D900049015A019B01AC01A7EAB1E40E948A1EC5
:103DA0006B017C01ACEEB4EFA50194010E940A1FE7
:103DB000C60ED71EE81EF91EF7FE06C081E0C81A1F
:103DC000D108E10880E8F80AC882D982EA82FB8239
:103DD000C701B6019F77DF91CF91FF90EF90DF9001
:103DE000CF90BF90AF909F908F9008950E94AA1E91
:103DF000089586E091E00E94AA1E0895609306014E
:103E00007093070180930801909309010895B7FF0B
:103E10000C948A1E0E948A1E821B930B0895F894AC
:023E2000FFCFD2
:103E22000000FB038000010000000101010002000C
:103E3200240014000101596F752064696564210032
:103E420054696D653A00206672616D65732E00508B
:103E52007265737320160000000000F20FE91A4C1D
:103E62004F41444552000D0A006E616E00696E6654
:063E7200006F76660000FF
:00000001FF
