:100000000C9444040C946C040C946C040C946C04D8
:100010000C946C040C946C040C946C040C946C04A0
:100020000C946C040C946C040C946C040C946B1E77
:100030000C946C040C946C040C946C040C946C0480
:100040000C94F31E0C946C040C946C040C946C04CF
:100050000C946C040C946C040C946C040C946C0460
:100060000C946C040C946C04202020204C6F616470
:10007000696E672E2E2E2E009C0095008C0080004D
:100080004368616E67652047616D6500436F6E74FC
:10009000726F6C730053746174757300537572766C
:1000A0006976616C000820183C7E7E7E7E7E7E7EB6
:1000B0007E7E7E7E7E7E7E7E7E7E7E7E7E7E7E7E60
:1000C0007E7E7E7E7E3C1808063C7E7E7E7E3C08E0
:1000D00004FFFFFFFF583000000000000000000098
:1000E0000000000000000000000000000000000010
:1000F0000000000000000000000000000000000000
:1001000000000000000000000000000000000000EF
:1001100000000000000000000000000000000000DF
:1001200000000000000000000000000000000000CF
:1001300000000000000000000000000000000000BF
:1001400000000000000000000000000000000000AF
:10015000000000000000000000000000000000009F
:10016000000000000000000000000000000000008F
:10017000000000000000000000000000000000007F
:10018000000000000000000000000000000000006F
:10019000000000000000000000000000000000005F
:1001A000000000000000000000000000000000004F
:1001B00000000072221C88088B80E78439108B6550
:1001C000228814CA41144A451082A8A08822AA2174
:1001D0000451411072A89CF8229A21079139F00A23
:1001E0002F82883E8A21051F05108A28A288228A2C
:1001F000411491451072289C88228B80E45139105B
:1002000000000000000000000000000000000000EE
:1002100000000000000000000000000000000000DE
:1002200000000000000000000000000000000000CE
:1002300000000000000000000000000000000000BE
:10024000000000000000000000000000000003CFDC
:100250003E71C00511400000000228A08A20052937
:10026000400000000228A0820000440000000003BB
:10027000CF3C71C0004400000000020A20082000AA
:100280007C000000000209208A20004400000000D9
:100290000208BE71C0004400000000000000000021
:1002A0000000007FF000000000000000000080005F
:1002B00000000000000000000135500000000000B8
:1002C000000000024650000000000000000004246E
:1002D00020000000000000000008162000000000C0
:1002E000000000001065200808FCCEC7FFFFC7868D
:1002F000FC0808183C246642C3817E1804000000F4
:10030000FFFFFFFFFFFFFFFFFF580400000000009A
:10031000000000000000FFFFFFFFFFFFFFFFFFFFE7
:10032000FFFFFFFFFFFFFFFFFFFFFFFFFFFFFFFFDD
:10033000FFFFFFFFFFFFFF08083C6A6A6A3C2424B6
:100340000003053F213F1208120A100A0E1C0E0C72
:100350001E0C141A14161F161E131E1E1B1E1E1F03
:100360001E3F213F3A2F3A173D173F213F181F02EA
:10037000040A041F0E04040E1F0A1F0A0E0E1F0497
:10038000110E2E252E2F2A2E262929021F02081F84
:1003900008150E04040E150E15151B151B04060476
:1003A000040C040000000017000300031F0A1F16BE
:1003B000371A1904130A153A000300000E11110E22
:1003C000000A040A040E04003000040404001000B3
:1003D0001804031F111F121F101D151711151F07D9
:1003E000041F17151D1F151D01011F1F151F1715B0
:1003F0001F000A00003200040A110A0A0A110A0446
:100400000115020E11171E051E1F150A0E110A1FD7
:10041000110E1F15111F05010E111D1F041F111FA5
:100420001108100F1F041B1F10101F061F1E040FA2
:100430000E110E1F09060E112E1F051A12150901A5
:100440001F011F101F0F180F1F0C1F1B041B031C65
:1004500003191513001F11030418111F00020102D4
:100460002020200001020C121E1F120C0C12120C74
:10047000121F0C1A14041E05242A1E1F021C141D10
:100480001020201D1F0814111F101E041E1E021C08
:100490000C120C3E0A040C123E1E040214160A0230
:1004A0000F120E101E0E100E1E081E120C12262801
:1004B0001E322A26041E21001F00211E04010201F3
:1004C0003F213F05077F4141417F3E5B4F5B3E3E01
:1004D0006B4F6B3E183C783C18183C7E3C181C5700
:1004E0007D571C1C5E7F5E1C007E43437E007E7336
:1004F000737E007E7F7F7E7F4141417F30483A0698
:100500000E06297929067F4141417F60703F020430
:100510002A1C361C2A7F3E1C080000081C3E7F1443
:10052000227F22143C3C3C7EFF18423C817E3E638D
:1005300075633E3E616B633E3E636B6B3E04027FC0
:10054000020410207F201008082A1C08081C2A0812
:1005500008143E554122637569756310181C181004
:10056000040C1C0C04000000000000005F000000F0
:1005700007000700147F147F14042A7F2A10231316
:1005800008646236495620500008070300001C2208
:1005900041000041221C002A1C3E1C2A08083E087B
:1005A0000800E0600000080808080800606000001B
:1005B00060100804033E5149453E00427F400062FE
:1005C000514949462141494D331814127F1027459E
:1005D0004545393C4A4949304121110907364949C5
:1005E0004936064949291E000024000000806400A5
:1005F0000008142241001414141414004122140899
:1006000002015909063E415D594E7C1211127C7F50
:10061000494949363E414141227F4141221C7F499F
:100620004949417F090909013E414151327F08088A
:10063000087F00417F41002041413F017F08142293
:10064000417F404040407F020C027F7F0204087FD0
:100650003E4141413E7F090909063E416141BE7F5D
:1006600009192946264949493201017F01013F40C4
:1006700040403F1F2040201F3F4038403F63140848
:10068000146303047804036151494543007F4141E9
:100690000003040810600041417F000402010204CD
:1006A0008080808080000307080020545478407FB9
:1006B000284444383844444428384444287F385433
:1006C000545418087E09090218A4A49C787F0804D1
:1006D000047800447D4000006080847D7F101028F5
:1006E0004400417F40007C047804787C080404784E
:1006F0003844444438FC1824241818242418FC7C5A
:10070000080404080854545420043F4444203C4046
:1007100040207C1C2040201C3C4020403C442810B1
:1007200028444C9090907C4464544C4400083641DA
:100730000000007F00000041360800180408100C7B
:100740007F4141417F0A4E6F2053442063617264B0
:10075000206F720A6E6F204C4F414445522E48451F
:10076000580A0A153A45786974001D20466C617371
:1007700068696E670A20206C6F616465722E2E2E88
:100780000A0A444F4E2754205455524E204F464695
:1007900021000A0A153A49676E6F7265006D560AA4
:1007A0000A504C45415345205455524E204F464621
:1007B00020004C4F572042415454455259212000AB
:1007C0000500893008023802497868140000F6E80C
:1007D000DBCFC3B8AEA49B928A827B746E68625CE6
:1007E00057524E4945413E3A3734312E2C29272560
:1007F00023211F1D1C1A1917161514131211100F7F
:100800000E0D0C0B0A0908070645006801000005DB
:100810000068013801000005003801680100002768
:100820000823080101FF030101F70300000008008D
:1008300002010000030407000000000000000001A6
:100840000204081020408001020408102001020464
:100850000810200404040404040404020202020236
:100860000203030303030300000000230026002902
:100870000000000000250028002B000000000024DC
:100880000027002A0000390B11241FBECFEFD8E04B
:10089000DEBFCDBF11E0A0E0B1E0E2E5FBE402C0C5
:1008A00005900D92AA39B107D9F724E0AAE9B1E081
:1008B00001C01D92A43DB207E1F718E0C8E8D8E0F6
:1008C00004C02297FE010E942F25C638D107C9F720
:1008D0000E940D210C94A7250C94000085EB91E05B
:1008E0000E946C158823D1F325ED30E040E060E0F4
:1008F00085E792E00E94C60F64E08FEB91E00E94D2
:10090000B30C882339F08AED91E00E948F1E10927B
:10091000CD01089561E08FEB91E00E94B30C882334
:1009200049F061E08AED91E00E94E61E8AED91E0D7
:100930000E948F1E63E08FEB91E00E94B30C88232E
:1009400049F08AED91E00E94AC1E60E08AED91E0F2
:100950000E94E61E66E08FEB91E00E94B30C8823B4
:1009600009F4BCCF85EB91E00E947817B7CF85EBF7
:1009700091E00E94321863EC74E085E792E00E94F7
:1009800012120E946E041092CD0110927B026EE151
:1009900085EB91E00C94C8132F923F924F925F9297
:1009A0006F927F928F929F92AF92BF92CF92DF927F
:1009B000EF92FF920F931F93CF93DF93B2E52B2E0D
:1009C000312C44244A94542CC1E0D0E017E1A12EEC
:1009D000B12C07E2802E912C87EF682E77247A9431
:1009E00085EB91E00E946C158823D1F380910A0178
:1009F000882309F42FC38091AC0181112BC360912E
:100A00000D0170910E016F5F7F4F70930E01609327
:100A10000D014AE050E085E792E00E945B224091A0
:100A20001201509113018091B1019091B201480FD0
:100A3000591F5093130140931201E090B30100E05D
:100A400027E333E06091140185E792E00E942511CD
:100A500029E033E04CE260E085E792E00E94C60FB7
:100A60002BEF32E04CE164E185E792E00E94C60F93
:100A700042E060E08FEB91E00E94BC0C882341F0E3
:100A80008091140190911501181619060CF4AFC34A
:100A900042E062E08FEB91E00E94BC0C882341F0C1
:100AA00080911401909115018C3491050CF4A9C327
:100AB00042E060E08FEB91E00E94BC0C882379F06B
:100AC00080911401909115011816190644F441E023
:100AD00065E08FEB91E00E94BC0C81119CC342E069
:100AE00062E08FEB91E00E94BC0C882379F080914A
:100AF0001401909115018C34910544F441E065E0B6
:100B00008FEB91E00E94BC0C8111A2C344E164E030
:100B10008FEB91E00E94BC0C882321F080910F01A3
:100B20008111B3C344E166E08FEB91E00E94BC0CFD
:100B3000882319F081E08093AC012091A6013091C7
:100B4000A70180910D0190910E0128173907E1F45A
:100B500085EB91E00E94E0132CE030E040E050E0B3
:100B600061E070E080E090E00E94B2227093A50105
:100B70006093A4018091A6019091A70188539F4F93
:100B80009093A7018093A6018091A4019091A50163
:100B900001970397D8F421EF32E04091A8016091CA
:100BA000AA0185E792E00E94C60F8091A80190916A
:100BB000A90101969093A9018093A8011092A30125
:100BC0001092A20110929F0110929E018091A401A7
:100BD0009091A5010497039740F527EE32E04091EC
:100BE000A0016091A20185E792E00E94C60F60918A
:100BF000A2017091A301882777FD8095982F0E940C
:100C0000AE2320E030E040EC5FE30E9417230E9417
:100C10007B237093A3016093A2011092A90110920B
:100C2000A80110929F0110929E018091A4019091C1
:100C3000A5010797039790F427EC30E040919C01C1
:100C400060919E0185E792E00E94C60F1092A30179
:100C50001092A2011092A9011092A8018091A40102
:100C60009091A5010A970397E8F425EA30E04AE05D
:100C70006DE485E792E00E94C60F80911401909187
:100C80001501029690931501809314011092A3010F
:100C90001092A2011092A9011092A80110929F0136
:100CA00010929E0140911201509113016091140124
:100CB00070911501F9E0CF2EF3E0DF2EACE2EA2EC1
:100CC000F12C00E010E027E333E085EB91E00E9497
:100CD000D018882329F090921301809212011DC030
:100CE000409112015091130160911401709115010E
:100CF0003BEFC32E32E0D32EECE1EE2EF12C04E1DB
:100D000010E027E333E085EB91E00E94D0188823C0
:100D100061F0B0921301A09212011092B2011092F0
:100D2000B10181E080930F010BC08091B1019091DE
:100D3000B20101969093B2018093B10110920F011C
:100D4000E090A801F090A9010091AA011091AB01D7
:100D5000409112015091130160911401709115019D
:100D600021EFC22E22E0D22E27E333E085EB91E083
:100D70000E94D018882341F08091A4019091A50190
:100D80000197039708F49EC24091A8015091A901D0
:100D90006091AA017091AB0189E0C82E83E0D82E42
:100DA0009CE2E92EF12C00E010E021EF32E085EB2F
:100DB00091E00E94D01881119EC24091A8015091EB
:100DC000A9016091AA017091AB011BEFC12E12E045
:100DD000D12E0CE1E02EF12C04E110E021EF32E005
:100DE00085EB91E00E94D018811185C2E090A001AE
:100DF000F090A1010091A2011091A3014091120174
:100E0000509113016091140170911501B7EECB2E32
:100E1000B2E0DB2E27E333E085EB91E00E94D018AF
:100E2000882341F08091A4019091A5010497039734
:100E300008F47EC24091A0015091A1016091A201ED
:100E40007091A301F9E0CF2EF3E0DF2EACE2EA2EA1
:100E5000F12C00E010E027EE32E085EB91E00E94FB
:100E6000D01881117EC24091A0015091A1016091E2
:100E7000A2017091A3013BEFC32E32E0D32EECE12F
:100E8000EE2EF12C04E110E027EE32E085EB91E04C
:100E90000E94D018811165C28091A2019091A30196
:100EA0008035910594F01092A3011092A20128E2DE
:100EB00030E040E050E064E170E080E090E00E94CB
:100EC000B2227093A1016093A001E0909C01F09088
:100ED0009D0100919E0110919F014091120150913E
:100EE0001301609114017091150127ECC22E20E0CE
:100EF000D22E27E333E085EB91E00E94D0188823BF
:100F000041F08091A4019091A5010797039708F4FF
:100F10003BC280919C0190919D01181619062CF0FE
:100F2000D0930C01C0930B0106C08A9724F0509215
:100F30000C0140920B0180919E0190919F010197BD
:100F40008235910548F12AE230E040E050E060E06F
:100F500070E0CB010E94B22270939D0160939C01CE
:100F600021E030E040E050E060E070E0CB010E9422
:100F7000B22270939B0160939A016115710529F467
:100F800030929F0120929E0107C06130710521F4CB
:100F900070939F0160939E0180919A0190919B01B3
:100FA000009789F460919E0170919F01882777FDD9
:100FB0008095982F0E94AE2320E030E040EC5FE364
:100FC0000E94162312C0019721F560919E01709135
:100FD0009F01882777FD8095982F0E94AE2320E0FF
:100FE00030E040EC5FE30E9417230E947B23709364
:100FF0009F0160939E0180919C0190919D012091A1
:101000000B0130910C01820F931F90939D018093EF
:101010009C01409112015091130160911401709153
:10102000150185EAC82E80E0D82E9AE0E92EF12C31
:101030000DE410E027E333E085EB91E00E94D01847
:10104000882341F08091A4019091A5010A9703970C
:1010500008F4B3C180910A01882309F455C0809136
:10106000AC01882309F450C063EC74E085E792E09A
:101070000E94121288E180937E0284E080937F02B6
:1010800000E324E540E060E085E792E00E94F60D91
:1010900068E171E085E792E00E949E2188E08093FC
:1010A0007E0264E671E085E792E00E949E218CE07A
:1010B00080937E0260910D0170910E014AE050E034
:1010C00085E792E00E9453226FE171E085E792E0AC
:1010D0000E949E2188E080937E0264E671E085E7AD
:1010E00092E00E949E2188E080937E0267E271E098
:1010F00085E792E00E949E2165E08FEB91E00E94DF
:10110000B30C81111092AC0180910A01811168CC5D
:1011100063EC74E085E792E00E94121200E324E59C
:1011200040E060E085E792E00E94F60D82E0809367
:101130007F0280E180937E0263E371E085E792E0C5
:101140000E949E2118E010937E026CE871E085E712
:1011500092E00E949E218CE180937E026DE371E01B
:1011600085E792E00E949E2110937E0260910D011E
:1011700070910E014AE050E085E792E00E94532210
:1011800063E471E085E792E00E949E2184E1809310
:101190007E0286E280937F026CE471E085E792E054
:1011A0000E949E2165E08FEB91E00E94B30C8823A2
:1011B00009F416CC8AED91E00E94AC1E8FEF9FEFF0
:1011C00090930E0180930D01DF91CF911F910F91AC
:1011D000FF90EF90DF90CF90BF90AF909F908F9057
:1011E0007F906F905F904F903F902F90089502975F
:1011F0009093150180931401D093B401C093B3016F
:1012000047CC029690931501809314011092B4017B
:101210001092B3014DCC21E041E066E08AED91E00F
:101220000E94AE1A01E020E041E061E08AED91E029
:101230000E94591A8091140190911501039790937F
:10124000150180931401D093B401C093B30147CC2E
:1012500021E041E066E08AED91E00E94AE1A01E0F3
:1012600020E041E061E08AED91E00E94591A80910E
:101270001401909115010396909315018093140128
:101280001092B4011092B30141CC20E045E06EE130
:101290008AED91E00E94AE1A00E021E043E063E0B5
:1012A0008AED91E00E94591A8091120190911301E8
:1012B000019790931301809312017092B201609292
:1012C000B10130CC21E04CE161E08AED91E00E9477
:1012D000AE1A01E020E041E061E08AED91E00E9479
:1012E000591A2EEF47E062E08AED91E00E94591A08
:1012F00010920A0149CD4091A8014C5F2FEC30E0DB
:101300006091AA0185E792E00E94C60F1092A901A0
:101310001092A8012CE430E040E050E060E070E082
:10132000CB010E94B2227093AB016093AA015ECD03
:1013300021E04CE161E08AED91E00E94AE1A01E00B
:1013400020E041E061E08AED91E00E94591A2EEF21
:1013500047E062E08AED91E00E94591A10920A017A
:1013600069CD1092A3011092A20128E230E040E082
:1013700050E064E170E080E090E00E94B22270935F
:10138000A1016093A00188CD21E04CE161E08AEDEC
:1013900091E00E94AE1A01E020E041E061E08AEDB8
:1013A00091E00E94591A2EEF47E062E08AED91E049
:1013B0000E94591A10920A01ACCD21E04CE161E083
:1013C0008AED91E00E94AE1A01E020E041E061E088
:1013D0008AED91E00E94591A2EEF47E062E08AED13
:1013E00091E00E94591A10920A0134CECF931092C4
:1013F000CD0144E068E770E085EB91E00E9426169D
:10140000813009F495C00CF085C08F3F09F48DC080
:1014100081112DC168E670E085E792E00E945A21B3
:1014200085EB91E00E94E01384E190E09093150138
:101430008093140190931301809312011092B401D0
:101440001092B30181E090E090931101809310011C
:101450009093B2018093B1011092A9011092A8015A
:101460002CE430E040E050E060E070E0CB010E940E
:10147000B2227093AB016093AA011092A70110925F
:10148000A6011092A5011092A4011092A30110923E
:10149000A20128E230E040E050E064E170E080E04A
:1014A00090E00E94B2227093A1016093A00110927B
:1014B0009F0110929E012AE230E040E050E066E099
:1014C00070E080E090E00E94B22270939D016093F2
:1014D0009C0121E030E040E050E060E070E0CB01B2
:1014E0000E94B22270939B0160939A018FEF9FEF4D
:1014F00090930C0180930B0181E080930A0110927C
:10150000AC0161E473E085E792E00E941212CF9192
:101510000C94CC04823009F498C0833009F0A7C041
:1015200085EB91E0CF910C947817CF910C946E04D9
:10153000C1E085EB91E00E946C158823D1F365E052
:101540008FEB91E00E94B30C882339F08AED91E093
:101550000E94AC1E1092CD018AC010927E021092A1
:101560007F0285EB91E00E94251490E09093B001FA
:101570008093AF0185EB91E00E9434149093AE010B
:101580008093AD0164E571E085E792E00E947F21E0
:101590006091AF017091B0014AE050E085E792E0C0
:1015A0000E94532269E571E085E792E00E949E2146
:1015B0006CE871E085E792E00E949E216BE571E0A6
:1015C00085E792E00E947F216091AD017091AE01AC
:1015D0004AE050E085E792E00E945B226CE871E00F
:1015E00085E792E00E949E216CE471E085E792E03D
:1015F0000E949E21C093CD019CCF10927E0210923A
:101600007F0266E671E085E792E00E949E216CE829
:1016100071E085E792E00E949E216DE671E085E72A
:1016200092E00E949E216CE871E085E792E00E94C2
:101630009E2163E771E085E792E00E949E216CE4C1
:1016400071E085E792E00E949E2185EB91E00E9487
:101650006C158823D1F365E08FEB91E00E94B30C09
:10166000882359F28AED91E0CF910C94AC1ECF9172
:10167000089510927802109277028FE791E090938C
:1016800076028093750285EB91E00E94251490E02C
:101690009093B0018093AF0185EB91E00E943414E8
:1016A0009093AE018093AD012CE430E040E050E037
:1016B00060E070E0CB010E94B2227093AB016093B6
:1016C000AA0128E230E040E050E064E170E080E010
:1016D00090E00E94B2227093A1016093A0012AE2DF
:1016E00030E040E050E066E070E080E090E00E9492
:1016F000B22270939D0160939C0121E030E040E0B4
:1017000050E060E070E0CB010E94B22270939B0138
:1017100060939A010895CF93CFB7F8948091AE0269
:10172000811127C0EDE5F8E08491E9E4F8E09491B7
:10173000E82FF0E0EE0FFF1FE558F74FA591B491A9
:101740008C91892321F461E08AE00E94AD2061E060
:101750008AE00E9474208CB580618CBD8CB5806459
:101760008CBD61E08DE00E94742061E08BE00E94FE
:1017700074208091AE028F5F8093AE02CFBFCF9175
:10178000089521E0FC012083089570E085E00C9429
:10179000EC1FAF92BF92CF92DF92EF92FF920F9326
:1017A0001F93CF93DF93EC0189819A812FE0289FCB
:1017B0008001299F100D112485E10E94CF1F800F09
:1017C000911F24E0969587952A95E1F79A8389835E
:1017D0002881222391F1AC81AD80B12CC12CD12C78
:1017E000E885F9857F0100E010E06E817F819B0133
:1017F00040E050E08617970728F0BC01E817F9078A
:1018000008F4BF0180E090E01F921F921F92AF93F7
:101810000E94CE226B830F900F900F900F9070E07C
:1018200085E0DF91CF911F910F91FF90EF90DF90B6
:10183000CF90BF90AF900C94EC1FDF91CF911F9190
:101840000F91FF90EF90DF90CF90BF90AF900895F1
:10185000FC018CE39FE09383828384E0818381E0B9
:1018600084870895CF93DF93EC018C819D81892B30
:1018700081F18C858F7151F584E10E94CF1FBC01ED
:10188000882777FD8095982F0E94AE2326EE3FE3B0
:101890004EEC50E40E943A240E9480239B017B83FB
:1018A0006A836115710581F084E08983FE0140E05F
:1018B000848195812817390710F449830AC04F5F46
:1018C00032964430A9F702C08FEF89838C858F5FF1
:1018D0008C87DF91CF910895FC0188E0808389E0B7
:1018E000818387E0828386E0838384E0848382E04F
:1018F000858381E186830895DF92EF92FF920F93B3
:101900001F93CF93DF937C01EC0100E010E0DD2416
:10191000DA9462E088810E94742088810E94E3202A
:10192000F701E00FF11F892B21F487818F5F8783F7
:1019300008C08781882349F08F3F11F4178201C0C6
:10194000D78260E088810E9474200F5F1F4F21962C
:1019500007301105F1F6DF91CF911F910F91FF90A4
:10196000EF90DF900895FC01E60FF11D81E0978173
:10197000913009F080E00895262F30E0FC01E20F5D
:10198000F31F8781423028F481508E3F48F080E079
:1019900008958F3FE1F3642F0E94AD249130B9F791
:1019A00081E008958EBD00000DB407FEFDCF8EB519
:1019B0000895DC01643508F053C0403308F050C08E
:1019C00090968C919097342F359535953595E62FD7
:1019D000FF27E7FDF095242F2770823099F4DF016F
:1019E000A155BD4F84E53802A00DB11D11248C9185
:1019F00090E0022E02C0959587950A94E2F78095B3
:101A0000817009C0833039F446271C968C91482791
:101A100040FF03C014C0811112C084E53802E00DFC
:101A2000F11D1124E155FD4F81E090E0022E01C02F
:101A3000880F0A94EAF780959081982310C084E576
:101A40003802E00DF11D1124E155FD4F81E090E0D9
:101A5000022E01C0880F0A94EAF79081982B908398
:101A600008951F93CF93DF93EC01162FF89460E055
:101A70008F850E94AD20888918161CF460E00E94B2
:101A8000AD20812F0E94D20C888918161CF461E0C9
:101A90000E94AD207894DF91CF911F91089528EF97
:101AA00031E0EFEAF2E0DF01A9011D924150504020
:101AB000E1F7DC0119961C9219971A961C92089569
:101AC000DF92EF92FF920F931F93CF93DF93EC017E
:101AD0008C858F5F8C878FEAE82E82E0F82ED12CE0
:101AE0006D2D6064CE010E94310D60E8CE010E9430
:101AF000310D61E08F850E94AD20888918161CF495
:101B000060E00E94AD2000E010E0F701E00FF11F5F
:101B100080810E94D20C0F5F1F4F04351105A9F779
:101B2000888918161CF461E00E94AD20D39484E5E6
:101B3000E80EF11C86E0D812D3CF60E4CE01DF912D
:101B4000CF911F910F91FF90EF90DF900C94310D8A
:101B5000FC0160A361A30895FC0160A341A3089563
:101B6000CF92DF92FF920F931F93CF93DF931F9239
:101B7000CDB7DEB76C01062FF42E10E0121754F427
:101B8000412F4F0D602FC60129830E94D90C1F5F82
:101B90002981F4CF0F90DF91CF911F910F91FF908A
:101BA000DF90CF900895CF92DF92FF920F931F9313
:101BB000CF93DF931F92CDB7DEB76C01062FF42EC3
:101BC00010E0121754F4612F600F4F2DC6012983C6
:101BD0000E94D90C1F5F2981F4CF0F90DF91CF9124
:101BE0001F910F91FF90DF90CF900895EF92FF9299
:101BF0000F931F93CF93DF93EC01F62E142FE22E59
:101C00000E94D30D4FEF400F410F2E2D6F2DCE01AF
:101C10000E94D30D202F412F6F2DCE010E94B00DB9
:101C20006FEF6E0D6F0D202F412FCE01DF91CF9101
:101C30001F910F91FF90EF900C94B00DDF92EF92F7
:101C4000FF920F931F93CF93DF93EC01E62ED22EDA
:101C5000F42E112707FD1095040F111D47FD1A954D
:101C60008F2D992787FD90958017910744F42D2D8E
:101C70004F2D6E2DCE010E94D30DF394F1CFDF9145
:101C8000CF911F910F91FF90EF90DF9008958F9269
:101C90009F92AF92BF92CF92DF92EF92FF920F93FB
:101CA0001F93CF93DF93EC01E62ED42E122FCC247A
:101CB000C394C21AB22EB194BB0CF12C802F847045
:101CC000A82E802F8270982E802F8870882E017009
:101CD000F1160CF04DC0C7FC04C01150B394B3947E
:101CE000CB0CF3948F2D880F8F5FC80EAA2071F054
:101CF000412F4D0D6F2D6E0DCE010E94D90C4F2D31
:101D00004D0D612F6E0DCE010E94D90C992071F0FE
:101D10004D2D411B6F2D6E0DCE010E94D90C4D2D06
:101D20004F19612F6E0DCE010E94D90C882071F0E1
:101D30004F2D4D0D6E2D611BCE010E94D90C412FF0
:101D40004D0D6E2D6F19CE010E94D90C002309F4A0
:101D5000BFCF4D2D4F196E2D611BCE010E94D90CA6
:101D60004D2D411B6E2D6F19CE010E94D90CB0CFA5
:101D7000DF91CF911F910F91FF90EF90DF90CF9067
:101D8000BF90AF909F908F9008958F929F92AF9247
:101D9000BF92CF92DF92EF92FF920F931F93CF9358
:101DA000DF93EC01B62EA42E122FDD24D394D21A89
:101DB000C22EC194CC0CFF24F394802F8170882E06
:101DC000992493949E0C02708FEF8F0D8117C4F5A8
:101DD000D7FC04C01150C394C394DC0C8F2D880F22
:101DE0008F5FD80E882099F0212F220F290D4A2DC0
:101DF000411B6F2D6B0DCE010E94B00D23E02E0D07
:101E00004A2D4F19612F6B0DCE010E94B00D00239A
:101E100099F0212F220F290D4A2D411B6B2D6F198F
:101E2000CE010E94B00D23E02E0D4A2D4F196B2DCF
:101E3000611BCE010E94B00DF394E394E394C4CFF0
:101E4000DF91CF911F910F91FF90EF90DF90CF9096
:101E5000BF90AF909F908F9008959F92AF92BF9246
:101E6000CF92DF92EF92FF920F931F93CF93DF9366
:101E7000EC01B62EF42EA22EDE2CD194DD0C9D2C7E
:101E8000920E1E2D160F292D612F0E94D30DCC24EA
:101E9000CA94C00ECF0C292D4C2D612FCE010E946B
:101EA000D30DD00EFE0C2D2D4F2D6B2DCE010E948B
:101EB000B00DBA0C6FEF6B0D2D2D4F2DCE010E9482
:101EC000B00D01E02E2D4F2D612FCE010E94470E47
:101ED000DE2CD094DB0C02E02E2D4F2D6D2DCE018B
:101EE0000E94470ECE1804E02E2D4C2D6D2DCE01F4
:101EF0000E94470E08E02E2D4C2D612FCE010E942E
:101F0000470EDF91CF911F910F91FF90EF90DF90DF
:101F1000CF90BF90AF909F900895AF92BF92CF9215
:101F2000DF92EF92FF920F931F93CF93DF93EC0119
:101F3000A62EC42EB22EF02E1E2DE194EE0CD12E24
:101F4000D60E2E2D2B0D6D2D0E941E0EFA94FE0C1A
:101F5000C10E6FEF6A0D6B0D611BEF2C01E0212F9D
:101F60004C2DCE010E94C50E02E0212F4C2D6D2D6F
:101F7000CE010E94C50EDF91CF911F910F91FF906E
:101F8000EF90DF90CF90BF90AF9008956F927F92C7
:101F90008F929F92AF92BF92CF92DF92EF92FF9279
:101FA0000F931F93CF93DF93F901A490319654912F
:101FB000FC01F0A064350CF00CC1BB24A7FCB0946C
:101FC000A62FBB27A7FDB095FD01EA0DFB1D1E1630
:101FD0001F060CF0FEC040330CF0FBC0C52E042FD2
:101FE000112707FD1095E801C50FD11D57FDDA95A2
:101FF0001C161D060CF0EDC0E90122969501295F23
:102000003F4F37FF02C0295F3F4F73E0359527955B
:102010007A95E1F747FF0AC0C52EC40E209FA001A4
:10202000219F500D1124C41BD50B40E00C2D11270E
:1020300007FD1095040F111D47FD1A950133110579
:102040001CF070E3C72EC41A67FD60E0E535F105AA
:1020500014F0E4E5F0E01E2FFC0174857427862F50
:10206000992787FD9095FC01EA1BFB0BDF015F01BF
:10207000F7E0AF22BB24E0E8F0E002C0F595E79579
:10208000AA94E2F70E2FB7FD179653E0B595A795E2
:102090005A95E1F7AC0FBD1FE42FE77051E001C086
:1020A000550FEA95EAF7459545954595E4E54E02C5
:1020B000800D911D112481559D4F40E0DD24C7FC0A
:1020C000D094BB24B3943327E42FF0E0EC15FD0546
:1020D0000CF07FC0FD01E490F1E0FF1219C0EC01AB
:1020E000A02EFD01862E881A9C2E980C911608F0C1
:1020F00067C09E2C9A2019F09880952A9882A69401
:1021000029F43196E4906894AA24A7F82196ECCF9C
:10211000F1101BC0752E7094EC01A02EFD01862ECF
:10212000881A9C2E980C911608F04AC09E2C9A2072
:1021300019F0988097209882A69429F43196E4901B
:102140006894AA24A7F82196ECCFE3E0FE1631F0BC
:10215000EC01A02EFD01862E881A2EC0752E7094DB
:10216000962EEC01A02EFD019116B0F48E2C8A2043
:1021700049F08880692C672660FE02C0852A01C06C
:1021800087208882A69429F43196E4906894AA2442
:10219000A7F893942196E8CF7B2512C09E2C9A2015
:1021A00019F0988095269882A69429F43196E490A7
:1021B0006894AA24A7F821969C2E980C911670F387
:1021C000550F19F48C5A9F4F51E04F5FA20FB31F68
:1021D0007BCFDF91CF911F910F91FF90EF90DF9018
:1021E000CF90BF90AF909F908F907F906F90089509
:1021F000FB01A491842F90E0E3E095958795EA9503
:10220000E1F70296B0E01796F3E0B595A795FA9539
:10221000E1F72A9FF0012B9FF00D11248E0F9F1FD5
:10222000860F971FFC018491282F30E0477080E8CB
:1022300090E002C0959587954A95E2F728233923C7
:1022400081E0232B09F480E008952F923F924F9272
:102250005F926F927F928F929F92AF92BF92CF9236
:10226000DF92EF92FF920F931F93CF93DF93CDB73F
:10227000DEB72A970FB6F894DEBF0FBECDBF6C0154
:10228000262E542F01111CC0E1101AC02A960FB639
:10229000F894DEBF0FBECDBFDF91CF911F910F919C
:1022A000FF90EF90DF90CF90BF90AF909F908F9076
:1022B0007F906F905F904F903F902F900C94C60F3F
:1022C000F901849131963490B9016E5F7F4F7A8322
:1022D0006983A82EB12C9501295F3F4FB3E0359556
:1022E0002795BA95E1F73A87298703702FEF280FD2
:1022F000522E10E07FEF730D832D90E09C838B8333
:10230000812F992787FD90958A159B050CF071C048
:10231000812F17FF02C087E0810F682E65946594B6
:102320006594812F877887FF03C08150886F8F5F06
:10233000A0E88A2E912C02C0959487948A95E2F7A2
:10234000472EF12C772467FC70948F2D992787FDF9
:102350009095EB81FC818E179F070CF047C0A985F3
:10236000BA858A9FF0018B9FF00D9A9FF00D112482
:10237000E60DF71D89819A81E80FF91FE491F0E0DD
:10238000E821F921EF2B79F1023039F0033041F0E7
:10239000013049F4452D6F2D08C0652D442D05C031
:1023A000642D412F02C04F2D612FEE2069F03E2D8C
:1023B0003370E0FE03C0922F961B692FE1FE05C02B
:1023C000A32DA41B4A2F01C030E0620D450FC601AA
:1023D0002E833D835F8378870E94D90C3D81E32E55
:1023E00078855F812E81F3944A94AFCF1F5F5A9412
:1023F00087CF2A960FB6F894DEBF0FBECDBFDF9110
:10240000CF911F910F91FF90EF90DF90CF90BF90F1
:10241000AF909F908F907F906F905F904F903F9084
:102420002F900895DC01FB0184918F5F14968C93AB
:1024300014973196E491EF5F1596EC9315976E5FC4
:102440007F4F5F967C936E935E970895EF920F9304
:10245000CF93DF93EC014E876D872F87E98A088B36
:1024600081E0888788A319A28F8361E473E0CE019D
:102470000E9412120E948B0B8CB58F7D8CBD8CB587
:102480008C7F81608CBD8DB581608DBD8CB58C607D
:102490008CBD61E08E850E94742061E08D850E9474
:1024A000742061E08F850E947420898918161CF4BD
:1024B00061E00E947420888918161CF461E00E9473
:1024C0007420898918166CF460E00E94AD206AE0DF
:1024D00070E080E090E00E946C1F61E089890E94BA
:1024E000AD208D85992787FD9095FC01ED5AF74F1A
:1024F000E491F0E0EE0FFF1FEF58F74F2591349174
:102500003D8B2C8BFC01E15CF74F84918B8F8E858A
:10251000992787FD9095FC01ED5AF74FE491F0E083
:10252000EE0FFF1FEF58F74F259134913B8B2A8B0D
:10253000FC01E15CF74F84918A8F8889992787FD98
:102540009095FC01ED5AF74FE491F0E0EE0FFF1F7C
:10255000EF58F74F259134913F8B2E8BFC01E15CB6
:10256000F74F84918C8F8F85992787FD9095FC017B
:10257000ED5AF74FE491F0E0EE0FFF1FEF58F74FE1
:1025800025913491398F288FFC01E15CF74F8491BC
:102590008D8F61E2CE010E94310D64E1CE010E9477
:1025A000310D8B8587FF02C08FE78B876B85606855
:1025B000CE010E94310D60E2CE010E94310D6CE02F
:1025C000CE010E94310DCE01DF91CF910F91EF909E
:1025D0000C94600D6F927F928F929F92AF92BF92F8
:1025E000CF92DF92EF92FF920F931F93CF93DF93DF
:1025F000EC01162FF42EB02EE8A064350CF081C04B
:102600008FE284170CF47DC0EC81F0E031970E9FCF
:10261000C0010F9F900D1124860F911D67FD9A95A3
:10262000181619060CF06DC08D81809FC001112411
:10263000840F911D47FD9A95181619060CF061C07C
:10264000A62E962EC22ED12C8A2D811B992787FD6E
:1026500090952C8130E0821793070CF051C02150E7
:1026600031098217930779F0C29ED001C39EB00D45
:10267000D29EB00D1124A80FB91FEE8DFF8DEA0F69
:10268000FB1F749001C0712C8F2C6F2C282D2F19DB
:10269000332727FD30958D8190E0281739076CF599
:1026A00070FE11C081E0B81206C0482D6A2DCE011F
:1026B0000E94D90C1EC00B2D2B2D462D692DCE014D
:1026C0000E941E0E16C089A198A1891791F088A3B7
:1026D00081E0B81206C0482D6A2DCE010E94D90CA7
:1026E00007C00B2D2B2D462D692DCE010E941E0EED
:1026F000E8A276946B0C8394C9CF9B0CA394A4CFCF
:10270000E8A2DF91CF911F910F91FF90EF90DF90A2
:10271000CF90BF90AF909F908F907F906F900895D3
:102720000F93CF93DF93EC01262F6A3039F42D817C
:1027300098858A85299F800D112422C06D3011F162
:1027400008854A8569850E94EA1248855C81298549
:10275000549F200D112429878F81882399F03327D6
:1027600027FD309584E590E0459F8019910911245B
:10277000821793073CF49D818A85499F800D11241F
:102780008A87198681E090E0DF91CF910F910895BB
:10279000CF93DF93FC01462FEC01CF50DF4F70E069
:1027A00088EE93E00E94CD246883842F64E10E9428
:1027B000AD24811101C081E085ABDF91CF910895F7
:1027C0008F929F92AF92BF92CF92DF92EF92FF9241
:1027D000CF93DF93EC01CA8CDB8CC094D094E12CB6
:1027E000F12C0E94491F4B015C010E94491FA50169
:1027F0009401209530954095509560957095809501
:1028000090950E949D249B01AC01C701B6010E94D6
:102810009D246B017C0189809A80A12CB12C0E949F
:10282000491F680D791D8A1D9B1D6C0D7D1D8E1D18
:102830009F1DDF91CF91FF90EF90DF90CF90BF90E1
:10284000AF909F908F900C948622FC01EF50FF4F29
:1028500060813A978AE0689FB0011124808191815C
:102860000E94B924862F0895CF93DF9300D0CDB76F
:10287000DEB72091D0043091D1042115310511F437
:1028800024ED34E0CE010196821B930B0F900F9044
:10289000DF91CF9108958F929F92AF92BF92CF9286
:1028A000DF92EF92FF920F931F93CF93DF93EC0190
:1028B0005C0188EFA80EB11CD5018C91882309F426
:1028C0004DC08C3018F41CE0181B01C010E0FE0154
:1028D000E853FF4F81E080836E01B0ECCB0ED11C3A
:1028E00060E0C6010E94A80D4E01E5EC8E0E911C21
:1028F000D4018C9103E0080F9DE2F92E4F2D481B67
:10290000410F23E0E22E24E560E0C6010E948D0F16
:1029100061E0C6010E94A80DF401808103E0080F68
:102920004F2D481B410F24E560E0C6010E942D0F8A
:10293000FE01E753FF4F84E080833196D4018C91F0
:10294000181B115D1083CA50DF4F68817981C60161
:102950000E945A21F501808181508083DF91CF91BF
:102960001F910F91FF90EF90DF90CF90BF90AF90AD
:102970009F908F900895DF92EF92FF920F931F9395
:10298000CF93DF93EC018C8D9D8D892B09F49CC036
:102990008E0100541F4F40E061E0C8010E94AC0D61
:1029A00085E5FE01EC53FF4F9081891B35968083AE
:1029B00031961082698D613009F462C028F0888DEB
:1029C000653008F074C06FC0CE0185960E94CA1BA6
:1029D00081E0FE01E853FF4F808361E473E0C801AA
:1029E0000E9412121D8E1C8EFE01EA53FF4F1082B0
:1029F00038EAD32E7E018AE0E80EF11CCE010E9457
:102A00006C158823D9F362EB77E0C8010E945A2144
:102A10006A8D7B8D4AE050E0C8010E9480226DE9FA
:102A200077E0C8010E945A216D2D62956F7070E0A9
:102A30004AE050E0C8010E94532262E977E0C801F1
:102A40000E945A2164E0C7010E94B30C81113CC06E
:102A5000DA94A1F660E0CE010E94C50B83B7817FB6
:102A6000846083BF83B7816083BF83B7816083BF86
:102A7000889583B78E7F83BF83B78E7F83BFBECF9A
:102A8000CD51DF4F488159816A817B814F70552735
:102A900066277727483051056105710510F467E016
:102AA00009C068E707C0882379F06B5F03C08823FB
:102AB00059F06FE2C801DF91CF911F910F91FF9004
:102AC000EF90DF900C948121DF91CF911F910F91B6
:102AD000FF90EF90DF9008958F929F92AF92BF92F8
:102AE000EF92FF920F931F93CF93DF93EC017C0142
:102AF00002EFE00EF11CF70180809180A280B3808C
:102B00000E943D1F95018401061B170B280B390BF2
:102B1000B901A8015E0111EFA10EB11CF501808180
:102B200090E0A0E0B0E08E0103511F4F841795079D
:102B3000A607B70750F4F80180819181A281B38183
:102B4000892B8A2B8B2B09F040C0F8018081918161
:102B5000A281B381892B8A2B8B2BA9F57E01F5E20B
:102B6000EF0EF11CC7010E94BA1BC7010E948E1C08
:102B7000C7010E94B91DCE010E944B14CE010E94D4
:102B8000BB147E0120ECE20EF11CC7010E94600D17
:102B9000FE01EA53FF4F8081811103C0C7010E94EB
:102BA0004F0D0E94491FF8016083718382839383D4
:102BB000FE01E951FF4FC751DF4F28813981621B68
:102BC000730B7183608380E036C00E943D1FF50166
:102BD0002081620F711D811D911DF701608371833A
:102BE00082839383FE01ED51FF4F408151816281C9
:102BF00073814F5F5F4F6F4F7F4F4083518362837D
:102C00007383F80110821182128213820E94491F7D
:102C1000FE01E751FF4F6083718382839383CE016E
:102C20000E94C90BCE010A960E947C0CCE014896E8
:102C30000E94320C81E0DF91CF911F910F91FF90A4
:102C4000EF90BF90AF909F908F9008952F923F92FA
:102C50004F925F926F927F928F929F92AF92BF92AC
:102C6000CF92DF92EF92FF920F931F93CF93DF9358
:102C7000CDB7DEB766970FB6F894DEBF0FBECDBFF7
:102C80009E8B8D8B6F87788B942EFC01EA53FF4FC0
:102C9000108288248A941C82A12C30E33B83B12CBF
:102CA0006C018AE0C80ED11C6D887E8895EC690E97
:102CB000711CED89FE89B5962F01242F30E03A87EB
:102CC00029878D899E8987539F4F9E838D83ED89A8
:102CD000FE89E653FF4FF887EF832D893E892853FD
:102CE0003F4F3C872B878D899E8989539F4F9E87B5
:102CF0008D87ED89FE89E054FF4F1F018D899E89E4
:102D00000E946C158823D1F364E0C6010E94B30CC5
:102D10003B81032F112707FD109581113EC065E00F
:102D2000C6010E94B30C811138C066E0C6010E9442
:102D3000B30C811132C03C81311142C044E063E0E8
:102D4000C6010E94BC0C882321F0B394C2010E94EA
:102D5000C91E44E061E0C6010E94BC0C882321F03A
:102D6000BA94C2010E94C91E8B2D992787FD9095A8
:102D7000E985FA858E179F0731F0B7FE05C0BB24A1
:102D8000BA94B90C01C0B12CF301808174E0A72E74
:102D9000A80E8B9DA01811241DC0F301A08064E033
:102DA000C6010E94B30C882309F484C0C2010E94AA
:102DB0008F1E8B2CA194A99CA02C1124AA94AA94B8
:102DC000C8018A199109A7FC939502970CF476C063
:102DD00031E03C830A0D111DA7FC1A9517FF02C0B4
:102DE0000F5F1F4FC801959587959A838983298125
:102DF0002B83ED81FE811082EF81F885808381E055
:102E0000EB85FC858083ED85FE8510820F85188912
:102E1000E12CF12C4B2D552747FD509533E0E9145B
:102E200020F5E416F50669F4ED81FE813083F301A7
:102E30008081F22FB89EF00D11248F2FEF81F8853D
:102E40008083F80165917491C101298B3C8B4A8B79
:102E50005B8B0E948C21FFEFEF1AFF0A0E5F1F4F62
:102E60005B894A893C892989DACF60E0C1010E94E7
:102E7000A80DF30180814981B89E400D1124415075
:102E800024E560E0C1010E94D30D61E0C1010E9410
:102E9000A80DF301808103E0080F4981B89E400D21
:102EA0001124425053E0E52E24E560E0C1010E9468
:102EB0002D0F24CFC2010E94AC1E7CCF882D6696B8
:102EC0000FB6F894DEBF0FBECDBFDF91CF911F913B
:102ED0000F91FF90EF90DF90CF90BF90AF909F90B9
:102EE0008F907F906F905F904F903F902F900895BC
:102EF0000F931F93CF93DF938C01EC01C054DF4FEE
:102F0000CE010E944F0D6AE677E0CE010E945A2161
:102F1000CE010E94600D8CB583608CBD8DB58E7F17
:102F20008DBD83E891E0EEEFFFE30995F801EA53E8
:102F3000FF4F108265E477E0CE010E948C21CE0124
:102F40000E94600D065F1F4FC8010E947C0C64E068
:102F5000C8010E94B30C811107C062E370E080E0F9
:102F600090E00E946C1FF0CFDF91CF911F910F91E5
:102F70000895E0E8F7E72591349181E02130304C65
:102F800009F080E00895CF93DF93EC010E94B91718
:102F90009E0125533F4FDE01AE51BF4F882309F4F8
:102FA0003CC0E6E9F7E78491F9018083E7E9F7E7B8
:102FB000E491EC83E8E9F7E7E491ED83E9E9F7E7E9
:102FC000859194919F838E83EBE9F7E785919491A6
:102FD00099878887EDE9F7E7E491EFABEEE9F7E74A
:102FE000E491EEABEFE9F7E7E491EC93E0EAF7E781
:102FF000859194919D8F8C8FE2EAF7E7859194916A
:103000009F8F8E8FE4EAF7E78591949199A388A327
:10301000E6EAF7E78591949120C08CE3F90180837B
:103020001C822FEF2D8380E293E09F838E8384EDBB
:1030300093E09987888781E08FAB8EAB2C938CEAE5
:103040009DE09D8F8C8F8EED9DE09F8F8E8F84E70E
:103050009EE099A388A38CE39FE09BA38AA3DF91C2
:10306000CF910895CF92DF92EF920F93CF93DF939A
:10307000EC01FC01EF50FF4F82E38083349741E085
:1030800050E060E070E040835183628373833B973C
:103090008FEF8083CE010E94C317CE010E94C10B27
:1030A0006FEFCE010E94C50B6E018AE0C80ED11CE5
:1030B000C6010E946C0CC6010E947C0CCE01489691
:1030C0000E94280C3EE0E32E0FE020E14BE06DE093
:1030D000CE0180549F4F0E942612A596CE010E94D9
:1030E000FA1965E0C6010E94B30C882351F060E034
:1030F000CE01DF91CF910F91EF90DF90CF900C94A4
:10310000E61E40E060EC77E0CE010E94361B41E015
:1031100060EC77E0CE010E94361B42E060EC77E085
:10312000CE010E94361B43E060EC77E0CE01DF91D8
:10313000CF910F91EF90DF90CF900C94361B8F9230
:103140009F92AF92BF92CF92DF92EF92FF920F9336
:103150001F93CF93DF93CDB7DEB7260F371FE2164D
:10316000F30684F4EA0CFB1C6E157F055CF4040F77
:10317000151FC016D10634F4C80CD91C81E04C15BB
:103180005D050CF080E0DF91CF911F910F91FF90D2
:10319000EF90DF90CF90BF90AF909F908F90089569
:1031A0002F923F924F925F926F927F928F929F9257
:1031B000AF92BF92CF92DF92EF92FF920F931F9345
:1031C000CF93DF93CDB7DEB760970FB6F894DEBF2D
:1031D0000FBECDBF9E878D87788B6F873A013E8368
:1031E0002D8318012701D886CF82F9018491282FD9
:1031F00030E03A832983ED81FE813196E4916E2F90
:1032000070E07C836B83EF81F8858491282F30E018
:103210003A872987EF81F8853196E4916E2F70E027
:103220007C876B874B01A984BA84670178010B8185
:103230001C8129813A816F8578898D859E850E94C0
:103240009F18811102C080E079C08F85988982150E
:10325000930534F4C101AF85B8898A1B9B0B02C06A
:1032600080E090E06414750424F492012619370973
:1032700002C020E030E049855A85420D531D698126
:103280007A81EF85F8896E0F7F1F641775072CF020
:10329000BA016E1B7F0B7A8369834B855C85440D75
:1032A000551D6B817C81660D771D641775072CF0A9
:1032B000DA01A619B709BC83AB83B22E00E010E097
:1032C000782EED84FE84B0ECEB0EF11C6418620ED7
:1032D000CF84C218C80E202E3B2C300E832D90E0D8
:1032E0002B813C81821793070CF0ADCF412C512CE0
:1032F000260CD42C472D440D842F90E0E981FA81CF
:103300008E179F07A4F4232D6D817E81C7010E9433
:10331000F810882379F04C2D4D0D222D6F81788582
:10332000C7010E94F810882329F081E007C00F5FD1
:103330001F4FD1CF3FEF431A530ADBCF60960FB632
:10334000F894DEBF0FBECDBFDF91CF911F910F91DB
:10335000FF90EF90DF90CF90BF90AF909F908F90B5
:103360007F906F905F904F903F902F900895CF93F4
:10337000DF9350E0FA01EE0FFF1FE80FF91F33A9AA
:1033800024A9E32FF22FE60FF11DE60FF11D259181
:103390003491BA01660F771F680F791FFB01ED5852
:1033A000FF4F31832083F90165917491FC01C0893D
:1033B000C69FD02D1124E40FF51FE558FF4FD08391
:1033C000F901A591B4916B2F70E0ED2FF0E0840F1F
:1033D000951F6E177F0720F4F90125913491D32FA3
:1033E000FC01E158FF4FDC9FD02D1124D083DF91E9
:1033F000CF910895BF92CF92DF92EF92FF920F93F9
:103400001F93CF93DF938C0181E0F801808B7801CB
:10341000C0E0D0E0BB24B394FFE1CF2EF8E0DF2E74
:10342000F801EC0FFD1FE956FF4FB082F701D4AA57
:10343000C3AA4C2F60E0C8010E94B7192196F2E0A0
:10344000EF0EF11CC430D10559F761E070E083E064
:103450000E94EC1F8091B100887F81608093B10051
:10346000F8941092800010928100109285001092C2
:10347000840088E191E09093890080938800809196
:1034800081008860809381008091810081608093B9
:10349000810080916F00826080936F007894DF914B
:1034A000CF911F910F91FF90EF90DF90CF90BF9041
:1034B00008950F93CF93DF93362F642F043008F0D5
:1034C00049C0323049F158F43323E1F0313009F08A
:1034D00041C0402FDF91CF910F910C94B719333039
:1034E00051F13430B9F5FC01E00FF11DDF01A559B0
:1034F000BF4FEC018889489F602D11246C93E159DE
:10350000FF4F27C0800F911DFC01E15BFF4F4B3047
:1035100008F06AE060831EC0FC01E00FF11DDF01CE
:10352000A55ABF4FEC018889489F602D11246C93E8
:10353000E15AFF4F0EC0FC01E00FF11DDF01AD5954
:10354000BF4FEC018889489F602D11246C93E95985
:10355000FF4F2083DF91CF910F910895CF93DF9399
:10356000243040F530E0FC01E20FF31FDF01A95BDE
:10357000BF4F6C931496EC015889459F402D112440
:103580004C93A05CBF4F1C92A901440F551F480FDC
:10359000591FDA01AD57BF4F1D921C92DF01AD5A82
:1035A000BF4F81E08C93D901A154BB4F8C93E95A52
:1035B000FF4F1082DF91CF9108958091BF0488233F
:1035C00019F08091B30401C080E09091C004992368
:1035D00019F09091B404890F9091C104992319F0C6
:1035E0009091B504890F9091C204992319F090919C
:1035F000B604890F8093B4000895643030F570E00C
:103600009C01260F371FF901ED5AFF4F10823897A2
:103610001082AB01440F551F480F591FFA01ED5797
:10362000FF4F11821082F901E95AFF4F1082FB010E
:10363000ED54FB4F1082FB01E954FB4F1082FB015C
:10364000E154FB4F10820C94DD1A08951F93CF9321
:10365000DF93EC01162F643028F40E94FD1AC10F8D
:10366000D11D1C82DF91CF911F910895EF92FF929F
:103670000F931F93CF93DF931F92CDB7DEB77C01DB
:103680008B01443018F5642F49830E94261B498121
:10369000E42FF0E0DF01AA0FBB1FAE0DBF1D9C960B
:1036A0001C930E939B97DF961D921C92EE0DFF1DAF
:1036B00081E08483DF01A15BBF4F89E08C931C967E
:1036C0001C9218961C92E559FF4F10820F90DF91C3
:1036D000CF911F910F91FF90EF9008950F931F933B
:1036E000CF93DF93EC01462F643008F03EC0062FE5
:1036F00010E0DC01A00FB11F8C918823B1F114966A
:103700008C911497811131C05B968C915B97F80175
:10371000EE0FFF1FEC0FFD1F23899489E22FF92F75
:10372000E80FF11DE80FF11D85919491F801EE0F5E
:10373000FF1F8F3F2FEF920711F41C9216C0979630
:103740009C93EC0FFD1F9927880F991F078CF0A100
:10375000E02DE80FF91F65917491CE010E94361B90
:10376000C00FD11F8B8D8F5F8B8FDF91CF911F91FA
:103770000F9108951F93CF93DF93EC0110E0612F19
:10378000CE010E946E1B1F5F1430C9F7DF91CF91ED
:103790001F9108951F93CF93DF93EC0110E0612FE9
:1037A000CE010E94261B1F5F1430C9F7DF91CF9115
:1037B0001F910895AF92BF92CF92DF92EF92FF9246
:1037C0000F931F93CF93DF93EC01162F643008F013
:1037D0009AC0E62EF12CDC01AE0DBF1D14968C9123
:1037E0001497882309F48FC0FD01E55BFF4F8081AA
:1037F000811189C0F701EE0FFF1FEC0FFD1F23A5FC
:1038000034A5FF9680819181880F991F820F931FA5
:10381000FC0185919491EE0CFF1C009731F5DB962D
:103820008C91DB97882341F0DE01AE0DBF1DDF9642
:103830001D921C92F90117C014961C9214978C913A
:103840008823F1F0CE010E946E1BFE01EE0DFF1DDC
:10385000DF01DF968D919C91880F991F03A4F4A539
:10386000E02DE80FF91F859194915E01AE0CBF1C0D
:1038700065012FE3C20ED11CABE2AA0EB11C0DC034
:10388000CE01DF91CF911F910F91FF90EF90DF90CC
:10389000CF90BF90AF900C94FD1ABC0176956795C0
:1038A0007695679580FF21C0AC01F6E05695479567
:1038B000FA95E1F7292F26952695269520514F71E7
:1038C0006F70012FCE010E94591AF60180819181FB
:1038D000019691838083880F991FD501ED91FC910A
:1038E000E80FF91F85919491D8CF492F6F73212F3D
:1038F000CE010E94AE1ACE0DDF1DEF968881998110
:10390000019699838883DF91CF911F910F91FF904A
:10391000EF90DF90CF90BF90AF9008951F93CF931B
:10392000DF93EC0110E0612FCE010E94DA1B1F5FD4
:103930001430C9F7DF91CF911F910895EF92FF9254
:103940000F931F93CF93DF937C01643008F00AC17B
:10395000062F10E0EC01C00FD11FFE01ED5AFF4F02
:103960008081882309F4FEC038978081811109C0C5
:10397000C701DF91CF911F910F91FF90EF900C94B1
:10398000FD1A81508083FE01E557FF4F8081811130
:1039900057C09801220F331F2E0D3F1DF901ED571F
:1039A000FF4F8081918101967097AC01440F551FA4
:1039B0000190F081E02DE40FF51F25913491FE0177
:1039C000E157FF4F422F47704083A901B3E056955E
:1039D0004795BA95E1F7DA01B695A7953496232F66
:1039E00026952695208338973A2F3F73D701509616
:1039F0002C91329FA02D1124A083F801E155FB4F9B
:103A0000417040839801220F331F2E0D3F1DF90195
:103A1000ED57FF4F91838083DE01A558BF4F2C9156
:103A200030E08217930760F014968C91882329F078
:103A3000281B31093183208303C0C7010E94FD1A6E
:103A4000FE01E557FF4F808181508083F4973081DC
:103A50003F5F308370972081E45BFF4F4081420FCE
:103A60008FA1480F4887F0976081662369F070E066
:103A7000832F992787FD90950E94CD2434968081CD
:103A8000869F400D11244887888590E0CB966BE394
:103A900070E00E94CD248887FE01E15BFF4F4081EA
:103AA0004C873C966081662379F0772767FD709597
:103AB000832F992787FD90950E94CD24349680818D
:103AC000869F400D11244C87FE01E559FF4F608110
:103AD000662399F0832F992787FD909570E00E94C7
:103AE000CD24CB0162E070E00E94CD243496308179
:103AF0009C85389F900D11249C878C852F3339F03D
:103B00008A300CF089E087FD80E08C8701C01C863C
:103B1000F894E885F0E0E253F84FE491D801A55419
:103B2000BB4FEC93F701E00FF11FDF01A956BF4F28
:103B30009C91D70151968C91989F802D112494854A
:103B4000899F802D1124E157FF4F9081899F802DFF
:103B50001124F801E954FB4F8083F801ED54FB4F29
:103B600080837894DF91CF911F910F91FF90EF9018
:103B700008951F93CF93DF93EC0110E0612FCE01E6
:103B80000E949E1C1F5F1430C9F7DF91CF911F91D7
:103B900008956091B704611102C080E023C0809154
:103BA000C3048F5F8093C3049091BB048917A8F36B
:103BB0008091BF0491E089278093BF041092C304D1
:103BC0008091AF04882369F09091160183E4989F57
:103BD000802D1124895B809316010E94AD2490935F
:103BE000B30481E06091B804662319F19091C40494
:103BF0009F5F9093C4042091BC049217D0F08091F1
:103C0000C00491E089278093C0041092C40480917D
:103C1000B004882369F09091160183E4989F802D69
:103C20001124895B809316010E94AD249093B40403
:103C300081E06091B904662319F19091C5049F5FFA
:103C40009093C5042091BD049217D0F08091C104D7
:103C500091E089278093C1041092C5048091B1043A
:103C6000882369F09091160183E4989F802D112498
:103C7000895B809316010E94AD249093B50481E086
:103C80006091BA04662319F19091C6049F5F9093E6
:103C9000C6042091BE049217D0F08091C20491E036
:103CA00089278093C2041092C6048091B2048823AD
:103CB00079F09091160183E4989F802D1124895BFF
:103CC000809316010E94AD249093B60401C0811127
:103CD0000C94DD1A08951F920F920FB60F921124C3
:103CE0002F933F934F935F936F937F938F939F9304
:103CF000AF93BF93EF93FF930E94C91DFF91EF9184
:103D0000BF91AF919F918F917F916F915F914F91F3
:103D10003F912F910F900FBE0F901F901895CF934A
:103D2000DF93EC0160E00E94261B87E198E09CA7EE
:103D30008BA7FE01FF961182108281E08C83709622
:103D400089E080833C96108238961082C559DF4FF7
:103D50001882DF91CF910895CF93DF93EC0160E05B
:103D60000E94261B8FE098E09CA78BA7FE01FF9680
:103D70001182108281E08C83709689E080833C966A
:103D8000108238961082C559DF4F1882DF91CF918B
:103D90000895CF93DF93EC0160E00E94261B89E039
:103DA00098E09CA78BA7FE01FF961182108281E00C
:103DB0008C83709689E080833C96108238961082BE
:103DC000C559DF4F1882DF91CF910895FC01862FEE
:103DD000992787FD9095628970E06F5F7F4F0E9401
:103DE000CD24818B08951F920F920FB60F9211244C
:103DF0002F933F938F939F93AF93BF938091C8046A
:103E00009091C904A091CA04B091CB043091C70429
:103E100023E0230F2D3720F40196A11DB11D05C00D
:103E200026E8230F0296A11DB11D2093C70480939D
:103E3000C8049093C904A093CA04B093CB048091A2
:103E4000CC049091CD04A091CE04B091CF04019602
:103E5000A11DB11D8093CC049093CD04A093CE04FA
:103E6000B093CF04BF91AF919F918F913F912F91CC
:103E70000F900FBE0F901F9018952FB7F894609178
:103E8000C8047091C9048091CA049091CB042FBFDB
:103E900008953FB7F8948091CC049091CD04A091FF
:103EA000CE04B091CF0426B5A89B05C02F3F19F0D2
:103EB0000196A11DB11D3FBF6627782F892F9A2F2C
:103EC000620F711D811D911D42E0660F771F881FD3
:103ED000991F4A95D1F70895CF92DF92EF92FF9202
:103EE000CF93DF936B017C010E94491FEB01C1144A
:103EF000D104E104F10489F00E9415230E94491FB6
:103F00006C1B7D0B683E734090F381E0C81AD108AA
:103F1000E108F108C851DC4FEACFDF91CF91FF9063
:103F2000EF90DF90CF900895789484B5826084BD3F
:103F300084B5816084BD85B5826085BD85B58160AD
:103F400085BDEEE6F0E0808181608083E1E8F0E00D
:103F50001082808182608083808181608083E0E83C
:103F6000F0E0808181608083E1EBF0E0808184601B
:103F70008083E0EBF0E0808181608083EAE7F0E01D
:103F80008081846080838081826080838081816081
:103F900080838081806880831092C10008958E3074
:103FA00008F08E5087702091170190E4299F9001AE
:103FB0001124822B80937C0080917A00806480930E
:103FC0007A0080917A0086FDFCCF80917800209164
:103FD000790090E0922B08951F93CF93DF93182FD1
:103FE000EB0161E00E947420209711F460E004C0AE
:103FF000CF3FD10539F461E0812FDF91CF911F913F
:104000000C94AD20E12FF0E0E55DF74FE491E33053
:10401000F9F048F4E130B9F0E230A1F584B58062FE
:1040200084BDC8BD34C0E730E9F0E83019F1E430B0
:1040300049F580918000806280938000D0938B004E
:10404000C0938A0024C084B5806884BDC7BD1FC0EA
:1040500080918000806880938000D0938900C09315
:10406000880015C08091B00080688093B000C09334
:10407000B3000DC08091B00080628093B000C09307
:10408000B40005C0C038D1050CF0B5CFAFCFDF917B
:10409000CF911F910895833081F028F4813099F0F9
:1040A0008230A1F008958730A9F08830B9F08430CB
:1040B000D1F4809180008F7D03C0809180008F7744
:1040C00080938000089584B58F7702C084B58F7D7A
:1040D00084BD08958091B0008F7703C08091B000B7
:1040E0008F7D8093B0000895CF93DF9390E0FC0123
:1040F000E15CF74F2491FC01ED5AF74F849188233E
:1041000049F190E0880F991FFC01E558F74FA59100
:10411000B4918F58974FFC01C591D4919FB761110D
:1041200008C0F8948C91209582238C9388818223F7
:104130000AC0623051F4F8948C91322F3095832369
:104140008C938881822B888304C0F8948C91822B75
:104150008C939FBFDF91CF9108950F931F93CF93BF
:10416000DF931F92CDB7DEB7282F30E0F901E55D70
:10417000F74F8491F901E15CF74F1491F901ED5A81
:10418000F74F04910023C9F0882321F069830E942E
:104190004B206981E02FF0E0EE0FFF1FEF58F74F43
:1041A000A591B4919FB7F8948C91611103C01095BB
:1041B000812301C0812B8C939FBF0F90DF91CF9102
:1041C0001F910F910895CF93DF93282F30E0F901CD
:1041D000E55DF74F8491F901E15CF74FD491F90166
:1041E000ED5AF74FC491CC2391F081110E944B20DE
:1041F000EC2FF0E0EE0FFF1FE959F74FA591B491B6
:104200002C912D2381E090E021F480E002C080E039
:1042100090E0DF91CF91089508950E94941F0E942D
:104220000C210E94B704C0E0D0E00E94F60920975C
:10423000E1F30E940000F9CFCF92DF92EF92FF925C
:104240000F931F93CF93DF936C017A01EB01E60E7E
:10425000F71E00E010E0CE15DF0561F06991D60190
:10426000ED91FC910190F081E02DC6010995080FB8
:10427000191FF1CFC801DF91CF911F910F91FF90CE
:10428000EF90DF90CF9008956115710581F0DB010B
:104290000D900020E9F7AD0141505109461B570B25
:1042A000DC01ED91FC910280F381E02D099480E026
:1042B00090E00895EF92FF920F931F93CF93DF93B7
:1042C0008C01FB01C0E0D0E064917F018FEFE81A20
:1042D000F80A662361F0D801ED91FC910190F0811C
:1042E000E02DC8010995C80FD91FF701EDCFCE0108
:1042F000DF91CF911F910F91FF90EF9008950C9453
:104300004421DC01ED91FC910190F081E02D0994B4
:104310006AE871E00C9444210F931F93CF93DF93CD
:10432000EC010E945A218C01CE010E948821800F4D
:10433000911FDF91CF911F910F9108950F931F93BC
:10434000CF93DF93EC010E9444218C01CE010E94A7
:104350008821800F911FDF91CF911F910F910895B8
:104360008F929F92AF92BF92CF92DF92EF92FF9285
:104370000F931F93CF93DF93CDB7DEB7A1970FB6FF
:10438000F894DEBF0FBECDBF7C01C42EE52FCB015C
:10439000D22E19A221E02D1510F02AE0D22E8E0186
:1043A0000F5D1F4F8D2C912CA12CB12C6C2D7E2FCD
:1043B000A50194010E94E1248C2DD29E8019112424
:1043C000015011098A3014F4805D01C0895CF80144
:1043D0008083211531054105510521F0C22EE32FBF
:1043E000CA01E4CFB801C7010E944421A1960FB6CB
:1043F000F894DEBF0FBECDBFDF91CF911F910F911B
:10440000FF90EF90DF90CF90BF90AF909F908F90F4
:104410000895CF92DF92EF92FF920F931F93CF9365
:10442000DF93EC016A017B012115310579F4E88104
:10443000F9810190F081E02D642FDF91CF911F91E0
:104440000F91FF90EF90DF90CF9009942A303105C3
:10445000E9F477FF1AC06DE20E9481218C014427A4
:104460005527BA014C195D096E097F092AE0CE0172
:104470000E94B021800F911FDF91CF911F910F916A
:10448000FF90EF90DF90CF9008952AE0B701A6014A
:10449000CE01DF91CF911F910F91FF90EF90DF90B0
:1044A000CF900C94B0219A01AB01662757FD60951F
:1044B000762F0C9409220F931F93CF93DF93EC0177
:1044C0009A01AB01662757FD6095762F0E9409225D
:1044D0008C01CE010E948821800F911FDF91CF9126
:1044E0001F910F9108952115310541F4DC01ED91E3
:1044F000FC910190F081E02D642F09940C94B0217F
:104500009A01AB0160E070E00C94732261157105B3
:104510008105910511F00C9496250895CF93DF93B2
:1045200000D000D0CDB7DEB79B01AC01611571059D
:104530008105910569F069833A834B835C830E940E
:10454000912529813A814B815C810E94032503C01A
:1045500060E070E0CB010F900F900F900F90DF9113
:10456000CF910895CF92DF92EF92FF926B017C0181
:10457000621773078407950764F4CA01B9016C19BF
:104580007D098E099F090E948E226C0D7D1D8E1D56
:104590009F1DFF90EF90DF90CF9008954F925F9214
:1045A0006F927F92AF92BF92CF92DF92EF92FF9283
:1045B0000F931F93CF93DF93CDB7DEB729013A0155
:1045C000621B730B840B950B29893A894B895C8993
:1045D0002A193B094C095D09298B3A8B4B8B5C8B63
:1045E0009B01AC0169897A898B899C890E949D24F1
:1045F000E418F50806091709A80197010E94032588
:104600002A0D3B1D4C1D5D1DCA01B901DF91CF91E3
:104610001F910F91FF90EF90DF90CF90BF90AF90E0
:104620007F906F905F904F90089508955058BB27EA
:10463000AA270ED0E5C0D6D030F0DBD020F031F480
:104640009F3F11F41EF4CBC00EF4E095E7FBC1C010
:10465000E92FE7D080F3BA1762077307840795073D
:1046600018F071F49EF5FFC00EF4E0950B2EBA2FF2
:10467000A02D0B01B90190010C01CA01A001112468
:10468000FF27591B99F0593F50F4503E68F11A1614
:10469000F040A22F232F342F4427585FF3CF4695A5
:1046A00037952795A795F0405395C9F77EF41F16C7
:1046B000BA0B620B730B840BBAF09150A1F0FF0F91
:1046C000BB1F661F771F881FC2F70EC0BA0F621F7D
:1046D000731F841F48F4879577956795B795F7956D
:1046E0009E3F08F0B3CF9395880F08F09927EE0FFF
:1046F00097958795089504D06894B111B5C0089531
:1047000098D088F09F5790F0B92F9927B751A0F013
:10471000D1F0660F771F881F991F1AF0BA95C9F755
:1047200012C0B13081F09FD0B1E008959CC0672FD6
:10473000782F8827B85F39F0B93FCCF38695779505
:104740006795B395D9F73EF49095809570956195EE
:104750007F4F8F4F9F4F0895E89409C097FB3EF419
:1047600090958095709561957F4F8F4F9F4F9923BE
:10477000A9F0F92F96E9BB279395F695879577953C
:104780006795B795F111F8CFFAF4BB0F11F460FFFC
:104790001BC06F5F7F4F8F4F9F4F16C0882311F054
:1047A00096E911C0772321F09EE8872F762F05C068
:1047B000662371F096E8862F70E060E02AF09A9503
:1047C000660F771F881FDAF7880F9695879597F9F8
:1047D000089597F99F6780E870E060E008959FEF83
:1047E00080EC089500240A94161617061806090688
:1047F000089500240A941216130614060506089557
:10480000092E0394000C11F4882352F0BB0F40F4DE
:10481000BF2B11F460FF04C06F5F7F4F8F4F9F4F1E
:10482000089557FD9058440F551F59F05F3F71F0A0
:104830004795880F97FB991F61F09F3F79F0879507
:104840000895121613061406551FF2CF4695F1DF90
:1048500008C0161617061806991FF1CF8695710520
:10486000610508940895E894BB2766277727CB0154
:1048700097F908950BD0C4CFB5DF28F0BADF18F050
:10488000952309F0A6CFABCF1124EECFCADFA0F35A
:10489000959FD1F3950F50E0551F629FF001729FD5
:1048A000BB27F00DB11D639FAA27F00DB11DAA1FF4
:1048B000649F6627B00DA11D661F829F2227B00D41
:1048C000A11D621F739FB00DA11D621F839FA00DCC
:1048D000611D221F749F3327A00D611D231F849F1C
:1048E000600D211D822F762F6A2F11249F57504073
:1048F0008AF0E1F088234AF0EE0FFF1FBB1F661F0E
:10490000771F881F91505040A9F79E3F510570F0C6
:1049100060CFAACF5F3FECF3983EDCF386957795A6
:104920006795B795F795E7959F5FC1F7FE2B880FC1
:10493000911D9695879597F90895DB018F939F9325
:104940000E942225BF91AF91A29F800D911DA39F30
:10495000900DB29F900D11240895991B79E004C029
:10496000991F961708F0961B881F7A95C9F78095AE
:104970000895AA1BBB1B51E107C0AA1FBB1FA617A6
:10498000B70710F0A61BB70B881F991F5A95A9F7F8
:1049900080959095BC01CD01089597FB072E16F4E4
:1049A000009407D077FD09D00E94B92407FC05D0F8
:1049B0003EF4909581959F4F0895709561957F4F36
:1049C0000895A1E21A2EAA1BBB1BFD010DC0AA1F50
:1049D000BB1FEE1FFF1FA217B307E407F50720F068
:1049E000A21BB30BE40BF50B661F771F881F991FE3
:1049F0001A9469F760957095809590959B01AC012C
:104A0000BD01CF010895052E97FB1EF400940E946E
:104A10001A2557FD07D00E94E12407FC03D04EF46D
:104A20000C941A2550954095309521953F4F4F4F46
:104A30005F4F089590958095709561957F4F8F4F4A
:104A40009F4F08950E943325A59F900DB49F900D10
:104A5000A49F800D911D11240895EE0FFF1F059056
:104A6000F491E02D0994A29FB001B39FC001A39FD0
:104A7000700D811D1124911DB29F700D811D112497
:104A8000911D08958F929F92AF92BF92CF92DF9225
:104A9000EF92FF92CF93DF93EC01688179818A8155
:104AA0009B81611571058105910521F464E279ED21
:104AB0008BE597E02DE133EF41E050E00E940325C4
:104AC00049015A019B01AC01A7EAB1E40E942225E9
:104AD0006B017C01ACEEB4EFA50194010E94A2250C
:104AE000C60ED71EE81EF91EF7FE06C081E0C81AE2
:104AF000D108E10880E8F80AC882D982EA82FB82FC
:104B0000C701B6019F77DF91CF91FF90EF90DF90C3
:104B1000CF90BF90AF909F908F9008950E944225B4
:104B2000089586E091E00E94422508956093060171
:104B30007093070180930801909309010895B7FFCE
:104B40000C9422250E942225821B930B0895F89431
:024B5000FFCF95
:104B52000000D40480000100000001FFFFFFFF01FC
:104B62000100240014000101504155534544002026
:104B72006672616D6573001620746F2072657375BD
:104B82006D6500596F752064696564210054696D13
:104B9200653A00206672616D65732E00507265730E
:104BA200732016004350553A002500467265652071
:104BB20052414D3A200015204A756D700016205260
:104BC200756E00172050617573650000000000903B
:104BD200131C214C4F41444552000D0A006E616E78
:0A4BE20000696E66006F7666000041
:00000001FF
