:100000000C9453040C947B040C947B040C947B049C
:100010000C947B040C947B040C947B040C947B0464
:100020000C947B040C947B040C948B190C941D1879
:100030000C947B040C947B040C947B040C947B0444
:100040000C947B040C9476100C947B040C947B042D
:100050000C947B040C947B040C947B040C945D1234
:100060000C947B040C947B040C947B040C947B0414
:100070000C947B040C947B040C947B040C947B0404
:100080000C94E9100C947B040C947B040C947B047A
:100090000C947B040C947B040C947B040C947B04E4
:1000A0000C947B040C947B040C947B0480138513C8
:1000B0008A1394139E13E813E813E813A813B213DA
:1000C000BC13C613D313E813DB1309140C14FB136E
:1000D000FF1305142D142D142D14101414141814BA
:1000E0001E1422142D142814FCCEC7FFFFC786FC53
:1000F000183C246642C3817E3C5A5A5A3C24240050
:10010000F0F89C8E8783878E9CF8F00000FEFF033A
:1001100003030303070EFCF80000FEFF03030303C1
:1001200003070EFCF80000FFFF00000000000000C5
:10013000FFFF0000FEFF8383838383C7EE7C3800CC
:1001400000F8FC0E07030303070EFCF800003F7FD6
:10015000E0C08080C0E07F3FFFFF0101010101019D
:1001600001FFFF0000FFFF0C0C0C0C1C3E77E3C1ED
:1001700000007FFFC0C0C0C0C0E0703F1F00001F74
:100180003F70E0C0C0C0E0703F1F00007FFFC1C1F2
:10019000C1C1C1E3773E1C00001F3F70E0C0C0C07A
:1001A000E0703F1F000000000001FFFF01000000A1
:1001B00000000000003E5B4F5B3E3E6B4F6B3E1C01
:1001C0003E7C3E1C183C7E3C181C577D571C1C5E18
:1001D0007F5E1C00183C1800FFE7C3E7FF001824EF
:1001E0001800FFE7DBE7FF30483A060E2629792999
:1001F00026407F050507407F05253F5A3CE73C5ACE
:100200007F3E1C1C08081C1C3E7F14227F22145FAA
:100210005F005F5F06097F017F006689956A606005
:1002200060606094A2FFA29408047E040810207EFF
:10023000201008082A1C08081C2A08081E10101084
:10024000100C1E0C1E0C30383E3830060E3E0E06CA
:10025000000000000000005F00000007000700141D
:100260007F147F14242A7F2A1223130864623649DC
:100270005620500008070300001C224100004122C4
:100280001C002A1C7F1C2A08083E080800807030C9
:100290000008080808080000606000201008040238
:1002A0003E5149453E00427F40007249494946213E
:1002B00041494D331814127F1027454545393C4AB2
:1002C00049493141211109073649494936464949C9
:1002D000291E000014000000403400000008142211
:1002E000411414141414004122140802015909067F
:1002F0003E415D594E7C1211127C7F494949363E80
:10030000414141227F4141413E7F494949417F0965
:100310000909013E414151737F0808087F00417F70
:1003200041002040413F017F081422417F4040406E
:10033000407F021C027F7F0408107F3E4141413E06
:100340007F090909063E4151215E7F091929462688
:100350004949493203017F01033F4040403F1F208C
:1003600040201F3F4038403F631408146303047863
:1003700004036159494D43007F4141410204081083
:1003800020004141417F04020102044040404040BE
:10039000000307080020545478407F28444438382C
:1003A00044444428384444287F385454541800089E
:1003B0007E090218A4A49C787F0804047800447D78
:1003C00040002040403D007F1028440000417F4015
:1003D000007C047804787C08040478384444443869
:1003E000FC1824241818242418FC7C080404084849
:1003F0005454542404043F44243C4040207C1C209A
:1004000040201C3C4030403C44281028444C9090F4
:10041000907C4464544C440008364100000077004E
:1004200000004136080002010204023C2623263C5B
:100430001EA1A161123A4040207A385454555921E6
:1004400055557941215454784121555478402054D0
:100450005579400C1E52721239555555593954541C
:10046000545939555454580000457C410002457D8B
:10047000420001457C40F0292429F0F0282528F08D
:100480007C545545002054547C547C0A097F4932E1
:10049000494949323248484832324A4848303A415C
:1004A00041217A3A42402078009DA0A07D39444401
:1004B00044393D4040403D3C24FF2424487E49438C
:1004C000662B2FFC2F2BFF0929F620C0887E0903FD
:1004D00020545479410000447D413048484A323824
:1004E0004040227A007A0A0A727D0D19317D262950
:1004F000292F28262929292630484D402038080848
:10050000080808080808382F10C8ACBA2F1028347B
:10051000FA00007B000008142A142222142A14086E
:100520009500220095AA005500AAAA55AA55AA002E
:100530000000FF00101010FF00141414FF00101032
:10054000FF00FF1010F010F0141414FC001414F746
:1005500000FF0000FF00FF1414F404FC1414171033
:100560001F10101F101F1414141F00101010F00083
:100570000000001F101010101F10101010F01000BD
:100580000000FF101010101010101010FF100000CD
:1005900000FF140000FF00FF00001F10170000FC08
:1005A00004F414141710171414F404F40000FF00DA
:1005B000F714141414141414F700F7141414171463
:1005C00010101F101F141414F4141010F010F00069
:1005D000001F101F0000001F14000000FC1400008A
:1005E000F010F01010FF10FF141414FF141010106E
:1005F0001F00000000F010FFFFFFFFFFF0F0F0F021
:10060000F0FFFFFF0000000000FFFF0F0F0F0F0FB4
:1006100038444438447C2A2A3E147E0202060602EC
:100620007E027E0263554941633844443C04407E67
:10063000201E2006027E020299A5E7A5991C2A49E0
:100640002A1C4C7201724C304A4D4D30304878486B
:1006500030BC625A463D3E494949007E0101017E57
:100660002A2A2A2A2A44445F444440514A444040AA
:10067000444A51400000FF0103E080FF00000808E9
:100680006B6B083612362436060F090F0600001869
:10069000180000001010003040FF0101001F010190
:1006A0001E00191D1712003C3C3C3C0000000000DD
:1006B00006011501260137014A015D017201880119
:1006C0009F01B801D201EE010B022A024B026E0219
:1006D0009302BA02E40210033F037003A403DC0395
:1006E000170455049704DD0427057505C805200681
:1006F0007D06E0064907B8072D08A9082D09B909A4
:100700004D0AEA0A900B400CFA0CC00D910E6F0FC7
:100710005A1053115B1272139A14D41520178018B3
:10072000F519801B231DDE1EB420A622B524E42665
:100730003429A72B402E0031EA330037453ABC3D1F
:1007400068414C456B49C84D68524F57805C006208
:1007500010111213151617181A1C1D1F21232527F7
:10076000292C2E3134373A3E4145494E52575C626E
:10077000686E757B838B939CA5AFB9C4D0DCE9F719
:100780000301D5F08D14A1C881CFD9F1AF20001499
:10079000021302120215020702080204010C0106EC
:1007A00001000000000200090F0000030401000C1A
:1007B0000000000000000000000000000000000039
:1007C0000004080201104080401020408040800852
:1007D00002040180402010020110801020404020BF
:1007E00004040404040304050202020204030202D6
:1007F00002020606060606060404020202040400BB
:10080000000000250028002B002E00310000000011
:1008100000240027002A002D00300012010002EF02
:100820000201404123368000010102030112010050
:100830000200000040412336800001010203014113
:10084000726475696E6F204C4C4300417264756927
:100850006E6F204C656F6E6172646F000403090453
:10086000080B00020202010009040000010202005C
:1008700000052400100105240101010424020605DD
:10088000240600010705810310004009040100024D
:100890000A0000000705020240000007058302402D
:1008A00000004208021B11241FBECFEFDAE0DEBFBA
:1008B000CDBF11E0A0E0B1E0E6EBFBE302C00590A4
:1008C0000D92AC34B107D9F726E0ACE4B1E001C039
:1008D0001D92AE30B207E1F718E0C6EAD8E004C0D6
:1008E0002297FE010E94491DC23AD107C9F70E9412
:1008F000C8150C94D91D0C94000082E691E00E946A
:10090000420D6EE182E691E00C94A6082F923F9290
:100910004F925F926F927F928F929F92AF92BF920F
:10092000CF92EF920F93CF93DF93CAEFDFEF48E3BD
:10093000A42EB12C52E5852E912C66246A94762C37
:1009400044244394512CE9EF2E2E33243A9482E62A
:1009500091E00E94120B80910401882309F4A4C243
:10096000809107019091080101969093080180936E
:10097000070140E050E060E070E082E691E00E9414
:10098000810E60910701709108014AE050E082E613
:1009900091E00E947D1540910C0150910D018091D4
:1009A000600190916101480F591F50930D014093D0
:1009B0000C0160910E0170910F01CC24C39438E0BA
:1009C000E32E08E028EF30E082E691E00E94A40BDD
:1009D00060E282E691E00E948D0E882341F08091D2
:1009E0000E0190910F01181619060CF4A3C260E4D1
:1009F00082E691E00E948D0E882341F080910E01E5
:100A000090910F01883791050CF49AC260E282E65A
:100A100091E00E948D0E882371F080910E019091DB
:100A20000F01181619063CF464E082E691E00E947A
:100A30008D0E81118BC260E482E691E00E948D0EE2
:100A4000882371F080910E0190910F018C349105F3
:100A50003CF464E082E691E00E948D0E811180C238
:100A600068E082E691E00E948D0E882321F080915B
:100A7000090181117FC22091580130915901809163
:100A800007019091080128173907C1F42CE030E0E4
:100A900040E050E061E070E080E090E00E94A91545
:100AA00070935701609356018091580190915901BC
:100AB00088539F4F9093590180935801809156011C
:100AC000909157010197039720F540915A01509159
:100AD0005B0160915C0170915D01CC24C39428E0BE
:100AE000E22E08E020EF30E082E691E00E94A40BC5
:100AF00080915A0190915B01019690935B018093E4
:100B00005A01109255011092540110925101109205
:100B1000500180915601909157010497039788F5F1
:100B200040915201509153016091540170915501CF
:100B3000CC24C39498E0E92E08E028EE30E082E669
:100B400091E00E94A40B6091540170915501882797
:100B500077FD8095982F0E94521C20E030E040ECF9
:100B60005FE30E94BB1B0E941F1C709355016093A2
:100B7000540110925B0110925A011092510110928F
:100B8000500180915401909155018035910594F068
:100B9000109255011092540122E230E040E050E002
:100BA00066E070E080E090E00E94A9157093530128
:100BB00060935201809156019091570107970397D6
:100BC000B0F440914E0150914F01609150017091ED
:100BD000510101E026E082E691E00E94800A109235
:100BE00055011092540110925B0110925A018091AC
:100BF0004E0190914F01181619062CF050920601E3
:100C00004092050106C08A9724F070920601609216
:100C10000501809150019091510101978E37910506
:100C200048F12AE230E040E050E060E070E0CB01C3
:100C30000E94A91570934F0160934E0121E030E0AE
:100C400040E050E060E070E0CB010E94A915709395
:100C50004D0160934C016115710529F49092510189
:100C60008092500107C06130710521F470935101E9
:100C70006093500180914C0190914D01009789F44F
:100C80006091500170915101882777FD8095982FD0
:100C90000E94521C20E030E040EC5FE30E94BA1B4F
:100CA00012C0019721F56091500170915101882780
:100CB00077FD8095982F0E94521C20E030E040EC98
:100CC0005FE30E94BB1B0E941F1C70935101609345
:100CD000500180914E0190914F012091050130917A
:100CE0000601820F931F90934F0180934E018091D4
:100CF0005601909157010A97039718F5CC24C39495
:100D000088E0E82E0EE228E04AE050E068E770E074
:100D100082E691E00E94150B80910E0190910F01E7
:100D2000029690930F0180930E011092550110923C
:100D3000540110925B0110925A01109251011092CD
:100D4000500180910C0190910D018234910514F0B5
:100D50001092040180910E0190910F0120915C018D
:100D600030915D018217930784F0285F3F4F281769
:100D700039075CF02091560130915701215031091B
:100D80002330310510F41092040120915401309168
:100D900055018217930784F0285F3F4F28173907C2
:100DA0005CF02091560130915701245031092330D5
:100DB000310510F41092040120915001309151013D
:100DC0008217930784F02A5F3F4F281739075CF09A
:100DD00020915601309157012750310923303105B8
:100DE00010F41092040108978137910548F480911E
:100DF0005601909157010A97039710F4109204013D
:100E000080915E0190915F01892B09F04DC0EE2425
:100E1000E39404E020E84CE350E060E070E082E618
:100E200091E00E94DB0A80910C0190910D01C8971E
:100E300064F0B0920D01A0920C0110926101109229
:100E4000600181E0809309010BC080916001909165
:100E500061010196909361018093600110920901F4
:100E600060915C0170915D0168337105ECF0409117
:100E70005A0150915B01EE24E39408E028E082E6F9
:100E800091E00E94DB0AD0935B01C0935A012CE4ED
:100E900030E040E050E060E070E0CB010E94A91536
:100EA00070935D0160935C018091040181113DC0EC
:100EB00040E050E060E070E082E691E00E94810E48
:100EC00060910701709108014AE050E082E691E0EC
:100ED0000E947D1548E250E060E070E082E691E01B
:100EE0000E94810E63E271E082E691E00E94DB14D1
:100EF00064E082E691E00E948D0E8823B1F08FEFCE
:100F00009FEF9093080180930701DF91CF910F919C
:100F1000EF90CF90BF90AF909F908F907F906F9009
:100F20005F904F903F902F90089582E691E00E944D
:100F30008A0E0DCD029790930F0180930E0157CD2D
:100F4000029690930F0180930E0160CD80910E0167
:100F500090910F01039790930F0180930E016BCD39
:100F600080910E0190910F01039690930F01809351
:100F70000E0176CD80910C0190910D010197909317
:100F80000D0180930C01309261012092600173CDBC
:100F900082E691E00E94120B68E082E691E00E94F6
:100FA0008D0E882309F46AC086E290E090930F01C9
:100FB00080930E0184E290E090930D0180930C01E8
:100FC00081E090E090930B0180930A01909361017E
:100FD0008093600110925B0110925A0128E730E083
:100FE00040E050E060E070E0CB010E94A9157093F2
:100FF0005D0160935C0110925901109258011092AA
:10100000570110925601109255011092540122E39B
:1010100030E040E050E060E070E0CB010E94A915B4
:10102000709353016093520110925101109250013C
:101030002AE330E040E050E066E070E080E090E0DD
:101040000E94A91570934F0160934E0121E030E09A
:1010500040E050E060E070E0CB010E94A915709381
:101060004D0160934C018FEF9FEF909306018093A9
:10107000050181E0809304010E94860482E691E0EC
:101080000C948A0E82E691E00E947C0828E730E00A
:1010900040E050E060E070E0CB010E94A915709341
:1010A0005D0160935C0122E330E040E050E060E0ED
:1010B00070E0CB010E94A915709353016093520117
:1010C0002AE330E040E050E066E070E080E090E04D
:1010D0000E94A91570934F0160934E0121E030E00A
:1010E00040E050E060E070E0CB010E94A9157093F1
:1010F0004D0160934C010895CF93DF93EC0188E399
:1011000091E0998388831B821A82CE010E94141178
:1011100080E391E0998388838CE38E8380E18987E3
:1011200018861F821E861F86188A198A1A8AFE014F
:10113000EC5EFB4F11821082329611821082C85EE3
:10114000DB4F81E08883DF91CF910895FC016683B6
:1011500070E088EE93E00E94F21C61870895603889
:10116000710518F54034510500F5E42FE695E69534
:10117000E695F0E047705527F695FE2FEE27F79598
:10118000E795E60FF71FE80FF91F81E090E0042EC6
:1011900001C0880F0A94EAF7222319F09489982B4A
:1011A00003C0809594899823948B08952F923F9241
:1011B0004F925F926F927F928F929F92AF92BF9267
:1011C000CF92DF92EF92FF920F931F93CF93DF9313
:1011D00000D000D01F92CDB7DEB75C014B013A01C1
:1011E000802F422F50E05D834C8344244394512C44
:1011F000441A550A1A01319421943108220C331CE7
:10120000CC24C394D12C01E010E0382F3470398302
:10121000382F32703A83382F38703B838170F82E24
:10122000C6010197EC81FD818E179F070CF07CC0F1
:1012300057FC0BC04C815D81415051095D834C834B
:1012400052E0250E311C420C531C0E5F1F4F400E06
:10125000511E39813323B1F02E2D4C815D81460D15
:10126000571DB601680D791DC5010E94AF082E2DCE
:10127000A601460D571D6C817D81680D791DC50144
:101280000E94AF083A813323B9F02E2DA3018C813F
:101290009D81481B590BB601680D791DC5010E943F
:1012A000AF082E2DA3014C195D096C817D81680D5D
:1012B000791DC5010E94AF083B813323B9F02E2D63
:1012C000A601460D571DB4018C819D81681B790BC9
:1012D000C5010E94AF082E2D4C815D81460D571D22
:1012E000B4016C197D09C5010E94AF08FF20C1F04F
:1012F0002E2DA3014C195D09B401EC81FD816E1BFB
:101300007F0BC5010E94AF082E2DA3018C819D810A
:10131000481B590BB4016C197D09C5010E94AF0827
:101320009FEFC91AD90A7CCF0F900F900F900F90A2
:101330000F90DF91CF911F910F91FF90EF90DF9071
:10134000CF90BF90AF909F908F907F906F905F9065
:101350004F903F902F900895AF92BF92CF92DF921F
:10136000EF92FF920F93CF93DF936C015B017A01B1
:10137000E20EF11CEA0157FF0DC0C0E0D0E00AC048
:10138000C417D5077CF4202FAE01B501C6010E9419
:10139000AF082196A70181E4E816F1048CF340E43C
:1013A00050E0EECFDF91CF910F91FF90EF90DF9063
:1013B000CF90BF90AF9008952F923F924F925F923F
:1013C0006F927F928F929F92AF92BF92CF92DF9255
:1013D000EF92FF920F931F93CF93DF9300D01F9252
:1013E000CDB7DEB74C013B012A011E2D822F90E0C4
:1013F0009B838A8322242394312C281A390A7C0166
:10140000F194E194F108EE0CFF1CAA24A394B12CF2
:10141000302F317039831F5F0270D02EC5010197C4
:10142000EA81FB818E179F070CF054C037FC0AC07D
:101430008A819B8101979B838A8392E0E90EF11C4C
:101440002E0C3F1CC501880F991F0196280E391ECE
:1014500039813323E1F02A81220F210F0C2DA201C3
:101460008A819B81481B590BB501660D771DC4010C
:101470000E94AC092A2D220F210FA2014A195B09F3
:101480006A817B81660D771DC4010E94AC09DD2055
:10149000E9F02A81220F210F0C2DA201EA81FB81A4
:1014A0004E1B5F0BB3016A197B09C4010E94AC0992
:1014B0002A2D220F210FA2014A195B09B3018A814B
:1014C0009B81681B790BC4010E94AC099FEFA91A8C
:1014D000B90AA4CF0F900F900F90DF91CF911F9179
:1014E0000F91FF90EF90DF90CF90BF90AF909F90C3
:1014F0008F907F906F905F904F903F902F900895C6
:101500008F929F92AF92BF92CF92EF92FF920F93E2
:101510001F93CF93DF93EC015B014A01122FC02E82
:10152000220F2F5F411B51090E94AC09E12CF12CC5
:1015300003E0212FA401B501CE010E94DC09DF9157
:10154000CF911F910F91FF90EF90CF90BF90AF90F0
:101550009F908F900895AF92BF92CF92DF92EF92BB
:10156000FF920F93CF93DF936C015A017B01E20E40
:10157000F11CEB0177FF0DC0C0E0D0E00AC0C61738
:10158000D7077CF4202FA501BE01C6010E94AF0839
:101590002196B70181E8E816F1048CF360E870E069
:1015A000EECFDF91CF910F91FF90EF90DF90CF9032
:1015B000BF90AF9008958F929F92AF92BF92CF92BB
:1015C000DF92EF920F931F93CF93DF936C015A0139
:1015D000102FEB014B01820E911CC815D9054CF45C
:1015E0000E2D212FA501BE01C6010E94AC09219636
:1015F000F4CFDF91CF911F910F91EF90DF90CF90BB
:10160000BF90AF909F908F9008954496B62FB111E0
:10161000BFEFFC010024B193B193B193B193039454
:10162000D1F7089560E00C94050B2F923F924F92F2
:101630005F926F927F928F929F92AF92BF92CF9262
:10164000DF92EF92FF920F931F93CF93DF9300D01F
:101650001F92CDB7DEB79B838A833B014A01D22E0E
:10166000F02E1E2DE194EE0C3E2D320F412E512C0A
:101670005B01A40CB51C0C2D232FB50139830E94EE
:10168000AB0A14012F0C311CA101415051093981C1
:10169000232FB5018A819B810E94AB0AFE0C840C2A
:1016A000951C2F2DA401B3018A819B810E94AC0956
:1016B0006D0C711CB301615071092F2DA4018A8139
:1016C0009B810E94AC09EC2C01E0212FA401B50103
:1016D0008A819B810E94D6086418750881E0681A87
:1016E000710802E0212FA401B3018A819B810E942D
:1016F000D60824183508E1E02E1A310804E0212F1D
:10170000A101B3018A819B810E94D60808E0212FA4
:10171000A101B5018A819B810E94D6080F900F908C
:101720000F90DF91CF911F910F91FF90EF90DF907D
:10173000CF90BF90AF909F908F907F906F905F9071
:101740004F903F902F9008952F923F924F925F922B
:101750006F927F928F929F92AF92BF92CF92DF92C1
:10176000EF92FF920F931F93CF93DF9300D000D09F
:101770001F92CDB7DEB7C982202E312CFB01E20DBE
:10178000F31DF7FD13C1603871050CF00FC1FA01AC
:10179000EE0DF11DF7FD0AC1403451050CF006C1F4
:1017A000DA0157FF04C0AA27BB27A41BB50BFD0114
:1017B000E770FF27FB83EA83FA0157FD3796DF01C5
:1017C00013E0B595A7951A95E1F7BD83AC8357FF54
:1017D0000CC01197BD83AC8348E050E0DA01EA8188
:1017E000FB81AE1BBF0BBB83AA834E2D469546954E
:1017F0004695C42ED12C4E2D477019F0FFEFCF1A0D
:10180000DF0A49014C815D815695542F4427579535
:101810004795480F591F2C813D81F8E06F2E712CA0
:101820008A819B81681A790AC901AC81BD818A1BB2
:101830009B0B8C159D050CF0B9C02830310509F4BF
:10184000B5C02F3F9FEF39070CF4A3C0CB0100E0D8
:1018500010E0DA01A058BF4F2D01021513050CF05E
:1018600098C08038910509F494C097FD8EC02F3F31
:10187000BFEF3B0709F494C0D801A80DB91D7A0148
:10188000E80EF91EE981E13071F4FD01A491B0E0A8
:101890000A8002C0AA0FBB1F0A94E2F7F701B488BE
:1018A000AB29A48B28C0F981F11114C0FD01A491CA
:1018B000EA2FF0E00A8002C0EE0FFF1F0A94E2F761
:1018C000E095F095D7015496AC905497B12CEA214D
:1018D000FB210FC0FD01A491EA2FF0E00A8002C0B5
:1018E000EE0FFF1F0A94E2F7D7015496BC9054976D
:1018F000EB255496EC93AA81BB81AB2B09F445C030
:101900002730310509F441C0F801E80DF91DB9810E
:10191000B13089F4E491F0E0062C02C0F595E7952A
:101920000A94E2F77201E80EF91ED7015496BC90B2
:101930005497EB2928C0B981B11115C0E491F0E0AA
:10194000062C02C0F595E7950A94E2F7E095F0952C
:101950007201E80EF91ED7015496AC905497B12C41
:10196000EA21FB2110C0E491F0E0062C02C0F595BD
:10197000E7950A94E2F77201E80EF91ED701549632
:10198000BC905497EB255496EC930F5F1F4F019634
:1019900064CF2F5F3F4F820C931C40585F4F44CF62
:1019A000AA81BB81AB2B09F0AFCFEFCF0F900F9087
:1019B0000F900F900F90DF91CF911F910F91FF909B
:1019C000EF90DF90CF90BF90AF909F908F907F90DF
:1019D0006F905F904F903F902F9008958F929F92BD
:1019E000AF92BF92CF92EF920F931F93CF93DF935B
:1019F0005C01CEEEDFEF18E14C0184E1880E911C12
:101A000020E040E0612F6C1BC5010E94E611C5017A
:101A10000E94120BCC24C39400E1E02E08E520E0E4
:101A200031E0AE0164E170E0C5010E94A40BC40185
:101A30000E94CA116BE170E080E090E00E94CA123F
:101A4000C03F31F46AEF70E080E090E00E94CA127B
:101A50002196C931D105A1F66EEE72E080E090E0EA
:101A60000E94CA1220E040E060E0C501DF91CF9102
:101A70001F910F91EF90CF90BF90AF909F908F905C
:101A80000C94E611CF93DF93EC010E9447110E9462
:101A90000C128078803849F40E94DA112FEF4FEF52
:101AA0006FEFCE010E94E611FFCFCE010E94EE0C37
:101AB000249665E0CE010E94570F6DE0CE010E9492
:101AC000570FDF91CF910C94AD0E2F923F924F9212
:101AD0005F926F927F928F929F92AF92BF92CF92BE
:101AE000DF92EF92FF920F931F93CF93DF93CDB7C7
:101AF000DEB728970FB6F894DEBF0FBECDBF9E832A
:101B00008D832A01603871050CF06DC04034510599
:101B10000CF069C0CB01A5E0CA9E800D911D112477
:101B2000181619060CF05FC0EC2DF0E0FC83EB8377
:101B3000CA01F8E0CF9E800D911D112418161906D8
:101B40000CF051C0A5E02A9FC00111245B0118864A
:101B50001F8280559E4F9A838983BF81B53041F0A3
:101B6000E981FA818F819885E80FF91F149101C0EE
:101B700010E0320128E0D22E10FF02C0F02E01C08A
:101B8000FE2CF1100BC0E01209C01695DA94AB815F
:101B9000BC816A0E7B1ED110EFCF19C01501822DBA
:101BA0008A198C1590F74301882D86198C1558F4E5
:101BB0002F2DA401B1018D819E810E94AF08BFEF3E
:101BC0008B1A9B0AF1CFEFEF2E1A3E0AE8CF8F81D6
:101BD0009885019698878F83AB81BC81AA0EBB1E26
:101BE000069709F0BACF28960FB6F894DEBF0FBE5D
:101BF000CDBFDF91CF911F910F91FF90EF90DF90BC
:101C0000CF90BF90AF909F908F907F906F905F909C
:101C10004F903F902F9008958F929F92AF92BF92D6
:101C2000CF92EF920F93CF93DF93EC01262F6A3080
:101C300099F4FC01E85EFB4F20813297808191810D
:101C400038E0239F800D911D112491838083CC5E09
:101C5000DB4F198218824BC06D3009F448C0FC017B
:101C6000EA5EFB4F408151815C018CEEA81A8BEF3C
:101C7000B80AF501608171814E01F8EE8F1AFBEF11
:101C80009F0AF401C080E12C01E0CE010E94650DA5
:101C9000F4012081422F50E0F50180819181F6E02E
:101CA0002F9F800D911D1124F5019183808335961E
:101CB00020812223E1F06AEF64039001659F300DDB
:101CC000112420583F4F281739078CF4E881F981F7
:101CD0000190F081E02D6AE0CE01DF91CF910F916C
:101CE000EF90CF90BF90AF909F908F900994DF912D
:101CF000CF910F91EF90CF90BF90AF909F908F902A
:101D00000895FC01EC5EFB4F718360833296518332
:101D10004083089544960C94CA11CF93DF931F9289
:101D2000CDB7DEB769830E940C126981982F962384
:101D300081E0961380E00F90DF91CF910895E4E663
:101D4000F0E08081877F8083E5E6F0E08081877F17
:101D5000808381E080937C0508951092890582E05C
:101D600090E00E94C91D81110C949F0E0895CF929E
:101D7000DF92EF92FF921F93CF93DF9390918A05AA
:101D8000891708F065C067FD63C0E82FF0E0E058F0
:101D9000F84F1491E62FF0E0603330F4E05BF84F39
:101DA000E491CE2FD0E006C0EE0FFF1FE05BF94FAD
:101DB000C591D4916E01E12CF12C60E074E284EFC6
:101DC00090E0A70196010E94281D21503109410988
:101DD00051092115310581E04807510570F060E98E
:101DE00070ED83E090E0A70196010E94281D21502C
:101DF00031094109510993E001C091E01130C9F066
:101E0000133031F580919100887F892B8093910068
:101E10003093990020939800D0938805C09387054C
:101E200081E08093860580917100826080937100CB
:101E30000FC080918100887F892B8093810030932F
:101E400089002093880080916F00826080936F00EA
:101E5000DF91CF911F91FF90EF90DF90CF90089589
:101E6000E82FF0E0E058F84FE491E13019F0E3306A
:101E700069F0089580916F008D7F80936F002091AD
:101E80009405E0919505F091960508C0109286059D
:101E900020918D05E0918E05F0918F05808190E075
:101EA00030E0209530958223932380830895CF934B
:101EB000DF93C62F80918A05823009F46BC0E82F2A
:101EC000F0E0E058F84FD491A82FB0E0A557BA4FF2
:101ED0006C938F5F80938A0561E08C2F0E942E1493
:101EE000D13091F1D33009F055C01092900010928A
:101EF0009100809191008860809391008091910081
:101F00008160809391006C2F70E0FB01E052F84FEC
:101F1000249130E0220F331F2150384FF901859171
:101F2000949190938F0580938E05FB01EF53F84FAA
:101F3000649160938D056CE380E00E94B70E80E0B1
:101F4000DF91CF910C94300F10928000109281009D
:101F50008091810088608093810080918100816000
:101F6000809381006C2F70E0FB01E052F84F2491C8
:101F700030E0220F331F2150384FF90185919491A1
:101F80009093960580939505FB01EF53F84F64916C
:101F900060939405DF91CF910895E0917D05F091D4
:101FA0007E05BF016F5F7F4F70937E0560937D0557
:101FB000A4919A2F907F8A2F8F70903819F40E94E5
:101FC000300FEBCF903961F4AF014E5F5F4F50930C
:101FD0007E0540937D05FB0164910E94B70EDDCF25
:101FE000903E49F480917F059091800590937E0505
:101FF00080937D05D2CF903F19F410928905089502
:1020000097FDCBCFAF014E5F5F4F50937E0540935E
:102010007D05FB016491262F30E03A2BA0918705C6
:10202000B09188050E944D1D6C507E4F8F4F9F4F81
:1020300028EE33E040E050E00E94061D2093810529
:1020400030938205409383055093840580918105E8
:1020500090918205A0918305B0918405892B8A2BEC
:102060008B2B61F481E090E0A0E0B0E080938105EB
:1020700090938205A0938305B09384050895809181
:102080008605882349F090918D05E0918E05F091A9
:102090008F0580818927808380918905882329F194
:1020A0008091810590918205A0918305B09184056E
:1020B000892B8A2B8B2BC9F0809181059091820509
:1020C000A0918305B09184050197A109B10980937E
:1020D000810590938205A0938305B0938405892B95
:1020E0008A2B8B2B11F40C94CD0F08951F920F9215
:1020F0000FB60F9211242F933F938F939F93AF931B
:10210000BF93EF93FF9380918505882309F44BC01B
:102110008091900590919105A0919205B0919305C1
:10212000892B8A2B8B2B51F190919405E091950589
:10213000F091960580818927808380919005909108
:102140009105A0919205B0919305181619061A06EB
:102150001B0694F58091900590919105A0919205B0
:10216000B09193050197A109B109809390059093CF
:102170009105A0939205B09393051EC0109285051A
:1021800080916F008D7F80936F0020919405E09186
:102190009505F0919605808190E030E0209530958E
:1021A0008223932308C090919405E0919505F091C6
:1021B0009605808189278083FF91EF91BF91AF9130
:1021C0009F918F913F912F910F900FBE0F901F9075
:1021D00018951F920F920FB60F9211242F933F93D1
:1021E0004F935F936F937F938F939F93AF93BF931F
:1021F000EF93FF930E943F10FF91EF91BF91AF913A
:102200009F918F917F916F915F914F913F912F910E
:102210000F900FBE0F901F9018958EBD00000DB44B
:1022200007FEFDCF8EB508950895E0919905F091D0
:102230009A05808190919705892B8083E0919B0579
:10224000F0919C05908180919805809589238083E9
:102250000895E0919B05F0919C05808190919805EF
:10226000892B8083E0919905F0919A059081809166
:102270009705809589238083E0919B05F0919C05CB
:102280009081809198058095892380830895CF93CC
:10229000DF930E942712CFE8D7E0BE01FE018491B0
:1022A00022966F5F7F4FFB016491882319F00E9493
:1022B0002E14F3CF61E086E00E94671461E070E0C5
:1022C00080E090E00E94CA1260E086E00E946714FD
:1022D0006AE070E080E090E00E94CA1261E086E06F
:1022E0000E946714ECEEF7E0E491F0E0EE0FFF1FC0
:1022F000E150F84F8591949190939C0580939B05B4
:10230000EDECF7E0E491E0939805E4EEF7E0E4917A
:10231000F0E0EE0FFF1FE150F84F859194919093FC
:102320009A0580939905E5ECF7E0E491E093970531
:102330008CB58C7F8CBD8DB581608DBD0E942911BF
:10234000C2E8D7E0F7E0CF38DF0731F0FE01849133
:102350000E940D112196F6CF0E9415118091640004
:102360008160809364008091640082608093640047
:102370008091640080688093640080916400806430
:102380008093640080916500816080936500DF9197
:10239000CF91089520E030E0FC014191CF014EBD86
:1023A000119C119C119C2F5F3F4F2115F4E03F07BA
:1023B00099F70895CF93DF93C0E0D4E080E00E94C6
:1023C0000D112197D9F7DF91CF9108950F931F93A6
:1023D000CF93DF9300D0CDB7DEB70FEF10E0C80189
:1023E000861B9109BC018AE02A8349830E945A1303
:1023F0004981B801641B71098BE00E945A132A813C
:10240000B801621B710989E00F900F90DF91CF91A5
:102410001F910F910C945A138FB14CB123B150E01E
:10242000409550954074552733E0559547953A951A
:10243000E1F730E0209530952071332735952795C9
:1024400035952795242B8095807F822B0895CF93F7
:10245000CFB7F89480919D05811127C0E1EFF7E097
:102460008491E2EDF7E09491E82FF0E0EE0FFF1F8A
:10247000E35FF74FA591B4918C91892321F461E03A
:1024800081E10E94671461E081E10E942E148CB505
:1024900080618CBD8CB580648CBD61E08FE00E9452
:1024A0002E1461E080E10E942E1480919D058F5FC3
:1024B00080939D05CFBFCF9108951F920F920FB6C5
:1024C0000F9211242F933F938F939F93AF93BF93BA
:1024D00080919F059091A005A091A105B091A205C2
:1024E00030919E0523E0230F2D3720F40196A11D86
:1024F000B11D05C026E8230F0296A11DB11D209332
:102500009E0580939F059093A005A093A105B0938D
:10251000A2058091A3059091A405A091A505B09175
:10252000A6050196A11DB11D8093A3059093A40556
:10253000A093A505B093A605BF91AF919F918F91F0
:102540003F912F910F900FBE0F901F9018953FB79E
:10255000F8948091A3059091A405A091A505B09150
:10256000A60526B5A89B05C02F3F19F00196A11D11
:10257000B11D3FBF6627782F892F9A2F620F711DDB
:10258000811D911D42E0660F771F881F991F4A9594
:10259000D1F708958F929F92AF92BF92CF92DF9220
:1025A000EF92FF926B017C010E94A7124B015C012C
:1025B000C114D104E104F104F1F00E94DB150E9482
:1025C000A712681979098A099B09683E7340810539
:1025D000910570F321E0C21AD108E108F10888EEF4
:1025E000880E83E0981EA11CB11CC114D104E10423
:1025F000F10429F7DDCFFF90EF90DF90CF90BF90EF
:10260000AF909F908F900895789484B5826084BD38
:1026100084B5816084BD85B5826085BD85B58160E6
:1026200085BDEEE6F0E0808181608083E1E8F0E046
:102630001082808182608083808181608083E0E875
:10264000F0E0808181608083E1E9F0E08081826058
:102650008083808181608083E0E9F0E08081816017
:102660008083E1ECF0E080818460808380818260FF
:102670008083808181608083E3ECF0E080818160F1
:102680008083E0ECF0E0808182608083E2ECF0E027
:10269000808181608083EAE7F0E0808184608083CC
:1026A0008081826080838081816080838081806876
:1026B000808308951F93CF93DF93182FEB0161E080
:1026C0000E942E14209711F460E004C0CF3FD10582
:1026D00039F461E0812FDF91CF911F910C94671441
:1026E000E12FF0E0EE55F84F449150E0FA013197B8
:1026F000EF30F10508F06CC0EA5AFF4F0C94471D0B
:1027000084B5806884BDC7BD68C084B5806284BD5F
:10271000C8BD63C080918000806880938000D093A2
:102720008900C093880059C08091800080628093A6
:102730008000D0938B00C0938A004FC080918000AE
:10274000886080938000D0938D00C0938C0045C03A
:1027500080919000806880939000D0939900C093FE
:1027600098003BC080919000806280939000D0934D
:102770009B00C0939A0031C0809190008860809344
:102780009000D0939D00C0939C0027C08091C00012
:1027900080688093C0008091C0008F7B8093C000D0
:1027A000C093CF001AC08091C00080628093C000A7
:1027B000C093D00012C08091C20088608093C20094
:1027C0008091C2008B7F8093C200C093D20005C06D
:1027D000C038D1050CF07DCF77CFDF91CF911F911D
:1027E000089590E0FC013197EF30F105B0F5EB5919
:1027F000FF4F0C94471D809180008F7703C080911C
:1028000080008F7D80938000089580918000877F75
:10281000F9CF84B58F7702C084B58F7D84BD0895CC
:10282000809190008F7707C0809190008F7D03C0CA
:1028300080919000877F8093900008958091C000E0
:102840008F7703C08091C0008F7D8093C000089572
:102850008091C200877F8093C2000895CF93DF9359
:1028600090E0FC01EF53F84F2491FC01E052F84F47
:102870008491882349F190E0880F991FFC01E35F60
:10288000F74FA591B4918150984FFC01C591D49117
:102890009FB7611108C0F8948C91209582238C9386
:1028A000888182230AC0623051F4F8948C91322FCF
:1028B000309583238C938881822B888304C0F8947D
:1028C0008C91822B8C939FBFDF91CF9108950F93B2
:1028D0001F93CF93DF931F92CDB7DEB7282F30E041
:1028E000F901EE55F84F8491F901EF53F84F149127
:1028F000F901E052F84F04910023C9F0882321F038
:1029000069830E94F1136981E02FF0E0EE0FFF1F51
:10291000E150F84FA591B4919FB7F8948C91611153
:1029200003C01095812301C0812B8C939FBF0F9012
:10293000DF91CF911F910F910895CF92DF92EF9287
:10294000FF920F931F93CF93DF937C016A01EB01FA
:1029500000E010E00C151D0571F06991D701ED91B3
:10296000FC910190F081E02DC7010995892B19F0A8
:102970000F5F1F4FEFCFC801DF91CF911F910F91D4
:10298000FF90EF90DF90CF9008956115710581F071
:10299000DB010D900020E9F7AD0141505109461BC4
:1029A000570BDC01ED91FC910280F381E02D09943D
:1029B00080E090E008950C94C514DC01ED91FC9149
:1029C0000190F081E02D09948F929F92AF92BF9277
:1029D000DF92EF92FF920F931F93CF93DF93CDB7C8
:1029E000DEB7A1970FB6F894DEBF0FBECDBF7C0156
:1029F000F42FD52ECB0119A2223008F42AE08E0143
:102A00000F5D1F4F822E912CA12CB12C6F2F7D2D8D
:102A1000A50194010E94061DF22FD32ECA01015078
:102A200011096A3014F4E0E301C0E7E3E60FD801CE
:102A3000EC93232B242B252B49F7B801C7010E94C7
:102A4000C514A1960FB6F894DEBF0FBECDBFDF91BF
:102A5000CF911F910F91FF90EF90DF90BF90AF90BB
:102A60009F908F900895CF92DF92EF92FF920F93F5
:102A70001F93CF93DF93EC016A017B012115310590
:102A800079F4E881F9810190F081E02D642FDF91E4
:102A9000CF911F910F91FF90EF90DF90CF9009940D
:102AA0002A303105E9F477FF1AC06DE20E94DD1487
:102AB0008C0144275527BA014C195D096E097F091D
:102AC0002AE0CE010E94E414800F911FDF91CF9184
:102AD0001F910F91FF90EF90DF90CF9008952AE023
:102AE000B701A601CE01DF91CF911F910F91FF9009
:102AF000EF90DF90CF900C94E4149A01AB0166271D
:102B000057FD6095762F0C943315CF93DF9300D04B
:102B100000D0CDB7DEB79B01AC0161157105810511
:102B2000910569F069833A834B835C830E94B61DEB
:102B300029813A814B815C810E94281D03C060E09D
:102B400070E0CB010F900F900F900F90DF91CF911D
:102B50000895CF92DF92EF92FF926B017C01621792
:102B600073078407950764F4CA01B9016C197D09DC
:102B70008E099F090E9485156C0D7D1D8E1D9F1D60
:102B8000FF90EF90DF90CF9008950E94C41D0895AC
:102B90000E9404130E94C71587EA95E00E940E1A4E
:102BA0000E947D04C0E0D0E00E94C8072097E1F3B6
:102BB0000E940000F9CF0895615030F02091F1009B
:102BC000FC0120830196F8CF289884E68093B00515
:102BD00008954091AB055091AC052091A905309125
:102BE000AA0542175307B4F49091E8009570E1F3F9
:102BF0009091E80092FD19C08093F1008091AB059F
:102C00009091AC0501968F739927892B19F48EEF5B
:102C10008093E8008091AB059091AC05019690936C
:102C2000AC058093AB0581E0089580E00895CF92D4
:102C3000DF92EF92FF920F931F93CF93DF931F9238
:102C4000CDB7DEB7082F162FF42E862F880F8E5F94
:102C500099830E94E91583E00E94E915E02EC02EB9
:102C60009981D92E8C2D8E19811798F4F601F7FED3
:102C700002C0849101C080810E94E915082F80E084
:102C80000E94E9158023FFEFCF1ADF0A8111EACFF6
:102C900001C081E00F90DF91CF911F910F91FF90C4
:102CA000EF90DF90CF9008958091D700816080935E
:102CB000D70080EA8093D80089B5806189BD89B545
:102CC000826089BD09B400FEFDCF61E070E080E064
:102CD00090E00E94CA128091D8008F7C806180931E
:102CE000D8008091E000807F8093E0000895CF932A
:102CF000DF931F92CDB7DEB71982CE0101960E94F5
:102D00007E1A0E94A61BBE016F5F7F4F0E941F1B91
:102D100089810F90DF91CF9108952FB7FC01208317
:102D2000F89467706093E9000895CF93DF931F9242
:102D3000CDB7DEB7682FCE0101960E948D16809127
:102D4000F20099819FBF0F90DF91CF910895FF927C
:102D50000F931F93CF93DF9300D0CDB7DEB7F62E3E
:102D60008A019091AF05992311F057FF03C08FEFAF
:102D70009FEF2BC0682FCE0101967A830E948D169B
:102D80008091F20090E0A8017A81801791070CF4FD
:102D9000AC01EF2DF72FF40E84E6FE1639F02898DB
:102DA0008093B0059091F1009193F7CF41155105B3
:102DB00021F08091F200882321F089818FBFCA0120
:102DC00004C08BE68093E800F8CF0F900F90DF915E
:102DD000CF911F910F91FF900895CF93DF931F9292
:102DE000CDB7DEB741E050E0BE016F5F7F4F0E947C
:102DF000A716019719F4898190E002C08FEF9FEF29
:102E00000F90DF91CF910895CF93DF931F92CDB7AD
:102E1000DEB7682FCE0101960E948D169091E800D2
:102E2000892F807295FF04C09091F20080E4891B85
:102E300099819FBF0F90DF91CF9108956F927F92FC
:102E40008F929F92AF92BF92CF92DF92EF92FF92BA
:102E50000F931F93CF93DF931F92CDB7DEB7782EDA
:102E60007B01C42EB52E8091AF05882369F0042F15
:102E7000152F8AEFD82E872D8072982E9AE3A92ECF
:102E8000872D8074882E11C08FEF9FEF57C0872D3C
:102E90000E940417682E81110CC0DA94A9F361E036
:102EA00070E080E090E00E94CA120115110579F7E8
:102EB0003BC0282F30E0021713070CF4602E672D5B
:102EC000CE0101960E948D168091E80085FF29C0F1
:102ED000262D30E0021B130B992039F06A948FEFF6
:102EE0006816B1F01092F100F9CFF701862D77FE48
:102EF00007C0815058F094919093F1003196F9CF2A
:102F0000815020F091919093F100FACFE20EF31EE0
:102F10008091E80085FF0FC00115110511F48110A3
:102F20000AC089818FBFC1CF5D9884E68093B105C7
:102F30008C2D9B2D03C0A092E800F3CF0F90DF9162
:102F4000CF911F910F91FF90EF90DF90CF90BF90A6
:102F5000AF909F908F907F906F9008951092E900AE
:102F60001092AC051092AB059093AA058093A90529
:102F70000895CF92DF92FF920F931F93CF93DF9329
:102F800000D0CDB7DEB7F82E8A016B01011511050F
:102F9000B1F0F601F7FE02C0849101C0808149833F
:102FA0005A830E94E91501501109FFEFCF1ADF0A79
:102FB00049815A818111EACF8FEF9FEF01C0CA0189
:102FC0000F900F90DF91CF911F910F91FF90DF90A5
:102FD000CF900895BF92CF92DF92EF92FF920F931E
:102FE0001F93CF93DF936C018B01EB013BEFB32E6B
:102FF0002097C1F07E01C134D1051CF020E4E22EFF
:10300000F12C8091E80082FFFCCFC8018C1B9D0B46
:103010006E2D8C0D9D1D0E94DC15B092E800CE191E
:10302000DF09E6CFC801DF91CF911F910F91FF908B
:10303000EF90DF90CF90BF9008951F920F920FB640
:103040000F921124DF92EF92FF920F931F932F9311
:103050003F934F935F936F937F938F939F93AF9320
:10306000BF93EF93FF93CF93DF93CDB7DEB76C970A
:10307000DEBFCDBF1092E9008091E80083FF23C13D
:1030800068E0CE0145960E94DC1582EF8093E8004F
:103090003D8937FF05C08091E80080FFFCCF03C069
:1030A0008EEF8093E800832F807609F0F0C02E89A0
:1030B0004F89D88C21110CC0303829F48091AE058D
:1030C0008093F10002C01092F1001092F100F4C060
:1030D000842F90E09D29213049F43111EDC00197F2
:1030E00009F0EAC08091AE058D7F0AC0233059F403
:1030F0003111E2C0019709F0DFC08091AE05826016
:103100008093AE05D9C0253041F48091E80080FF5E
:10311000FCCF40684093E300CFC0263009F08DC05B
:10312000EB8CFC8C22E0D2122CC080E090E00E945C
:10313000AE170E94771699E08E010F5F1F4FF801BE
:10314000292F11922A95E9F79983DA8291E09E83DB
:1031500090EA98879AEF99872091AB053091AC055A
:10316000275F3F4F3C832B838D83C7010E94AE179F
:1031700049E050E0B80180E00E94B9170E9477163C
:103180009BC0C7010E94AE170E94A61BBE016B5ECA
:103190007F4F0E94481B009719F00CF08DC090C023
:1031A00081E0D8120EC08B8D9C8D089719F481E0B8
:1031B0008093A8058091A80581112FC06DE278E069
:1031C00031C0E3E0DE127CC08F89882349F1823070
:1031D00029F440E860E18BE498E01CC0813029F4D8
:1031E00040E86BE08FE398E015C0833009F068C0D9
:1031F0000E94A61B8E010F5F1F4FB8010E94671B24
:10320000F80101900020E9F73197E01BF10B40E055
:103210006E2FC8010E9417164DC06BE178E002C006
:103220006CE578E06115710509F44AC0FB01449131
:1032300050E080E80E94B9173FC0273009F440C031
:10324000283021F481E08093F10036C02930A1F5C7
:103250003370B1F5E1E1F1E081E021E036E3908106
:10326000992361F08093E9002093EB009191909372
:10327000EC003093ED008F5F873089F78EE7809305
:10328000EA001092EA008F898093AF0515C08B8DFC
:103290009C8D0E94AE17898D811105C0CE01459687
:1032A0000E94891A07C00E94A61BBE016B5E7F4F59
:1032B0000E94861B882321F08EEF8093E80003C0D4
:1032C00081E28093EB006C960FB6F894DEBF0FBEE0
:1032D000CDBFDF91CF91FF91EF91BF91AF919F91C2
:1032E0008F917F916F915F914F913F912F911F919E
:1032F0000F91FF90EF90DF900F900FBE0F901F90F7
:1033000018958093E9008091F200882319F08AE3F0
:103310008093E80008951F920F920FB60F92112428
:103320002F933F934F935F936F937F938F939F93CD
:10333000AF93BF93CF93EF93FF93C091E100809140
:10334000E100837F8093E1008093E100C3FF0FC021
:103350001092E90081E08093EB001092EC0082E390
:103360008093ED001092AF0588E08093F000C2FFDB
:1033700019C083E00E9481198091B105882339F03A
:103380008091B10581508093B105882389F18091A6
:10339000B005882339F08091B00581508093B00545
:1033A000882341F1C4FF10C08091E2008E7E8160CD
:1033B0008093E2008091E1008F7E8093E100809114
:1033C000AD058E7E806111C0C0FF16C08091E20005
:1033D0008E7E80618093E2008091E1008E7E8093FA
:1033E000E1008091AD058E7E81608093AD0504C0C3
:1033F0005D9ACDCF289AD6CFFF91EF91CF91BF9113
:10340000AF919F918F917F916F915F914F913F917C
:103410002F910F900FBE0F901F9018951092AF052F
:103420001092AE051092AD050E945416E1EEF0E048
:1034300080818E7E80838DE08093E200559A209A71
:103440000895CF93DF931F92CDB7DEB76983DC0178
:10345000ED91FC910280F381E02D41E050E0BE014E
:103460006F5F7F4F09950F90DF91CF910895CF93B4
:10347000DF93EC018C859D8597FF05C082E00E945B
:10348000ED169D878C878C859D85DF91CF91089562
:1034900083E00C948119FC018485958597FD06C015
:1034A00082E00E94951690E00196089582E00E94C5
:1034B000951690E00895FC018485958597FD05C0DB
:1034C0002FEF3FEF35872487089582E00C94ED16A7
:1034D000CF93DF93EC0180912201882331F083E0C8
:1034E0000E941E171816190634F081E090E09B83A5
:1034F0008A8380E090E0DF91CF910895FC012081E4
:103500002E5F208342E450E060E678E080E80C948F
:10351000B917FC0121818081813A59F4213209F0E7
:103520005CC047E050E06BE171E080E00E94B917B9
:1035300067C0813209F051C0233289F4838190E061
:10354000982F88273281832BA0E0B0E08093170169
:1035500090931801A0931901B0931A010FC0203263
:1035600039F467E070E08BE191E00E94EA170AC04D
:10357000223221F482818093220104C02D7F2032E7
:1035800009F03EC080911B0190911C01A0911D018A
:10359000B0911E01803B9440A105B10501F58091D9
:1035A000220180FD1CC08091000890910108909339
:1035B000FF0A8093FE0A87E797E7909301088093BC
:1035C00000082BE088E190E00FB6F894A89580936E
:1035D00060000FBE2093600013C080E0089588E172
:1035E0000FB6F89480936000109260000FBEA8950B
:1035F0008091FE0A9091FF0A909301088093000841
:1036000081E008951092B5051092B40588EE93E01C
:10361000A0E0B0E08093B6059093B705A093B805FD
:10362000B093B90580E491E09093B3058093B2051F
:103630008FEF9FEF9093BF058093BE050895EF92A3
:10364000FF920F931F93CF93DF937B01FC01C28105
:10365000D38100E010E0209781F0E881F9810280B9
:10366000F381E02DB701CE01099597FD08C0080F41
:10367000191F0884D985C02DEECFC80102C08FEF75
:103680009FEFDF91CF911F910F91FF90EF900895E1
:103690000F931F93CF93DF938B01FC01C281D381E2
:1036A000209771F0E881F9810480F581E02DB8015F
:1036B000CE010995009731F40884D985C02DF0CF4B
:1036C00080E090E0DF91CF911F910F9108950F93CB
:1036D0001F93CF93DF938B01FC01C281D38120978D
:1036E00071F0E881F9810680F781E02DB801CE0103
:1036F0000995080F111D0884D985C02DF0CFF80158
:103700001082DF91CF911F910F9108950F931F9316
:10371000CF93DF938B01FC01C281D381209771F09D
:10372000E881F9810190F081E02DB801CE01099581
:10373000811106C00884D985C02DF0CF80E001C07A
:1037400081E0DF91CF911F910F910895809106063E
:1037500081110DC082E08093020684E0809303060D
:10376000109205061092040681E08093060682E01E
:1037700096E008955058BB27AA270ED0E5C0D6D0B2
:1037800030F0DBD020F031F49F3F11F41EF4CBC0B9
:103790000EF4E095E7FBC1C0E92FE7D080F3BA173C
:1037A000620773078407950718F071F49EF5FFC050
:1037B0000EF4E0950B2EBA2FA02D0B01B90190014C
:1037C0000C01CA01A0011124FF27591B99F0593F90
:1037D00050F4503E68F11A16F040A22F232F342FD8
:1037E0004427585FF3CF469537952795A795F04026
:1037F0005395C9F77EF41F16BA0B620B730B840B3B
:10380000BAF09150A1F0FF0FBB1F661F771F881FF2
:10381000C2F70EC0BA0F621F731F841F48F487954A
:1038200077956795B795F7959E3F08F0B3CF939539
:10383000880F08F09927EE0F97958795089504D083
:103840006894B111B5C0089598D088F09F5790F052
:10385000B92F9927B751A0F0D1F0660F771F881FB5
:10386000991F1AF0BA95C9F712C0B13081F09FD0F4
:10387000B1E008959CC0672F782F8827B85F39F092
:10388000B93FCCF3869577956795B395D9F73EF414
:1038900090958095709561957F4F8F4F9F4F0895BC
:1038A000E89409C097FB3EF49095809570956195DA
:1038B0007F4F8F4F9F4F9923A9F0F92F96E9BB2790
:1038C0009395F695879577956795B795F111F8CF0C
:1038D000FAF4BB0F11F460FF1BC06F5F7F4F8F4F77
:1038E0009F4F16C0882311F096E911C0772321F06D
:1038F0009EE8872F762F05C0662371F096E8862F05
:1039000070E060E02AF09A95660F771F881FDAF75B
:10391000880F9695879597F9089597F99F6780E89E
:1039200070E060E008959FEF80EC089500240A9411
:103930001616170618060906089500240A9412168A
:103940001306140605060895092E0394000C11F4BD
:10395000882352F0BB0F40F4BF2B11F460FF04C06A
:103960006F5F7F4F8F4F9F4F089557FD9058440FC3
:10397000551F59F05F3F71F04795880F97FB991FCE
:1039800061F09F3F79F0879508951216130614068B
:10399000551FF2CF4695F1DF08C016161706180618
:1039A000991FF1CF86957105610508940895E894F3
:1039B000BB2766277727CB0197F90895AA1BBB1B66
:1039C00051E107C0AA1FBB1FA617B70710F0A61B1F
:1039D000B70B881F991F5A95A9F780959095BC0140
:1039E000CD01089597FB072E16F4009407D077FDBC
:1039F00009D00E94DE1C07FC05D03EF4909581950D
:103A00009F4F0895709561957F4F0895A1E21A2EFA
:103A1000AA1BBB1BFD010DC0AA1FBB1FEE1FFF1F72
:103A2000A217B307E407F50720F0A21BB30BE40BC2
:103A3000F50B661F771F881F991F1A9469F7609509
:103A40007095809590959B01AC01BD01CF010895C3
:103A5000052E97FB1EF400940E943F1D57FD07D0D2
:103A60000E94061D07FC03D04EF40C943F1D509598
:103A70004095309521953F4F4F4F5F4F089590955A
:103A80008095709561957F4F8F4F9F4F0895EE0FF2
:103A9000FF1F0590F491E02D0994A29FB001B39F00
:103AA000C001A39F700D811D1124911DB29F700D47
:103AB000811D1124911D08950E944D1DA59F900DFB
:103AC000B49F900DA49F800D911D112408958F9295
:103AD0009F92AF92BF92CF92DF92EF92FF92CF93DD
:103AE000DF93EC01688179818A819B816115710581
:103AF0008105910521F464E279ED8BE597E02DE1F4
:103B000033EF41E050E00E94281D49015A019B011A
:103B1000AC01A7EAB1E40E945C1D6B017C01ACEE34
:103B2000B4EFA50194010E94D41DC60ED71EE81E55
:103B3000F91EF7FE06C081E0C81AD108E10880E846
:103B4000F80AC882D982EA82FB82C701B6019F7750
:103B5000DF91CF91FF90EF90DF90CF90BF90AF902B
:103B60009F908F9008950E94671D089580E091E0D6
:103B70000E94671D08956093000170930101809376
:103B8000020190930301089581E090E0F8940C9471
:103B9000D91DF999FECF92BD81BDF89A992780B5BC
:103BA0000895B7FF0C945C1D0E945C1D821B930B53
:063BB0000895F894FFCF18
:103BB6000100000001FFFFFFFF01010024002600B5
:103BC60000C18081000000FFFFFFFF00E100000050
:103BD600000000507265737320422E000000000042
:103BE6000C0E9D1400000000C5159D140000000079
:0C3BF600211A681A4B1A5B1A371A481A79
:00000001FF
