:100000000C949A040C94C2040C94C2040C94C20480
:100010000C94C2040C94C2040C94C2040C94C20448
:100020000C94C2040C94C2040C94C2040C9456198F
:100030000C94C2040C94C2040C94C2040C94C20428
:100040000C94D3190C94C2040C94C2040C94C204F2
:100050000C94C2040C94C2040C94C2040C94C20408
:100060000C94C2040C94C20408087E5A5A5A7E2486
:10007000240058040000000000000000000000FF01
:10008000FFFFFFFFFFFFFFFFFFFFFFFFFFFFFFFF80
:10009000FFFFFFFFFFFFFFFFFFFFFFFFFFFFFFFF70
:1000A0001804000000FFFFFFFFFFFFFFFFFF08082D
:1000B000183C246642C3817E0808FCCEC7FFFFC7F8
:1000C00086FC583000000000000000000000000026
:1000D0000000000000000000000000000000000020
:1000E0000000000000000000000000000000000010
:1000F0000000000000000000000000000000000000
:1001000000000000000000000000000000000000EF
:1001100000000000000000000000000000000000DF
:1001200000000000000000000000000000000000CF
:1001300000000000000000000000000000000000BF
:1001400000000000000000000000000000000000AF
:10015000000000000000000000000000000000009F
:10016000000000000000000000000000000000008F
:10017000000000000000000000000000000000007F
:10018000000000000000000000000000000000006F
:10019000000000000000000000000000000000005F
:1001A00072221C88088B80E78439108B65228814A2
:1001B000CA41144A451082A8A08822AA21045141AC
:1001C0001072A89CF8229A21079139F00A2F828890
:1001D0003E8A21051F05108A28A288228A4114918F
:1001E000451072289C88228B80E451391000000051
:1001F00000000000000000000000000000000000FF
:1002000000000000000000000000000000000000EE
:1002100000000000000000000000000000000000DE
:1002200000000000000000000000000000000000CE
:10023000000000000000000000000003CF3E71C07D
:100240000511400000000228A08A20052940000076
:10025000000228A0820000440000000003CF3C718F
:10026000C0004400000000020A200820007C0000BA
:1002700000000209208A200044000000000208BE9D
:1002800071C00044000000000000000000000000F9
:100290007FF000000000000000000080000000006F
:1002A00000000000000135500000000000000000C8
:1002B000024650000000000000000004242000005E
:1002C00000000000000008162000000000000000F0
:1002D000001065201C0325032D03390320436F6E96
:1002E0006E656374696E672E2E2E00004261636B2B
:1002F0006C696768743A00004C696768743A00007A
:100300002F3400426174746572793A0020202020F5
:100310004C6F6164696E672E2E2E2E0053757276B7
:100320006976616C004F7074696F6E73004D756C07
:100330007469706C61796572004368616E676520ED
:1003400047616D650003053F213F1208120A100A3C
:100350000E1C0E0C1E0C141A14161F161E131E1E35
:100360001B1E1E1F1E3F213F3A2F3A173D173F21EC
:100370003F181F02040A041F0E04040E1F0A1F0A5E
:100380000E0E1F04110E2E252E2F2A2E262929028D
:100390001F02081F08150E04040E150E15151B1557
:1003A0001B040604040C04000000001700030003F3
:1003B0001F0A1F16371A1904130A153A0003000002
:1003C0000E11110E000A040A040E04003000040489
:1003D000040010001804031F111F121F101D151711
:1003E00011151F07041F17151D1F151D01011F1FC4
:1003F000151F17151F000A00003200040A110A0A0F
:100400000A110A040115020E11171E051E1F150AF6
:100410000E110A1F110E1F15111F05010E111D1FB0
:10042000041F111F1108100F1F041B1F10101F069F
:100430001F1E040F0E110E1F09060E112E1F051A86
:10044000121509011F011F101F0F180F1F0C1F1B72
:10045000041B031C03191513001F11030418111F9B
:10046000000201022020200001020C121E1F120CAB
:100470000C12120C121F0C1A14041E05242A1E1F23
:10048000021C141D1020201D1F0814111F101E0413
:100490001E1E021C0C120C3E0A040C123E1E04020C
:1004A00014160A020F120E101E0E100E1E081E1237
:1004B0000C1226281E322A26041E21001F00211E8F
:1004C000040102013F213F05077F4141417F3E5B1F
:1004D0004F5B3E3E6B4F6B3E183C783C18183C7EA1
:1004E0003C181C577D571C1C5E7F5E1C007E4343DE
:1004F0007E007E73737E007E7F7F7E7F4141417FE1
:1005000030483A060E06297929067F4141417F602D
:10051000703F02042A1C361C2A7F3E1C080000087B
:100520001C3E7F14227F22143C3C3C7EFF18423C40
:10053000817E3E6375633E3E616B633E3E636B6BE3
:100540003E04027F020410207F201008082A1C08A5
:10055000081C2A0808143E5541226375697563100A
:10056000181C1810040C1C0C0400000000000000F3
:100570005F00000007000700147F147F14042A7F27
:100580002A102313086462364956205000080703D6
:1005900000001C2241000041221C002A1C3E1C2A93
:1005A00008083E080800E060000008080808080085
:1005B0006060000060100804033E5149453E00425F
:1005C0007F400062514949462141494D3318141278
:1005D0007F1027454545393C4A4949304121110999
:1005E000073649494936064949291E0000240000BA
:1005F0000080640000081422410014141414140034
:100600004122140802015909063E415D594E7C12EF
:1006100011127C7F494949363E414141227F414187
:10062000221C7F494949417F090909013E41415145
:10063000327F0808087F00417F41002041413F018F
:100640007F081422417F404040407F020C027F7FA0
:100650000204087F3E4141413E7F090909063E41AF
:100660006141BE7F09192946264949493201017F66
:1006700001013F4040403F1F2040201F3F40384085
:100680003F6314081463030478040361514945432C
:10069000007F41410003040810600041417F0004D5
:1006A000020102048080808080000307080020543B
:1006B0005478407F284444383844444428384444DB
:1006C000287F3854545418087E09090218A4A49CA1
:1006D000787F0804047800447D4000006080847DB9
:1006E0007F1010284400417F40007C047804787C0F
:1006F000080404783844444438FC18242418182486
:100700002418FC7C080404080854545420043F4472
:1007100044203C4040207C1C2040201C3C40204089
:100720003C44281028444C9090907C4464544C44A1
:10073000000836410000007F000000413608001824
:100740000408100C7F4141417F0A4E6F2053442022
:1007500063617264206F720A6E6F204C4F41444592
:10076000522E4845580A0A153A45786974001D20EA
:10077000466C617368696E670A20206C6F616465FE
:10078000722E2E2E0A0A444F4E2754205455524E94
:10079000204F464621006D560A0A504C45415345AC
:1007A0000A5455524E204F4646004C4F5720424166
:1007B00054544552590A00177361766500166261F8
:1007C000636B001574797065000A0A0A153A6F6B3D
:1007D000617920163A6564697400596F7520656EF9
:1007E00074657265640A00540A03E181867F3E18CD
:1007F0006D830F0F0E0183866033186DC3198F1838
:1008000003C38E6033186DE330CF1803C39E603688
:1008100030CDE360CF3006C79E7E3E30CDB360CF93
:10082000300CC6F6603330D9B660CF33CFCCF6602B
:1008300061B0DB1E60CF30D86CE6C061B0DB1E61FA
:100840008F19986CC6C063B19B0E330F0FB078C67A
:10085000FF7E1F1B061E0F17534400161378001649
:100860001314001510200015201000000005008949
:100870003008023802497868140000450068010019
:10088000000500680138010000050038016801001A
:1008900000F6E8DBCFC3B8AEA49B928A827B746E6D
:1008A00068625C57524E4945413E3A3734312E2CEE
:1008B00029272523211F1D1C1A1917161514131279
:1008C00011100F0E0D0C0B0A09080706D008D408EA
:1008D0000101F7030101FF030000000024002700CD
:1008E0002A0000000000250028002B000000000066
:1008F0002300260029000404040404040404020262
:10090000020202020303030303030102040810208E
:100910004080010204081020010204081020000099
:1009200000070002010000030406000000000000B0
:100930000000C40411241FBECFEFD8E0DEBFCDBF3E
:1009400011E0A0E0B1E0EAE7F1E402C005900D9209
:10095000A234B107D9F713E0A2E4B1E001C01D92BF
:10096000A43EB107E1F719E0C4E3D9E004C022973F
:10097000FE010E941F20C233D107C9F70E94011C4B
:100980000C94BB200C9400001092930110929201E1
:100990008EE391E0909391018093900160E070E08C
:1009A00080E090E02CE430E040E050E00E94571EF0
:1009B0007093CE016093CD0164E170E080E090E03F
:1009C00028E230E040E050E00E94571E7093D401CE
:1009D0006093D3010895CF92DF92EF92FF920F932D
:1009E0001F93CF93DF93C1E0D0E082E491E00E94B7
:1009F00055148823D1F380913701813009F023C247
:100A00008091CB019091CC0101969093CC01809381
:100A1000CB0180E991E06091CD014091CF012EEAB8
:100A200030E00E94A90C8091CF019091D0010196F5
:100A30009093D0018093CF0180E991E06091D10142
:100A40004091D30128EB30E00E94A90C8091D101A4
:100A50009091D20101969093D2018093D10140915F
:100A600035015091360180912F0190913001480F4E
:100A7000591F5093300140932F0180E991E060911C
:100A80002D0128E630E000E0E090C9010E94660EEA
:100A900080E991E060E04CE222E730E00E94A90C9E
:100AA00080E991E064E14CE120EA30E00E94A90C89
:100AB0008CE491E063E042E00E94AC09882379F085
:100AC0008091350190913601892B49F480912F0155
:100AD0009091300104969093300180932F018CE423
:100AE00091E063E00E94A209882379F080913501AA
:100AF00090913601892B49F480912F01909130011A
:100B000004979093300180932F018CE491E060E092
:100B100042E00E94BB098823A9F020912D01309169
:100B20002E011216130674F4809131019091320156
:100B3000281B390B30932E0120932D01D093CA012D
:100B4000C093C9018CE491E062E042E00E94BB09DD
:100B50008823A9F020912D0130912E012C343105EC
:100B600074F48091310190913201820F931F909320
:100B70002E0180932D011092CA011092C9018CE4BC
:100B800091E064E044E10E94BB09882399F08091E0
:100B9000350190913601892B69F487E691E00E9436
:100BA0007A1980912F0190913001449790933001F0
:100BB00080932F0160912D0170912E0140912F01A2
:100BC0005091300182E491E028E630E000E010E04E
:100BD000FCE2EF2EF12CE2E7CE2EE0E0DE2E0E94CA
:100BE00025128130C9F060912D0170912E01409144
:100BF0002F015091300182E491E028E630E004E1D9
:100C000010E0BCE1EB2EF12CA0EACA2EA0E0DA2E17
:100C10000E942512813021F4109236011092350184
:100C200060912D0170912E0140912F015091300162
:100C300082E491E028E630E000E010E0FCE2EF2EF4
:100C4000F12CE2E7CE2EE0E0DE2E0E942512882372
:100C5000E9F460912D0170912E0140912F01509186
:100C6000300182E491E028E630E004E110E0BCE1EC
:100C7000EB2EF12CA0EACA2EA0E0DA2E0E9425125B
:100C8000882321F4D0933601C093350160912D0162
:100C900070912E0140912F01509130010091CD01B2
:100CA0001091CE01E090CF01F090D00182E491E06C
:100CB00028E630E0FEEACF2EF0E0DF2E0E9425127B
:100CC000813011F4109237016091CD017091CE0105
:100CD0004091CF015091D00182E491E02EEA30E0C2
:100CE00000E010E0ECE2EE2EF12CB2E7CB2EB0E00B
:100CF000DB2E0E9425128130C9F06091CD017091E8
:100D0000CE014091CF015091D00182E491E02EEAD2
:100D100030E004E110E0ACE1EA2EF12CF0EACF2E55
:100D2000F0E0DF2E0E942512813091F41092D00164
:100D30001092CF0160E070E080E090E02CE430E0C1
:100D400040E050E00E94571E7093CE016093CD01A9
:100D500060912D0170912E0140912F015091300131
:100D60000091D1011091D201E090D301F090D40113
:100D700082E491E028E630E0E8EBCE2EE0E0DE2EE3
:100D80000E942512813011F4109237016091D10137
:100D90007091D2014091D3015091D40182E491E04D
:100DA00028EB30E000E010E0BCE2EB2EF12CA2E7F3
:100DB000CA2EA0E0DA2E0E9425128130C9F060917F
:100DC000D1017091D2014091D3015091D40182E4BC
:100DD00091E028EB30E004E110E0FCE1EF2EF12C93
:100DE000E0EACE2EE0E0DE2E0E942512813091F462
:100DF0001092D2011092D10164E170E080E090E0A5
:100E000028E230E040E050E00E94571E7093D40189
:100E10006093D3018091D1019091D20180359105E9
:100E200094F01092D2011092D10164E170E080E060
:100E300090E028E230E040E050E00E94571E7093BE
:100E4000D4016093D30180913701882309F0CDCD7F
:100E500080E991E065E473E00E94280F1092990107
:100E600010929A0180E991E060E071E00E94D91D42
:100E700080E991E06AE071E00E94D91D80E991E08B
:100E80006BE071E00E94D91D6091CB017091CC01A3
:100E900080E991E04AE050E00E94C61D80E991E0BF
:100EA00061E171E00E94D91D80E991E06AE071E0A2
:100EB0000E94D91D80E991E06AE171E00E94D91D8C
:100EC0008CE491E065E00E949809882309F48DCDB7
:100ED00087E691E00E9480191092CC011092CB011C
:100EE00080E991E067EC74E00E94280FDF91CF91D8
:100EF0001F910F91FF90EF90DF90CF90089582E4C3
:100F000091E00E9455148823D1F380E991E060E0DC
:100F100040E022EC30E00E94A90C8CE491E064E017
:100F20000E949809882339F087E691E00E947A1997
:100F300010925A0108958CE491E066E00E949809AD
:100F40008823E9F282E491E00E94DD12D8CF1F935A
:100F500010925A0182E491E064ED72E044E00E9454
:100F60000E15813009F463C082302CF48F3F51F0AC
:100F7000882359F0CDC0823009F4B9C0833009F01C
:100F8000C7C0C2C00E947F07C3C080E991E06CE087
:100F900073E00E943A1C82E491E00E940A1484E10A
:100FA00090E090932E0180932D01909330018093D7
:100FB0002F011092CA011092C90182E090E0909333
:100FC00032018093310181E090E09093340180936D
:100FD000330190933601809335011092D001109225
:100FE000CF0160E070E080E090E02CE430E040E091
:100FF00050E00E94571E7093CE016093CD01109275
:10100000D2011092D10164E170E080E090E028E22A
:1010100030E040E050E00E94571E7093D40160938E
:10102000D30181E0809337010E94EB0471C011E08D
:1010300082E491E00E9455148823D1F38CE491E07E
:1010400065E00E949809882339F087E691E00E94C4
:10105000801910925A015CC01092990110929A0165
:1010600080E991E063E073E00E943A1C80E991E03E
:1010700060915B014AE050E00E94561D80E991E0DA
:1010800060E073E00E94851C80E991E06FEF72E000
:101090000E94851C80E991E068EF72E00E943A1C92
:1010A000609143017091440180E991E04AE050E091
:1010B0000E94391D80E991E067EF72E00E94851C73
:1010C00080E991E06CEE72E00E943A1C80E991E0C8
:1010D000609145014AE050E00E94681D80E991E07E
:1010E0006BEE72E00E94851C10935A01A1CF80E93B
:1010F00091E06CED72E00E943A1C64E670E080E0E2
:1011000090E00E944F1A04C082E491E00E94DD1238
:101110001F91089582E491E00E94701680E991E0A9
:1011200067EC74E00E94280F0E947F0710925A011A
:10113000109296010895882319F48CB5806202C03C
:101140008CB58F7D8CBD08959CB5937F982B9CBDED
:1011500008952CB5382F33702C7F322B3CBD2DB524
:1011600090E0959587959595879581702E7F822B38
:101170008DBD08958AE061E00E949E1B8AE061E0D7
:101180000E94321B8CB580618CBD8CB580648CBD97
:101190008DE061E00E94321B8BE061E00E94321B17
:1011A0000895FC0181E08083089585E070E00E944D
:1011B000D21A08956F927F928F929F92AF92BF92B0
:1011C000CF92DF92EF92FF920F931F93CF93DF9313
:1011D000EC0189819A818C0124E0000F111F2A956E
:1011E000E1F7081B190B85E10E94B01ABC01600FE2
:1011F000711F84E0769567958A95E1F77A83698314
:101200008881882381F12E813F816217730710F452
:10121000B90106C0888599858617970708F4BC012F
:1012200000D000D080E090E040E050E0E884F98415
:1012300000E010E0AD80BB24CC24DD246C8077245A
:1012400088249924EDB7FEB76182728283829482EA
:101250000E94EC1D6B830F900F900F900F9085E014
:1012600070E00E94D21ADF91CF911F910F91FF90F1
:10127000EF90DF90CF90BF90AF909F908F907F9036
:101280006F900895FC018CE39FE09383828384E058
:10129000818381E084870895CF93DF93EC018C856F
:1012A00090E08F719070892B69F584E10E94B01AEB
:1012B000AA2797FDA095BA2FBC01CD010E94AB1EB5
:1012C00026EE3FE34EEC50E40E94371F0E947D1E45
:1012D0009B01AC017B836A836115710589F084E011
:1012E0008983B901FE0120E084819581681779071F
:1012F00010F429830AC02F5F32962430A9F702C068
:101300008FEF89838C858F5F8C87DF91CF910895D4
:10131000FC0188E0808389E0818387E0828386E026
:10132000838384E0848382E0858381E186830895DA
:1013300020E0FC01E60FF11D8781813009F421E0F6
:10134000822F089520E0FC01E60FF11D87818F3F79
:1013500009F421E0822F089520E0FC01E60FF11D41
:10136000878190E050E04F5F5F4F8417950709F445
:1013700021E0822F0895E62FF0E0423040F420E093
:10138000E80FF91F878181508E3F88F40FC0E80F66
:10139000F91F87818F3F11F420E009C020E090E021
:1013A000642F70E00E94B91F019709F421E0822F99
:1013B00008950F931F93CF93DF93EC0110E00FEF8D
:1013C000888162E00E94321B88810E94D11B2F819C
:1013D000892B19F42F5F2F8307C0222349F02F3F59
:1013E00011F41F8201C00F83888160E00E94321BCC
:1013F0001F5F2196173021F7DF91CF911F910F9139
:101400000895FC01742F643508F06FC047FD6DC06E
:1014100040330CF06AC080A1823021F5842F85957D
:1014200085958595992787FD9095462F552747FDEA
:10143000509524E530E0829FF001839FF00D929F4C
:10144000F00D1124E40FF51FEB52FE4F808190E068
:10145000272F277002C0959587952A95E2F78095EA
:10146000817009C0833039F49485842F86278927B9
:1014700080FF03C01FC08823E9F4E72FE595E595B9
:10148000E59584E5E802F0011124862F992787FD70
:101490009095E80FF91FEB52FE4F777081E090E0D6
:1014A00002C0880F991F7A95E2F780952081282342
:1014B00020830895E72FE595E595E59584E5E80215
:1014C000F0011124862F992787FD9095E80FF91FC9
:1014D000EB52FE4F777081E090E002C0880F991FB9
:1014E0007A95E2F72081282B20830895FC0160A3E0
:1014F00061A30895FC0160A341A30895EF92FF92B8
:101500000F931F93CF93DF93EC01E62EF42E022F5F
:1015100010E007C0412F4F0DCE016E2D0E94010A31
:101520001F5F1017BCF3DF91CF911F910F91FF90B8
:10153000EF900895EF92FF920F931F93CF93DF9355
:10154000EC01E62EF42E022F10E007C0612F6E0D85
:10155000CE014F2D0E94010A1F5F1017BCF3DF91CF
:10156000CF911F910F91FF90EF9008959F92AF92AE
:10157000BF92CF92DF92EF92FF920F931F93CF9380
:10158000DF936C01962EB42EA22EC0E0D0E0E42EA4
:10159000FF24E7FCF094112707FD10950E0D1F1D89
:1015A00006C0C601692D2A2D0E949A0A21964B2D4C
:1015B0004C0FCE018E0D9F1D8017910794F3DF9184
:1015C000CF911F910F91FF90EF90DF90CF90BF9040
:1015D000AF909F9008952F923F925F926F927F926B
:1015E0008F929F92AF92BF92CF92DF92EF92FF9233
:1015F0000F931F93DF93CF9300D000D000D0CDB7CF
:10160000DEB79E838D83C62ED42EEE24E394E21A99
:101610008EEF289F502C1124842E8A94962E9A9413
:10162000A42EA394B62EB394F22E662423E0722E39
:1016300010E0C801847090709A838983F801E27089
:10164000F070FC83EB8398E0292E312C202231228C
:101650000170107054C0E7FC04C0FA94F2E05F0E11
:10166000E50C639489819A81892B71F04F2D4D0D82
:101670008D819E816B2D0E94010A6F2D6C0D8D81D5
:101680009E814A2D0E94010AEB81FC81EF2B71F0B3
:101690004D2D4F198D819E816B2D0E94010A6F2D5A
:1016A0006C0D8D819E81482D0E94010A2114310408
:1016B00071F06C2D6F198D819E814A2D0E94010A57
:1016C0004F2D4D0D8D819E81692D0E94010A0115BE
:1016D000110571F06C2D6F198D819E81482D0E942E
:1016E000010A4D2D4F198D819E81692D0E94010A9D
:1016F000E70CF2E07F0E8A949A94A394B3946F144B
:101700000CF4A9CF26960FB6F894DEBF0FBECDBF5E
:10171000CF91DF911F910F91FF90EF90DF90CF90CD
:10172000BF90AF909F908F907F906F905F903F9011
:101730002F9008954F925F926F927F928F929F9217
:10174000AF92BF92CF92DF92EF92FF920F931F93CF
:10175000CF93DF93EC01A62E742E9E2DFF24F394DD
:10176000F21A8EEF289F802C1124B42EBA9453E0E5
:10177000C52ECE0CE22EDD2443E0942E10E031E0A5
:10178000432E512C40225122692E63940270107016
:1017900034C0F7FC04C0EA9482E0880EF80CD394BD
:1017A0004114510489F06D2D6A0D472D4E192E2DCF
:1017B000220F260DCE010E947E0A6E2D6A0DCE01EB
:1017C0004B2D2C2D0E947E0A0115110589F06A2DE2
:1017D0006D19472D4E192E2D220F260DCE010E9478
:1017E0007E0A6A2D6E19CE014B2D2C2D0E947E0A89
:1017F000F90C82E0980EBA94C80EDE1454F2DF9110
:10180000CF911F910F91FF90EF90DF90CF90BF90FD
:10181000AF909F908F907F906F905F904F900895C2
:101820007F928F929F92AF92BF92CF92DF92EF9270
:10183000FF920F931F936C01962EA42EF22E7E2CF6
:10184000760E1EEFE19E102D1124812E820E672D43
:10185000282D0E949A0AB02EBA0CBA94C601672DA0
:101860004B2D282D0E949A0AAE0C100FC601692D2F
:101870004A2D212F0E947E0AF90CFA94C6016F2D81
:101880004A2D212F0E947E0AC601672D4A2D2E2D3A
:1018900001E00E94EB0AFE18C6016F2D4A2D2E2D85
:1018A00002E00E94EB0ABE18C6016F2D4B2D2E2DB3
:1018B00004E00E94EB0AC601672D4B2D2E2D08E097
:1018C0000E94EB0A1F910F91FF90EF90DF90CF9055
:1018D000BF90AF909F908F907F9008958F929F922E
:1018E000AF92BF92CF92DF92EF92FF920F931F932E
:1018F0006C01162FA42E922EF02EBE2C8E2C860E4E
:101900002EEFE29EE02C11242E2D290D682D0E9431
:10191000B60AAB0CFA94FE0C1150190D1B19C60136
:10192000612F4A2D2B2D01E0EF2C0E949A0BC6014E
:10193000682D4A2D2B2D02E00E949A0B1F910F91CA
:10194000FF90EF90DF90CF90BF90AF909F908F90DF
:1019500008952F923F924F925F926F927F928F9253
:101960009F92AF92BF92CF92DF92EF92FF920F932E
:101970001F93DF93CF9300D000D0CDB7DEB74C01DB
:10198000D62E142FF9018491319694913197D40178
:1019900090966C90B3E5B6170CF457C1482F5527B5
:1019A00047FD5095A62EBB24A7FCB0942A014A0CF3
:1019B0005B1C141415040CF048C110330CF045C125
:1019C000092F212F332727FD3095892F992787FD50
:1019D0009095820F931F181619060CF036C162E01D
:1019E000E62EF12CEE0EFF1ECA01079668E070E0AD
:1019F0000E94CD1F762E17FF0EC0010F862F90E09C
:101A0000FC01E29FC001E39F900DF29F900D112415
:101A1000E81AF90A10E0802F992787FD9095212F69
:101A2000332727FD3095820F931FC19714F000E3F1
:101A3000011BD7FCDD24C2018535910514F084E536
:101A400090E0C82ED4011C969C909126ED2DF0E0DC
:101A5000CF018A199B09AC014770507020E830E033
:101A600002C0359527954A95E2F7B22E68E070E0FE
:101A70000E94CD1FAB014E0D5F1D5C834B83212F58
:101A8000277081E090E0682F01C0660F2A95EAF781
:101A900015951595159584E51802A00111244E0F92
:101AA0005F1F4B525E4F8824202E332427FC309436
:101AB000472C5524C4C0EB81FC812491F1E06F16C2
:101AC00029F5AB81BC817B2D022F7A011D2D1BC016
:101AD000872F90E0202F30E082239323892B21F061
:101AE000F7018081862B8083872F90E095958795DD
:101AF000782F882321F41196FD01049170E81F5F6F
:101B00000894E11CF11C1C1518F38DC0662059F5D2
:101B1000F62EF094AB81BC817B2D022F5A83498332
:101B20001D2D1EC0872F90E0202F30E082239323AD
:101B3000892B29F0E981FA8180818F218083872F89
:101B400090E095958795782F882321F41196FD01D3
:101B5000049170E81F5F89819A8101969A83898335
:101B60001C1500F360C093E0691639F0AB81BC81AD
:101B70007B2D022F7A011D2D54C0A62EA094AB817F
:101B8000BC817B2D022F5A8349831D2DE92CFF2414
:101B900028C0872F90E0202F30E082239323892BC9
:101BA00079F0812F90E08E259F25E981FA8190813F
:101BB00080FF02C0962B03C09A21E981FA819083AD
:101BC000872F90E095958795782F882321F411969B
:101BD000FD01049170E81F5F89819A8101969A83C3
:101BE00089831C15B0F291E099261DC0872F90E0E3
:101BF000202F30E082239323892B21F0F70180816D
:101C000086278083872F90E095958795782F882366
:101C100021F41196FD01049170E81F5F0894E11C06
:101C2000F11C1C1518F3660F19F44C5A5F4F61E054
:101C300083948B819C81840D951D9C838B83882D3F
:101C400090E0821593050CF436CF0F900F900F9013
:101C50000F90CF91DF911F910F91FF90EF90DF9048
:101C6000CF90BF90AF909F908F907F906F905F903C
:101C70004F903F902F900895FB01849150E0FA011E
:101C8000B3E0F595E795BA95E1F7329690E00796BF
:101C9000A3E095958795AA95E1F730E0DC01A29F36
:101CA000C001A39F900DB29F900D1124E80FF91F62
:101CB000E60FF71FE4914770507080E890E002C093
:101CC000959587954A95E2F78E2308952F923F9236
:101CD0004F925F926F927F928F929F92AF92BF923C
:101CE000CF92DF92EF92FF920F931F93DF93CF93E8
:101CF000CDB7DEB728970FB6F894DEBF0FBECDBFC5
:101D00001C016A834B8369019E2C002329F4EE2079
:101D100019F40E94A90C83C0F60174900894C11CA8
:101D2000D11CF60184900894C108D108872D90E059
:101D3000079623E0959587952A95E1F70370098327
:101D4000672C6A94A62C00E0282F332727FD3095B6
:101D50003D832C83382D31503E835EC0802F8770A9
:101D600090E8492E512C02C0559447948A95E2F789
:101D7000802F859585958595E82FFF27E7FDF095C0
:101D80003296EC0DFD1DF887EF83BE80FF243FC027
:101D9000EF81F885849190E084219521892B69F168
:101DA000F981F13051F0F13028F0F23049F0F330A0
:101DB00061F409C0102FEF2C08C0EA2C1F2D05C0BC
:101DC0001A2DEB2C02C01B2DE02E992069F023E088
:101DD0009222892D90FE03C0362D311B132F81FFD7
:101DE00003C0882D8E19E82E9A81190FEB81EE0E13
:101DF000C101612F4E2D0E94010AF3942F81388575
:101E00008C819D81280F391F38872F83BA94F8144D
:101E100009F0BECF0F5FAA94071509F09FCF28964F
:101E20000FB6F894DEBF0FBECDBFCF91DF911F91EB
:101E30000F91FF90EF90DF90CF90BF90AF909F9069
:101E40008F907F906F905F904F903F902F9008956C
:101E5000DC01FB0184918F5F14968C93149731966B
:101E600084918F5F15968C93159731965F96FC93AE
:101E7000EE935E9708953F924F925F926F927F929A
:101E80008F929F92AF92BF92CF92DF92EF92FF928A
:101E90000F931F93CF93DF93EC01862EA42E422F36
:101EA000102F38A023E526170CF4ABC03FE23A15FB
:101EB0000CF4A7C0C02EDD248C8190E001979C011A
:101EC000C29EC001C39E900DD29E900D1124262F5C
:101ED000332727FD3095820F931F181619060CF033
:101EE00090C08D8190E09C01C29EC001C39E900D68
:101EF000D29E900D11242A2D332727FD3095820F75
:101F0000931F181619060CF07CC09924442E5524F2
:101F10006DC09C01215030404217530711F460E01E
:101F20000EC0429EC001439E900D529E900D112402
:101F3000840F951FEE8DFF8DE80FF91F64914C9D66
:101F4000C0014D9D900D5C9D900D1124682C680E74
:101F5000BB24792C780C3FC0E62EFF2460FF19C00B
:101F6000113039F44B2D4A0DCE01672D0E94010A24
:101F70002EC02C9DC0012D9D900D3C9D900D1124D7
:101F80004A2D480FCE01662D212F012F0E94B60A3F
:101F90001EC099A188A19817D1F098A3113039F4E7
:101FA0004B2D4A0DCE01672D0E94010A0FC02C9DBA
:101FB000C0012D9D900D3C9D900D11244A2D480F80
:101FC000CE01662D212F012F0E94B60A38A2F5946A
:101FD000E7946E2DB3942B2D332727FD30958D81FB
:101FE00090E0281739070CF4B7CF9394492D552763
:101FF00047FD50958C8190E0481759070CF489CF24
:1020000038A2DF91CF911F910F91FF90EF90DF9059
:10201000CF90BF90AF909F908F907F906F905F9088
:102020004F903F9008950F93CF93DF93EC01262FAD
:102030006A3049F48D819885899F802D11249A8575
:10204000980F9A8726C06D3029F169854A850885E1
:102050000E943B0F9C816885969F402D11248985A5
:10206000480F49878F818823A9F0552747FD509550
:10207000699F9001112484E590E0821B930B8417E3
:10208000950744F49D81699F902D11248A85890FBD
:102090008A87198681E090E0DF91CF910F910895B2
:1020A0001F93CF93DF93EC01162FF8948F8560E098
:1020B0000E949E1B888918161CF460E00E949E1BDB
:1020C0001EBD0DB407FEFDCF8EB5888918161CF411
:1020D00061E00E949E1B7894DF91CF911F9108953B
:1020E000FF920F931F93CF93DF93EC018C858F5F4B
:1020F0008C87FF2400E010E06F2D6064CE010E9409
:102100005010CE0160E80E9450108F8561E00E945F
:102110009E1B888918161CF460E00E949E1BF80123
:10212000EB52FE4F90E080818EBD0DB407FEFDCFD7
:102130008EB59F5F31969435B1F7888918161CF4D7
:1021400061E00E949E1BF3940C5A1F4F86E0F81624
:1021500099F6CE0160E40E945010DF91CF911F915B
:102160000F91FF900895CF93DF93DC0188EF91E00A
:10217000E5EDF1E0EF019C01199221503040E1F7CB
:1021800019961C9219971A961C92DF91CF91089577
:10219000EF920F93CF93DF93EC014E876D872F87DC
:1021A000E98A088B81E0888788A319A28F83CE01F2
:1021B00065E473E00E94280F0E94BA0881E00E9443
:1021C0009B0885E00E94A9088CE00E94A4088E85E7
:1021D00061E00E94321B8D8561E00E94321B8F8579
:1021E00061E00E94321B898918161CF461E00E948C
:1021F000321B888918161CF461E00E94321B898901
:1022000018166CF460E00E949E1B6AE070E080E0AB
:1022100090E00E944F1A898961E00E949E1BED8523
:102220002E2F332727FD3095F901EA50F74FE4911F
:10223000F0E0EE0FFF1FEE51F74F859194919D8BCB
:102240008C8B265F364FF90184918B8FEE852E2F74
:10225000332727FD3095F901EA50F74FE491F0E07C
:10226000EE0FFF1FEE51F74F859194919B8B8A8B58
:10227000265F364FF90184918A8FE8892E2F332704
:1022800027FD3095F901EA50F74FE491F0E0EE0FA9
:10229000FF1FEE51F74F859194919F8B8E8B265F98
:1022A000364FF90184918C8FEF852E2F332727FD30
:1022B0003095F901EA50F74FE491F0E0EE0FFF1F7F
:1022C000EE51F74F85919491998F888F265F364F05
:1022D000F90184918D8FCE0161E20E945010CE01F0
:1022E00064E10E9450108B8587FF02C08FE78B87C7
:1022F0006B856068CE010E945010CE0160E20E94A2
:102300005010CE016CE00E945010CE010E9470105F
:10231000DF91CF910F91EF900895CF93DF93DC0180
:10232000E0E8F7E785919491ED01C75ADF4FAD01E1
:1023300040595F4F8150904C09F04EC0E6E9F7E7F5
:10234000E491E883E7E9F7E7E4911496EC931497B6
:10235000E8E9F7E7E4911596EC931597E9E9F7E7D3
:102360008591949117969C938E931697EBE9F7E7D6
:102370008591949119969C938E931897EDE9F7E7C0
:10238000E4919B96EC939B97EEE9F7E7E4919A969C
:10239000EC939A97EFE9F7E7E491EA01E883E0EA42
:1023A000F7E7859194915D969C938E935C97E2EA12
:1023B000F7E7859194915F969C938E935E97E4EAFC
:1023C000F7E78591949191969C938E939097E6EA86
:1023D000F7E78591949132C08CE3888314961C9220
:1023E00014972FEF15962C93159780E293E017968C
:1023F0009C938E93169784ED93E019969C938E93FD
:10240000189781E09B968C939B979A968C939A97BA
:10241000FA0120838CEA9DE05D969C938E935C97F5
:102420008EED9DE05F969C938E935E9784E79EE091
:1024300091969C938E9390978CE39FE093969C93B8
:102440008E939297DF91CF9108952F923F924F9262
:102450005F926F927F928F929F92AF92BF92CF9234
:10246000DF92EF92FF920F931F93DF93CF9300D0F1
:1024700000D0CDB7DEB79A838983F9018491482EC5
:102480005524319684913197FC83EB83F601249196
:102490000894C11CD11CF60134910894C108D108DC
:1024A0005201A60EB71E0A151B050CF06BC0D80111
:1024B000A20FB11D6A177B070CF064C0682E772449
:1024C000C301840F951FE816F9060CF05BC0F701F5
:1024D000E30FF11D4E175F070CF054C06017710732
:1024E0001CF08824992403C04801861A970A4E15C7
:1024F0005F051CF020E030E003C09701241B350B82
:10250000AA16BB0614F4120103C01D01261A370ACD
:102510008E179F0714F4230103C02F01441A550A94
:10252000B22E69807A802EE430E0620E731E342F62
:102530003E19E32EEB0CA82CF62EF01AF80C1DC059
:102540001A2D0F2D13C0C3016B817C81412F2B2DC0
:102550000E943C0E882371F1C301B601402F2E2D3D
:102560000E943C0E882331F181E00DC0812F90E064
:102570008215930544F3B394E3948B2D90E0841576
:102580009505F4F280E00F900F900F900F90CF918F
:10259000DF911F910F91FF90EF90DF90CF90BF9050
:1025A000AF909F908F907F906F905F904F903F90F3
:1025B0002F9008951F5F0F5FD9CFEF92FF920F9377
:1025C0001F93CF93DF937C018C01025B1F4FC801E7
:1025D0000E94B310C8016EE677E00E943A1CC80161
:1025E0000E94701083E00E94A90882E291E0EEEF61
:1025F000FFE3099584E590E0E80EF91EF7011082EB
:10260000C80169E477E00E94851CC8010E9470102F
:10261000E701CA54D040CE010E94D909CE0164E03E
:102620000E949809882339F462E370E080E090E02A
:102630000E944F1AF0CFDF91CF911F910F91FF9021
:10264000EF9008950F931F93CF93DF93EC018C01CC
:10265000025B1F4FC80161E040E00E947A0AFE0160
:10266000E95AFF4FCE5ADF4F85E59881891B808359
:1026700026961882C855D040698D613009F43EC055
:10268000613028F0888D653008F051C04BC0CE0114
:1026900085960E947517CE0160E00E94D508C8019A
:1026A0000E94B310CA5ADF4F81E08883C655D040DC
:1026B000C8016AEA77E00E943A1C6A8D7B8DC801E6
:1026C0004AE050E00E94281DC80166E977E00E94B8
:1026D0003A1CC8010E94701083B7817F846083BF59
:1026E00083B7816083BF83B7816083BF889583B7D9
:1026F0008E7F83BF83B78E7F83BF1FC0CF58DF4FCE
:1027000088819981AA81BB818F709070A070B07010
:102710000897A105B10518F4C80167E00CC0C8010D
:1027200068E709C0882349F06B5FC80104C08823AB
:1027300021F0C8016FE20E945D1CDF91CF911F91D3
:102740000F910895AF92BF92CF92DF92EF92FF92D6
:102750000F931F93CF93DF93EC01CA57DF4F88810C
:10276000C658D040882309F44AC08C3010F010E0DD
:1027700002C01CE0181BCA5ADF4F81E08883C6558F
:10278000D0406EE4C62ED12CCC0EDD1EC60160E01A
:102790000E94760A53E5A52EB12CAC0EBD1EF501A4
:1027A00000814DE2F42E4F2D401B410F0D5FC601FD
:1027B00060E024E533E0E32E0E946E0CC60161E088
:1027C0000E94760AF5010081F01AF10E0D5FC60134
:1027D00060E04F2D24E50E94100CC95ADF4F84E0C1
:1027E0008993F5018081181B115D1883AC9669915E
:1027F0007991C6010E943A1C888181508883DF91BB
:10280000CF911F910F91FF90EF90DF90CF90BF90ED
:10281000AF9008954F925F926F927F928F929F92A6
:10282000AF92BF92CF92DF92EF92FF920F931F93DE
:102830002C01FC01628C738C609470948824992420
:102840000E94291A5B016C010E94291A7B018C01EC
:10285000F201418052800E94291A460E571EA09410
:10286000B094C094D094E094F09400951095C60173
:10287000B501A80197010E949A1FA40193010E942B
:102880009A1F460E571EC2010E94751E1F910F917E
:10289000FF90EF90DF90CF90BF90AF909F908F9080
:1028A0007F906F905F904F900895AF92BF92CF92BC
:1028B000DF92EF92FF920F931F93CF93DF93EC0180
:1028C000E0E8AE2EB12CA80EB91EF501E080F18033
:1028D000028113810E941B1AE61AF70A080B190BD2
:1028E0007FE7C72ED12CCC0EDD1EF601808190E053
:1028F000A0E0B0E08E159F05A007B10708F081C0E9
:102900008E0105581F4FF80180819181A281B3810A
:102910000097A105B10509F474C00E941B1AF601C5
:102920002081620F711D811D911DF50160837183EE
:1029300082839383FE01EF58FF4F80819181A281B2
:10294000B3810196A11DB11D80839183A283B383BE
:10295000F80110821182128213820E94291AC9582A
:10296000DF4F688379838A839B83C757D040CE012A
:102970000E94DA08CE010A960E94D909CE01489633
:102980000E944C0981E032C08E010B5D1F4FC801CF
:102990000E94C317C8010E943A18C8010E941D195D
:1029A000CE010E94A213CE010E9422138E01025B6F
:1029B0001F4FC8010E947010CC5ADF4F8881C45548
:1029C000D040882319F4C8010E94B3100E94291A2C
:1029D000C558DF4F688379838A839B832497288136
:1029E0003981621B730B7A936A9380E0DF91CF91F8
:1029F0001F910F91FF90EF90DF90CF90BF90AF901D
:102A00000895C558DF4F88819981AA81BB81CB5732
:102A1000D0400097A105B10541F7B6CF2F923F9264
:102A20004F925F926F927F928F929F92AF92BF92DE
:102A3000CF92DF92EF92FF920F931F93DF93CF938A
:102A4000CDB7DEB762970FB6F894DEBF0FBECDBF2D
:102A50006C016C837D834B8324E530E0C20ED31E72
:102A6000F60110822CEA3FEFC20ED31E1AE0A12E0F
:102A7000B12CAC0CBD1CB5E22B2E312C2C0C3D1C0A
:102A8000AEE44A2E512C4C0C5D1C10E0F0E37F2E7E
:102A900066241A823FEF3983A601495A5F4F5F834C
:102AA0004E83C601885A9F4F99878887F601EA5A54
:102AB000FF4FFB87EA8796012B5A3F4F3D872C87B4
:102AC000E3E58E2E912C8C0C9D1C5B81452F50E0F4
:102AD0005F874E878B818150888BC6010E94551479
:102AE0008823D9F3C50164E00E949809882369F41A
:102AF000C50165E00E949809882339F4C50166E0A4
:102B00000E949809882309F4D3C0F4010081C5010B
:102B100064E00E949809882329F0C1010E947A1973
:102B20001983CBC0C1010E948019C7C0C50163E0F1
:102B300044E00E94BB09882321F01F5FC1010E946D
:102B40008619C50161E044E00E94BB09882321F099
:102B50001150C1010E948619812F992787FD9095F8
:102B60002E853F858217930711F410E002C017FDF0
:102B70001889F4018081819F902D11248C5F682E2B
:102B8000691A28C0872D992787FD9095262D332710
:102B900027FD3095821B930B0297D4F489816296AE
:102BA0000FB6F894DEBF0FBECDBFCF91DF911F915E
:102BB0000F91FF90EF90DF90CF90BF90AF909F90DC
:102BC0008F907F906F905F904F903F902F900895DF
:102BD000F1E0FA83862D992787FD9095272D3327DD
:102BE00027FD3095820F931F62E070E00E94CD1F99
:102BF000762EEE81FF811082E885F985608321E0E1
:102C0000EA85FB852083EC85FD8510822C813D8142
:102C1000C9019A8B898B00E0E12EFF24E7FCF09438
:102C200020C0802F90E08E159F0569F423E0EE818F
:102C3000FF812083F40180818E9D802D1124870DDA
:102C4000E885F9858083E989FA8965917491C201E3
:102C50000E94851C0F5F29893A892E5F3F4F3A8B6E
:102C6000298B3B810317E8F2C20160E00E94760ADB
:102C7000F40140814E9D402D11244150470DC20169
:102C800060E024E50E949A0AC20161E00E94760A8F
:102C9000F40100810E9D402D11244250470D0D5F1F
:102CA000C20160E024E573E0E72E0E94100C15CF0E
:102CB000FA81FF2309F066CF39CF802F90E09095FD
:102CC00081959F4F2E853F85AC01249FC001259F94
:102CD000900D349F900D11246EEF662E680E52CF2A
:102CE000AF92BF92CF92DF92EF920F93CF93DF9389
:102CF0006C018FE790E0C80ED91E82E3F601808355
:102D000081E090E0A0E0B0E0B293A293929382932E
:102D10006F0185EF9FEFC80ED91E8FEFF6018083FC
:102D200080E99FEFC80ED91EC6010E948D11C60111
:102D30000E94D108C6016FEF0E94D5084AE0A42E78
:102D4000B12CAC0CBD1CC5010E948809C5010E94B4
:102D5000D909C60148960E944209C601825B9F4F6D
:102D60006DE04BE020E10FE03EE0E32E0E94C81052
:102D7000E601A596CE010E949919C50165E00E9461
:102D80009809882329F0CE0160E00E948C1906C0C2
:102D9000CE016DE678E040E00E947917DF91CF9197
:102DA0000F91EF90DF90CF90BF90AF9008950F9369
:102DB000DC01002309F069C0623009F443C06330CC
:102DC00030F4662359F0613009F05FC00DC0633004
:102DD00009F444C0643009F058C04CC04B3008F0CE
:102DE0004AE056964C9351C0842F90E0880F991F6B
:102DF0001F962D913C915097280F391FF90185910D
:102E0000949190969C938E935F97FC014591549179
:102E100014968C911497849F602D112491966C9335
:102E20009197252F3327862F90E02817390708F42C
:102E3000652F14968C911497689F802D112492967B
:102E40008C9323C014968C911497489F802D112445
:102E500059968C9359975A962C9317C014968C9127
:102E60001497489F802D11245B968C935B975C96FA
:102E70002C930BC014968C911497489F802D11248D
:102E80005D968C935D975E962C930F910895FC014F
:102E9000222371F4648B8481489F802D1124858BBB
:102EA00015A214A213A281E0878B8093D603108E03
:102EB0000895FC01662369F4178A158A14A213A2E7
:102EC000108E1092D9031092D8031092D60310924C
:102ED000B4000895CF93DF93EC01662319F40E94A8
:102EE00059171982DF91CF91089560E00E946A1707
:102EF00008950F931F93CF93DF93EC018B0144232D
:102F000071F460E00E946A171E870D871B8A1A8A77
:102F100081E0898389E08E8B198E1B8E1D8EDF9157
:102F2000CF911F910F910895CF93DF93EC0166230A
:102F300039F58881882321F18981882309F58985DC
:102F400090E0880F991FEF81F885E80FF91F8591B0
:102F500094912FEF8F3F920711F4188211C09C8734
:102F600090E0880F991FEA85FB85E80FF91F6591AE
:102F70007491CE0140E00E94791789858F5F89871F
:102F8000DF91CF91089560E00E94941708950F9308
:102F9000CF93DF93EC01662309F068C08981882311
:102FA00009F464C08D89882309F060C0EA89FB892F
:102FB000EE0FFF1F4D855E85E40FF51F25913491BF
:102FC0002115310509F040C08989813031F41B8A0F
:102FD0001A8AFA012591349137C019828881882391
:102FE00079F0CE0160E00E9494178A899B89880F4E
:102FF000991FED85FE85E80FF91F2591349124C0B6
:10300000CE0160E00E94591731C0E6E03695279561
:10301000EA95E1F76F70422F4F7175E0369527956D
:103020007A95E1F72051CE0100E00E94D7168A89F7
:103030009B8901969B8B8A8B880F991FED85FE8556
:10304000E80FF91F25913491B9017695679576952A
:10305000679520FDDACF6F73432FCE0120E00E94E9
:1030600047178A899B8901969B8B8A8BDF91CF9129
:103070000F91089560E00E94C7170895CF93DF93E2
:10308000EC01662309F0D6C08F89882309F4D2C0E9
:103090008D89882321F4CE010E945917CBC081501D
:1030A0008D8B8DA1882309F03BC08BA19CA101963B
:1030B000880F991FEF8DF8A1E80FF91F8591949162
:1030C000282F27702EA3AC0163E0569547956A958B
:1030D000E1F79A0136952795892F99278695869548
:1030E0008FA32F738C81289F202D11242DA3417035
:1030F0004093DA038BA19CA101969CA38BA329A1E9
:1031000030E08217930760F08AA1882329F0281BFA
:1031100031093CA32BA304C0CE0160E00E945917E3
:103120008DA181508DA3988D9F5F988F2FA18C8941
:10313000280F8C85280F2A836B8D662369F0892FD1
:10314000992787FD909570E00E94CD1F8C8D869FFA
:10315000802D1124820F8A838A8190E0CB966BE3C5
:1031600070E00E94CD1F8A832E892B83698D662390
:1031700079F0888D772767FD7095992787FD909561
:103180000E94CD1F8A8D869F802D1124820F8B83F4
:103190006D8D662399F0888D992787FD909570E055
:1031A0000E94CD1FCB0162E070E00E94CD1F9E8D7A
:1031B000899F802D11249B81890F8B838B818A307D
:1031C0000CF089E087FD80E08B838C898F3309F4D4
:1031D0001B82F894EA81F0E0EF56F74FE491E09318
:1031E000D7032D8130E08B81992787FD9095A90128
:1031F000489F9001499F300D589F300D112488A59C
:1032000090E0A901489F9001499F300D589F300DD3
:1032100011248EA1992787FD9095AC01249FC001B0
:10322000259F900D349F900D11248093D803809397
:10323000D9037894DF91CF91089560E00E943E1801
:1032400008956091D803662381F18091D5038F5F43
:103250008093D5039091D703891738F130E080919E
:10326000D603882309F431E03093D6031092D503B6
:103270008091DA038823A9F08091380123E4829FAA
:10328000C0011124895B8093380190E070E00E94B6
:10329000B91F8093D90305C08091D9038093B400EE
:1032A00008953323C9F780E0F9CF08951F920F9254
:1032B0000FB60F9211242F933F934F935F936F9309
:1032C0007F938F939F93AF93BF93EF93FF930E944E
:1032D0002119FF91EF91BF91AF919F918F917F91B4
:1032E0006F915F914F913F912F910F900FBE0F9073
:1032F0001F90189569E878E040E00E9479170895DA
:1033000061E878E040E00E94791708956BE778E083
:1033100040E00E9479170895FC01862F668170E0D5
:103320006F5F7F4F992787FD90950E94CD1F858302
:1033300008950F93FC0181E0848384E080A78CECE6
:1033400098E0908B8787CF0161E040E020E000E0CB
:103350000E94D71683E061E070E00E94D21AE1EB90
:10336000F0E08081887F81608083F89410928000F3
:10337000E1E8F0E01082109285001092840088E16C
:1033800091E0909389008093880080818860808399
:10339000808181608083EFE6F0E0808182608083BD
:1033A00078940F9108951F920F920FB60F921124E7
:1033B0002F933F938F939F93AF93BF938091DF039E
:1033C0009091E003A091E103B091E2033091E30317
:1033D0000196A11DB11D232F2D5F2D3720F02D57F4
:1033E0000196A11DB11D2093E3038093DF03909309
:1033F000E003A093E103B093E2038091DB0390919B
:10340000DC03A091DD03B091DE030196A11DB11D87
:103410008093DB039093DC03A093DD03B093DE0382
:10342000BF91AF919F918F913F912F910F900FBEC0
:103430000F901F9018958FB7F8942091DF0330916B
:10344000E0034091E1035091E2038FBFB901CA014B
:1034500008959FB7F8942091DB033091DC034091ED
:10346000DD035091DE0386B5A89B06C08F3F21F097
:103470002F5F3F4F4F4F5F4F9FBF542F432F322F30
:103480002227280F311D411D511D82E0220F331FBD
:10349000441F551F8A95D1F7B901CA010895EF92CB
:1034A000FF920F931F93CF93DF937B018C010E94B8
:1034B000291AEB010EC00E94291A6C1B7D0B685E55
:1034C0007340C8F30894E108F10801091109C851D3
:1034D000DC4FE114F1040105110569F7DF91CF918B
:1034E0001F910F91FF90EF900895789484B58260BA
:1034F00084BD84B5816084BD85B5826085BD85B598
:10350000816085BDEEE6F0E0808181608083E1E846
:10351000F0E010828081826080838081816080837E
:10352000E0E8F0E0808181608083E1EBF0E0808181
:1035300084608083E0EBF0E0808181608083EAE753
:10354000F0E08081846080838081826080838081DC
:10355000816080838081806880831092C10008959B
:10356000982F8E3008F09E50977080913901829587
:10357000880F880F807C892B80937C0080917A0053
:10358000806480937A0080917A0086FDFCCF209140
:10359000780040917900942F80E030E0282B392B7F
:1035A000C90108951F93CF93DF93182FEB0161E0BA
:1035B0000E94321B209709F44AC0CF3FD10509F47D
:1035C00049C0E12FF0E0E25EF64F84918330C1F014
:1035D000843028F4813051F08230B1F50CC086304F
:1035E00019F1873049F1843079F514C084B58068C9
:1035F00084BDC7BD33C084B5806284BDC8BD2EC044
:1036000080918000806880938000D0938900C0936F
:10361000880024C080918000806280938000D093D5
:103620008B00C0938A001AC08091B000806880939C
:10363000B000C093B30012C08091B000806280934C
:10364000B000C093B4000AC0C038D1051CF4812F6B
:1036500060E002C0812F61E00E949E1BDF91CF914C
:103660001F910895CF93DF93482F50E0CA01865FE2
:10367000964FFC0134914A50574FFA0184918823A8
:1036800069F190E0880F991FFC01E852F74FA5916E
:10369000B491FC01EE51F74FC591D491662351F4DA
:1036A0002FB7F8948C91932F909589238C938881D0
:1036B00089230BC0623061F42FB7F8948C91932F5B
:1036C000909589238C938881832B88832FBF06C094
:1036D0009FB7F8948C91832B8C939FBFDF91CF91F0
:1036E0000895833071F0843028F48130A1F0823065
:1036F00021F514C08630B1F08730D1F08430E9F480
:1037000004C0809180008F7703C0809180008F7DFE
:1037100080938000089584B58F7702C084B58F7D33
:1037200084BD08958091B0008F778093B000089594
:103730008091B0008F7D8093B0000895FF920F9329
:103740001F93F62E482F50E0CA01825E964FFC016F
:103750002491CA01865F964FFC0114914A50574F3D
:10376000FA0104910023C9F0222319F0822F0E944C
:10377000711BE02FF0E0EE0FFF1FEE51F74FA59108
:10378000B4919FB7F894FF2021F48C911095812378
:1037900002C08C91812B8C939FBF1F910F91FF9042
:1037A00008950F931F93482F50E0CA01825E964FF1
:1037B000FC012491CA01865F964FFC0104914A5096
:1037C000574FFA011491112319F420E030E015C08D
:1037D000222319F0822F0E94711B812F90E0880F05
:1037E000991F8451974FFC01A591B4918C9120E0D1
:1037F00030E0802311F021E030E0C9011F910F91EA
:103800000895CF93DF930E94751A0E948A08C0E042
:10381000D0E00E94A7072097E1F30E940000F9CFB3
:10382000CF92DF92EF92FF920F931F93CF93DF938C
:103830007C016B018A01C0E0D0E00FC0D6016D9120
:103840006D01D701ED91FC910190F081E02DC70150
:103850000995C80FD91F015010400115110571F7C6
:10386000CE01DF91CF911F910F91FF90EF90DF90EC
:10387000CF900895EF92FF920F931F93CF93DF9312
:103880007C018B01C0E0D0E0F8010F5F1F4F649115
:10389000662359F0D701ED91FC910190F081E02D64
:1038A000C7010995C80FD91FEFCFCE01DF91CF9186
:1038B0001F910F91FF90EF900895DC01ED91FC9125
:1038C0000190F081E02D09950895EF92FF920F93FA
:1038D0001F938C01DC01ED91FC910190F081E02DB2
:1038E0006DE009957C01D801ED91FC910190F0818A
:1038F000E02DC8016AE009959C012E0D3F1DC9010C
:103900001F910F91FF90EF900895EF92FF920F9308
:103910001F937C010E943A1C8C01C7010E94651C08
:103920009C01200F311FC9011F910F91FF90EF9053
:103930000895CF93DF93EC016115710519F420E030
:1039400030E00FC0DB010D900020E9F71197A61BB6
:10395000B70BE881F9810280F381E02DAD01099573
:103960009C01C901DF91CF9108954F925F927F92A0
:103970008F929F92AF92BF92CF92DF92EF92FF927F
:103980000F931F93DF93CF93CDB7DEB7A1970FB6F9
:10399000F894DEBF0FBECDBF2C01742ECB012230B8
:1039A00008F42AE019A231E2C32ED12CCC0EDD1E80
:1039B000822E9924AA24BB24672D752FA50194017A
:1039C0000E94E01F79018A01C801B701A501940195
:1039D0000E949A1F472D461B0894C108D1084A30FF
:1039E00014F4405D01C0495CF6014083E114F10428
:1039F0000105110521F07E2C5F2DC801DDCFC2012C
:103A0000B6010E94991CA1960FB6F894DEBF0FBEB6
:103A1000CDBFCF91DF911F910F91FF90EF90DF907D
:103A2000CF90BF90AF909F908F907F905F904F907E
:103A30000895DC012115310541F4ED91FC910190CF
:103A4000F081E02D642F099508950E94B51C08951A
:103A5000EF92FF920F931F939A017B0100E010E019
:103A6000B801A7010E94191D1F910F91FF90EF90BF
:103A70000895CF92DF92EF92FF920F931F936C0104
:103A80007B019A0100E010E0B801A7010E94191D16
:103A90008C01C6010E94651C080F191FC8011F91E7
:103AA0000F91FF90EF90DF90CF900895EF92FF92EB
:103AB0000F931F939A01E62EFF2400E010E0B80157
:103AC000A7010E94191D1F910F91FF90EF9008957B
:103AD000CF92DF92EF92FF920F931F936C01E62E2D
:103AE0009A01FF2400E010E0B801A7010E94191D0F
:103AF0008C01C6010E94651C080F191FC8011F9187
:103B00000F91FF90EF90DF90CF900895CF92DF92CA
:103B1000EF92FF920F931F93CF93DF93EC016A0113
:103B20007B012115310541F4E881F9810190F08193
:103B3000E02D642F09951FC02A303105D1F477FF9D
:103B400017C0E881F9810190F081E02D6DE20995BF
:103B50008C0144275527BA014C195D096E097F096C
:103B6000CE012AE00E94B51C9801280F391F04C01D
:103B70002AE00E94B51C9C01C901DF91CF911F91E1
:103B80000F91FF90EF90DF90CF900895EF92FF920A
:103B90000F931F937B019A010027F7FC0095102FCC
:103BA000B801A7010E94861D1F910F91FF90EF9011
:103BB0000895EF92FF920F931F937C010E94991C2E
:103BC0008C01C7010E94651C080F191FC8011F91B5
:103BD0000F91FF90EF9008952F923F924F925F9236
:103BE0006F927F928F929F92AF92BF92CF92DF920D
:103BF000EF92FF920F931F93DF93CF93CDB7DEB772
:103C00003B014C0119012A016D897E898F89988DAC
:103C10006A197B098C099D09621A730A840A950A3C
:103C2000A40193010E949A1FE218F30804091509E0
:103C3000A80197010E9402202A0D3B1D4C1D5D1D0D
:103C4000B901CA01CF91DF911F910F91FF90EF90C1
:103C5000DF90CF90BF90AF909F908F907F906F90AC
:103C60005F904F903F902F900895EF92FF920F93A7
:103C70001F937B018C01611571058105910529F464
:103C800020E030E040E050E00BC00E947620A80128
:103C900097010E940220AC01CB01DA019C01AD0129
:103CA000B901CA011F910F91FF90EF900895EF9213
:103CB000FF920F931F937B018C0162177307840798
:103CC000950764F4261B370B480B590BCA01B90141
:103CD0000E94351EE60EF71E081F191FB701C80106
:103CE0001F910F91FF90EF900895009729F0BC016C
:103CF00080E090E00E947B20089598D088F09F5744
:103D000090F0B92F9927B751A0F0D1F0660F771F27
:103D1000881F991F1AF0BA95C9F712C0B13081F007
:103D20009FD0B1E008959CC0672F782F8827B85F97
:103D300039F0B93FCCF3869577956795B395D9F768
:103D40003EF490958095709561957F4F8F4F9F4F72
:103D50000895E89409C097FB3EF49095809570957E
:103D600061957F4F8F4F9F4F9923A9F0F92F96E9C7
:103D7000BB279395F695879577956795B795F1113C
:103D8000F8CFFAF4BB0F11F460FF1BC06F5F7F4FD9
:103D90008F4F9F4F16C0882311F096E911C07723EB
:103DA00021F09EE8872F762F05C0662371F096E8F4
:103DB000862F70E060E02AF09A95660F771F881FC3
:103DC000DAF7880F9695879597F9089597F99F6781
:103DD00080E870E060E008959FEF80EC0895002493
:103DE0000A941616170618060906089500240A9460
:103DF00012161306140605060895092E0394000CE6
:103E000011F4882352F0BB0F40F4BF2B11F460FF74
:103E100004C06F5F7F4F8F4F9F4F089557FD90589D
:103E2000440F551F59F05F3F71F04795880F97FB7E
:103E3000991F61F09F3F79F0879508951216130638
:103E40001406551FF2CF4695F1DF08C01616170667
:103E50001806991FF1CF869571056105089408959C
:103E6000E894BB2766277727CB0197F908950BD0F5
:103E7000C4CFB5DF28F0BADF18F0952309F0A6CF3C
:103E8000ABCF1124EECFCADFA0F3959FD1F3950FEE
:103E900050E0551F629FF001729FBB27F00DB11DCE
:103EA000639FAA27F00DB11DAA1F649F6627B00D5E
:103EB000A11D661F829F2227B00DA11D621F739F47
:103EC000B00DA11D621F839FA00D611D221F749F55
:103ED0003327A00D611D231F849F600D211D822F9C
:103EE000762F6A2F11249F5750408AF0E1F08823E3
:103EF0004AF0EE0FFF1FBB1F661F771F881F9150F0
:103F00005040A9F79E3F510570F060CFAACF5F3FA8
:103F1000ECF3983EDCF3869577956795B795F79522
:103F2000E7959F5FC1F7FE2B880F911D96958795AA
:103F300097F90895629FD001739FF001829FE00D71
:103F4000F11D649FE00DF11D929FF00D839FF00D18
:103F5000749FF00D659FF00D9927729FB00DE11DC4
:103F6000F91F639FB00DE11DF91FBD01CF011124A1
:103F70000895AA1BBB1B51E107C0AA1FBB1FA617B0
:103F8000B70710F0A61BB70B881F991F5A95A9F702
:103F900080959095BC01CD01089597FB092E0726C9
:103FA0000AD077FD04D0E5DF06D000201AF4709522
:103FB00061957F4F0895F6F7909581959F4F0895ED
:103FC000A1E21A2EAA1BBB1BFD010DC0AA1FBB1F1D
:103FD000EE1FFF1FA217B307E407F50720F0A21B8F
:103FE000B30BE40BF50B661F771F881F991F1A94FC
:103FF00069F760957095809590959B01AC01BD0126
:10400000CF01089597FB092E05260ED057FD04D049
:10401000D7DF0AD0001C38F4509540953095219593
:104020003F4F4F4F5F4F0895F6F7909580957095ED
:1040300061957F4F8F4F9F4F0895EE0FFF1F0590A3
:10404000F491E02D0994A0E0B0E0E9E2F0E20C94F4
:104050008C20EC01A880B980CA80DB80A114B10457
:10406000C104D10441F484E2A82E89EDB82E8BE579
:10407000C82E87E0D82EC601B5012DE133EF41E00F
:1040800050E00E94022027EA31E440E050E00E9424
:104090009A1F7B018C01C601B5012DE133EF41E090
:1040A00050E00E940220CA01B9012CEE34EF4FEF1C
:1040B0005FEF0E949A1F6E0D7F1D801F911F97FF5B
:1040C00004C06150704080409048688379838A833F
:1040D0009B839B01AC015F77B901CA01CDB7DEB705
:1040E000EAE00C94A8200E942320089589E291E040
:1040F0000E94232008956093290170932A018093E0
:104100002B0190932C0108952F923F924F925F9232
:104110006F927F928F929F92AF92BF92CF92DF92D7
:10412000EF92FF920F931F93CF93DF93CDB7DEB73C
:10413000CA1BDB0B0FB6F894DEBF0FBECDBF0994D0
:104140002A88398848885F846E847D848C849B8427
:10415000AA84B984C884DF80EE80FD800C811B8135
:10416000AA81B981CE0FD11D0FB6F894DEBF0FBE64
:0A417000CDBFED010895F894FFCFD4
:10417A00596F75206469656421000054696D653A58
:10418A0000206672616D65732E005072657373202C
:10419A0016004C4F4144455200010000001400240F
:1041AA0000020001000100010101000000001310DB
:0241BA00101CD7
:00000001FF
