:100000000C9497030C94BF030C94BF030C94BF0390
:100010000C94BF030C94BF030C94BF030C94BF0358
:100020000C94BF030C94BF030C94BF030C949C1757
:100030000C94BF030C94BF030C94BF030C94BF0338
:100040000C9419180C94BF030C94BF030C94BF03B9
:100050000C94BF030C94BF030C94BF030C94BF0318
:100060000C94BF030C94BF0308087E5A5A5A7E248E
:10007000240058040000000000000000000000FF01
:10008000FFFFFFFFFFFFFFFFFFFFFFFFFFFFFFFF80
:10009000FFFFFFFFFFFFFFFFFFFFFFFFFFFFFFFF70
:1000A0000808183C246642C3817E4661696C7572FB
:1000B000650013011C0124013001536D6173682038
:1000C000262043726173680020436F6E6E6563740F
:1000D000696E672E2E2E00202020204C6F616469EF
:1000E0006E672E2E2E2E00202020204C6F6164691A
:1000F0006E672E2E2E2E00536D61736820262043CE
:100100007261736800536D617368202620437261C9
:10011000736800537572766976616C004F7074690C
:100120006F6E73004D756C7469706C6179657200E7
:100130004261636B20746F205469746C6500030521
:100140003F213F1208120A100A0E1C0E0C1E0C143E
:100150001A14161F161E131E1E1B1E1E1F1E3F21C5
:100160003F3A2F3A173D173F213F181F02040A0458
:100170001F0E04040E1F0A1F0A0E0E1F04110E2E5E
:10018000252E2F2A2E262929021F02081F08150EA8
:1001900004040E150E15151B151B040604040C048F
:1001A0000000000017000300031F0A1F16371A196A
:1001B00004130A153A000300000E11110E000A0480
:1001C0000A040E04003000040404001000180403A4
:1001D0001F111F121F101D151711151F07041F17C0
:1001E000151D1F151D01011F1F151F17151F000AC3
:1001F00000003200040A110A0A0A110A0401150259
:100200000E11171E051E1F150A0E110A1F110E1FB3
:1002100015111F05010E111D1F041F111F110810BC
:100220000F1F041B1F10101F061F1E040F0E110EA0
:100230001F09060E112E1F051A121509011F011F95
:10024000101F0F180F1F0C1F1B041B031C03191575
:1002500013001F11030418111F00020102202020A7
:100260000001020C121E1F120C0C12120C121F0C99
:100270001A14041E05242A1E1F021C141D102020FF
:100280001D1F0814111F101E041E1E021C0C120C30
:100290003E0A040C123E1E040214160A020F120E2D
:1002A000101E0E100E1E081E120C1226281E322AB8
:1002B00026041E21001F00211E040102013F213FD0
:1002C00005077F4141417F3E5B4F5B3E3E6B4F6B7D
:1002D0003E183C783C18183C7E3C181C577D571C37
:1002E0001C5E7F5E1C007E43437E007E73737E0037
:1002F0007E7F7F7E7F4141417F30483A060E06294E
:100300007929067F4141417F60703F02042A1C36F3
:100310001C2A7F3E1C080000081C3E7F14227F22FE
:10032000143C3C3C7EFF18423C817E3E6375633E3C
:100330003E616B633E3E636B6B3E04027F020410C2
:10034000207F201008082A1C08081C2A0808143ED0
:10035000554122637569756310181C1810040C1C34
:100360000C04000000000000005F00000007000710
:1003700000147F147F14042A7F2A10231308646258
:1003800036495620500008070300001C2241000097
:1003900041221C002A1C3E1C2A08083E080800E0D6
:1003A000600000080808080800606000006010088D
:1003B00004033E5149453E00427F40006251494995
:1003C000462141494D331814127F102745454539C0
:1003D0003C4A494930412111090736494949360605
:1003E0004949291E00002400000080640000081410
:1003F000224100141414141400412214080201595B
:1004000009063E415D594E7C1211127C7F494949D3
:10041000363E414141227F4141221C7F49494941A9
:100420007F090909013E414151327F0808087F00D8
:10043000417F41002041413F017F081422417F401C
:100440004040407F020C027F7F0204087F3E414112
:10045000413E7F090909063E416141BE7F091929D4
:1004600046264949493201017F01013F4040403F52
:100470001F2040201F3F4038403F6314081463038F
:10048000047804036151494543007F41410003045E
:100490000810600041417F00040201020480808056
:1004A0008080000307080020545478407F2844448B
:1004B000383844444428384444287F385454541825
:1004C000087E09090218A4A49C787F080404780017
:1004D000447D4000006080847D7F101028440041EE
:1004E0007F40007C047804787C0804047838444415
:1004F0004438FC1824241818242418FC7C0804040C
:10050000080854545420043F4444203C4040207C7C
:100510001C2040201C3C4020403C44281028444CD7
:100520009090907C4464544C440008364100000094
:100530007F00000041360800180408100C7F41417C
:10054000417F0A4E6F2053442063617264206F72B2
:100550000A6E6F204C4F414445522E4845580A0AB6
:10056000153A45786974001D20466C617368696EA0
:10057000670A20206C6F616465722E2E2E0A0A4471
:100580004F4E2754205455524E204F464621006D61
:10059000560A0A504C454153450A5455524E204F75
:1005A0004646004C4F5720424154544552590A0088
:1005B000177361766500166261636B00157479705C
:1005C00065000A0A0A153A6F6B617920163A65646C
:1005D000697400596F7520656E74657265640A00F0
:1005E000540A03E181867F3E186D830F0F0E01834D
:1005F000866033186DC3198F1803C38E6033186D6E
:10060000E330CF1803C39E603630CDE360CF3006B1
:10061000C79E7E3E30CDB360CF300CC6F66033301F
:10062000D9B660CF33CFCCF66061B0DB1E60CF307F
:10063000D86CE6C061B0DB1E618F19986CC6C063D0
:10064000B19B0E330F0FB078C6FF7E1F1B061E0F27
:1006500017534400161378001613140015102000C9
:100660001520100000000500893008023802497882
:1006700068140000450068010000050068013801A9
:1006800000000500380168010000F6E8DBCFC3B8C0
:10069000AEA49B928A827B746E68625C57524E490C
:1006A00045413E3A3734312E2C29272523211F1D61
:1006B0001C1A1917161514131211100F0E0D0C0B0E
:1006C0000A09080706C906CD060101F7030101FF63
:1006D0000300000000240027002A0000000000257D
:1006E0000028002B00000000002300260029000441
:1006F00004040404040404020202020202030303C9
:1007000003030301020408102040800102040810C2
:100710002001020408102000000007000201000070
:10072000030406000000000000000000C1031124C3
:100730001FBECFEFD8E0DEBFCDBF11E0A0E0B1E03B
:10074000E0EAFCE302C005900D92A032B107D9F7B0
:1007500013E0A0E2B1E001C01D92AC3BB107E1F7AC
:1007600017E0CEE2D7E004C02297FE010E94B21D3E
:10077000CC32D107C9F70E94471A0C944E1E0C9434
:10078000000010927101109270018BE191E0909342
:100790006F0180936E0160E070E080E090E02CE4F7
:1007A00030E040E050E00E94EA1B7093AA016093A1
:1007B000A9010895CF92DF92EF92FF920F931F93BA
:1007C000CF93DF93C1E0D0E080E291E00E9433114B
:1007D0008823D1F38EE691E06091A9014091AB01AD
:1007E00020EA30E00E9487098091AB019091AC0132
:1007F00001969093AC018093AB014091130150910D
:10080000140180910D0190910E01480F591F5093D2
:100810000E0140930D018EE691E060910B0128E6F8
:1008200030E000E0E090A7010E94440B8EE691E0EA
:1008300060E04CE222E730E00E9487098AE291E022
:1008400061E042E00E949906882371F080910D01D9
:1008500090910E012091110130911201821B930B96
:1008600090930E0180930D018AE291E063E042E0F3
:100870000E949906882371F080910D0190910E01DC
:100880002091110130911201820F931F90930E015C
:1008900080930D018AE291E060E042E00E949906B7
:1008A000882391F080910B0190910C0120910F0110
:1008B00030911001821B930B90930C0180930B01DC
:1008C000D093A801C093A7018AE291E062E042E0E0
:1008D0000E949906882391F080910B0190910C0160
:1008E00020910F0130911001820F931F90930C0102
:1008F00080930B011092A8011092A7018AE291E067
:1009000064E044E10E949906882399F080911301E4
:1009100090911401892B69F485E491E00E94C0173D
:1009200080910D0190910E01449790930E01809358
:100930000D018AE291E066E00E948F06882369F04B
:1009400085E491E00E94C617DF91CF911F910F912E
:10095000FF90EF90DF90CF90089560910B01709120
:100960000C0140910D0150910E0180E291E028E6CA
:1009700030E000E010E0ACE2EA2EF12CF2E7CF2EFE
:10098000F0E0DF2E0E94030F813021F41092140159
:100990001092130160910B0170910C0140910D01B7
:1009A00050910E0180E291E028E630E000E010E096
:1009B000ECE2EE2EF12CB2E7CB2EB0E0DB2E0E9463
:1009C000030F882321F4D0931401C0931301609185
:1009D0000B0170910C0140910D0150910E0100919D
:1009E000A9011091AA01E090AB01F090AC0180E266
:1009F00091E028E630E0A0EACA2EA0E0DA2E0E94BC
:100A0000030F813031F48EE691E06AEA70E00E94D3
:100A1000801A6091A9017091AA014091AB01509197
:100A2000AC0180E291E020EA30E000E010E0FCE27E
:100A3000EF2EF12CE2E7CE2EE0E0DE2E0E94030F37
:100A4000813009F0C1CE1092AC011092AB0160E090
:100A500070E080E090E02CE430E040E050E00E9464
:100A6000EA1B7093AA016093A901AECE80E291E0E7
:100A700062EB70E044E00E94EC11813001F18230C1
:100A80002CF48F3F41F0882369F008958230E1F023
:100A9000833069F526C080E291E067EF70E00E9444
:100AA000B11408958EE691E067EE70E00E94801A1E
:100AB00080E291E00E94E8100E94DA0308958EE639
:100AC00091E067ED70E004C08EE691E068EC70E0C4
:100AD0000E94801A64E670E080E090E00E94951821
:100AE000089580E291E06AEB70E00E94B1140895ED
:100AF0000F931F9300E211E0C8010E94B6148EE626
:100B000091E060EC72E00E94060CC80165E071E0C3
:100B10000E94B1141092380181E0809374011F91FA
:100B20000F910895882319F48CB5806202C08CB5AA
:100B30008F7D8CBD08959CB5937F982B9CBD0895A7
:100B40002CB5382F33702C7F322B3CBD2DB590E067
:100B5000959587959595879581702E7F822B8DBD74
:100B600008958AE061E00E94E4198AE061E00E9451
:100B700078198CB580618CBD8CB580648CBD8DE09E
:100B800061E00E9478198BE061E00E947819089575
:100B9000FC0181E08083089585E070E00E941819CF
:100BA00008956F927F928F929F92AF92BF92CF9251
:100BB000DF92EF92FF920F931F93CF93DF93EC019D
:100BC00089819A818C0124E0000F111F2A95E1F799
:100BD000081B190B85E10E94F618BC01600F711FFC
:100BE00084E0769567958A95E1F77A8369838881B1
:100BF000882381F12E813F816217730710F4B901B8
:100C000006C0888599858617970708F4BC0100D02F
:100C100000D080E090E040E050E0E884F98400E01B
:100C200010E0AD80BB24CC24DD246C8077248824A4
:100C30009924EDB7FEB761827282838294820E940A
:100C40007F1B6B830F900F900F900F9085E070E0EB
:100C50000E941819DF91CF911F910F91FF90EF9093
:100C6000DF90CF90BF90AF909F908F907F906F90CC
:100C70000895FC018CE39FE09383828384E0818369
:100C800081E084870895CF93DF93EC018C8590E019
:100C90008F719070892B69F584E10E94F618AA275C
:100CA00097FDA095BA2FBC01CD010E943E1C26EEF7
:100CB0003FE34EEC50E40E94CA1C0E94101C9B01B2
:100CC000AC017B836A836115710589F084E08983B7
:100CD000B901FE0120E0848195816817790710F43D
:100CE00029830AC02F5F32962430A9F702C08FEF04
:100CF00089838C858F5F8C87DF91CF910895FC016C
:100D000088E0808389E0818387E0828386E0838333
:100D100084E0848382E0858381E18683089520E0F6
:100D2000FC01E60FF11D8781813009F421E0822F5B
:100D30000895E62FF0E0423040F420E0E80FF91F7C
:100D4000878181508E3F88F40FC0E80FF91F87819B
:100D50008F3F11F420E009C020E090E0642F70E0A4
:100D60000E944C1D019709F421E0822F08950F93F2
:100D70001F93CF93DF93EC0110E00FEF888162E0C7
:100D80000E94781988810E94171A2F81892B19F4E3
:100D90002F5F2F8307C0222349F02F3F11F41F82BA
:100DA00001C00F83888160E00E9478191F5F21963F
:100DB000173021F7DF91CF911F910F910895FC011A
:100DC000742F643508F06FC047FD6DC040330CF0E0
:100DD0006AC080A1823021F5842F859585958595FF
:100DE000992787FD9095462F552747FD509524E577
:100DF00030E0829FF001839FF00D929FF00D11244F
:100E0000E40FF51FE355FE4F808190E0272F2770F8
:100E100002C0959587952A95E2F78095817009C063
:100E2000833039F49485842F8627892780FF03C077
:100E30001FC08823E9F4E72FE595E595E59584E55E
:100E4000E802F0011124862F992787FD9095E80F7D
:100E5000F91FE355FE4F777081E090E002C0880FE4
:100E6000991F7A95E2F780952081282320830895A1
:100E7000E72FE595E595E59584E5E802F001112475
:100E8000862F992787FD9095E80FF91FE355FE4FB0
:100E9000777081E090E002C0880F991F7A95E2F7A1
:100EA0002081282B20830895FC0160A361A308956D
:100EB000FC0160A341A30895EF92FF920F931F934B
:100EC000CF93DF93EC01E62EF42E022F10E007C043
:100ED000412F4F0DCE016E2D0E94DF061F5F1017B0
:100EE000BCF3DF91CF911F910F91FF90EF90089588
:100EF000EF92FF920F931F93CF93DF93EC01E62EB7
:100F0000F42E022F10E007C0612F6E0DCE014F2D81
:100F10000E94DF061F5F1017BCF3DF91CF911F9176
:100F20000F91FF90EF9008959F92AF92BF92CF9252
:100F3000DF92EF92FF920F931F93CF93DF936C0199
:100F4000962EB42EA22EC0E0D0E0E42EFF24E7FCC3
:100F5000F094112707FD10950E0D1F1D06C0C60148
:100F6000692D2A2D0E94780721964B2D4C0FCE011A
:100F70008E0D9F1D8017910794F3DF91CF911F91E4
:100F80000F91FF90EF90DF90CF90BF90AF909F9028
:100F900008952F923F925F926F927F928F929F92CD
:100FA000AF92BF92CF92DF92EF92FF920F931F9377
:100FB000DF93CF9300D000D000D0CDB7DEB79E83B3
:100FC0008D83C62ED42EEE24E394E21A8EEF289F52
:100FD000502C1124842E8A94962E9A94A42EA39495
:100FE000B62EB394F22E662423E0722E10E0C801D0
:100FF000847090709A838983F801E270F070FC83AA
:10100000EB8398E0292E312C2022312201701070C0
:1010100054C0E7FC04C0FA94F2E05F0EE50C639460
:1010200089819A81892B71F04F2D4D0D8D819E8183
:101030006B2D0E94DF066F2D6C0D8D819E814A2DD8
:101040000E94DF06EB81FC81EF2B71F04D2D4F19D3
:101050008D819E816B2D0E94DF066F2D6C0D8D8121
:101060009E81482D0E94DF062114310471F06C2D01
:101070006F198D819E814A2D0E94DF064F2D4D0DE7
:101080008D819E81692D0E94DF060115110571F089
:101090006C2D6F198D819E81482D0E94DF064D2D8C
:1010A0004F198D819E81692D0E94DF06E70CF2E0C9
:1010B0007F0E8A949A94A394B3946F140CF4A9CFDE
:1010C00026960FB6F894DEBF0FBECDBFCF91DF914D
:1010D0001F910F91FF90EF90DF90CF90BF90AF9056
:1010E0009F908F907F906F905F903F902F9008958A
:1010F0004F925F926F927F928F929F92AF92BF9228
:10110000CF92DF92EF92FF920F931F93CF93DF93D3
:10111000EC01A62E742E9E2DFF24F394F21A8EEF6E
:10112000289F802C1124B42EBA9453E0C52ECE0CE7
:10113000E22EDD2443E0942E10E031E0432E512CCA
:1011400040225122692E63940270107034C0F7FC63
:1011500004C0EA9482E0880EF80CD3944114510440
:1011600089F06D2D6A0D472D4E192E2D220F260D5B
:10117000CE010E945C076E2D6A0DCE014B2D2C2DE9
:101180000E945C070115110589F06A2D6D19472D24
:101190004E192E2D220F260DCE010E945C076A2DBE
:1011A0006E19CE014B2D2C2D0E945C07F90C82E0AC
:1011B000980EBA94C80EDE1454F2DF91CF911F91AD
:1011C0000F91FF90EF90DF90CF90BF90AF909F90E6
:1011D0008F907F906F905F904F9008957F928F9245
:1011E0009F92AF92BF92CF92DF92EF92FF920F93B6
:1011F0001F936C01962EA42EF22E7E2C760E1EEFDF
:10120000E19E102D1124812E820E672D282D0E9423
:101210007807B02EBA0CBA94C601672D4B2D282D35
:101220000E947807AE0C100FC601692D4A2D212FA0
:101230000E945C07F90CFA94C6016F2D4A2D212FEC
:101240000E945C07C601672D4A2D2E2D01E00E94E9
:10125000C907FE18C6016F2D4A2D2E2D02E00E94EF
:10126000C907BE18C6016F2D4B2D2E2D04E00E941C
:10127000C907C601672D4B2D2E2D08E00E94C90716
:101280001F910F91FF90EF90DF90CF90BF90AF90A4
:101290009F908F907F9008958F929F92AF92BF9270
:1012A000CF92DF92EF92FF920F931F936C01162F54
:1012B000A42E922EF02EBE2C8E2C860E2EEFE29EA9
:1012C000E02C11242E2D290D682D0E949407AB0CC3
:1012D000FA94FE0C1150190D1B19C601612F4A2DED
:1012E0002B2D01E0EF2C0E947808C601682D4A2DB5
:1012F0002B2D02E00E9478081F910F91FF90EF9034
:10130000DF90CF90BF90AF909F908F9008952F92D5
:101310003F924F925F926F927F928F929F92AF9285
:10132000BF92CF92DF92EF92FF920F931F93DF93C2
:10133000CF9300D000D0CDB7DEB74C01D62E142FFE
:10134000F9018491319694913197D40190966C90E3
:10135000B3E5B6170CF457C1482F552747FD5095F4
:10136000A62EBB24A7FCB0942A014A0C5B1C1414C3
:1013700015040CF048C110330CF045C1092F212F82
:10138000332727FD3095892F992787FD9095820F68
:10139000931F181619060CF036C162E0E62EF12CE8
:1013A000EE0EFF1ECA01079668E070E00E94601D05
:1013B000762E17FF0EC0010F862F90E0FC01E29FF2
:1013C000C001E39F900DF29F900D1124E81AF90AD5
:1013D00010E0802F992787FD9095212F332727FD37
:1013E0003095820F931FC19714F000E3011BD7FCC7
:1013F000DD24C2018535910514F084E590E0C82E06
:10140000D4011C969C909126ED2DF0E0CF018A1915
:101410009B09AC014770507020E830E002C0359560
:1014200027954A95E2F7B22E68E070E00E94601DB1
:10143000AB014E0D5F1D5C834B83212F277081E034
:1014400090E0682F01C0660F2A95EAF7159515956B
:10145000159584E51802A00111244E0F5F1F435516
:101460005E4F8824202E332427FC3094472C5524AB
:10147000C4C0EB81FC812491F1E06F1629F5AB81AA
:10148000BC817B2D022F7A011D2D1BC0872F90E080
:10149000202F30E082239323892B21F0F7018081D4
:1014A000862B8083872F90E095958795782F8823CA
:1014B00021F41196FD01049170E81F5F0894E11C6E
:1014C000F11C1C1518F38DC0662059F5F62EF0940A
:1014D000AB81BC817B2D022F5A8349831D2D1EC0F9
:1014E000872F90E0202F30E082239323892B29F04F
:1014F000E981FA8180818F218083872F90E0959503
:101500008795782F882321F41196FD01049170E8C6
:101510001F5F89819A8101969A8389831C1500F344
:1015200060C093E0691639F0AB81BC817B2D022F3E
:101530007A011D2D54C0A62EA094AB81BC817B2DB9
:10154000022F5A8349831D2DE92CFF2428C0872FA1
:1015500090E0202F30E082239323892B79F0812F94
:1015600090E08E259F25E981FA81908180FF02C05D
:10157000962B03C09A21E981FA819083872F90E00E
:1015800095958795782F882321F41196FD01049174
:1015900070E81F5F89819A8101969A8389831C155F
:1015A000B0F291E099261DC0872F90E0202F30E007
:1015B00082239323892B21F0F70180818627808362
:1015C000872F90E095958795782F882321F41196A1
:1015D000FD01049170E81F5F0894E11CF11C1C15CB
:1015E00018F3660F19F44C5A5F4F61E083948B81B6
:1015F0009C81840D951D9C838B83882D90E08215A2
:1016000093050CF436CF0F900F900F900F90CF9161
:10161000DF911F910F91FF90EF90DF90CF90BF90DF
:10162000AF909F908F907F906F905F904F903F9082
:101630002F900895FB01849150E0FA01B3E0F595F5
:10164000E795BA95E1F7329690E00796A3E0959575
:101650008795AA95E1F730E0DC01A29FC001A39F26
:10166000900DB29F900D1124E80FF91FE60FF71FA0
:10167000E4914770507080E890E002C0959587959E
:101680004A95E2F78E2308952F923F924F925F92F0
:101690006F927F928F929F92AF92BF92CF92DF9282
:1016A000EF92FF920F931F93DF93CF93CDB7DEB7E7
:1016B00028970FB6F894DEBF0FBECDBF1C016A831A
:1016C0004B8369019E2C002329F4EE2019F40E941B
:1016D000870983C0F60174900894C11CD11CF601DF
:1016E00084900894C108D108872D90E0079623E0E4
:1016F000959587952A95E1F703700983672C6A947D
:10170000A62C00E0282F332727FD30953D832C831E
:10171000382D31503E835EC0802F877090E8492E6F
:10172000512C02C0559447948A95E2F7802F8595F5
:1017300085958595E82FFF27E7FDF0953296EC0D0E
:10174000FD1DF887EF83BE80FF243FC0EF81F88541
:10175000849190E084219521892B69F1F981F13000
:1017600051F0F13028F0F23049F0F33061F409C063
:10177000102FEF2C08C0EA2C1F2D05C01A2DEB2CC2
:1017800002C01B2DE02E992069F023E09222892DC2
:1017900090FE03C0362D311B132F81FF03C0882D0F
:1017A0008E19E82E9A81190FEB81EE0EC101612F7F
:1017B0004E2D0E94DF06F3942F8138858C819D8108
:1017C000280F391F38872F83BA94F81409F0BECF39
:1017D0000F5FAA94071509F09FCF28960FB6F894CB
:1017E000DEBF0FBECDBFCF91DF911F910F91FF9054
:1017F000EF90DF90CF90BF90AF909F908F907F90B1
:101800006F905F904F903F902F900895DC01FB0107
:1018100084918F5F14968C931497319684918F5F87
:1018200015968C93159731965F96FC93EE935E9781
:1018300008953F924F925F926F927F928F929F9204
:10184000AF92BF92CF92DF92EF92FF920F931F93CE
:10185000CF93DF93EC01862EA42E422F102F38A0B9
:1018600023E526170CF4ABC03FE23A150CF4A7C0F1
:10187000C02EDD248C8190E001979C01C29EC001A6
:10188000C39E900DD29E900D1124262F332727FD45
:101890003095820F931F181619060CF090C08D8199
:1018A00090E09C01C29EC001C39E900DD29E900DFF
:1018B00011242A2D332727FD3095820F931F1816E8
:1018C00019060CF07CC09924442E55246DC09C014F
:1018D000215030404217530711F460E00EC0429E81
:1018E000C001439E900D529E900D1124840F951FB0
:1018F000EE8DFF8DE80FF91F64914C9DC0014D9D49
:10190000900D5C9D900D1124682C680EBB24792CE1
:10191000780C3FC0E62EFF2460FF19C0113039F467
:101920004B2D4A0DCE01672D0E94DF062EC02C9D47
:10193000C0012D9D900D3C9D900D11244A2D480F06
:10194000CE01662D212F012F0E9494071EC099A160
:1019500088A19817D1F098A3113039F44B2D4A0D76
:10196000CE01672D0E94DF060FC02C9DC0012D9D6A
:10197000900D3C9D900D11244A2D480FCE01662DEF
:10198000212F012F0E94940738A2F594E7946E2D21
:10199000B3942B2D332727FD30958D8190E02817A8
:1019A00039070CF4B7CF9394492D552747FD50952F
:1019B0008C8190E0481759070CF489CF38A2DF9149
:1019C000CF911F910F91FF90EF90DF90CF90BF903C
:1019D000AF909F908F907F906F905F904F903F90CF
:1019E00008950F93CF93DF93EC01262F6A3049F4CB
:1019F0008D819885899F802D11249A85980F9A87CB
:101A000026C06D3029F169854A8508850E94190C28
:101A10009C816885969F402D11248985480F4987B0
:101A20008F818823A9F0552747FD5095699F900124
:101A3000112484E590E0821B930B8417950744F4EE
:101A40009D81699F902D11248A85890F8A87198627
:101A500081E090E0DF91CF910F9108951F93CF9394
:101A6000DF93EC01162FF8948F8560E00E94E41953
:101A7000888918161CF460E00E94E4191EBD0DB49C
:101A800007FEFDCF8EB5888918161CF461E00E9410
:101A9000E4197894DF91CF911F910895FF920F93ED
:101AA0001F93CF93DF93EC018C858F5F8C87FF248E
:101AB00000E010E06F2D6064CE010E942E0DCE017B
:101AC00060E80E942E0D8F8561E00E94E4198889EC
:101AD00018161CF460E00E94E419F801E355FE4F6B
:101AE00090E080818EBD0DB407FEFDCF8EB59F5F67
:101AF00031969435B1F7888918161CF461E00E947C
:101B0000E419F3940C5A1F4F86E0F81699F6CE01AB
:101B100060E40E942E0DDF91CF911F910F91FF90F5
:101B20000895CF93DF93DC0188EF91E0EDEAF1E0D7
:101B3000EF019C01199221503040E1F719961C9257
:101B400019971A961C92DF91CF910895EF920F93F7
:101B5000CF93DF93EC014E876D872F87E98A088B3F
:101B600081E0888788A319A28F83CE016EE371E09C
:101B70000E94060C0E94B10581E00E94920585E05A
:101B80000E94A0058CE00E949B058E8561E00E946A
:101B900078198D8561E00E9478198F8561E00E9437
:101BA0007819898918161CF461E00E9478198889CF
:101BB00018161CF461E00E947819898918166CF4D3
:101BC00060E00E94E4196AE070E080E090E00E942A
:101BD0009518898961E00E94E419ED852E2F33273D
:101BE00027FD3095F901E151F94FE491F0E0EE0F56
:101BF000FF1FE552F94F859194919D8B8C8B2D5F42
:101C0000384FF90184918B8FEE852E2F332727FDD6
:101C10003095F901E151F94FE491F0E0EE0FFF1F2B
:101C2000E552F94F859194919B8B8A8B2D5F384FAC
:101C3000F90184918A8FE8892E2F332727FD30956B
:101C4000F901E151F94FE491F0E0EE0FFF1FE55289
:101C5000F94F859194919F8B8E8B2D5F384FF901B1
:101C600084918C8FEF852E2F332727FD3095F90136
:101C7000E151F94FE491F0E0EE0FFF1FE552F94F0B
:101C800085919491998F888F2D5F384FF9018491B8
:101C90008D8FCE0161E20E942E0DCE0164E10E9483
:101CA0002E0D8B8587FF02C08FE78B876B85606861
:101CB000CE010E942E0DCE0160E20E942E0DCE01BB
:101CC0006CE00E942E0DCE010E944E0DDF91CF914F
:101CD0000F91EF900895CF93DF93DC01E0E8F7E7F1
:101CE00085919491ED01C75ADF4FAD0140595F4F87
:101CF0008150904C09F04EC0E6E9F7E7E491E883A3
:101D0000E7E9F7E7E4911496EC931497E8E9F7E72D
:101D1000E4911596EC931597E9E9F7E7859194918D
:101D200017969C938E931697EBE9F7E7859194911C
:101D300019969C938E931897EDE9F7E7E4919B969B
:101D4000EC939B97EEE9F7E7E4919A96EC939A97D8
:101D5000EFE9F7E7E491EA01E883E0EAF7E7859144
:101D600094915D969C938E935C97E2EAF7E7859158
:101D700094915F969C938E935E97E4EAF7E7859142
:101D8000949191969C938E939097E6EAF7E78591CC
:101D9000949132C08CE3888314961C9214972FEF91
:101DA00015962C93159780E293E017969C938E934B
:101DB000169784ED93E019969C938E93189781E083
:101DC0009B968C939B979A968C939A97FA01208373
:101DD0008CEA9DE05D969C938E935C978EED9DE0E2
:101DE0005F969C938E935E9784E79EE091969C937A
:101DF0008E9390978CE39FE093969C938E9392970B
:101E0000DF91CF9108952F923F924F925F926F9200
:101E10007F928F929F92AF92BF92CF92DF92EF927A
:101E2000FF920F931F93DF93CF9300D000D0CDB7D5
:101E3000DEB79A838983F9018491482E552431961F
:101E400084913197FC83EB83F60124910894C11CA3
:101E5000D11CF60134910894C108D1085201A60E94
:101E6000B71E0A151B050CF06BC0D801A20FB11DDF
:101E70006A177B070CF064C0682E7724C301840FB7
:101E8000951FE816F9060CF05BC0F701E30FF11D92
:101E90004E175F070CF054C0601771071CF08824C0
:101EA000992403C04801861A970A4E155F051CF055
:101EB00020E030E003C09701241B350BAA16BB06B7
:101EC00014F4120103C01D01261A370A8E179F074A
:101ED00014F4230103C02F01441A550AB22E69805D
:101EE0007A802EE430E0620E731E342F3E19E32E0A
:101EF000EB0CA82CF62EF01AF80C1DC01A2D0F2D85
:101F000013C0C3016B817C81412F2B2D0E941A0BC2
:101F1000882371F1C301B601402F2E2D0E941A0BA8
:101F2000882331F181E00DC0812F90E08215930567
:101F300044F3B394E3948B2D90E084159505F4F26B
:101F400080E00F900F900F900F90CF91DF911F9135
:101F50000F91FF90EF90DF90CF90BF90AF909F9048
:101F60008F907F906F905F904F903F902F9008954B
:101F70001F5F0F5FD9CFEF92FF920F931F93CF9305
:101F8000DF937C018C01025B1F4FC8010E94910D01
:101F9000C80167E675E00E94801AC8010E944E0DD4
:101FA00083E00E94A00580E091E0EEEFFFE3099559
:101FB00084E590E0E80EF91EF7011082C80162E4A2
:101FC00075E00E94CB1AC8010E944E0DE701CA5469
:101FD000D040CE010E94B706CE0164E00E948F0679
:101FE000882339F462E370E080E090E00E94951865
:101FF000F0CFDF91CF911F910F91FF90EF90089557
:102000000F931F93CF93DF93EC018C01025B1F4F63
:10201000C80161E040E00E945807FE01E95AFF4F05
:10202000CE5ADF4F85E59881891B808326961882DA
:10203000C855D040698D613009F43EC0613028F048
:10204000888D653008F051C04BC0CE0185960E9446
:10205000BB15CE0160E00E94CC05C8010E94910D25
:10206000CA5ADF4F81E08883C655D040C80163EA71
:1020700075E00E94801A6A8D7B8DC8014AE050E0AD
:102080000E946E1BC8016FE875E00E94801AC801AB
:102090000E944E0D83B7817F846083BF83B78160C8
:1020A00083BF83B7816083BF889583B78E7F83BFEB
:1020B00083B78E7F83BF1FC0CF58DF4F8881998140
:1020C000AA81BB818F709070A070B0700897A10535
:1020D000B10518F4C80167E00CC0C80168E709C081
:1020E000882349F06B5FC80104C0882321F0C80130
:1020F0006FE20E94A31ADF91CF911F910F91089573
:10210000AF92BF92CF92DF92EF92FF920F931F9305
:10211000CF93DF93EC01CA57DF4F8881C658D04078
:10212000882309F44AC08C3010F010E002C01CE093
:10213000181BCA5ADF4F81E08883C655D0406EE431
:10214000C62ED12CCC0EDD1EC60160E00E945407C5
:1021500053E5A52EB12CAC0EBD1EF50100814DE25C
:10216000F42E4F2D401B410F0D5FC60160E024E5AA
:1021700033E0E32E0E944C09C60161E00E9454073F
:10218000F5010081F01AF10E0D5FC60160E04F2DE0
:1021900024E50E94EE08C95ADF4F84E08993F501D7
:1021A0008081181B115D1883AC9669917991C601E5
:1021B0000E94801A888181508883DF91CF911F917E
:1021C0000F91FF90EF90DF90CF90BF90AF90089568
:1021D0004F925F926F927F928F929F92AF92BF9237
:1021E000CF92DF92EF92FF920F931F932C01FC018D
:1021F000628C738C60947094882499240E946F1868
:102200005B016C010E946F187B018C01F20141801F
:1022100052800E946F18460E571EA094B094C0942E
:10222000D094E094F09400951095C601B501A801F2
:1022300097010E942D1DA40193010E942D1D460EA1
:10224000571EC2010E94081C1F910F91FF90EF9032
:10225000DF90CF90BF90AF909F908F907F906F90C6
:102260005F904F900895AF92BF92CF92DF92EF921E
:10227000FF920F931F93CF93DF93EC01E0E8AE2E14
:10228000B12CA80EB91EF501E080F1800281138106
:102290000E946118E61AF70A080B190B7FE7C72E90
:1022A000D12CCC0EDD1EF601808190E0A0E0B0E0E4
:1022B0008E159F05A007B10708F081C08E01055853
:1022C0001F4FF80180819181A281B3810097A10500
:1022D000B10509F474C00E946118F6012081620FF3
:1022E000711D811D911DF50160837183828393832C
:1022F000FE01EF58FF4F80819181A281B381019649
:10230000A11DB11D80839183A283B383F801108244
:102310001182128213820E946F18C958DF4F68839E
:1023200079838A839B83C757D040CE010E94D10511
:10233000CE010A960E94B706CE0148960E94430637
:1023400081E032C08E010B5D1F4FC8010E9409164B
:10235000C8010E948016C8010E946317CE010E9426
:102360008010CE010E9400108E01025B1F4FC80139
:102370000E944E0DCC5ADF4F8881C455D04088232F
:1023800019F4C8010E94910D0E946F18C558DF4FC3
:10239000688379838A839B83249728813981621B90
:1023A000730B7A936A9380E0DF91CF911F910F9125
:1023B000FF90EF90DF90CF90BF90AF900895C558F9
:1023C000DF4F88819981AA81BB81CB57D04000978C
:1023D000A105B10541F7B6CF2F923F924F925F9280
:1023E0006F927F928F929F92AF92BF92CF92DF9225
:1023F000EF92FF920F931F93DF93CF93CDB7DEB78A
:1024000062970FB6F894DEBF0FBECDBF6C016C8330
:102410007D834B8324E530E0C20ED31EF60110828B
:102420002CEA3FEFC20ED31E1AE0A12EB12CAC0C49
:10243000BD1CB5E22B2E312C2C0C3D1CAEE44A2EDB
:10244000512C4C0C5D1C10E0F0E37F2E66241A82A8
:102450003FEF3983A601495A5F4F5F834E83C60120
:10246000885A9F4F99878887F601EA5AFF4FFB8762
:10247000EA8796012B5A3F4F3D872C87E3E58E2E46
:10248000912C8C0C9D1C5B81452F50E05F874E8703
:102490008B818150888BC6010E9433118823D9F328
:1024A000C50164E00E948F06882369F4C50165E0D8
:1024B0000E948F06882339F4C50166E00E948F06CA
:1024C000882309F4D3C0F4010081C50164E00E94AF
:1024D0008F06882329F0C1010E94C0171983CBC041
:1024E000C1010E94C617C7C0C50163E044E00E9455
:1024F0009906882321F01F5FC1010E94CC17C501F6
:1025000061E044E00E949906882321F01150C10146
:102510000E94CC17812F992787FD90952E853F85A6
:102520008217930711F410E002C017FD1889F40117
:102530008081819F902D11248C5F682E691A28C09C
:10254000872D992787FD9095262D332727FD3095D8
:10255000821B930B0297D4F4898162960FB6F8948C
:10256000DEBF0FBECDBFCF91DF911F910F91FF90C6
:10257000EF90DF90CF90BF90AF909F908F907F9023
:102580006F905F904F903F902F900895F1E0FA8305
:10259000862D992787FD9095272D332727FD309588
:1025A000820F931F62E070E00E94601D762EEE8124
:1025B000FF811082E885F985608321E0EA85FB854B
:1025C0002083EC85FD8510822C813D81C9019A8B89
:1025D000898B00E0E12EFF24E7FCF09420C0802FDF
:1025E00090E08E159F0569F423E0EE81FF81208342
:1025F000F40180818E9D802D1124870DE885F98559
:102600008083E989FA8965917491C2010E94CB1A8D
:102610000F5F29893A892E5F3F4F3A8B298B3B8187
:102620000317E8F2C20160E00E945407F401408100
:102630004E9D402D11244150470DC20160E024E51C
:102640000E947807C20161E00E945407F4010081F2
:102650000E9D402D11244250470D0D5FC20160E0D8
:1026600024E573E0E72E0E94EE0815CFFA81FF23E0
:1026700009F066CF39CF802F90E0909581959F4FDC
:102680002E853F85AC01249FC001259F900D349F6E
:10269000900D11246EEF662E680E52CF2F923F924E
:1026A0004F925F926F927F928F929F92AF92BF9262
:1026B000CF92DF92EF92FF920F931F93DF93CF930E
:1026C000CDB7DEB72B970FB6F894DEBF0FBECDBFE8
:1026D0009B878A877A8369835C834B838C0100594B
:1026E0001F4FF8018081882309F422C18A859B85C8
:1026F0008A5A9F4F9B878A8781E0EA85FB85808382
:1027000012921292E455F040FB87EA87108E9EE405
:10271000E92EF12CEE0EFF1EC70161E00E94540766
:102720008AE0282E312C8A859B85280E391EB5E239
:102730006B2E712C680E791EE981FA81F491FD836C
:10274000A7E58A2E912C880E991EF8E5CF2ED12C64
:10275000C80ED91EE2E54E2E512C480E591E8D5A38
:102760009F4F9F838E8371E7A72EB12C8A859B850F
:10277000A80EB91E198708878A859B850E94331188
:102780008823D1F39D81992311F410E003C0EE81D9
:10279000FF811081C70160E040E020EE35E00E943B
:1027A00087098B819C81892B41F0145FC70160E010
:1027B000412F2B813C810E948709F40110828CE01B
:1027C000F6018083C70169817A810E94801AF20133
:1027D000208130E0C901880F991F820F931F9095C7
:1027E00081959F4F8D5AF4018083EE81FF81208176
:1027F00030E0C901880F991F820F931F9095819532
:102800009F4F835DF6018083F501808184FF04C0C2
:10281000C70160E676E003C0C7016CE576E00E9480
:10282000CB1AF201208130E0C901880F991F820F75
:10283000931F909581959F4F8D5AF4018083F601E7
:1028400080818F5F8083EA85FB8582A5882321F0C4
:10285000C70168E576E003C0C70164E576E00E9441
:10286000CB1AF201808190E09C01220F331F280FC8
:10287000391F309521953F4F2D5AF4012083F601E1
:1028800080818F5F8083C70160E576E00E94CB1A6C
:10289000C10165E00E948F06882351F0EA85FB851F
:1028A00062A56F5FC3010E94D217C3010E94CC17BB
:1028B000C10164E00E948F06882399F4E885F985B8
:1028C0006081262F30E040E050E0F5018081918169
:1028D000A281B38182179307A407B50708F16F3F60
:1028E000F9F08A859B8580599F4F9B878A878FEF58
:1028F000EA85FB858083E057F040FB87EA87C301C8
:1029000060E00E94B015C3010E94C01781E0EA8513
:10291000FB85808F0DC08A859B850E94BB0F2CCFC5
:10292000C10166E00E948F06882309F425CFF3CF0A
:102930002B960FB6F894DEBF0FBECDBFCF91DF91BF
:102940001F910F91FF90EF90DF90CF90BF90AF90CD
:102950009F908F907F906F905F904F903F902F90BF
:10296000089540E050E00E944E130895AF92BF9248
:10297000CF92DF92EF920F93CF93DF936C018FE7AB
:1029800090E0C80ED91E82E3F601808381E090E0DA
:10299000A0E0B0E0B293A293929382936F0185EF8F
:1029A0009FEFC80ED91E8FEFF601808380E99FEF5D
:1029B000C80ED91EC6010E946B0EC6010E94C80532
:1029C000C6016FEF0E94CC054AE0A42EB12CAC0CDE
:1029D000BD1CC5010E947F06C5010E94B706C60145
:1029E00048960E943906C601825B9F4F6DE04BE01E
:1029F00020E10FE03EE0E32E0E94A60DE601A59641
:102A0000CE010E94DF17C50165E00E948F06882372
:102A100029F0CE0160E00E94D21706C0CE0166E622
:102A200076E040E00E94BF15DF91CF910F91EF90CB
:102A3000DF90CF90BF90AF9008950F93DC010023FB
:102A400009F069C0623009F443C0633030F4662392
:102A500059F0613009F05FC00DC0633009F444C023
:102A6000643009F058C04CC04B3008F04AE056962C
:102A70004C9351C0842F90E0880F991F1F962D9181
:102A80003C915097280F391FF901859194919096A8
:102A90009C938E935F97FC014591549114968C9171
:102AA0001497849F602D112491966C939197252FF4
:102AB0003327862F90E02817390708F4652F1496DE
:102AC0008C911497689F802D112492968C9323C02B
:102AD00014968C911497489F802D112459968C93AD
:102AE00059975A962C9317C014968C911497489F17
:102AF000802D11245B968C935B975C962C930BC076
:102B000014968C911497489F802D11245D968C9378
:102B10005D975E962C930F910895FC01222371F42A
:102B2000648B8481489F802D1124858B15A214A26B
:102B300013A281E0878B8093AE03108E0895FC0171
:102B4000662369F4178A158A14A213A2108E1092B4
:102B5000B1031092B0031092AE031092B400089526
:102B6000CF93DF93EC01662319F40E949F1519821D
:102B7000DF91CF91089560E00E94B01508950F9302
:102B80001F93CF93DF93EC018B01442371F460E03A
:102B90000E94B0151E870D871B8A1A8A81E08983DF
:102BA00089E08E8B198E1B8E1D8EDF91CF911F9128
:102BB0000F910895CF93DF93EC01662339F5888157
:102BC000882321F18981882309F5898590E0880F80
:102BD000991FEF81F885E80FF91F859194912FEFE8
:102BE0008F3F920711F4188211C09C8790E0880FE4
:102BF000991FEA85FB85E80FF91F65917491CE0155
:102C000040E00E94BF1589858F5F8987DF91CF9152
:102C1000089560E00E94DA1508950F93CF93DF9333
:102C2000EC01662309F068C08981882309F464C037
:102C30008D89882309F060C0EA89FB89EE0FFF1FA8
:102C40004D855E85E40FF51F2591349121153105E1
:102C500009F040C08989813031F41B8A1A8AFA014F
:102C60002591349137C019828881882379F0CE016B
:102C700060E00E94DA158A899B89880F991FED858B
:102C8000FE85E80FF91F2591349124C0CE0160E044
:102C90000E949F1531C0E6E036952795EA95E1F749
:102CA0006F70422F4F7175E0369527957A95E1F751
:102CB0002051CE0100E00E941D158A899B89019652
:102CC0009B8B8A8B880F991FED85FE85E80FF91F76
:102CD00025913491B901769567957695679520FD94
:102CE000DACF6F73432FCE0120E00E948D158A89C1
:102CF0009B8901969B8B8A8BDF91CF910F910895D1
:102D000060E00E940D160895CF93DF93EC016623D7
:102D100009F0D6C08F89882309F4D2C08D89882311
:102D200021F4CE010E949F15CBC081508D8B8DA1C7
:102D3000882309F03BC08BA19CA10196880F991FA5
:102D4000EF8DF8A1E80FF91F85919491282F277036
:102D50002EA3AC0163E0569547956A95E1F79A0179
:102D600036952795892F9927869586958FA32F735A
:102D70008C81289F202D11242DA341704093B203F4
:102D80008BA19CA101969CA38BA329A130E0821763
:102D9000930760F08AA1882329F0281B31093CA3FE
:102DA0002BA304C0CE0160E00E949F158DA181502D
:102DB0008DA3988D9F5F988F2FA18C89280F8C856C
:102DC000280F2A836B8D662369F0892F992787FD49
:102DD000909570E00E94601D8C8D869F802D11243F
:102DE000820F8A838A8190E0CB966BE370E00E9429
:102DF000601D8A832E892B83698D662379F0888DE7
:102E0000772767FD7095992787FD90950E94601D33
:102E10008A8D869F802D1124820F8B836D8D662372
:102E200099F0888D992787FD909570E00E94601D2C
:102E3000CB0162E070E00E94601D9E8D899F802D15
:102E400011249B81890F8B838B818A300CF089E060
:102E500087FD80E08B838C898F3309F41B82F89483
:102E6000EA81F0E0E657F94FE491E093AF032D815A
:102E700030E08B81992787FD9095A901489F9001AB
:102E8000499F300D589F300D112488A590E0A9016D
:102E9000489F9001499F300D589F300D11248EA1FD
:102EA000992787FD9095AC01249FC001259F900D27
:102EB000349F900D11248093B0038093B1037894D4
:102EC000DF91CF91089560E00E948416089560918B
:102ED000B003662381F18091AD038F5F8093AD03D2
:102EE0009091AF03891738F130E08091AE038823C9
:102EF00009F431E03093AE031092AD038091B20338
:102F00008823A9F08091150123E4829FC001112438
:102F1000895B8093150190E070E00E944C1D8093C6
:102F2000B10305C08091B1038093B40008953323A9
:102F3000C9F780E0F9CF08951F920F920FB60F9254
:102F400011242F933F934F935F936F937F938F93AE
:102F50009F93AF93BF93EF93FF930E946717FF91E7
:102F6000EF91BF91AF919F918F917F916F915F9101
:102F70004F913F912F910F900FBE0F901F9018957A
:102F800062E876E040E00E94BF1508956AE776E0C7
:102F900040E00E94BF15089564E776E040E00E949B
:102FA000BF150895FC01862F668170E06F5F7F4F2B
:102FB000992787FD90950E94601D858308950F9342
:102FC000FC0181E0848384E080A785EC96E0908B0F
:102FD0008787CF0161E040E020E000E00E941D15FE
:102FE00083E061E070E00E941819E1EBF0E080817D
:102FF000887F81608083F89410928000E1E8F0E09F
:103000001082109285001092840088E191E09093E4
:1030100089008093880080818860808380818160BE
:103020008083EFE6F0E080818260808378940F9166
:1030300008951F920F920FB60F9211242F933F9372
:103040008F939F93AF93BF938091B7039091B803F1
:10305000A091B903B091BA033091BB030196A11DB1
:10306000B11D232F2D5F2D3720F02D570196A11D67
:10307000B11D2093BB038093B7039093B803A09333
:10308000B903B093BA038091B3039091B403A091B4
:10309000B503B091B6030196A11DB11D8093B30392
:1030A0009093B403A093B503B093B603BF91AF91CF
:1030B0009F918F913F912F910F900FBE0F901F9076
:1030C00018958FB7F8942091B7033091B8034091C9
:1030D000B9035091BA038FBFB901CA0108959FB7D0
:1030E000F8942091B3033091B4034091B50350910B
:1030F000B60386B5A89B06C08F3F21F02F5F3F4FD8
:103100004F4F5F4F9FBF542F432F322F2227280F3F
:10311000311D411D511D82E0220F331F441F551FD9
:103120008A95D1F7B901CA010895EF92FF920F93E2
:103130001F93CF93DF937B018C010E946F18EB01EB
:103140000EC00E946F186C1B7D0B685E7340C8F345
:103150000894E108F10801091109C851DC4FE11494
:10316000F1040105110569F7DF91CF911F910F91CE
:10317000FF90EF900895789484B5826084BD84B503
:10318000816084BD85B5826085BD85B5816085BD62
:10319000EEE6F0E0808181608083E1E8F0E010827B
:1031A000808182608083808181608083E0E8F0E0BC
:1031B000808181608083E1EBF0E0808184608083A6
:1031C000E0EBF0E0808181608083EAE7F0E08081DD
:1031D000846080838081826080838081816080833D
:1031E0008081806880831092C1000895982F8E306E
:1031F00008F09E509770809116018295880F880F75
:10320000807C892B80937C0080917A0080648093FD
:103210007A0080917A0086FDFCCF20917800409161
:103220007900942F80E030E0282B392BC9010895D4
:103230001F93CF93DF93182FEB0161E00E94781961
:10324000209709F44AC0CF3FD10509F449C0E12FC6
:10325000F0E0E95EF84F84918330C1F0843028F4C7
:10326000813051F08230B1F50CC0863019F18730D1
:1032700049F1843079F514C084B5806884BDC7BD38
:1032800033C084B5806284BDC8BD2EC080918000EB
:10329000806880938000D0938900C093880024C008
:1032A00080918000806280938000D0938B00C093D7
:1032B0008A001AC08091B00080688093B000C093EB
:1032C000B30012C08091B00080628093B000C093C0
:1032D000B4000AC0C038D1051CF4812F60E002C0E0
:1032E000812F61E00E94E419DF91CF911F91089531
:1032F000CF93DF93482F50E0CA018D5F984FFC01B8
:1033000034914151594FFA018491882369F190E039
:10331000880F991FFC01EF52F94FA591B491FC0160
:10332000E552F94FC591D491662351F42FB7F89423
:103330008C91932F909589238C93888189230BC03E
:10334000623061F42FB7F8948C91932F9095892374
:103350008C938881832B88832FBF06C09FB7F894F6
:103360008C91832B8C939FBFDF91CF9108958330F5
:1033700071F0843028F48130A1F0823021F514C03E
:103380008630B1F08730D1F08430E9F404C0809108
:1033900080008F7703C0809180008F7D80938000B4
:1033A000089584B58F7702C084B58F7D84BD08955C
:1033B0008091B0008F778093B00008958091B00025
:1033C0008F7D8093B0000895FF920F931F93F62E88
:1033D000482F50E0CA01895E984FFC012491CA0130
:1033E0008D5F984FFC0114914151594FFA0104919E
:1033F0000023C9F0222319F0822F0E94B719E02F71
:10340000F0E0EE0FFF1FE552F94FA591B4919FB781
:10341000F894FF2021F48C911095812302C08C91A7
:10342000812B8C939FBF1F910F91FF9008950F9355
:103430001F93482F50E0CA01895E984FFC012491E8
:10344000CA018D5F984FFC0104914151594FFA0117
:103450001491112319F420E030E015C0222319F053
:10346000822F0E94B719812F90E0880F991F8B51EE
:10347000994FFC01A591B4918C9120E030E080231C
:1034800011F021E030E0C9011F910F910895CF9311
:10349000DF930E94BB180E947805C0E0D0E00E9434
:1034A00036052097E1F30E940000F9CFCF92DF921A
:1034B000EF92FF920F931F93CF93DF937C016B01E9
:1034C0008A01C0E0D0E00FC0D6016D916D01D70137
:1034D000ED91FC910190F081E02DC7010995C80F95
:1034E000D91F015010400115110571F7CE01DF9170
:1034F000CF911F910F91FF90EF90DF90CF900895A3
:10350000EF92FF920F931F93CF93DF937C018B0178
:10351000C0E0D0E0F8010F5F1F4F6491662359F0BF
:10352000D701ED91FC910190F081E02DC701099543
:10353000C80FD91FEFCFCE01DF91CF911F910F910F
:10354000FF90EF900895DC01ED91FC910190F081E6
:10355000E02D09950895EF92FF920F931F938C0130
:10356000DC01ED91FC910190F081E02D6DE0099579
:103570007C01D801ED91FC910190F081E02DC80112
:103580006AE009959C012E0D3F1DC9011F910F9105
:10359000FF90EF900895EF92FF920F931F937C019D
:1035A0000E94801A8C01C7010E94AB1A9C01200F57
:1035B000311FC9011F910F91FF90EF900895CF9394
:1035C000DF93EC016115710519F420E030E00FC0C4
:1035D000DB010D900020E9F71197A61BB70BE881DE
:1035E000F9810280F381E02DAD0109959C01C901AB
:1035F000DF91CF9108954F925F927F928F929F9229
:10360000AF92BF92CF92DF92EF92FF920F931F93F0
:10361000DF93CF93CDB7DEB7A1970FB6F894DEBF97
:103620000FBECDBF2C01742ECB01223008F42AE04E
:1036300019A231E2C32ED12CCC0EDD1E822E99248C
:10364000AA24BB24672D752FA50194010E94731D28
:1036500079018A01C801B701A50194010E942D1DBD
:10366000472D461B0894C108D1084A3014F4405D28
:1036700001C0495CF6014083E114F1040105110524
:1036800021F07E2C5F2DC801DDCFC201B6010E9462
:10369000DF1AA1960FB6F894DEBF0FBECDBFCF9153
:1036A000DF911F910F91FF90EF90DF90CF90BF902F
:1036B000AF909F908F907F905F904F900895DC0126
:1036C0002115310541F4ED91FC910190F081E02D3F
:1036D000642F099508950E94FB1A0895EF92FF92B6
:1036E0000F931F939A017B0100E010E0B801A7013E
:1036F0000E945F1B1F910F91FF90EF9008952F92F2
:103700003F924F925F926F927F928F929F92AF9271
:10371000BF92CF92DF92EF92FF920F931F93DF93AE
:10372000CF93CDB7DEB73B014C0119012A016D895A
:103730007E898F89988D6A197B098C099D09621A87
:10374000730A840A950AA40193010E942D1DE218B0
:10375000F30804091509A80197010E94951D2A0D77
:103760003B1D4C1D5D1DB901CA01CF91DF911F9119
:103770000F91FF90EF90DF90CF90BF90AF909F9010
:103780008F907F906F905F904F903F902F90089513
:10379000EF92FF920F931F937B018C0161157105CE
:1037A0008105910529F420E030E040E050E00BC0B5
:1037B0000E94091EA80197010E94951DAC01CB0132
:1037C000DA019C01AD01B901CA011F910F91FF906F
:1037D000EF900895EF92FF920F931F937B018C015E
:1037E000621773078407950764F4261B370B480B91
:1037F000590BCA01B9010E94C81BE60EF71E081F2B
:10380000191FB701C8011F910F91FF90EF90089504
:10381000009729F0BC0180E090E00E940E1E089500
:1038200098D088F09F5790F0B92F9927B751A0F002
:10383000D1F0660F771F881F991F1AF0BA95C9F744
:1038400012C0B13081F09FD0B1E008959CC0672FC5
:10385000782F8827B85F39F0B93FCCF386957795F4
:103860006795B395D9F73EF49095809570956195DD
:103870007F4F8F4F9F4F0895E89409C097FB3EF408
:1038800090958095709561957F4F8F4F9F4F9923AD
:10389000A9F0F92F96E9BB279395F695879577952B
:1038A0006795B795F111F8CFFAF4BB0F11F460FFEB
:1038B0001BC06F5F7F4F8F4F9F4F16C0882311F043
:1038C00096E911C0772321F09EE8872F762F05C057
:1038D000662371F096E8862F70E060E02AF09A95F2
:1038E000660F771F881FDAF7880F9695879597F9E7
:1038F000089597F99F6780E870E060E008959FEF72
:1039000080EC089500240A94161617061806090676
:10391000089500240A941216130614060506089545
:10392000092E0394000C11F4882352F0BB0F40F4CD
:10393000BF2B11F460FF04C06F5F7F4F8F4F9F4F0D
:10394000089557FD9058440F551F59F05F3F71F08F
:103950004795880F97FB991F61F09F3F79F08795F6
:103960000895121613061406551FF2CF4695F1DF7F
:1039700008C0161617061806991FF1CF869571050F
:10398000610508940895E894BB2766277727CB0143
:1039900097F908950BD0C4CFB5DF28F0BADF18F03F
:1039A000952309F0A6CFABCF1124EECFCADFA0F349
:1039B000959FD1F3950F50E0551F629FF001729FC4
:1039C000BB27F00DB11D639FAA27F00DB11DAA1FE3
:1039D000649F6627B00DA11D661F829F2227B00D30
:1039E000A11D621F739FB00DA11D621F839FA00DBB
:1039F000611D221F749F3327A00D611D231F849F0B
:103A0000600D211D822F762F6A2F11249F57504061
:103A10008AF0E1F088234AF0EE0FFF1FBB1F661FFC
:103A2000771F881F91505040A9F79E3F510570F0B5
:103A300060CFAACF5F3FECF3983EDCF38695779595
:103A40006795B795F795E7959F5FC1F7FE2B880FB0
:103A5000911D9695879597F90895629FD001739F60
:103A6000F001829FE00DF11D649FE00DF11D929F1A
:103A7000F00D839FF00D749FF00D659FF00D992759
:103A8000729FB00DE11DF91F639FB00DE11DF91F7D
:103A9000BD01CF0111240895AA1BBB1B51E107C032
:103AA000AA1FBB1FA617B70710F0A61BB70B881FCE
:103AB000991F5A95A9F780959095BC01CD0108955D
:103AC00097FB092E07260AD077FD04D0E5DF06D044
:103AD00000201AF4709561957F4F0895F6F7909540
:103AE00081959F4F0895A1E21A2EAA1BBB1BFD01D1
:103AF0000DC0AA1FBB1FEE1FFF1FA217B307E407CD
:103B0000F50720F0A21BB30BE40BF50B661F771F24
:103B1000881F991F1A9469F7609570958095909504
:103B20009B01AC01BD01CF01089597FB092E05262D
:103B30000ED057FD04D0D7DF0AD0001C38F45095C2
:103B40004095309521953F4F4F4F5F4F0895F6F7C1
:103B500090958095709561957F4F8F4F9F4F0895F9
:103B6000EE0FFF1F0590F491E02D0994A0E0B0E066
:103B7000ECEBFDE10C941F1EEC01A880B980CA801B
:103B8000DB80A114B104C104D10441F484E2A82E65
:103B900089EDB82E8BE5C82E87E0D82EC601B50179
:103BA0002DE133EF41E050E00E94951D27EA31E41A
:103BB00040E050E00E942D1D7B018C01C601B50143
:103BC0002DE133EF41E050E00E94951DCA01B9019B
:103BD0002CEE34EF4FEF5FEF0E942D1D6E0D7F1D19
:103BE000801F911F97FF04C0615070408040904833
:103BF000688379838A839B839B01AC015F77B901DA
:103C0000CA01CDB7DEB7EAE00C943B1E0E94B61D98
:103C1000089587E091E00E94B61D08956093070122
:103C2000709308018093090190930A0108952F92DF
:103C30003F924F925F926F927F928F929F92AF923C
:103C4000BF92CF92DF92EF92FF920F931F93CF9389
:103C5000DF93CDB7DEB7CA1BDB0B0FB6F894DEBF20
:103C60000FBECDBF09942A88398848885F846E8446
:103C70007D848C849B84AA84B984C884DF80EE8090
:103C8000FD800C811B81AA81B981CE0FD11D0FB699
:103C9000F894DEBF0FBECDBFED010895F894FFCFBD
:103CA0004C4F414445520001000000140014000232
:103CB0000001000100010100000000F10C561A0093
:00000001FF
