:100000000C940A040C9432040C9432040C943204C0
:100010000C9432040C9432040C9432040C94320488
:100020000C9432040C9432040C9432040C94011A93
:100030000C9432040C9432040C9432040C94320468
:100040000C947E1A0C9432040C9432040C943204F6
:100050000C9432040C9432040C9432040C94320448
:100060000C9432040C94320408087E5A5A5A7E24A6
:10007000240058040000000000000000000000FF01
:10008000FFFFFFFFFFFFFFFFFFFFFFFFFFFFFFFF80
:10009000FFFFFFFFFFFFFFFFFFFFFFFFFFFFFFFF70
:1000A0001804000000FFFFFFFFFFFFFFFFFF08082D
:1000B000183C246642C3817E0808FCCEC7FFFFC7F8
:1000C00086FC401E00000000000000000000000050
:1000D000000000000001E631C3C8800000020552A4
:1000E0002408800000020492240881800001C413C7
:1000F000E38F83C000002412204883C00000241234
:10010000204887E00003C4122788866000000000B2
:1001100000000C300000000000000810000001C4C6
:10012000430007E000000226428000003F00022555
:10013000424000002D0003E4C24000002D000224D4
:10014000424000002D000224428000003F000224B3
:100150004300000012000000000000001200000038
:10016000000003F0000073C3879107300000822471
:1001700048110E300001022448110FF0000103C79E
:10018000C71F0FF00001028440910E30000082442E
:1001900040910610FC0072244F1103F0B4000000DF
:1001A00000000000B400000000000000FC0000009F
:1001B00000000000FC0105020D02190220436F6ED1
:1001C0006E656374696E672E2E2E00004261636B4C
:1001D0006C696768743A00004C696768743A00009B
:1001E0002F3400426174746572793A002020202017
:1001F0004C6F6164696E672E2E2E2E0053757276D9
:100200006976616C004F7074696F6E73004D756C28
:100210007469706C61796572004368616E6765200E
:1002200047616D650003053F213F1208120A100A5D
:100230000E1C0E0C1E0C141A14161F161E131E1E56
:100240001B1E1E1F1E3F213F3A2F3A173D173F210D
:100250003F181F02040A041F0E04040E1F0A1F0A7F
:100260000E0E1F04110E2E252E2F2A2E26292902AE
:100270001F02081F08150E04040E150E15151B1578
:100280001B040604040C0400000000170003000314
:100290001F0A1F16371A1904130A153A0003000023
:1002A0000E11110E000A040A040E040030000404AA
:1002B000040010001804031F111F121F101D151732
:1002C00011151F07041F17151D1F151D01011F1FE5
:1002D000151F17151F000A00003200040A110A0A30
:1002E0000A110A040115020E11171E051E1F150A18
:1002F0000E110A1F110E1F15111F05010E111D1FD2
:10030000041F111F1108100F1F041B1F10101F06C0
:100310001F1E040F0E110E1F09060E112E1F051AA7
:10032000121509011F011F101F0F180F1F0C1F1B93
:10033000041B031C03191513001F11030418111FBC
:10034000000201022020200001020C121E1F120CCC
:100350000C12120C121F0C1A14041E05242A1E1F44
:10036000021C141D1020201D1F0814111F101E0434
:100370001E1E021C0C120C3E0A040C123E1E04022D
:1003800014160A020F120E101E0E100E1E081E1258
:100390000C1226281E322A26041E21001F00211EB0
:1003A000040102013F213F05077F4141417F3E5B40
:1003B0004F5B3E3E6B4F6B3E183C783C18183C7EC2
:1003C0003C181C577D571C1C5E7F5E1C007E4343FF
:1003D0007E007E73737E007E7F7F7E7F4141417F02
:1003E00030483A060E06297929067F4141417F604F
:1003F000703F02042A1C361C2A7F3E1C080000089D
:100400001C3E7F14227F22143C3C3C7EFF18423C61
:10041000817E3E6375633E3E616B633E3E636B6B04
:100420003E04027F020410207F201008082A1C08C6
:10043000081C2A0808143E5541226375697563102B
:10044000181C1810040C1C0C040000000000000014
:100450005F00000007000700147F147F14042A7F48
:100460002A102313086462364956205000080703F7
:1004700000001C2241000041221C002A1C3E1C2AB4
:1004800008083E080800E0600000080808080800A6
:100490006060000060100804033E5149453E004280
:1004A0007F400062514949462141494D3318141299
:1004B0007F1027454545393C4A49493041211109BA
:1004C000073649494936064949291E0000240000DB
:1004D0000080640000081422410014141414140055
:1004E0004122140802015909063E415D594E7C1211
:1004F00011127C7F494949363E414141227F4141A9
:10050000221C7F494949417F090909013E41415166
:10051000327F0808087F00417F41002041413F01B0
:100520007F081422417F404040407F020C027F7FC1
:100530000204087F3E4141413E7F090909063E41D0
:100540006141BE7F09192946264949493201017F87
:1005500001013F4040403F1F2040201F3F403840A6
:100560003F6314081463030478040361514945434D
:10057000007F41410003040810600041417F0004F6
:10058000020102048080808080000307080020545C
:100590005478407F284444383844444428384444FC
:1005A000287F3854545418087E09090218A4A49CC2
:1005B000787F0804047800447D4000006080847DDA
:1005C0007F1010284400417F40007C047804787C30
:1005D000080404783844444438FC182424181824A7
:1005E0002418FC7C080404080854545420043F4494
:1005F00044203C4040207C1C2040201C3C402040AB
:100600003C44281028444C9090907C4464544C44C2
:10061000000836410000007F000000413608001845
:100620000408100C7F4141417F0A4E6F2053442043
:1006300063617264206F720A6E6F204C4F414445B3
:10064000522E4845580A0A153A45786974001D200B
:10065000466C617368696E670A20206C6F6164651F
:10066000722E2E2E0A0A444F4E2754205455524EB5
:10067000204F464621006D560A0A504C45415345CD
:100680000A5455524E204F4646004C4F5720424187
:1006900054544552590A0017736176650016626119
:1006A000636B001574797065000A0A0A153A6F6B5E
:1006B000617920163A6564697400596F7520656E1A
:1006C00074657265640A00540A03E181867F3E18EE
:1006D0006D830F0F0E0183866033186DC3198F1859
:1006E00003C38E6033186DE330CF1803C39E6036AA
:1006F00030CDE360CF3006C79E7E3E30CDB360CFB5
:10070000300CC6F6603330D9B660CF33CFCCF6604C
:1007100061B0DB1E60CF30D86CE6C061B0DB1E611B
:100720008F19986CC6C063B19B0E330F0FB078C69B
:10073000FF7E1F1B061E0F1753440016137800166A
:10074000131400151020001520100000000500896A
:10075000300802380249786814000045006801003A
:10076000000500680138010000050038016801003B
:1007700000F6E8DBCFC3B8AEA49B928A827B746E8E
:1007800068625C57524E4945413E3A3734312E2C0F
:1007900029272523211F1D1C1A191716151413129A
:1007A00011100F0E0D0C0B0A09080706B007B4074D
:1007B0000101F7030101FF030000000024002700EE
:1007C0002A0000000000250028002B000000000087
:1007D0002300260029000404040404040404020283
:1007E00002020202030303030303010204081020B0
:1007F00040800102040810200102040810200000BB
:1008000000070002010000030406000000000000D1
:100810000000340411241FBECFEFD8E0DEBFCDBFEF
:1008200011E0A0E0B1E0E6EDF2E402C005900D9227
:10083000AC34B107D9F713E0ACE4B1E001C01D92CC
:10084000AE3EB107E1F718E0C4E1D8E004C022975A
:10085000FE010E94CD20C231D107C9F70E94AC1C15
:100860000C9469210C94000010929D0110929C013F
:1008700087E491E090939B0180939A0160E070E09F
:1008800080E090E02CE430E040E050E00E94051F62
:100890007093D8016093D70164E170E080E090E04C
:1008A00028E230E040E050E00E94051F7093DE0136
:1008B0006093DD010895CF92DF92EF92FF920F9344
:1008C0001F93CF93DF93C1E0D0E08CE491E00E94CE
:1008D00097138823D1F380914001813009F011C230
:1008E0008091D5019091D60101969093D601809385
:1008F000D5018AE991E06091D7014091D9012EEAB2
:1009000030E00E94EB0B8091D9019091DA010196C1
:100910009093DA018093D9018AE991E06091DB013B
:100920004091DD0128EB30E00E94EB0B8091DB0170
:100930009091DC0101969093DC018093DB01409162
:100940003E0150913F018091380190913901480F4B
:10095000591F50933901409338018AE991E0609121
:10096000360128E630E000E0E090D3010E94A80DB7
:100970008AE991E060E04CE222E730E00E94EB0B74
:100980008AE991E064E14CE120EA30E00E94EB0B5F
:1009900086E591E063E042E00E94EE08882349F09A
:1009A0008091380190913901049690933901809398
:1009B000380186E591E063E00E94E408882349F06D
:1009C0008091380190913901049790933901809377
:1009D000380186E591E060E042E00E94FD0888234E
:1009E00091F0809136019091370120913A01309138
:1009F0003B01821B930B9093370180933601D09378
:100A0000D401C093D30186E591E062E042E00E9408
:100A1000FD08882391F08091360190913701209153
:100A20003A0130913B01820F931F909337018093DD
:100A300036011092D4011092D30186E591E064E072
:100A400044E10E94FD08882399F080913E01909135
:100A50003F01892B69F481E791E00E94251A80917A
:100A6000380190913901449790933901809338016E
:100A700060913601709137014091380150913901F0
:100A80008CE491E028E630E000E010E0FCE2EF2E9C
:100A9000F12CE2E7CE2EE0E0DE2E0E9467118130DD
:100AA000C9F0609136017091370140913801509141
:100AB00039018CE491E028E630E004E110E0BCE18B
:100AC000EB2EF12CA0EACA2EA0E0DA2E0E946711CC
:100AD000813021F410923F0110923E016091360165
:100AE0007091370140913801509139018CE491E0C7
:100AF00028E630E000E010E0FCE2EF2EF12CE2E727
:100B0000CE2EE0E0DE2E0E9467118823E9F460918A
:100B100036017091370140913801509139018CE4D0
:100B200091E028E630E004E110E0BCE1EB2EF12C8E
:100B3000A0EACA2EA0E0DA2E0E946711882321F4D1
:100B4000D0933F01C0933E0160913601709137010F
:100B500040913801509139010091D7011091D8018D
:100B6000E090D901F090DA018CE491E028E630E0E1
:100B7000FEEACF2EF0E0DF2E0E946711813011F4E3
:100B8000109240016091D7017091D8014091D90134
:100B90005091DA018CE491E02EEA30E000E010E0C0
:100BA000ECE2EE2EF12CB2E7CB2EB0E0DB2E0E9471
:100BB00067118130C9F06091D7017091D8014091DF
:100BC000D9015091DA018CE491E02EEA30E004E1A1
:100BD00010E0ACE1EA2EF12CF0EACF2EF0E0DF2EAF
:100BE0000E946711813091F41092DA011092D901BC
:100BF00060E070E080E090E02CE430E040E050E025
:100C00000E94051F7093D8016093D701609136014F
:100C10007091370140913801509139010091DB0109
:100C20001091DC01E090DD01F090DE018CE491E0B8
:100C300028E630E0E8EBCE2EE0E0DE2E0E946711E1
:100C4000813011F4109240016091DB017091DC0160
:100C50004091DD015091DE018CE491E028EB30E021
:100C600000E010E0BCE2EB2EF12CA2E7CA2EA0E0DF
:100C7000DA2E0E9467118130C9F06091DB0170911A
:100C8000DC014091DD015091DE018CE491E028EB24
:100C900030E004E110E0FCE1EF2EF12CE0EACE2E92
:100CA000E0E0DE2E0E946711813091F41092DC01A9
:100CB0001092DB0164E170E080E090E028E230E037
:100CC00040E050E00E94051F7093DE016093DD015B
:100CD0008091DB019091DC018035910594F01092B8
:100CE000DC011092DB0164E170E080E090E028E23A
:100CF00030E040E050E00E94051F7093DE016093F9
:100D0000DD0180914001882309F0DFCD8AE991E07F
:100D100065E272E00E946A0E1092A3011092A40193
:100D20008AE991E060E071E00E94871E8AE991E023
:100D30006AE071E00E94871E8AE991E06BE071E051
:100D40000E94841E6091D5017091D6018AE991E0DC
:100D50004AE050E00E94711E8AE991E06AE171E088
:100D60000E94871E8AE991E06AE071E00E94871E76
:100D70008AE991E063E271E00E94871E86E591E0D6
:100D800065E00E94DA08882309F49FCD81E791E0AD
:100D90000E942B1A1092D6011092D5018AE991E097
:100DA00067EA73E00E946A0EDF91CF911F910F9165
:100DB000FF90EF90DF90CF9008951F931092640101
:100DC0008CE491E064EB71E044E00E9450148130C7
:100DD00009F467C082302CF48F3F51F0882379F0FA
:100DE000D1C0823009F4BDC0833009F0CBC0C6C089
:100DF0008CE491E062EC70E00E941517C3C08AE9B0
:100E000091E06CEE71E00E94E51C8CE491E00E94A0
:100E10004C1384E190E090933701809336019093D6
:100E20003901809338011092D4011092D30182E0ED
:100E300090E090933B0180933A0181E090E09093A1
:100E40003D0180933C0190933F0180933E011092BD
:100E5000DA011092D90160E070E080E090E02CE4CB
:100E600030E040E050E00E94051F7093D80160938D
:100E7000D7011092DC011092DB0164E170E080E0A8
:100E800090E028E230E040E050E00E94051F7093BF
:100E9000DE016093DD0181E0809340010E945B04EC
:100EA00071C011E08CE491E00E9497138823D1F384
:100EB00086E591E065E00E94DA08882339F081E751
:100EC00091E00E942B1A109264015CC01092A30161
:100ED0001092A4018AE991E063EE71E00E94E51CA2
:100EE0008AE991E0609165014AE050E00E94011EAC
:100EF0008AE991E060EE71E00E94301D8AE991E09C
:100F00006FED71E00E94301D8AE991E068ED71E0BB
:100F10000E94E51C60914D0170914E018AE991E0BB
:100F20004AE050E00E94E41D8AE991E067ED71E03B
:100F30000E94301D8AE991E06CEC71E00E94E51C92
:100F40008AE991E060914F014AE050E00E94131E4F
:100F50008AE991E06BEC71E00E94301D109364010E
:100F6000A1CF8AE991E06CEB71E00E94E51C64E698
:100F700070E080E090E00E94FA1A04C08CE491E0F6
:100F80000E941F121F9108950F931F930CE411E00C
:100F9000C8010E941B178AE991E067EA73E00E948A
:100FA0006A0EC80162EC70E00E941517109264018D
:100FB0001092A0011F910F910895882319F48CB508
:100FC000806202C08CB58F7D8CBD08959CB5937FE7
:100FD000982B9CBD08952CB5382F33702C7F322B65
:100FE0003CBD2DB590E09595879595958795817039
:100FF0002E7F822B8DBD08958AE061E00E94491CFE
:101000008AE061E00E94DD1B8CB580618CBD8CB5EF
:1010100080648CBD8DE061E00E94DD1B8BE061E0AF
:101020000E94DD1B0895FC0181E08083089585E026
:1010300070E00E947D1B08956F927F928F929F9225
:10104000AF92BF92CF92DF92EF92FF920F931F93D6
:10105000CF93DF93EC0189819A818C0124E0000F0A
:10106000111F2A95E1F7081B190B85E10E945B1BF4
:10107000BC01600F711F84E0769567958A95E1F752
:101080007A8369838881882381F12E813F81621769
:10109000730710F4B90106C08885998586179707EC
:1010A00008F4BC0100D000D080E090E040E050E0C7
:1010B000E884F98400E010E0AD80BB24CC24DD247A
:1010C0006C80772488249924EDB7FEB76182728200
:1010D000838294820E949A1E6B830F900F900F90D0
:1010E0000F9085E070E00E947D1BDF91CF911F91F2
:1010F0000F91FF90EF90DF90CF90BF90AF909F90B7
:101100008F907F906F900895FC018CE39FE0938314
:10111000828384E0818381E084870895CF93DF9385
:10112000EC018C8590E08F719070892B69F584E1DA
:101130000E945B1BAA2797FDA095BA2FBC01CD0189
:101140000E94591F26EE3FE34EEC50E40E94E51F3B
:101150000E942B1F9B01AC017B836A836115710583
:1011600089F084E08983B901FE0120E084819581C2
:101170006817790710F429830AC02F5F329624304C
:10118000A9F702C08FEF89838C858F5F8C87DF91F1
:10119000CF910895FC0188E0808389E0818387E016
:1011A000828386E0838384E0848382E0858381E197
:1011B0008683089520E0FC01E60FF11D87818130D0
:1011C00009F421E0822F089520E0FC01E60FF11DD3
:1011D00087818F3F09F421E0822F089520E0FC01F0
:1011E000E60FF11D878190E050E04F5F5F4F84175D
:1011F000950709F421E0822F0895E62FF0E04230B0
:1012000040F420E0E80FF91F878181508E3F88F479
:101210000FC0E80FF91F87818F3F11F420E009C04C
:1012200020E090E0642F70E00E946720019709F4AD
:1012300021E0822F08950F931F93CF93DF93EC014A
:1012400010E00FEF888162E00E94DD1B88810E9420
:101250007C1C2F81892B19F42F5F2F8307C0222339
:1012600049F02F3F11F41F8201C00F83888160E095
:101270000E94DD1B1F5F2196173021F7DF91CF9170
:101280001F910F910895FC01742F643508F06FC011
:1012900047FD6DC040330CF06AC080A1823021F55B
:1012A000842F859585958595992787FD9095462F5F
:1012B000552747FD509524E530E0829FF001839F3C
:1012C000F00D929FF00D1124E40FF51FE152FE4F37
:1012D000808190E0272F277002C0959587952A95E9
:1012E000E2F78095817009C0833039F49485842FAA
:1012F0008627892780FF03C01FC08823E9F4E72FD2
:10130000E595E595E59584E5E802F0011124862F41
:10131000992787FD9095E80FF91FE152FE4F7770EE
:1013200081E090E002C0880F991F7A95E2F78095DE
:101330002081282320830895E72FE595E595E595FD
:1013400084E5E802F0011124862F992787FD909506
:10135000E80FF91FE152FE4F777081E090E002C084
:10136000880F991F7A95E2F72081282B2083089512
:10137000FC0160A361A30895FC0160A341A308954B
:10138000EF92FF920F931F93CF93DF93EC01E62E22
:10139000F42E022F10E007C0412F4F0DCE016E2D0D
:1013A0000E9443091F5F1017BCF3DF91CF911F917B
:1013B0000F91FF90EF900895EF92FF920F931F937C
:1013C000CF93DF93EC01E62EF42E022F10E007C03E
:1013D000612F6E0DCE014F2D0E9443091F5F101724
:1013E000BCF3DF91CF911F910F91FF90EF90089583
:1013F0009F92AF92BF92CF92DF92EF92FF920F93A4
:101400001F93CF93DF936C01962EB42EA22EC0E0D3
:10141000D0E0E42EFF24E7FCF094112707FD10959F
:101420000E0D1F1D06C0C601692D2A2D0E94DC0964
:1014300021964B2D4C0FCE018E0D9F1D80179107CD
:1014400094F3DF91CF911F910F91FF90EF90DF9078
:10145000CF90BF90AF909F9008952F923F925F9250
:101460006F927F928F929F92AF92BF92CF92DF92B4
:10147000EF92FF920F931F93DF93CF9300D000D092
:1014800000D0CDB7DEB79E838D83C62ED42EEE243A
:10149000E394E21A8EEF289F502C1124842E8A9414
:1014A000962E9A94A42EA394B62EB394F22E66246C
:1014B00023E0722E10E0C801847090709A838983B3
:1014C000F801E270F070FC83EB8398E0292E312C58
:1014D000202231220170107054C0E7FC04C0FA943D
:1014E000F2E05F0EE50C639489819A81892B71F09B
:1014F0004F2D4D0D8D819E816B2D0E9443096F2DC7
:101500006C0D8D819E814A2D0E944309EB81FC81E7
:10151000EF2B71F04D2D4F198D819E816B2D0E9407
:1015200043096F2D6C0D8D819E81482D0E944309CA
:101530002114310471F06C2D6F198D819E814A2D1B
:101540000E9443094F2D4D0D8D819E81692D0E9472
:1015500043090115110571F06C2D6F198D819E8164
:10156000482D0E9443094D2D4F198D819E81692D73
:101570000E944309E70CF2E07F0E8A949A94A394A8
:10158000B3946F140CF4A9CF26960FB6F894DEBF6F
:101590000FBECDBFCF91DF911F910F91FF90EF90C4
:1015A000DF90CF90BF90AF909F908F907F906F9083
:1015B0005F903F902F9008954F925F926F927F922D
:1015C0008F929F92AF92BF92CF92DF92EF92FF9253
:1015D0000F931F93CF93DF93EC01A62E742E9E2DB5
:1015E000FF24F394F21A8EEF289F802C1124B42E3E
:1015F000BA9453E0C52ECE0CE22EDD2443E0942EA7
:1016000010E031E0432E512C40225122692E639488
:101610000270107034C0F7FC04C0EA9482E0880EB7
:10162000F80CD3944114510489F06D2D6A0D472DA7
:101630004E192E2D220F260DCE010E94C0096E2DAF
:101640006A0DCE014B2D2C2D0E94C00901151105EC
:1016500089F06A2D6D19472D4E192E2D220F260D5A
:10166000CE010E94C0096A2D6E19CE014B2D2C2D82
:101670000E94C009F90C82E0980EBA94C80EDE14DC
:1016800054F2DF91CF911F910F91FF90EF90DF9077
:10169000CF90BF90AF909F908F907F906F905F9012
:1016A0004F9008957F928F929F92AF92BF92CF9268
:1016B000DF92EF92FF920F931F936C01962EA42E50
:1016C000F22E7E2C760E1EEFE19E102D1124812E1F
:1016D000820E672D282D0E94DC09B02EBA0CBA9418
:1016E000C601672D4B2D282D0E94DC09AE0C100F72
:1016F000C601692D4A2D212F0E94C009F90CFA94C8
:10170000C6016F2D4A2D212F0E94C009C601672DE9
:101710004A2D2E2D01E00E942D0AFE18C6016F2DC4
:101720004A2D2E2D02E00E942D0ABE18C6016F2DF3
:101730004B2D2E2D04E00E942D0AC601672D4B2D46
:101740002E2D08E00E942D0A1F910F91FF90EF901F
:10175000DF90CF90BF90AF909F908F907F90089533
:101760008F929F92AF92BF92CF92DF92EF92FF92B1
:101770000F931F936C01162FA42E922EF02EBE2CC9
:101780008E2C860E2EEFE29EE02C11242E2D290D9C
:10179000682D0E94F809AB0CFA94FE0C1150190D3B
:1017A0001B19C601612F4A2D2B2D01E0EF2C0E9441
:1017B000DC0AC601682D4A2D2B2D02E00E94DC0AAE
:1017C0001F910F91FF90EF90DF90CF90BF90AF905F
:1017D0009F908F9008952F923F924F925F926F92B9
:1017E0007F928F929F92AF92BF92CF92DF92EF92B1
:1017F000FF920F931F93DF93CF9300D000D0CDB70C
:10180000DEB74C01D62E142FF901849131969491B4
:101810003197D40190966C90B3E5B6170CF457C18C
:10182000482F552747FD5095A62EBB24A7FCB09402
:101830002A014A0C5B1C141415040CF048C1103327
:101840000CF045C1092F212F332727FD3095892F13
:10185000992787FD9095820F931F181619060CF093
:1018600036C162E0E62EF12CEE0EFF1ECA0107968D
:1018700068E070E00E947B20762E17FF0EC0010FFB
:10188000862F90E0FC01E29FC001E39F900DF29F44
:10189000900D1124E81AF90A10E0802F992787FD8E
:1018A0009095212F332727FD3095820F931FC197E5
:1018B00014F000E3011BD7FCDD24C201853591053E
:1018C00014F084E590E0C82ED4011C969C909126DB
:1018D000ED2DF0E0CF018A199B09AC0147705070E3
:1018E00020E830E002C0359527954A95E2F7B22E00
:1018F00068E070E00E947B20AB014E0D5F1D5C83B1
:101900004B83212F277081E090E0682F01C0660F84
:101910002A95EAF715951595159584E51802A00105
:1019200011244E0F5F1F41525E4F8824202E332416
:1019300027FC3094472C5524C4C0EB81FC812491B2
:10194000F1E06F1629F5AB81BC817B2D022F7A0166
:101950001D2D1BC0872F90E0202F30E08223932382
:10196000892B21F0F7018081862B8083872F90E0DF
:1019700095958795782F882321F41196FD01049180
:1019800070E81F5F0894E11CF11C1C1518F38DC052
:10199000662059F5F62EF094AB81BC817B2D022F89
:1019A0005A8349831D2D1EC0872F90E0202F30E0E1
:1019B00082239323892B29F0E981FA8180818F2169
:1019C0008083872F90E095958795782F882321F441
:1019D0001196FD01049170E81F5F89819A8101963B
:1019E0009A8389831C1500F360C093E0691639F06F
:1019F000AB81BC817B2D022F7A011D2D54C0A62EF8
:101A0000A094AB81BC817B2D022F5A8349831D2D6D
:101A1000E92CFF2428C0872F90E0202F30E082237C
:101A20009323892B79F0812F90E08E259F25E981E2
:101A3000FA81908180FF02C0962B03C09A21E98130
:101A4000FA819083872F90E095958795782F88234A
:101A500021F41196FD01049170E81F5F89819A813C
:101A600001969A8389831C15B0F291E099261DC0D6
:101A7000872F90E0202F30E082239323892B21F0C1
:101A8000F701808186278083872F90E09595879541
:101A9000782F882321F41196FD01049170E81F5FCF
:101AA0000894E11CF11C1C1518F3660F19F44C5A2C
:101AB0005F4F61E083948B819C81840D951D9C8395
:101AC0008B83882D90E0821593050CF436CF0F9010
:101AD0000F900F900F90CF91DF911F910F91FF907A
:101AE000EF90DF90CF90BF90AF909F908F907F90BE
:101AF0006F905F904F903F902F900895FB018491DD
:101B000050E0FA01B3E0F595E795BA95E1F7329622
:101B100090E00796A3E095958795AA95E1F730E0C8
:101B2000DC01A29FC001A39F900DB29F900D1124D4
:101B3000E80FF91FE60FF71FE4914770507080E837
:101B400090E002C0959587954A95E2F78E23089517
:101B50002F923F924F925F926F927F928F929F92BD
:101B6000AF92BF92CF92DF92EF92FF920F931F93AB
:101B7000DF93CF93CDB7DEB728970FB6F894DEBFCB
:101B80000FBECDBF1C016A834B8369019E2C0023CD
:101B900029F4EE2019F40E94EB0B83C0F601749037
:101BA0000894C11CD11CF60184900894C108D10886
:101BB000872D90E0079623E0959587952A95E1F784
:101BC00003700983672C6A94A62C00E0282F332722
:101BD00027FD30953D832C83382D31503E835EC0E8
:101BE000802F877090E8492E512C02C0559447945D
:101BF0008A95E2F7802F859585958595E82FFF27B3
:101C0000E7FDF0953296EC0DFD1DF887EF83BE8061
:101C1000FF243FC0EF81F885849190E084219521D5
:101C2000892B69F1F981F13051F0F13028F0F2306F
:101C300049F0F33061F409C0102FEF2C08C0EA2CF2
:101C40001F2D05C01A2DEB2C02C01B2DE02E992054
:101C500069F023E09222892D90FE03C0362D311BBE
:101C6000132F81FF03C0882D8E19E82E9A81190F3A
:101C7000EB81EE0EC101612F4E2D0E944309F394BA
:101C80002F8138858C819D81280F391F38872F83BC
:101C9000BA94F81409F0BECF0F5FAA94071509F0A3
:101CA0009FCF28960FB6F894DEBF0FBECDBFCF9161
:101CB000DF911F910F91FF90EF90DF90CF90BF9039
:101CC000AF909F908F907F906F905F904F903F90DC
:101CD0002F900895DC01FB0184918F5F14968C9303
:101CE0001497319684918F5F15968C931597319642
:101CF0005F96FC93EE935E9708953F924F925F92AA
:101D00006F927F928F929F92AF92BF92CF92DF920B
:101D1000EF92FF920F931F93CF93DF93EC01862EE8
:101D2000A42E422F102F38A023E526170CF4ABC0A9
:101D30003FE23A150CF4A7C0C02EDD248C8190E060
:101D400001979C01C29EC001C39E900DD29E900D32
:101D50001124262F332727FD3095820F931F181645
:101D600019060CF090C08D8190E09C01C29EC001CC
:101D7000C39E900DD29E900D11242A2D332727FD4E
:101D80003095820F931F181619060CF07CC0992409
:101D9000442E55246DC09C012150304042175307FA
:101DA00011F460E00EC0429EC001439E900D529E11
:101DB000900D1124840F951FEE8DFF8DE80FF91FF4
:101DC00064914C9DC0014D9D900D5C9D900D112422
:101DD000682C680EBB24792C780C3FC0E62EFF24BB
:101DE00060FF19C0113039F44B2D4A0DCE01672D1B
:101DF0000E9443092EC02C9DC0012D9D900D3C9D3D
:101E0000900D11244A2D480FCE01662D212F012F50
:101E10000E94F8091EC099A188A19817D1F098A333
:101E2000113039F44B2D4A0DCE01672D0E94430924
:101E30000FC02C9DC0012D9D900D3C9D900D112437
:101E40004A2D480FCE01662D212F012F0E94F8093F
:101E500038A2F594E7946E2DB3942B2D332727FDEC
:101E600030958D8190E0281739070CF4B7CF939403
:101E7000492D552747FD50958C8190E0481759070B
:101E80000CF489CF38A2DF91CF911F910F91FF9071
:101E9000EF90DF90CF90BF90AF909F908F907F900A
:101EA0006F905F904F903F9008950F93CF93DF9383
:101EB000EC01262F6A3049F48D819885899F802D09
:101EC00011249A85980F9A8726C06D3029F169856B
:101ED0004A8508850E947D0E9C816885969F402DCD
:101EE00011248985480F49878F818823A9F05527B8
:101EF00047FD5095699F9001112484E590E0821B75
:101F0000930B8417950744F49D81699F902D1124AC
:101F10008A85890F8A87198681E090E0DF91CF91C9
:101F20000F9108951F93CF93DF93EC01162FF89430
:101F30008F8560E00E94491C888918161CF460E0B7
:101F40000E94491C1EBD0DB407FEFDCF8EB58889C9
:101F500018161CF461E00E94491C7894DF91CF911F
:101F60001F910895FF920F931F93CF93DF93EC017E
:101F70008C858F5F8C87FF2400E010E06F2D6064FC
:101F8000CE010E94920FCE0160E80E94920F8F85D1
:101F900061E00E94491C888918161CF460E00E94C8
:101FA000491CF801E152FE4F90E080818EBD0DB4D6
:101FB00007FEFDCF8EB59F5F31969435B1F78889C6
:101FC00018161CF461E00E94491CF3940C5A1F4F30
:101FD00086E0F81699F6CE0160E40E94920FDF9138
:101FE000CF911F910F91FF900895CF93DF93DC0164
:101FF00088EF91E0EFEDF1E0EF019C0119922150A3
:102000003040E1F719961C9219971A961C92DF91AD
:10201000CF910895EF920F93CF93DF93EC014E870A
:102020006D872F87E98A088B81E0888788A319A2AA
:102030008F83CE0165E272E00E946A0E0E94FC0767
:1020400081E00E94DD0785E00E94EB078CE00E94A2
:10205000E6078E8561E00E94DD1B8D8561E00E94B0
:10206000DD1B8F8561E00E94DD1B898918161CF439
:1020700061E00E94DD1B888918161CF461E00E9453
:10208000DD1B898918166CF460E00E94491C6AE027
:1020900070E080E090E00E94FA1A898961E00E9475
:1020A000491CED852E2F332727FD3095F901EA5283
:1020B000F84FE491F0E0EE0FFF1FEE53F84F8591DB
:1020C00094919D8B8C8B2651384FF90184918B8F85
:1020D000EE852E2F332727FD3095F901EA52F84F70
:1020E000E491F0E0EE0FFF1FEE53F84F85919491CD
:1020F0009B8B8A8B2651384FF90184918A8FE8890E
:102100002E2F332727FD3095F901EA52F84FE4913D
:10211000F0E0EE0FFF1FEE53F84F859194919F8BE7
:102120008E8B2651384FF90184918C8FEF852E2F9D
:10213000332727FD3095F901EA52F84FE491F0E09A
:10214000EE0FFF1FEE53F84F85919491998F888F72
:102150002651384FF90184918D8FCE0161E20E94A2
:10216000920FCE0164E10E94920F8B8587FF02C01F
:102170008FE78B876B856068CE010E94920FCE013E
:1021800060E20E94920FCE016CE00E94920FCE019D
:102190000E94B20FDF91CF910F91EF900895CF93EE
:1021A000DF93DC01E0E8F7E785919491ED01C75AF0
:1021B000DF4FAD0140595F4F8150904C09F04EC048
:1021C000E6E9F7E7E491E883E7E9F7E7E4911496B5
:1021D000EC931497E8E9F7E7E4911596EC931597DB
:1021E000E9E9F7E78591949117969C938E9316975A
:1021F000EBE9F7E78591949119969C938E93189744
:10220000EDE9F7E7E4919B96EC939B97EEE9F7E70E
:10221000E4919A96EC939A97EFE9F7E7E491EA0153
:10222000E883E0EAF7E7859194915D969C938E931D
:102230005C97E2EAF7E7859194915F969C938E9381
:102240005E97E4EAF7E78591949191969C938E933B
:102250009097E6EAF7E78591949132C08CE3888302
:1022600014961C9214972FEF15962C93159780E2D5
:1022700093E017969C938E93169784ED93E01996AE
:102280009C938E93189781E09B968C939B979A963C
:102290008C939A97FA0120838CEA9DE05D969C933B
:1022A0008E935C978EED9DE05F969C938E935E97E8
:1022B00084E79EE091969C938E9390978CE39FE0A9
:1022C00093969C938E939297DF91CF9108952F923E
:1022D0003F924F925F926F927F928F929F92AF92B6
:1022E000BF92CF92DF92EF92FF920F931F93DF93F3
:1022F000CF9300D000D0CDB7DEB79A838983F901A0
:102300008491482E5524319684913197FC83EB8338
:10231000F60124910894C11CD11CF6013491089453
:10232000C108D1085201A60EB71E0A151B050CF0F4
:102330006BC0D801A20FB11D6A177B070CF064C0F7
:10234000682E7724C301840F951FE816F9060CF058
:102350005BC0F701E30FF11D4E175F070CF054C08F
:10236000601771071CF08824992403C04801861A5D
:10237000970A4E155F051CF020E030E003C097017E
:10238000241B350BAA16BB0614F4120103C01D0151
:10239000261A370A8E179F0714F4230103C02F0152
:1023A000441A550AB22E69807A802EE430E0620E1B
:1023B000731E342F3E19E32EEB0CA82CF62EF01AC8
:1023C000F80C1DC01A2D0F2D13C0C3016B817C8129
:1023D000412F2B2D0E947E0D882371F1C301B60180
:1023E000402F2E2D0E947E0D882331F181E00DC0FB
:1023F000812F90E08215930544F3B394E3948B2DE1
:1024000090E084159505F4F280E00F900F900F9006
:102410000F90CF91DF911F910F91FF90EF90DF9080
:10242000CF90BF90AF909F908F907F906F905F9074
:102430004F903F902F9008951F5F0F5FD9CFEF927D
:10244000FF920F931F93CF93DF937C018C01025B6C
:102450001F4FC8010E94F50FC8016EE476E00E948C
:10246000E51CC8010E94B20F83E00E94EB078BE2DB
:1024700091E0EEEFFFE3099584E590E0E80EF91EA8
:10248000F7011082C80169E276E00E94301DC801A0
:102490000E94B20FE701CA54D040CE010E941B092E
:1024A000CE0164E00E94DA08882339F462E370E028
:1024B00080E090E00E94FA1AF0CFDF91CF911F9157
:1024C0000F91FF90EF9008950F931F93CF93DF9399
:1024D000EC018C01025B1F4FC80161E040E00E94EB
:1024E000BC09FE01E95AFF4FCE5ADF4F85E59881BE
:1024F000891B808326961882C855D040698D61302B
:1025000009F43EC0613028F0888D653008F051C074
:102510004BC0CE0185960E942018CE0160E00E943B
:102520001708C8010E94F50FCA5ADF4F81E088835F
:10253000C655D040C8016AE876E00E94E51C6A8D65
:102540007B8DC8014AE050E00E94D31DC80166E7B8
:1025500076E00E94E51CC8010E94B20F83B7817F1C
:10256000846083BF83B7816083BF83B7816083BF8B
:10257000889583B78E7F83BF83B78E7F83BF1FC04D
:10258000CF58DF4F88819981AA81BB818F7090706D
:10259000A070B0700897A105B10518F4C80167E0F4
:1025A0000CC0C80168E709C0882349F06B5FC80107
:1025B00004C0882321F0C8016FE20E94081DDF914A
:1025C000CF911F910F910895AF92BF92CF92DF925A
:1025D000EF92FF920F931F93CF93DF93EC01CA57B3
:1025E000DF4F8881C658D040882309F44AC08C3018
:1025F00010F010E002C01CE0181BCA5ADF4F81E047
:102600008883C655D0406EE4C62ED12CCC0EDD1E7C
:10261000C60160E00E94B80953E5A52EB12CAC0EAE
:10262000BD1EF50100814DE2F42E4F2D401B410FE0
:102630000D5FC60160E024E533E0E32E0E94B00B9D
:10264000C60161E00E94B809F5010081F01AF10E9F
:102650000D5FC60160E04F2D24E50E94520BC95A60
:10266000DF4F84E08993F5018081181B115D188389
:10267000AC9669917991C6010E94E51C88818150D0
:102680008883DF91CF911F910F91FF90EF90DF90A2
:10269000CF90BF90AF9008954F925F926F927F92CC
:1026A0008F929F92AF92BF92CF92DF92EF92FF9262
:1026B0000F931F932C01FC01628C738C60947094B7
:1026C000882499240E94D41A5B016C010E94D41AB8
:1026D0007B018C01F201418052800E94D41A460E87
:1026E000571EA094B094C094D094E094F0940095B8
:1026F0001095C601B501A80197010E944820A401C8
:1027000093010E944820460E571EC2010E94231FBB
:102710001F910F91FF90EF90DF90CF90BF90AF90FF
:102720009F908F907F906F905F904F900895AF92A1
:10273000BF92CF92DF92EF92FF920F931F93CF93AE
:10274000DF93EC01E0E8AE2EB12CA80EB91EF50126
:10275000E080F180028113810E94C61AE61AF70A0E
:10276000080B190B7FE7C72ED12CCC0EDD1EF6010E
:10277000808190E0A0E0B0E08E159F05A007B10732
:1027800008F081C08E0105581F4FF80180819181AA
:10279000A281B3810097A105B10509F474C00E941C
:1027A000C61AF6012081620F711D811D911DF50170
:1027B0006083718382839383FE01EF58FF4F808192
:1027C0009181A281B3810196A11DB11D8083918366
:1027D000A283B383F80110821182128213820E94B5
:1027E000D41AC958DF4F688379838A839B83C7577C
:1027F000D040CE010E941C08CE010A960E941B09FF
:10280000CE0148960E948E0881E032C08E010B5D99
:102810001F4FC8010E946E18C8010E94E518C80128
:102820000E94C819CE010E94E412CE010E946412D7
:102830008E01025B1F4FC8010E94B20FCC5ADF4FBE
:102840008881C455D040882319F4C8010E94F50F2F
:102850000E94D41AC558DF4F688379838A839B838B
:10286000249728813981621B730B7A936A9380E0E5
:10287000DF91CF911F910F91FF90EF90DF90CF905C
:10288000BF90AF900895C558DF4F88819981AA8184
:10289000BB81CB57D0400097A105B10541F7B6CF1A
:1028A0002F923F924F925F926F927F928F929F9260
:1028B000AF92BF92CF92DF92EF92FF920F931F934E
:1028C000DF93CF93CDB7DEB762970FB6F894DEBF34
:1028D0000FBECDBF6C016C837D834B8324E530E05C
:1028E000C20ED31EF60110822CEA3FEFC20ED31E99
:1028F0001AE0A12EB12CAC0CBD1CB5E22B2E312C54
:102900002C0C3D1CAEE44A2E512C4C0C5D1C10E0EE
:10291000F0E37F2E66241A823FEF3983A601495ADD
:102920005F4F5F834E83C601885A9F4F9987888780
:10293000F601EA5AFF4FFB87EA8796012B5A3F4F71
:102940003D872C87E3E58E2E912C8C0C9D1C5B81A2
:10295000452F50E05F874E878B818150888BC60161
:102960000E9497138823D9F3C50164E00E94DA0816
:10297000882369F4C50165E00E94DA08882339F4E8
:10298000C50166E00E94DA08882309F4D3C0F40187
:102990000081C50164E00E94DA08882329F0C101A2
:1029A0000E94251A1983CBC0C1010E942B1AC7C0EF
:1029B000C50163E044E00E94FD08882321F01F5F09
:1029C000C1010E94311AC50161E044E00E94FD0886
:1029D000882321F01150C1010E94311A812F9927BB
:1029E00087FD90952E853F858217930711F410E09F
:1029F00002C017FD1889F4018081819F902D112458
:102A00008C5F682E691A28C0872D992787FD9095BD
:102A1000262D332727FD3095821B930B0297D4F484
:102A2000898162960FB6F894DEBF0FBECDBFCF91FD
:102A3000DF911F910F91FF90EF90DF90CF90BF90AB
:102A4000AF909F908F907F906F905F904F903F904E
:102A50002F900895F1E0FA83862D992787FD9095B0
:102A6000272D332727FD3095820F931F62E070E0FA
:102A70000E947B20762EEE81FF811082E885F98509
:102A8000608321E0EA85FB852083EC85FD8510824B
:102A90002C813D81C9019A8B898B00E0E12EFF24B6
:102AA000E7FCF09420C0802F90E08E159F0569F41C
:102AB00023E0EE81FF812083F40180818E9D802DB3
:102AC0001124870DE885F9858083E989FA89659164
:102AD0007491C2010E94301D0F5F29893A892E5FCF
:102AE0003F4F3A8B298B3B810317E8F2C20160E02C
:102AF0000E94B809F40140814E9D402D112441509F
:102B0000470DC20160E024E50E94DC09C20161E0DA
:102B10000E94B809F40100810E9D402D11244250FD
:102B2000470D0D5FC20160E024E573E0E72E0E94CF
:102B3000520B15CFFA81FF2309F066CF39CF802FD2
:102B400090E0909581959F4F2E853F85AC01249F05
:102B5000C001259F900D349F900D11246EEF662EBD
:102B6000680E52CF2F923F924F925F926F927F9258
:102B70008F929F92AF92BF92CF92DF92EF92FF928D
:102B80000F931F93DF93CF93CDB7DEB72B970FB67D
:102B9000F894DEBF0FBECDBF9B878A877A83698397
:102BA0005C834B838C0100591F4FF801808188237F
:102BB00009F422C18A859B858A5A9F4F9B878A8701
:102BC00081E0EA85FB85808312921292E455F04001
:102BD000FB87EA87108E9EE4E92EF12CEE0EFF1E95
:102BE000C70161E00E94B8098AE0282E312C8A854D
:102BF0009B85280E391EB5E26B2E712C680E791E4E
:102C0000E981FA81F491FD83A7E58A2E912C880E43
:102C1000991EF8E5CF2ED12CC80ED91EE2E54E2E16
:102C2000512C480E591E8D5A9F4F9F838E8371E7FA
:102C3000A72EB12C8A859B85A80EB91E19870887F7
:102C40008A859B850E9497138823D1F39D819923C0
:102C500011F410E003C0EE81FF811081C70160E034
:102C600040E027EC36E00E94EB0B8B819C81892BA6
:102C700041F0145FC70160E0412F2B813C810E942D
:102C8000EB0BF40110828CE0F6018083C7016981AF
:102C90007A810E94E51CF201208130E0C901880F91
:102CA000991F820F931F909581959F4F8D5AF40124
:102CB0008083EE81FF81208130E0C901880F991F58
:102CC000820F931F909581959F4F835DF6018083BE
:102CD000F501808184FF04C0C70167E477E003C089
:102CE000C70163E477E00E94301DF201208130E0EB
:102CF000C901880F991F820F931F909581959F4F4F
:102D00008D5AF4018083F60180818F5F8083EA858C
:102D1000FB8582A5882321F0C7016FE377E003C01C
:102D2000C7016BE377E00E94301DF201808190E0E3
:102D30009C01220F331F280F391F309521953F4FDB
:102D40002D5AF4012083F60180818F5F8083C701B3
:102D500067E377E00E94301DC10165E00E94DA0858
:102D6000882351F0EA85FB8562A56F5FC3010E944D
:102D7000371AC3010E94311AC10164E00E94DA08C7
:102D8000882399F4E885F9856081262F30E040E0BA
:102D900050E0F50180819181A281B3818217930770
:102DA000A407B50708F16F3FF9F08A859B85805924
:102DB0009F4F9B878A878FEFEA85FB858083E0574B
:102DC000F040FB87EA87C30160E00E941518C30149
:102DD0000E94251A81E0EA85FB85808F0DC08A85D7
:102DE0009B850E941F122CCFC10166E00E94DA0869
:102DF000882309F425CFF3CF2B960FB6F894DEBFC6
:102E00000FBECDBFCF91DF911F910F91FF90EF903B
:102E1000DF90CF90BF90AF909F908F907F906F90FA
:102E20005F904F903F902F900895AB016CE477E056
:102E30000E94B2150895AF92BF92CF92DF92EF92A7
:102E40000F93CF93DF936C018FE790E0C80ED91EEC
:102E500082E3F601808381E090E0A0E0B0E0B293ED
:102E6000A293929382936F0185EF9FEFC80ED91EB4
:102E70008FEFF601808380E99FEFC80ED91EC6014F
:102E80000E94CF10C6010E941308C6016FEF0E9476
:102E900017084AE0A42EB12CAC0CBD1CC5010E9441
:102EA000CA08C5010E941B09C60148960E948408F1
:102EB000C601825B9F4F6DE04BE020E10FE03EE0FA
:102EC000E32E0E940A10E601A596CE010E94441A44
:102ED000C50165E00E94DA08882329F0CE0160E090
:102EE0000E94371A06C0CE016DE477E040E00E94F0
:102EF0002418DF91CF910F91EF90DF90CF90BF908A
:102F0000AF9008950F93DC01002309F069C062308F
:102F100009F443C0633030F4662359F0613009F09E
:102F20005FC00DC0633009F444C0643009F058C07C
:102F30004CC04B3008F04AE056964C9351C0842F59
:102F400090E0880F991F1F962D913C915097280F64
:102F5000391FF9018591949190969C938E935F9778
:102F6000FC014591549114968C911497849F602D87
:102F7000112491966C939197252F3327862F90E0FB
:102F80002817390708F4652F14968C911497689FB9
:102F9000802D112492968C9323C014968C911497B3
:102FA000489F802D112459968C9359975A962C93AB
:102FB00017C014968C911497489F802D11245B960E
:102FC0008C935B975C962C930BC014968C91149702
:102FD000489F802D11245D968C935D975E962C936F
:102FE0000F910895FC01222371F4648B8481489F22
:102FF000802D1124858B15A214A213A281E0878B4A
:103000008093E003108E0895FC01662369F4178A0B
:10301000158A14A213A2108E1092E3031092E203F9
:103020001092E0031092B4000895CF93DF93EC0167
:10303000662319F40E9404181982DF91CF91089534
:1030400060E00E94151808950F931F93CF93DF93AC
:10305000EC018B01442371F460E00E9415181E8777
:103060000D871B8A1A8A81E0898389E08E8B198EED
:103070001B8E1D8EDF91CF911F910F910895CF93DD
:10308000DF93EC01662339F58881882321F189815A
:10309000882309F5898590E0880F991FEF81F885CD
:1030A000E80FF91F859194912FEF8F3F920711F44C
:1030B000188211C09C8790E0880F991FEA85FB85D4
:1030C000E80FF91F65917491CE0140E00E94241829
:1030D00089858F5F8987DF91CF91089560E00E9495
:1030E0003F1808950F93CF93DF93EC01662309F007
:1030F00068C08981882309F464C08D89882309F018
:1031000060C0EA89FB89EE0FFF1F4D855E85E40FE5
:10311000F51F259134912115310509F040C08989A9
:10312000813031F41B8A1A8AFA012591349137C013
:1031300019828881882379F0CE0160E00E943F18CF
:103140008A899B89880F991FED85FE85E80FF91FF5
:103150002591349124C0CE0160E00E94041831C052
:10316000E6E036952795EA95E1F76F70422F4F71AB
:1031700075E0369527957A95E1F72051CE0100E06C
:103180000E9482178A899B8901969B8B8A8B880F64
:10319000991FED85FE85E80FF91F25913491B9013E
:1031A000769567957695679520FDDACF6F73432FF7
:1031B000CE0120E00E94F2178A899B8901969B8BA1
:1031C0008A8BDF91CF910F91089560E00E94721871
:1031D0000895CF93DF93EC01662309F0D6C08F8961
:1031E000882309F4D2C08D89882321F4CE010E945E
:1031F0000418CBC081508D8B8DA1882309F03BC072
:103200008BA19CA10196880F991FEF8DF8A1E80F63
:10321000F91F85919491282F27702EA3AC0163E0AC
:10322000569547956A95E1F79A0136952795892F26
:103230009927869586958FA32F738C81289F202DA3
:1032400011242DA341704093E4038BA19CA101960E
:103250009CA38BA329A130E08217930760F08AA179
:10326000882329F0281B31093CA32BA304C0CE01DD
:1032700060E00E9404188DA181508DA3988D9F5FFE
:10328000988F2FA18C89280F8C85280F2A836B8D0E
:10329000662369F0892F992787FD909570E00E9439
:1032A0007B208C8D869F802D1124820F8A838A81BA
:1032B00090E0CB966BE370E00E947B208A832E899E
:1032C0002B83698D662379F0888D772767FD70954C
:1032D000992787FD90950E947B208A8D869F802D5F
:1032E0001124820F8B836D8D662399F0888D992729
:1032F00087FD909570E00E947B20CB0162E070E03A
:103300000E947B209E8D899F802D11249B81890F97
:103310008B838B818A300CF089E087FD80E08B8382
:103320008C898F3309F41B82F894EA81F0E0EF581E
:10333000F84FE491E093E1032D8130E08B819927F0
:1033400087FD9095A901489F9001499F300D589F96
:10335000300D112488A590E0A901489F9001499F54
:10336000300D589F300D11248EA1992787FD90951F
:10337000AC01249FC001259F900D349F900D112416
:103380008093E2038093E3037894DF91CF910895D3
:1033900060E00E94E91808956091E203662381F1DC
:1033A0008091DF038F5F8093DF039091E1038917A2
:1033B00038F130E08091E003882309F431E0309364
:1033C000E0031092DF038091E4038823A9F0809149
:1033D000410123E4829FC0011124895B8093410154
:1033E00090E070E00E9467208093E30305C0809125
:1033F000E3038093B40008953323C9F780E0F9CF45
:1034000008951F920F920FB60F9211242F933F939E
:103410004F935F936F937F938F939F93AF93BF93DC
:10342000EF93FF930E94CC19FF91EF91BF91AF9161
:103430009F918F917F916F915F914F913F912F91CC
:103440000F900FBE0F901F90189569E677E040E04F
:103450000E942418089561E677E040E00E94241855
:1034600008956BE577E040E00E9424180895FC0180
:10347000862F668170E06F5F7F4F992787FD90955B
:103480000E947B20858308950F93FC0181E0848353
:1034900084E080A78CEA97E0908B8787CF0161E07A
:1034A00040E020E000E00E94821783E061E070E0ED
:1034B0000E947D1BE1EBF0E08081887F816080834A
:1034C000F89410928000E1E8F0E0108210928500FC
:1034D0001092840088E191E09093890080938800A5
:1034E000808188608083808181608083EFE6F0E066
:1034F00080818260808378940F9108951F920F924B
:103500000FB60F9211242F933F938F939F93AF93F6
:10351000BF938091E9039091EA03A091EB03B091EE
:10352000EC033091ED030196A11DB11D232F2D5FFA
:103530002D3720F02D570196A11DB11D2093ED03CD
:103540008093E9039093EA03A093EB03B093EC0319
:103550008091E5039091E603A091E703B091E80321
:103560000196A11DB11D8093E5039093E603A093FE
:10357000E703B093E803BF91AF919F918F913F9183
:103580002F910F900FBE0F901F9018958FB7F89442
:103590002091E9033091EA034091EB035091EC0351
:1035A0008FBFB901CA0108959FB7F8942091E50330
:1035B0003091E6034091E7035091E80386B5A89B5C
:1035C00006C08F3F21F02F5F3F4F4F4F5F4F9FBF90
:1035D000542F432F322F2227280F311D411D511DFB
:1035E00082E0220F331F441F551F8A95D1F7B9017E
:1035F000CA010895EF92FF920F931F93CF93DF9329
:103600007B018C010E94D41AEB010EC00E94D41AD7
:103610006C1B7D0B685E7340C8F30894E108F108E9
:1036200001091109C851DC4FE114F104010511052C
:1036300069F7DF91CF911F910F91FF90EF9008955F
:10364000789484B5826084BD84B5816084BD85B57D
:10365000826085BD85B5816085BDEEE6F0E0808144
:1036600081608083E1E8F0E0108280818260808365
:10367000808181608083E0E8F0E0808181608083E8
:10368000E1EBF0E0808184608083E0EBF0E080811A
:1036900081608083EAE7F0E08081846080838081BC
:1036A0008260808380818160808380818068808364
:1036B0001092C1000895982F8E3008F09E50977098
:1036C000809142018295880F880F807C892B80939E
:1036D0007C0080917A00806480937A0080917A00E7
:1036E00086FDFCCF2091780040917900942F80E0F6
:1036F00030E0282B392BC90108951F93CF93DF9316
:10370000182FEB0161E00E94DD1B209709F44AC0ED
:10371000CF3FD10509F449C0E12FF0E0E250F84F66
:1037200084918330C1F0843028F4813051F08230AC
:10373000B1F50CC0863019F1873049F1843079F544
:1037400014C084B5806884BDC7BD33C084B58062B1
:1037500084BDC8BD2EC080918000806880938000A9
:10376000D0938900C093880024C08091800080623B
:1037700080938000D0938B00C0938A001AC0809100
:10378000B00080688093B000C093B30012C08091F5
:10379000B00080628093B000C093B4000AC0C0380B
:1037A000D1051CF4812F60E002C0812F61E00E94EE
:1037B000491CDF91CF911F910895CF93DF93482F3C
:1037C00050E0CA018651984FFC0134914A52584F3B
:1037D000FA018491882369F190E0880F991FFC0118
:1037E000E854F84FA591B491FC01EE53F84FC59100
:1037F000D491662351F42FB7F8948C91932F909520
:1038000089238C93888189230BC0623061F42FB7A0
:10381000F8948C91932F909589238C938881832B96
:1038200088832FBF06C09FB7F8948C91832B8C930D
:103830009FBFDF91CF910895833071F0843028F4D9
:103840008130A1F0823021F514C08630B1F087308C
:10385000D1F08430E9F404C0809180008F7703C0F8
:10386000809180008F7D80938000089584B58F774C
:1038700002C084B58F7D84BD08958091B0008F779C
:103880008093B00008958091B0008F7D8093B00048
:103890000895FF920F931F93F62E482F50E0CA0110
:1038A0008250984FFC012491CA018651984FFC0127
:1038B00014914A52584FFA0104910023C9F022236F
:1038C00019F0822F0E941C1CE02FF0E0EE0FFF1F6A
:1038D000EE53F84FA591B4919FB7F894FF2021F4CF
:1038E0008C911095812302C08C91812B8C939FBF6A
:1038F0001F910F91FF9008950F931F93482F50E051
:10390000CA018250984FFC012491CA018651984FF8
:10391000FC0104914A52584FFA011491112319F4F1
:1039200020E030E015C0222319F0822F0E941C1CD9
:10393000812F90E0880F991F8453984FFC01A59127
:10394000B4918C9120E030E0802311F021E030E050
:10395000C9011F910F910895CF93DF930E94201BFF
:103960000E94C407C0E0D0E00E94DD062097E1F38A
:103970000E940000F9CFCF92DF92EF92FF920F9357
:103980001F93CF93DF937C016B018A01C0E0D0E0ED
:103990000FC0D6016D916D01D701ED91FC910190A1
:1039A000F081E02DC7010995C80FD91F01501040C3
:1039B0000115110571F7CE01DF91CF911F910F9184
:1039C000FF90EF90DF90CF900895EF92FF920F93CA
:1039D0001F93CF93DF937C018B01C0E0D0E0F8010F
:1039E0000F5F1F4F6491662359F0D701ED91FC9151
:1039F0000190F081E02DC7010995C80FD91FEFCFC5
:103A0000CE01DF91CF911F910F91FF90EF9008951C
:103A1000DC01ED91FC910190F081E02D0995089574
:103A2000EF92FF920F931F938C01DC01ED91FC91BB
:103A30000190F081E02D6DE009957C01D801ED91B8
:103A4000FC910190F081E02DC8016AE009959C018C
:103A50002E0D3F1DC9011F910F91FF90EF9008950A
:103A6000EF92FF920F931F937C010E94E51C8C0143
:103A7000C7010E94101D9C01200F311FC9011F9119
:103A80000F91FF90EF900895CF93DF93EC016115B4
:103A9000710519F420E030E00FC0DB010D9000202B
:103AA000E9F71197A61BB70BE881F9810280F38132
:103AB000E02DAD0109959C01C901DF91CF910895D9
:103AC0004F925F927F928F929F92AF92BF92CF92CE
:103AD000DF92EF92FF920F931F93DF93CF93CDB7B7
:103AE000DEB7A1970FB6F894DEBF0FBECDBF2C0195
:103AF000742ECB01223008F42AE019A231E2C32E41
:103B0000D12CCC0EDD1E822E9924AA24BB24672D35
:103B1000752FA50194010E948E2079018A01C801A8
:103B2000B701A50194010E944820472D461B089427
:103B3000C108D1084A3014F4405D01C0495CF60167
:103B40004083E114F1040105110521F07E2C5F2D65
:103B5000C801DDCFC201B6010E94441DA1960FB677
:103B6000F894DEBF0FBECDBFCF91DF911F910F91B3
:103B7000FF90EF90DF90CF90BF90AF909F908F908D
:103B80007F905F904F900895DC012115310541F43D
:103B9000ED91FC910190F081E02D642F099508953D
:103BA0000E94601D0895EF92FF920F931F939A0158
:103BB0007B0100E010E0B801A7010E94C41D1F9125
:103BC0000F91FF90EF900895CF92DF92EF92FF92C6
:103BD0000F931F936C017B019A0100E010E0B80184
:103BE000A7010E94C41D8C01C6010E94101D080F70
:103BF000191FC8011F910F91FF90EF90DF90CF9098
:103C00000895EF92FF920F931F939A01E62EFF24DF
:103C100000E010E0B801A7010E94C41D1F910F91A0
:103C2000FF90EF900895CF92DF92EF92FF920F9363
:103C30001F936C01E62E9A01FF2400E010E0B8010A
:103C4000A7010E94C41D8C01C6010E94101D080F0F
:103C5000191FC8011F910F91FF90EF90DF90CF9037
:103C60000895CF92DF92EF92FF920F931F93CF931D
:103C7000DF93EC016A017B012115310541F4E881F4
:103C8000F9810190F081E02D642F09951FC02A3041
:103C90003105D1F477FF17C0E881F9810190F081F7
:103CA000E02D6DE209958C0144275527BA014C1986
:103CB0005D096E097F09CE012AE00E94601D98010E
:103CC000280F391F04C02AE00E94601D9C01C90111
:103CD000DF91CF911F910F91FF90EF90DF90CF90E8
:103CE0000895EF92FF920F931F937B019A01002793
:103CF000F7FC0095102FB801A7010E94311E1F91FB
:103D00000F91FF90EF9008950E94441D0895EF9247
:103D1000FF920F931F937C010E94441D8C01C701E9
:103D20000E94101D080F191FC8011F910F91FF90CD
:103D3000EF9008952F923F924F925F926F927F92F1
:103D40008F929F92AF92BF92CF92DF92EF92FF92AB
:103D50000F931F93DF93CF93CDB7DEB73B014C0199
:103D600019012A016D897E898F89988D6A197B09CD
:103D70008C099D09621A730A840A950AA4019301A9
:103D80000E944820E218F30804091509A8019701C8
:103D90000E94B0202A0D3B1D4C1D5D1DB901CA01BA
:103DA000CF91DF911F910F91FF90EF90DF90CF9017
:103DB000BF90AF909F908F907F906F905F904F904B
:103DC0003F902F900895EF92FF920F931F937B01E6
:103DD0008C01611571058105910529F420E030E021
:103DE00040E050E00BC00E942421A80197010E94EE
:103DF000B020AC01CB01DA019C01AD01B901CA01CF
:103E00001F910F91FF90EF900895EF92FF920F9303
:103E10001F937B018C01621773078407950764F475
:103E2000261B370B480B590BCA01B9010E94E31E30
:103E3000E60EF71E081F191FB701C8011F910F9149
:103E4000FF90EF900895009729F0BC0180E090E08A
:103E50000E942921089598D088F09F5790F0B92F9B
:103E60009927B751A0F0D1F0660F771F881F991FCF
:103E70001AF0BA95C9F712C0B13081F09FD0B1E005
:103E800008959CC0672F782F8827B85F39F0B93F15
:103E9000CCF3869577956795B395D9F73EF49095D1
:103EA0008095709561957F4F8F4F9F4F0895E8944F
:103EB00009C097FB3EF490958095709561957F4F72
:103EC0008F4F9F4F9923A9F0F92F96E9BB27939520
:103ED000F695879577956795B795F111F8CFFAF430
:103EE000BB0F11F460FF1BC06F5F7F4F8F4F9F4F61
:103EF00016C0882311F096E911C0772321F09EE8BF
:103F0000872F762F05C0662371F096E8862F70E024
:103F100060E02AF09A95660F771F881FDAF7880FFE
:103F20009695879597F9089597F99F6780E870E0CF
:103F300060E008959FEF80EC089500240A9416161F
:103F4000170618060906089500240A941216130687
:103F5000140605060895092E0394000C11F4882315
:103F600052F0BB0F40F4BF2B11F460FF04C06F5F31
:103F70007F4F8F4F9F4F089557FD9058440F551F07
:103F800059F05F3F71F04795880F97FB991F61F0DB
:103F90009F3F79F087950895121613061406551F52
:103FA000F2CF4695F1DF08C0161617061806991FBE
:103FB000F1CF86957105610508940895E894BB27B3
:103FC00066277727CB0197F908950BD0C4CFB5DFCB
:103FD00028F0BADF18F0952309F0A6CFABCF112453
:103FE000EECFCADFA0F3959FD1F3950F50E0551F98
:103FF000629FF001729FBB27F00DB11D639FAA273E
:10400000F00DB11DAA1F649F6627B00DA11D661F8C
:10401000829F2227B00DA11D621F739FB00DA11DAD
:10402000621F839FA00D611D221F749F3327A00D67
:10403000611D231F849F600D211D822F762F6A2F03
:1040400011249F5750408AF0E1F088234AF0EE0F88
:10405000FF1FBB1F661F771F881F91505040A9F795
:104060009E3F510570F060CFAACF5F3FECF3983EC2
:10407000DCF3869577956795B795F795E7959F5FFC
:10408000C1F7FE2B880F911D9695879597F9089596
:10409000629FD001739FF001829FE00DF11D649F2C
:1040A000E00DF11D929FF00D839FF00D749FF00DB8
:1040B000659FF00D9927729FB00DE11DF91F639F59
:1040C000B00DE11DF91FBD01CF0111240895AA1BF8
:1040D000BB1B51E107C0AA1FBB1FA617B70710F0F3
:1040E000A61BB70B881F991F5A95A9F78095909525
:1040F000BC01CD01089597FB092E07260AD077FD54
:1041000004D0E5DF06D000201AF4709561957F4F4A
:104110000895F6F7909581959F4F0895A1E21A2E84
:10412000AA1BBB1BFD010DC0AA1FBB1FEE1FFF1F5B
:10413000A217B307E407F50720F0A21BB30BE40BAB
:10414000F50B661F771F881F991F1A9469F76095F2
:104150007095809590959B01AC01BD01CF010895AC
:1041600097FB092E05260ED057FD04D0D7DF0AD0C5
:10417000001C38F450954095309521953F4F4F4F96
:104180005F4F0895F6F790958095709561957F4FF4
:104190008F4F9F4F0895EE0FFF1F0590F491E02D74
:1041A0000994A0E0B0E0E7EDF0E20C943A21EC01D4
:1041B000A880B980CA80DB80A114B104C104D104F5
:1041C00041F484E2A82E89EDB82E8BE5C82E87E055
:1041D000D82EC601B5012DE133EF41E050E00E9439
:1041E000B02027EA31E440E050E00E9448207B0103
:1041F0008C01C601B5012DE133EF41E050E00E9492
:10420000B020CA01B9012CEE34EF4FEF5FEF0E94EE
:1042100048206E0D7F1D801F911F97FF04C06150C5
:10422000704080409048688379838A839B839B0198
:10423000AC015F77B901CA01CDB7DEB7EAE00C94F3
:1042400056210E94D120089582E391E00E94D1205E
:1042500008956093320170933301809334019093F9
:10426000350108952F923F924F925F926F927F9205
:104270008F929F92AF92BF92CF92DF92EF92FF9276
:104280000F931F93CF93DF93CDB7DEB7CA1BDB0B22
:104290000FB6F894DEBF0FBECDBF09942A883988C7
:1042A00048885F846E847D848C849B84AA84B984CE
:1042B000C884DF80EE80FD800C811B81AA81B981DA
:1042C000CE0FD11D0FB6F894DEBF0FBECDBFED01EE
:0642D0000895F894FFCFF1
:1042D600596F752064696564210000596F75206CFB
:1042E6006976656420666F723A00206672616D6554
:1042F600732E0050726573732016004C4F4144456F
:104306005200010000001400240002000100010018
:0C43160001010100000000550FBB1C005D
:00000001FF
