:100000000C9447040C946F040C946F040C946F04CC
:100010000C946F040C946F040C946F040C946F0494
:100020000C946F040C946F040C946F040C94AE1A2F
:100030000C946F040C946F040C946F040C946F0474
:100040000C94211B0C946F040C946F040C946F049B
:100050000C946F040C946F040C946F040C946F0454
:100060000C946F040C946F0420436F6E6E65637480
:10007000696E672E2E2E0050726573732016000075
:100080002F3400426174746572793A002020202078
:100090004C6F6164696E672E2E2E2E00C400BC006A
:1000A000B000A4004368616E67652047616D65001C
:1000B0004D756C7469706C61796572004F7074690C
:1000C0006F6E7300537572766976616C0008063C3A
:1000D0007E7E7E7E3C0804FFFFFFFF58300000005C
:1000E0000000000000000000000000000000000010
:1000F0000000000000000000000000000000000000
:1001000000000000000000000000000000000000EF
:1001100000000000000000000000000000000000DF
:1001200000000000000000000000000000000000CF
:1001300000000000000000000000000000000000BF
:1001400000000000000000000000000000000000AF
:10015000000000000000000000000000000000009F
:10016000000000000000000000000000000000008F
:10017000000000000000000000000000000000007F
:10018000000000000000000000000000000000006F
:10019000000000000000000000000000000000005F
:1001A000000000000000000000000000000000004F
:1001B00000000000000000000072221C88088B80F4
:1001C000E78439108B65228814CA41144A4510828D
:1001D000A8A08822AA210451411072A89CF8229A52
:1001E00021079139F00A2F82883E8A21051F0510C8
:1001F0008A28A288228A411491451072289C88225C
:100200008B80E45139100000000000000000000065
:1002100000000000000000000000000000000000DE
:1002200000000000000000000000000000000000CE
:1002300000000000000000000000000000000000BE
:1002400000000000000000000000000000000000AE
:100250000000000003CF3E71C00511400000000205
:1002600028A08A200529400000000228A082000062
:10027000440000000003CF3C71C0004400000000B7
:10028000020A200820007C000000000209208A20C9
:100290000044000000000208BE71C00044000000DD
:1002A0000000000000000000007FF00000000000DF
:1002B0000000000080000000000000000000013588
:1002C0005000000000000000000246500000000046
:1002D00000000000042420000000000000000008CE
:1002E000162000000000000000001065200808FC37
:1002F000CEC7FFFFC786FC0808183C246642C381AE
:100300007E1804000000FFFFFFFFFFFFFFFFFF5804
:10031000040000000000000000000000FFFFFFFFDD
:10032000FFFFFFFFFFFFFFFFFFFFFFFFFFFFFFFFDD
:10033000FFFFFFFFFFFFFFFFFFFFFFFFFF08083C7E
:100340006A6A6A3C24240003053F213F1208120A0E
:10035000100A0E1C0E0C1E0C141A14161F161E1357
:100360001E1E1B1E1E1F1E3F213F3A2F3A173D1710
:100370003F213F181F02040A041F0E04040E1F0A27
:100380001F0A0E0E1F04110E2E252E2F2A2E26298F
:1003900029021F02081F08150E04040E150E15155C
:1003A0001B151B040604040C0400000000170003C6
:1003B00000031F0A1F16371A1904130A153A0003FF
:1003C00000000E11110E000A040A040E0400300091
:1003D0000404040010001804031F111F121F101D35
:1003E000151711151F07041F17151D1F151D0101D6
:1003F0001F1F151F17151F000A00003200040A11E5
:100400000A0A0A110A040115020E11171E051E1F01
:10041000150A0E110A1F110E1F15111F05010E11CD
:100420001D1F041F111F1108100F1F041B1F101088
:100430001F061F1E040F0E110E1F09060E112E1F80
:10044000051A121509011F011F101F0F180F1F0C8D
:100450001F1B041B031C03191513001F1103041891
:10046000111F000201022020200001020C121E1F99
:10047000120C0C12120C121F0C1A14041E05242A42
:100480001E1F021C141D1020201D1F0814111F10F8
:100490001E041E1E021C0C120C3E0A040C123E1EF0
:1004A000040214160A020F120E101E0E100E1E0861
:1004B0001E120C1226281E322A26041E21001F009E
:1004C000211E040102013F213F05077F4141417F79
:1004D0003E5B4F5B3E3E6B4F6B3E183C783C1818C2
:1004E0003C7E3C181C577D571C1C5E7F5E1C007EAA
:1004F00043437E007E73737E007E7F7F7E7F41411B
:10050000417F30483A060E06297929067F4141414C
:100510007F60703F02042A1C361C2A7F3E1C0800A4
:1005200000081C3E7F14227F22143C3C3C7EFF18B6
:10053000423C817E3E6375633E3E616B633E3E633B
:100540006B6B3E04027F020410207F201008082AF3
:100550001C08081C2A0808143E5541226375697559
:100560006310181C1810040C1C0C04000000000080
:1005700000005F00000007000700147F147F1404D0
:100580002A7F2A1023130864623649562050000837
:10059000070300001C2241000041221C002A1C3ECF
:1005A0001C2A08083E080800E06000000808080847
:1005B00008006060000060100804033E5149453E99
:1005C00000427F400062514949462141494D33185C
:1005D00014127F1027454545393C4A49493041218D
:1005E0001109073649494936064949291E000024A0
:1005F0000000008064000008142241001414141448
:1006000014004122140802015909063E415D594E69
:100610007C1211127C7F494949363E414141227F7B
:100620004141221C7F494949417F090909013E4155
:100630004151327F0808087F00417F41002041413D
:100640003F017F081422417F404040407F020C025E
:100650007F7F0204087F3E4141413E7F0909090630
:100660003E416141BE7F0919294626494949320167
:10067000017F01013F4040403F1F2040201F3F407D
:1006800038403F631408146303047804036151493C
:100690004543007F41410003040810600041417F51
:1006A00000040201020480808080800003070800AB
:1006B00020545478407F28444438384444442838EF
:1006C0004444287F3854545418087E09090218A459
:1006D000A49C787F0804047800447D40000060807A
:1006E000847D7F1010284400417F40007C04780402
:1006F000787C080404783844444438FC18242418CE
:1007000018242418FC7C08040408085454542004B9
:100710003F4444203C4040207C1C2040201C3C4066
:1007200020403C44281028444C9090907C446454D1
:100730004C44000836410000007F000000413608AC
:1007400000180408100C7F4141417F0A4E6F20536E
:10075000442063617264206F720A6E6F204C4F41B7
:100760004445522E4845580A0A153A45786974009E
:100770001D20466C617368696E670A20206C6F618A
:100780006465722E2E2E0A0A444F4E27542054556B
:10079000524E204F464621000A0A153A49676E6FAD
:1007A0007265006D560A0A504C4541534520545518
:1007B000524E204F464620004C4F57204241545441
:1007C0004552592120000500893008023802497835
:1007D00068140000F6E8DBCFC3B8AEA49B928A820F
:1007E0007B746E68625C57524E4945413E3A3734DD
:1007F000312E2C29272523211F1D1C1A19171615E8
:1008000014131211100F0E0D0C0B0A0908070645E0
:10081000006801000005006801380100000500388B
:1008200001680100002D0829080101FF030101F7FB
:10083000030000000800020100000304070000009C
:1008400000000000000102040810204080010204A2
:100850000810200102040810200404040404040405
:100860000402020202020203030303030300000066
:100870000023002600290000000000250028002B8E
:100880000000000000240027002A00000D0A1124A7
:100890001FBECFEFD8E0DEBFCDBF11E0A0E0B1E0DA
:1008A000E8EBF3E402C005900D92A437B107D9F745
:1008B00024E0A4E7B1E001C01D92A232B207E1F743
:1008C00018E0CEE8D8E004C02297FE010E94622121
:1008D000CC38D107C9F70E943B1D0C94DA210C9447
:1008E00000008BE891E00E94F1138823D1F32BEDF7
:1008F00030E040E060E089ED91E00E94890E64E024
:1009000085E991E00E94760B882339F080EB91E035
:100910000E94D21A1092A301089561E085E991E046
:100920000E94760B882349F061E080EB91E00E9401
:10093000141B80EB91E00E94D21A63E085E991E0FC
:100940000E94760B882349F080EB91E00E94E81A20
:1009500060E080EB91E00E94141B66E085E991E085
:100960000E94760B882309F4BCCF8BE891E00E94AB
:10097000FD15B7CF8BE891E00E94B71669EC74E0E3
:1009800089ED91E00E94D5100E9471041092A3019C
:100990001092DF0108952F923F924F925F926F92D3
:1009A0007F928F929F92AF92BF92CF92DF92EF92FF
:1009B000FF920F931F93CF93DF93F2E52F2E312CED
:1009C00044244A94542CC1E0D0E0B7E1AB2EB12CC2
:1009D00017E2812E912C07EF602E77247A948BE812
:1009E00091E00E94F1138823D1F380910A018823BA
:1009F00009F4EAC2809186018111E6C260910D017D
:100A000070910E016F5F7F4F70930E0160930D0127
:100A10004AE050E089ED91E00E94871E409112016A
:100A2000509113018091870190918801480F591FBF
:100A30005093130140931201E090890100E02DE3EF
:100A400033E06091140189ED91E00E94E80F2FE0FE
:100A500033E04CE260E089ED91E00E94890E21E0F4
:100A600033E04CE164E189ED91E00E94890E42E0BF
:100A700060E085E991E00E947F0B882341F080913E
:100A8000140190911501181619060CF45EC342E08A
:100A900062E085E991E00E947F0B882341F080911C
:100AA0001401909115018C3491050CF458C342E067
:100AB00060E085E991E00E947F0B882379F08091C6
:100AC0001401909115011816190644F441E065E0EF
:100AD00085E991E00E947F0B81114BC342E062E007
:100AE00085E991E00E947F0B882379F080911401C1
:100AF000909115018C34910544F441E065E085E95D
:100B000091E00E947F0B811142C344E164E085E9DA
:100B100091E00E947F0B882321F080910F018111C9
:100B200044C344E166E085E991E00E947F0B88239D
:100B300019F081E08093860120918001309181013C
:100B400080910D0190910E0128173907E1F48BE88F
:100B500091E00E948B1229E030E040E050E061E03B
:100B600070E080E090E00E94E51E70937F0160934A
:100B70007E01809180019091810188539F4F9093D5
:100B800081018093800180917E0190917F01019786
:100B90000397D8F427EF32E04091820160918401FD
:100BA00089ED91E00E94890E8091820190918301EC
:100BB0000196909383018093820110927D0110929F
:100BC0007C01109279011092780180917E019091C0
:100BD0007F010497039740F52DEE32E040917A01B2
:100BE00060917C0189ED91E00E94890E60917C0109
:100BF00070917D01882777FD8095982F0E94E11FD5
:100C000020E030E040EC5FE30E944A1F0E94AE1FEC
:100C100070937D0160937C01109283011092820198
:100C2000109279011092780180917E0190917F015C
:100C30000797039790F42DEC30E040917601609196
:100C4000780189ED91E00E94890E10927D01109249
:100C50007C01109283011092820140911201509107
:100C6000130160911401709115013FE0C32E33E030
:100C7000D32EECE2EE2EF12C00E010E02DE333E079
:100C80008BE891E00E944317882329F0909213018A
:100C9000809212011DC04091120150911301609188
:100CA00014017091150191E0C92E93E0D92E2CE129
:100CB000E22EF12C04E110E02DE333E08BE891E02B
:100CC0000E944317882361F0B0921301A092120191
:100CD000109288011092870181E080930F010BC070
:100CE000809187019091880101969093880180936B
:100CF000870110920F01E0908201F0908301009132
:100D0000840110918501409112015091130160916D
:100D100014017091150187EFC82E82E0D82E2DE3C3
:100D200033E08BE891E00E944317882341F08091E3
:100D30007E0190917F010197039708F448C240918A
:100D400082015091830160918401709185011FE0BF
:100D5000C12E13E0D12E0CE2E02EF12C00E010E0C9
:100D600027EF32E08BE891E00E944317811132C2F5
:100D700040918201509183016091840170918501BD
:100D8000A1E0CA2EA3E0DA2EBCE1EB2EF12C04E1A7
:100D900010E027EF32E08BE891E00E9443178111C9
:100DA00019C2E0907A01F0907B0100917C011091D2
:100DB0007D014091120150911301609114017091D5
:100DC0001501FDEECF2EF2E0DF2E2DE333E08BE8B0
:100DD00091E00E944317882341F080917E01909119
:100DE0007F010497039708F412C240917A01509151
:100DF0007B0160917C0170917D013FE0C32E33E067
:100E0000D32EECE2EE2EF12C00E010E02DEE32E0DD
:100E10008BE891E00E9443178111FCC140917A0157
:100E200050917B0160917C0170917D0191E0C92E10
:100E300093E0D92E2CE1E22EF12C04E110E02DEE0E
:100E400032E08BE891E00E9443178111E3C1809169
:100E50007C0190917D018035910594F010927D0187
:100E600010927C0128E230E040E050E064E170E064
:100E700080E090E00E94E51E70937B0160937A0110
:100E8000E0907601F090770100917801109179015E
:100E9000409112015091130160911401709115015C
:100EA0008DECC82E80E0D82E2DE333E08BE891E066
:100EB0000E944317882341F080917E0190917F0129
:100EC0000797039708F4B9C1809176019091770153
:100ED000181619062CF0D0930C01C0930B0106C014
:100EE0008A9724F050920C0140920B018091780176
:100EF0009091790101978235910548F12AE230E01D
:100F000040E050E060E070E0CB010E94E51E70938D
:100F100077016093760121E030E040E050E060E04E
:100F200070E0CB010E94E51E70937501609374011F
:100F30006115710529F4309279012092780107C07A
:100F40006130710521F4709379016093780180918B
:100F5000740190917501009789F460917801709106
:100F60007901882777FD8095982F0E94E11F20E066
:100F700030E040EC5FE30E94491F12C0019721F569
:100F80006091780170917901882777FD8095982F7D
:100F90000E94E11F20E030E040EC5FE30E944A1F26
:100FA0000E94AE1F70937901609378018091760161
:100FB0009091770120910B0130910C01820F931FCA
:100FC000909377018093760180910A01882309F438
:100FD0005CC080918601882309F457C069EC74E0F5
:100FE00089ED91E00E94D51088E18093E20184E0D0
:100FF0008093E30100E324E540E060E089ED91E0C7
:101000000E94B90C68E171E089ED91E00E94CA1D6F
:1010100088E08093E2016FE171E089ED91E00E9448
:10102000CA1D8CE08093E20160910D0170910E0168
:101030004AE050E089ED91E00E947F1E61E271E09C
:1010400089ED91E00E94CA1D88E08093E2016FE182
:1010500071E089ED91E00E94CA1D88E08093E20171
:1010600069E271E089ED91E00E94CA1D65E085E9C1
:1010700091E00E94760B882341F067E473E089EDEC
:1010800091E00E94D5101092860180910A01811191
:10109000A6CC1092E2011092E30165E371E089EDC4
:1010A00091E00E94CA1D67E671E089ED91E00E941F
:1010B000CA1D6FE371E089ED91E00E94CA1D609145
:1010C0000D0170910E014AE050E089ED91E00E941F
:1010D0007F1E65E471E089ED91E00E94CA1D67E61C
:1010E00071E089ED91E00E94CA1D6EE471E089ED26
:1010F00091E00E94CA1D65E085E991E00E94760BAF
:10110000882309F46CCC80EB91E00E94E81A8FEF01
:101110009FEF90930E0180930D0169EC74E089EDCF
:1011200091E0DF91CF911F910F91FF90EF90DF90B1
:10113000CF90BF90AF909F908F907F906F905F9077
:101140004F903F902F900C94D510029790931501DB
:1011500080931401D0938A01C093890198CC0296A0
:10116000909315018093140110928A0110928901C5
:101170009ECC8091140190911501049790931501D4
:1011800080931401D0938A01C0938901A7CC8091E8
:101190001401909115010496909315018093140108
:1011A00010928A0110928901B0CC80EB91E00E94EC
:1011B000D21A80911201909113010197909313011B
:1011C000809312017092880160928701AACC1092DC
:1011D0000A01B5CD409182014C5F25ED30E0609170
:1011E000840189ED91E00E94890E10928301109292
:1011F00082012CE430E040E050E060E070E0CB01A0
:101200000E94E51E7093850160938401CACD1092FF
:101210000A01EBCD10927D0110927C0128E230E0B2
:1012200040E050E064E170E080E090E00E94E51E64
:1012300070937B0160937A010ACE10920A0144CE2A
:10124000CF931092A30144E06CE970E08BE891E049
:101250000E94AB14813009F495C00CF085C08F3F1B
:1012600009F48DC08111D7C06CE870E089ED91E080
:101270000E94881D8BE891E00E948B1284E190E02F
:1012800090931501809314019093130180931201A0
:1012900010928A011092890181E090E090931101EF
:1012A00080931001909388018093870110928301AD
:1012B000109282012CE430E040E050E060E070E009
:1012C000CB010E94E51E709385016093840110920A
:1012D00081011092800110927F0110927E01109284
:1012E0007D0110927C0128E230E040E050E064E1B2
:1012F00070E080E090E00E94E51E70937B016093B7
:101300007A0110927901109278012AE230E040E0EF
:1013100050E066E070E080E090E00E94E51E70938F
:1013200077016093760121E030E040E050E060E03A
:1013300070E0CB010E94E51E70937501609374010B
:101340008FEF9FEF90930C0180930B0181E08093CE
:101350000A011092860167E473E089ED91E00E9432
:10136000D510CF910C94CB04823009F447C0833060
:1013700009F051C08BE891E0CF910C94FD15CF910D
:101380000C947104C1E08BE891E00E94F113882372
:10139000D1F365E085E991E00E94760B882339F06E
:1013A00080EB91E00E94E81A1092A30134C01092E1
:1013B000E2011092E30163E870E089ED91E00E94A0
:1013C000881D4AE050E06091A40189ED91E00E94FF
:1013D000AC1E60E870E089ED91E00E94B81D6FE7F7
:1013E00070E089ED91E00E94B81D67E770E089ED3B
:1013F00091E00E94B81DC093A301C5CF68E670E0DC
:1014000089ED91E00E94881D64E670E080E090E044
:10141000CF910C949A1BCF9108951092DC011092F9
:10142000DB018AE591E09093DA018093D9012CE405
:1014300030E040E050E060E070E0CB010E94E51E4B
:10144000709385016093840128E230E040E050E031
:1014500064E170E080E090E00E94E51E70937B0103
:1014600060937A012AE230E040E050E066E070E00C
:1014700080E090E00E94E51E709377016093760112
:1014800021E030E040E050E060E070E0CB010E94FD
:10149000E51E70937501609374010895CF93CFB7E3
:1014A000F89480911202811127C0E3E6F8E084915C
:1014B000EFE4F8E09491E82FF0E0EE0FFF1FEF5714
:1014C000F74FA591B4918C91892321F461E08AE0D2
:1014D0000E94DB1C61E08AE00E94A21C8CB5806146
:1014E0008CBD8CB580648CBD61E08DE00E94A21C37
:1014F00061E08BE00E94A21C809112028F5F8093BA
:101500001202CFBFCF91089521E0FC0120830895FE
:1015100070E085E00C941A1CAF92BF92CF92DF92DC
:10152000EF92FF920F931F93CF93DF93EC0189818A
:101530009A812FE0289F8001299F100D112485E1B9
:101540000E94FD1B800F911F24E0969587952A9598
:10155000E1F79A8389832881222391F1AC81AD80C0
:10156000B12CC12CD12CE885F9857F0100E010E079
:101570006E817F819B0140E050E08617970728F03D
:10158000BC01E817F90708F4BF0180E090E01F9262
:101590001F921F92AF930E94011F6B830F900F90B9
:1015A0000F900F9070E085E0DF91CF911F910F9128
:1015B000FF90EF90DF90CF90BF90AF900C941A1CEB
:1015C000DF91CF911F910F91FF90EF90DF90CF901F
:1015D000BF90AF900895FC018CE39FE093838283DA
:1015E00084E0818381E084870895CF93DF93EC01C9
:1015F0008C819D81892B81F18C858F7151F584E1DE
:101600000E94FD1BBC01882777FD8095982F0E94C2
:10161000E11F26EE3FE34EEC50E40E946D200E9455
:10162000B31F9B017B836A836115710581F084E0A0
:101630008983FE0140E0848195812817390710F4E1
:1016400049830AC04F5F32964430A9F702C08FEF3A
:1016500089838C858F5F8C87DF91CF910895FC0102
:1016600088E0808389E0818387E0828386E08383CA
:1016700084E0848382E0858381E186830895DF921C
:10168000EF92FF920F931F93CF93DF937C01EC01B6
:1016900000E010E0DD24DA9462E088810E94A21C60
:1016A00088810E94111DF701E00FF11F892B21F4A1
:1016B00087818F5F878308C08781882349F08F3FA8
:1016C00011F4178201C0D78260E088810E94A21CB9
:1016D0000F5F1F4F219607301105F1F6DF91CF9173
:1016E0001F910F91FF90EF90DF900895FC01E60F9E
:1016F000F11D81E09781913009F080E00895262F57
:1017000030E0FC01E20FF31F8781423028F4815062
:101710008E3F48F080E008958F3FE1F3642F0E94F0
:10172000E0209130B9F781E008958EBD00000DB43E
:1017300007FEFDCF8EB50895DC01643508F053C077
:10174000403308F050C090968C919097342F359587
:1017500035953595E62FFF27E7FDF095242F277067
:10176000823099F4DF01AD5EBD4F84E53802A00DF3
:10177000B11D11248C9190E0022E02C095958795A1
:101780000A94E2F78095817009C0833039F44627C6
:101790001C968C91482740FF03C014C0811112C0D1
:1017A00084E53802E00DF11D1124ED5EFD4F81E06E
:1017B00090E0022E01C0880F0A94EAF7809590818C
:1017C000982310C084E53802E00DF11D1124ED5E70
:1017D000FD4F81E090E0022E01C0880F0A94EAF7E5
:1017E0009081982B908308951F93CF93DF93EC0102
:1017F000162FF89460E08F850E94DB1C88891816EC
:101800001CF460E00E94DB1C812F0E94950B8889EC
:1018100018161CF461E00E94DB1C7894DF91CF91D4
:101820001F91089528EF31E0E3E1F2E0DF01A90123
:101830001D9241505040E1F7DC0119961C92199716
:101840001A961C920895DF92EF92FF920F931F93C6
:10185000CF93DF93EC018C858F5F8C8783E1E82E3B
:1018600082E0F82ED12C6D2D6064CE010E94F40B25
:1018700060E8CE010E94F40B61E08F850E94DB1CC2
:10188000888918161CF460E00E94DB1C00E010E060
:10189000F701E00FF11F80810E94950B0F5F1F4F32
:1018A00004351105A9F7888918161CF461E00E9417
:1018B000DB1CD39484E5E80EF11C86E0D812D3CF6C
:1018C00060E4CE01DF91CF911F910F91FF90EF90D7
:1018D000DF900C94F40BFC0160A361A30895FC015C
:1018E00060A341A30895CF92DF92FF920F931F93BD
:1018F000CF93DF931F92CDB7DEB76C01062FF42E86
:1019000010E0121754F4412F4F0D602FC6012983A8
:101910000E949C0B1F5F2981F4CF0F90DF91CF9124
:101920001F910F91FF90DF90CF900895CF92DF929B
:10193000FF920F931F93CF93DF931F92CDB7DEB724
:101940006C01062FF42E10E0121754F4612F600F73
:101950004F2DC60129830E949C0B1F5F2981F4CF64
:101960000F90DF91CF911F910F91FF90DF90CF905B
:101970000895EF92FF920F931F93CF93DF93EC01A3
:10198000F62E142FE22E0E94960C4FEF400F410FBF
:101990002E2D6F2DCE010E94960C202F412F6F2DE2
:1019A000CE010E94730C6FEF6E0D6F0D202F412F33
:1019B000CE01DF91CF911F910F91FF90EF900C948A
:1019C000730CDF92EF92FF920F931F93CF93DF93ED
:1019D000EC01E62ED22EF42E112707FD1095040FF0
:1019E000111D47FD1A958F2D992787FD909580171A
:1019F000910744F42D2D4F2D6E2DCE010E94960C93
:101A0000F394F1CFDF91CF911F910F91FF90EF9061
:101A1000DF9008958F929F92AF92BF92CF92DF9204
:101A2000EF92FF920F931F93CF93DF93EC01E62E7B
:101A3000D42E122FCC24C394C21AB22EB194BB0C54
:101A4000F12C802F8470A82E802F8270982E802FEA
:101A50008870882E0170F1160CF04DC0C7FC04C0D0
:101A60001150B394B394CB0CF3948F2D880F8F5FE8
:101A7000C80EAA2071F0412F4D0D6F2D6E0DCE01B5
:101A80000E949C0B4F2D4D0D612F6E0DCE010E94BB
:101A90009C0B992071F04D2D411B6F2D6E0DCE01C9
:101AA0000E949C0B4D2D4F19612F6E0DCE010E948F
:101AB0009C0B882071F04F2D4D0D6E2D611BCE01BA
:101AC0000E949C0B412F4D0D6E2D6F19CE010E946F
:101AD0009C0B002309F4BFCF4D2D4F196E2D611BB8
:101AE000CE010E949C0B4D2D411B6E2D6F19CE0116
:101AF0000E949C0BB0CFDF91CF911F910F91FF906F
:101B0000EF90DF90CF90BF90AF909F908F9008950F
:101B10008F929F92AF92BF92CF92DF92EF92FF92FD
:101B20000F931F93CF93DF93EC01B62EA42E122FA9
:101B3000DD24D394D21AC22EC194CC0CFF24F3948A
:101B4000802F8170882E992493949E0C02708FEFC1
:101B50008F0D8117C4F5D7FC04C01150C394C394F2
:101B6000DC0C8F2D880F8F5FD80E882099F0212FE5
:101B7000220F290D4A2D411B6F2D6B0DCE010E94A6
:101B8000730C23E02E0D4A2D4F19612F6B0DCE01E2
:101B90000E94730C002399F0212F220F290D4A2D4A
:101BA000411B6B2D6F19CE010E94730C23E02E0D8B
:101BB0004A2D4F196B2D611BCE010E94730CF394BB
:101BC000E394E394C4CFDF91CF911F910F91FF90E5
:101BD000EF90DF90CF90BF90AF909F908F9008953F
:101BE0009F92AF92BF92CF92DF92EF92FF920F93AC
:101BF0001F93CF93DF93EC01B62EF42EA22EDE2C92
:101C0000D194DD0C9D2C920E1E2D160F292D612FC7
:101C10000E94960CCC24CA94C00ECF0C292D4C2DBA
:101C2000612FCE010E94960CD00EFE0C2D2D4F2D53
:101C30006B2DCE010E94730CBA0C6FEF6B0D2D2D26
:101C40004F2DCE010E94730C01E02E2D4F2D612FE0
:101C5000CE010E940A0DDE2CD094DB0C02E02E2D6A
:101C60004F2D6D2DCE010E940A0DCE1804E02E2DB1
:101C70004C2D6D2DCE010E940A0D08E02E2D4C2D0D
:101C8000612FCE010E940A0DDF91CF911F910F911C
:101C9000FF90EF90DF90CF90BF90AF909F9008950E
:101CA000AF92BF92CF92DF92EF92FF920F931F936A
:101CB000CF93DF93EC01A62EC42EB22EF02E1E2D54
:101CC000E194EE0CD12ED60E2E2D2B0D6D2D0E94F3
:101CD000E10CFA94FE0CC10E6FEF6A0D6B0D611BE7
:101CE000EF2C01E0212F4C2DCE010E94880D02E047
:101CF000212F4C2D6D2DCE010E94880DDF91CF91AB
:101D00001F910F91FF90EF90DF90CF90BF90AF9019
:101D100008956F927F928F929F92AF92BF92CF92CF
:101D2000DF92EF92FF920F931F93CF93DF93F9010E
:101D3000A49031965491FC01F0A064350CF00CC1D4
:101D4000BB24A7FCB094A62FBB27A7FDB095FD012F
:101D5000EA0DFB1D1E161F060CF0FEC040330CF0F2
:101D6000FBC0C52E042F112707FD1095E801C50FF4
:101D7000D11D57FDDA951C161D060CF0EDC0E901CA
:101D800022969501295F3F4F37FF02C0295F3F4FE1
:101D900073E0359527957A95E1F747FF0AC0C52E80
:101DA000C40E209FA001219F500D1124C41BD50BF0
:101DB00040E00C2D112707FD1095040F111D47FD64
:101DC0001A95013311051CF070E3C72EC41A67FD84
:101DD00060E0E535F10514F0E4E5F0E01E2FFC01CC
:101DE00074857427862F992787FD9095FC01EA1B3F
:101DF000FB0BDF015F01F7E0AF22BB24E0E8F0E07E
:101E000002C0F595E795AA94E2F70E2FB7FD179655
:101E100053E0B595A7955A95E1F7AC0FBD1FE42F98
:101E2000E77051E001C0550FEA95EAF745954595F1
:101E30004595E4E54E02800D911D11248D5E9D4F68
:101E400040E0DD24C7FCD094BB24B3943327E42FB7
:101E5000F0E0EC15FD050CF07FC0FD01E490F1E031
:101E6000FF1219C0EC01A02EFD01862E881A9C2EAF
:101E7000980C911608F067C09E2C9A2019F0988053
:101E8000952A9882A69429F43196E4906894AA241D
:101E9000A7F82196ECCFF1101BC0752E7094EC01C1
:101EA000A02EFD01862E881A9C2E980C911608F003
:101EB0004AC09E2C9A2019F0988097209882A69468
:101EC00029F43196E4906894AA24A7F82196ECCFDF
:101ED000E3E0FE1631F0EC01A02EFD01862E881AFB
:101EE0002EC0752E7094962EEC01A02EFD01911639
:101EF000B0F48E2C8A2049F08880692C672660FE19
:101F000002C0852A01C087208882A69429F43196D0
:101F1000E4906894AA24A7F893942196E8CF7B25AF
:101F200012C09E2C9A2019F0988095269882A6942B
:101F300029F43196E4906894AA24A7F821969C2E5F
:101F4000980C911670F3550F19F48C5A9F4F51E06D
:101F50004F5FA20FB31F7BCFDF91CF911F910F91E6
:101F6000FF90EF90DF90CF90BF90AF909F908F90B9
:101F70007F906F900895FB01A491842F90E0E3E09F
:101F800095958795EA95E1F70296B0E01796F3E00C
:101F9000B595A795FA95E1F72A9FF0012B9FF00DD3
:101FA00011248E0F9F1F860F971FFC018491282FED
:101FB00030E0477080E890E002C0959587954A959B
:101FC000E2F72823392381E0232B09F480E00895E8
:101FD0002F923F924F925F926F927F928F929F9239
:101FE000AF92BF92CF92DF92EF92FF920F931F9327
:101FF000CF93DF93CDB7DEB72A970FB6F894DEBF45
:102000000FBECDBF6C01262E542F01111CC0E11054
:102010001AC02A960FB6F894DEBF0FBECDBFDF916F
:10202000CF911F910F91FF90EF90DF90CF90BF90D5
:10203000AF909F908F907F906F905F904F903F9068
:102040002F900C94890EF901849131963490B90146
:102050006E5F7F4F7A836983A82EB12C9501295F2B
:102060003F4FB3E035952795BA95E1F73A87298731
:1020700003702FEF280F522E10E07FEF730D832D8A
:1020800090E09C838B83812F992787FD90958A15FB
:102090009B050CF071C0812F17FF02C087E0810FF4
:1020A000682E659465946594812F877887FF03C0B7
:1020B0008150886F8F5FA0E88A2E912C02C0959482
:1020C00087948A95E2F7472EF12C772467FC709469
:1020D0008F2D992787FD9095EB81FC818E179F07A7
:1020E0000CF047C0A985BA858A9FF0018B9FF00D3F
:1020F0009A9FF00D1124E60DF71D89819A81E80F52
:10210000F91FE491F0E0E821F921EF2B79F1023099
:1021100039F0033041F0013049F4452D6F2D08C0EE
:10212000652D442D05C0642D412F02C04F2D612F18
:10213000EE2069F03E2D3370E0FE03C0922F961B17
:10214000692FE1FE05C0A32DA41B4A2F01C030E07A
:10215000620D450FC6012E833D835F8378870E9401
:102160009C0B3D81E32E78855F812E81F3944A9408
:10217000AFCF1F5F5A9487CF2A960FB6F894DEBF71
:102180000FBECDBFDF91CF911F910F91FF90EF90C8
:10219000DF90CF90BF90AF909F908F907F906F9087
:1021A0005F904F903F902F900895DC01FB01849148
:1021B0008F5F14968C9314973196E491EF5F159688
:1021C000EC9315976E5F7F4F5F967C936E935E974F
:1021D0000895EF920F93CF93DF93EC014E876D87B5
:1021E0002F87E98A088B81E0888788A319A28F83CB
:1021F00067E473E0CE010E94D5100E944E0A8CB5B0
:102200008F7D8CBD8CB58C7F81608CBD8DB58160E0
:102210008DBD8CB58C608CBD61E08E850E94A21C4A
:1022200061E08D850E94A21C61E08F850E94A21C46
:10223000898918161CF461E00E94A21C888918166E
:102240001CF461E00E94A21C898918166CF460E0FD
:102250000E94DB1C6AE070E080E090E00E949A1B24
:1022600061E089890E94DB1C8D85992787FD909507
:10227000FC01E75AF74FE491F0E0EE0FFF1FE95839
:10228000F74F259134913D8B2C8BFC01EB5BF74F85
:1022900084918B8F8E85992787FD9095FC01E75A55
:1022A000F74FE491F0E0EE0FFF1FE958F74F25914B
:1022B00034913B8B2A8BFC01EB5BF74F84918A8F27
:1022C0008889992787FD9095FC01E75AF74FE4919B
:1022D000F0E0EE0FFF1FE958F74F259134913F8B47
:1022E0002E8BFC01EB5BF74F84918C8F8F859927A8
:1022F00087FD9095FC01E75AF74FE491F0E0EE0F6F
:10230000FF1FE958F74F25913491398F288FFC0131
:10231000EB5BF74F84918D8F61E2CE010E94F40B4D
:1023200064E1CE010E94F40B8B8587FF02C08FE72A
:102330008B876B856068CE010E94F40B60E2CE0152
:102340000E94F40B6CE0CE010E94F40BCE01DF91F1
:10235000CF910F91EF900C94230C6F927F928F92FC
:102360009F92AF92BF92CF92DF92EF92FF920F9324
:102370001F93CF93DF93EC01162FF42EB02EE8A01D
:1023800064350CF081C08FE284170CF47DC0EC81C1
:10239000F0E031970E9FC0010F9F900D1124860F22
:1023A000911D67FD9A95181619060CF06DC08D8168
:1023B000809FC0011124840F911D47FD9A95181626
:1023C00019060CF061C0A62E962EC22ED12C8A2D95
:1023D000811B992787FD90952C8130E08217930708
:1023E0000CF051C0215031098217930779F0C29E39
:1023F000D001C39EB00DD29EB00D1124A80FB91FFD
:10240000EE8DFF8DEA0FFB1F749001C0712C8F2C95
:102410006F2C282D2F19332727FD30958D8190E0C3
:10242000281739076CF570FE11C081E0B81206C09C
:10243000482D6A2DCE010E949C0B1EC00B2D2B2D0A
:10244000462D692DCE010E94E10C16C089A198A1EC
:10245000891791F088A381E0B81206C0482D6A2D33
:10246000CE010E949C0B07C00B2D2B2D462D692DF4
:10247000CE010E94E10CE8A276946B0C8394C9CF44
:102480009B0CA394A4CFE8A2DF91CF911F910F9151
:10249000FF90EF90DF90CF90BF90AF909F908F9084
:1024A0007F906F9008950F93CF93DF93EC01262FC9
:1024B0006A3039F42D8198858A85299F800D1124F1
:1024C00022C06D3011F108854A8569850E94AD11E1
:1024D00048855C812985549F200D112429878F818F
:1024E000882399F0332727FD309584E590E0459FB8
:1024F000801991091124821793073CF49D818A85E4
:10250000499F800D11248A87198681E090E0DF9130
:10251000CF910F9108958F929F92AF92BF92CF92D9
:10252000DF92EF92FF92CF93DF93EC01CA8CDB8CAA
:10253000C094D094E12CF12C0E94771B4B015C01DC
:102540000E94771BA50194012095309540955095E8
:1025500060957095809590950E94D0209B01AC016C
:10256000C701B6010E94D0206B017C0189809A804E
:10257000A12CB12C0E94771B680D791D8A1D9B1D13
:102580006C0D7D1D8E1D9F1DDF91CF91FF90EF90F3
:10259000DF90CF90BF90AF909F908F900C94B91E1A
:1025A0008F929F92AF92BF92CF92DF92EF92FF9263
:1025B0000F931F93CF93DF93EC015C0186E8A80E85
:1025C000B11CD5018C91882309F44DC08C3018F4CE
:1025D0001CE0181B01C010E0FE01EA5AFF4F81E029
:1025E00080836E01BEE4CB0ED11C60E0C6010E9468
:1025F0006B0C4E01E3E58E0E911CD4018C9103E02F
:10260000080F9DE2F92E4F2D481B410F23E0E22ECB
:1026100024E560E0C6010E94500E61E0C6010E9400
:102620006B0CF401808103E0080F4F2D481B410F14
:1026300024E560E0C6010E94F00DFE01E95AFF4F5B
:1026400084E080833196D4018C91181B115D108336
:10265000CC57DF4F68817981C6010E94881DF50142
:10266000808181508083DF91CF911F910F91FF90E6
:10267000EF90DF90CF90BF90AF909F908F90089594
:10268000DF92EF92FF920F931F93CF93DF93EC01B2
:102690008C8D9D8D892B09F49CC08E01025B1F4F90
:1026A00040E061E0C8010E946F0C85E5FE01EE5A32
:1026B000FF4F9081891B3596808331961082698DFA
:1026C000613009F462C028F0888D653008F074C06C
:1026D0006FC0CE0185960E94541981E0FE01EA5A2E
:1026E000FF4F808367E473E0C8010E94D5101D8E00
:1026F0001C8EFE01EC5AFF4F108238EAD32E7E0169
:102700008AE0E80EF11CCE010E94F1138823D9F370
:1027100068EB77E0C8010E94881D6A8D7B8D4AE0D6
:1027200050E0C8010E94B31E63EA77E0C8010E942E
:10273000881D6D2D62956F7070E04AE050E0C80111
:102740000E947F1E68E977E0C8010E94881D64E04E
:10275000C7010E94760B81113CC0DA94A1F660E0BB
:10276000CE010E94880A83B7817F846083BF83B7CC
:10277000816083BF83B7816083BF889583B78E7F75
:1027800083BF83B78E7F83BFBECFCF58DF4F4881D3
:1027900059816A817B814F7055276627772748309A
:1027A00051056105710510F467E009C068E707C0CD
:1027B000882379F06B5F03C0882359F06FE2C8016A
:1027C000DF91CF911F910F91FF90EF90DF900C94CC
:1027D000AD1DDF91CF911F910F91FF90EF90DF9092
:1027E00008958F929F92AF92BF92EF92FF920F93B4
:1027F0001F93CF93DF93EC017C0100E8E00EF11C06
:10280000F70180809180A280B3800E946B1B9501AC
:102810008401061B170B280B390BB901A8015E01B7
:102820001FE7A10EB11CF501808190E0A0E0B0E0AF
:102830008E0105581F4F84179507A607B70750F458
:10284000F80180819181A281B381892B8A2B8B2B06
:1028500009F040C0F80180819181A281B381892B68
:102860008A2B8B2BA9F57E01F5E2EF0EF11CC70137
:102870000E945119C7010E94BE19C7010E94821A05
:10288000CE010E94D012CE010E9440137E012EE4A0
:10289000E20EF11CC7010E94230CFE01EC5AFF4F0F
:1028A0008081811103C0C7010E94120C0E94771B16
:1028B000F8016083718382839383FE01EB58FF4F9D
:1028C000C958DF4F28813981621B730B7183608384
:1028D00080E036C00E946B1BF5012081620F711DE4
:1028E000811D911DF7016083718382839383FE01B3
:1028F000EF58FF4F40815181628173814F5F5F4F7D
:102900006F4F7F4F4083518362837383F80110823E
:102910001182128213820E94771BFE01E958FF4F39
:102920006083718382839383CE010E948C0ACE01DF
:102930000A960E943F0BCE0148960E94F50A81E05C
:10294000DF91CF911F910F91FF90EF90BF90AF90CB
:102950009F908F9008952F923F924F925F926F9227
:102960007F928F929F92AF92BF92CF92DF92EF921F
:10297000FF920F931F93CF93DF93CDB7DEB7669788
:102980000FB6F894DEBF0FBECDBF9E8B8D8B6F87C9
:10299000788B942EFC01EC5AFF4F108288248A9485
:1029A0001C82A12C30E33B83B12C6C018AE0C80E61
:1029B000D11C6D887E8893E5690E711CED89FE89B6
:1029C000B5962F01242F30E03A8729878D899E897B
:1029D000895A9F4F9E838D83ED89FE89E85AFF4F68
:1029E000F887EF832D893E892A5A3F4F3C872B87F2
:1029F0008D899E898B5A9F4F9E878D87ED89FE8991
:102A0000E25BFF4F1F018D899E890E94F11388238D
:102A1000D1F364E0C6010E94760B3B81032F11279E
:102A200007FD109581113EC065E0C6010E94760B3E
:102A3000811138C066E0C6010E94760B811132C058
:102A40003C81311142C044E063E0C6010E947F0B2B
:102A5000882321F0B394C2010E94FE1A44E061E091
:102A6000C6010E947F0B882321F0BA94C2010E9404
:102A7000FE1A8B2D992787FD9095E985FA858E178B
:102A80009F0731F0B7FE05C0BB24BA94B90C01C052
:102A9000B12CF301808174E0A72EA80E8B9DA018A5
:102AA00011241DC0F301A08064E0C6010E94760BD2
:102AB000882309F484C0C2010E94D21A8B2CA194ED
:102AC000A99CA02C1124AA94AA94C8018A1991093E
:102AD000A7FC939502970CF476C031E03C830A0D75
:102AE000111DA7FC1A9517FF02C00F5F1F4FC801E9
:102AF000959587959A83898329812B83ED81FE8122
:102B00001082EF81F885808381E0EB85FC858083EE
:102B1000ED85FE8510820F851889E12CF12C4B2D57
:102B2000552747FD509533E0E91420F5E416F506E6
:102B300069F4ED81FE813083F3018081F22FB89E2C
:102B4000F00D11248F2FEF81F8858083F8016591B6
:102B50007491C101298B3C8B4A8B5B8B0E94B81D01
:102B6000FFEFEF1AFF0A0E5F1F4F5B894A893C890E
:102B70002989DACF60E0C1010E946B0CF3018081EA
:102B80004981B89E400D1124415024E560E0C10107
:102B90000E94960C61E0C1010E946B0CF3018081E0
:102BA00003E0080F4981B89E400D1124425053E0C4
:102BB000E52E24E560E0C1010E94F00D24CFC201A2
:102BC0000E94E81A7CCF882D66960FB6F894DEBF77
:102BD0000FBECDBFDF91CF911F910F91FF90EF906E
:102BE000DF90CF90BF90AF909F908F907F906F902D
:102BF0005F904F903F902F9008950F931F93CF9326
:102C0000DF938C01EC01C25BDF4FCE010E94120CFE
:102C100060E777E0CE010E94881DCE010E94230C60
:102C20008CB583608CBD8DB58E7F8DBD8EE591E0BA
:102C3000EEEFFFE30995F801EC5AFF4F10826BE4C9
:102C400077E0CE010E94B81DCE010E94230C065FE2
:102C50001F4FC8010E943F0B64E0C8010E94760B21
:102C6000811107C062E370E080E090E00E949A1B4F
:102C7000F0CFDF91CF911F910F910895E0E8F7E732
:102C80002591349181E02130304C09F080E00895A5
:102C9000CF93DF93EC010E943E169E01275A3F4FCF
:102CA000DE01A059BF4F882309F43CC0E6E9F7E7ED
:102CB0008491F9018083E7E9F7E7E491EC83E8E99F
:102CC000F7E7E491ED83E9E9F7E7859194919F8334
:102CD0008E83EBE9F7E78591949199878887EDE9F1
:102CE000F7E7E491EBA7EEE9F7E7E491EAA7EFE96C
:102CF000F7E7E491EC93E0EAF7E7859194919D8FF3
:102D00008C8FE2EAF7E7859194919F8F8E8FE4EAAA
:102D1000F7E78591949199A388A3E6EAF7E785916F
:102D2000949120C08CE3F90180831C822FEF2D83C6
:102D300080E293E09F838E8384ED93E09987888778
:102D400081E08BA78AA72C938CEA9DE09D8F8C8FC6
:102D50008EED9DE09F8F8E8F84E79EE099A388A3E0
:102D60008CE39FE09BA38AA3DF91CF910895CF923C
:102D7000DF92EF920F93CF93DF93EC01FC01E158C8
:102D8000FF4F82E38083349741E050E060E070E0E1
:102D900040835183628373833B978FEF8083CE019F
:102DA0000E944816CE010E94840A6FEFCE010E9455
:102DB000880A6E018AE0C80ED11CC6010E942F0B42
:102DC000C6010E943F0BCE0148960E94EB0A3EE0EE
:102DD000E32E0FE020E14BE06DE0CE01825B9F4FE0
:102DE0000E94E910A596CE010E94671865E0C60111
:102DF0000E94760B882351F060E0CE01DF91CF91E5
:102E00000F91EF90DF90CF900C94141B40E066EC94
:102E100077E0CE01DF91CF910F91EF90DF90CF90CF
:102E20000C9406198F929F92AF92BF92CF92DF922D
:102E3000EF92FF920F931F93CF93DF93CDB7DEB73F
:102E4000260F371FE216F30684F4EA0CFB1C6E15FE
:102E50007F055CF4040F151FC016D10634F4C80CAE
:102E6000D91C81E04C155D050CF080E0DF91CF911D
:102E70001F910F91FF90EF90DF90CF90BF90AF9098
:102E80009F908F9008952F923F924F925F926F92F2
:102E90007F928F929F92AF92BF92CF92DF92EF92EA
:102EA000FF920F931F93CF93DF93CDB7DEB7609759
:102EB0000FB6F894DEBF0FBECDBF9E878D87788B8F
:102EC0006F873A013E832D8318012701D886CF8270
:102ED000F9018491282F30E03A832983ED81FE8126
:102EE0003196E4916E2F70E07C836B83EF81F885DF
:102EF0008491282F30E03A872987EF81F885319631
:102F0000E4916E2F70E07C876B874B01A984BA84B3
:102F1000670178010B811C8129813A816F8578894D
:102F20008D859E850E941217811102C080E079C0B4
:102F30008F8598898215930534F4C101AF85B889CE
:102F40008A1B9B0B02C080E090E06414750424F49B
:102F500092012619370902C020E030E049855A85E0
:102F6000420D531D69817A81EF85F8896E0F7F1FAD
:102F7000641775072CF0BA016E1B7F0B7A83698387
:102F80004B855C85440D551D6B817C81660D771DDD
:102F9000641775072CF0DA01A619B709BC83AB8357
:102FA000B22E00E010E0782EED84FE84BEE4EB0E3D
:102FB000F11C6418620ECF84C218C80E202E3B2C60
:102FC000300E832D90E02B813C81821793070CF00B
:102FD000ADCF412C512C260CD42C472D440D842FE1
:102FE00090E0E981FA818E179F07A4F4232D6D816B
:102FF0007E81C7010E94BB0F882379F04C2D4D0DB7
:10300000222D6F817885C7010E94BB0F882329F08C
:1030100081E007C00F5F1F4FD1CF3FEF431A530A24
:10302000DBCF60960FB6F894DEBF0FBECDBFDF9149
:10303000CF911F910F91FF90EF90DF90CF90BF90B5
:10304000AF909F908F907F906F905F904F903F9048
:103050002F900895CF93DF9350E0FA01EE0FFF1FFA
:10306000E80FF91F37852089E32FF22FE60FF11DB6
:10307000E60FF11D25913491FA01EE0FFF1FE80FC5
:10308000F91F30A3278FF90165917491FC01D48158
:10309000D69FC02D1124E40FF51FC1A3F901A591FE
:1030A000B4916B2F70E0EC2FF0E0DC01A40FB51FA2
:1030B0006E177F0720F4F90125913491C32FCD9F1E
:1030C000C02D11249296CC93DF91CF91089521E0E9
:1030D000FC01248324E020A725E238E0308B2787F9
:1030E00040E060E00E942A1861E070E083E00E9406
:1030F0001A1CE1EBF0E08081887F81608083F89486
:1031000010928000E1E8F0E01082109285001092A9
:10311000840088E191E09093890080938800808109
:1031200088608083808181608083EFE6F0E0808129
:1031300082608083789408950F93FC01862F642F1A
:10314000011129C08230D1F048F4882391F08130F8
:1031500011F540E0CF010F910C942A188330A9F0AB
:103160008430C9F48481489F602D1124658F268F97
:1031700012C04B3008F06AE0668B0DC08481489F16
:10318000602D1124618F228F06C08481489F602D9D
:103190001124638F248F0F910895FC0121110EC01B
:1031A000648B8481489F402D1124458B15A214A265
:1031B00013A281E0878B80931704108E089580916D
:1031C0001704882319F08091140401C080E08093D3
:1031D000B4000895FC0161110DC0178A158A14A26C
:1031E00013A2108E1092140410921504109217045A
:1031F0000C94DF180895CF93DF93EC01611103C0A5
:103200000E94EA181982DF91CF9108950F931F93BE
:10321000CF93DF93EC018B0141110EC060E00E945F
:10322000FB181E870D871B8A1A8A81E0898389E033
:103230008E8B198E1B8E1D8EDF91CF911F910F915A
:103240000895CF93DF93EC01611128C08881882312
:1032500029F18981811122C089852F819885E22FEA
:10326000F92FE80FF11DE80FF11D859194918F3F23
:103270002FEF920711F4188211C09C879927880FAD
:10328000991FEA85FB85E80FF91F6591749140E06D
:10329000CE010E94061989858F5F8987DF91CF91C2
:1032A000089560E00C94211960E00C94FB180F93D2
:1032B000CF93DF93EC0161115DC08981882309F40C
:1032C00059C08D89811156C02D853E858A899B897B
:1032D000880F991F820F931FFC018591949100978D
:1032E000D1F48989882321F01B8A1A8AF90111C037
:1032F0001982888160E0882331F0CE010E94211973
:103300008A899B8925C0CE01DF91CF910F910C94C2
:10331000EA1885919491BC017695679576956795A5
:1033200080FF1DC0AC01A6E056954795AA95E1F730
:10333000292F26952695269520514F716F7000E014
:10334000CE010E949C188A899B8901969B8B8A8B4F
:10335000880F991FED85FE85E80FF91FDACF492FF9
:103360006F7320E0CE010E94CD188A899B89019657
:103370009B8B8A8BDF91CF910F91089560E00C9425
:103380005719CF93DF93EC016111B9C08F8988235E
:1033900009F4B5C08D89811105C0CE01DF91CF91AF
:1033A0000C94EA1881508D8B8DA1811138C08BA1AE
:1033B0009CA101969C01220F331FEF8DF8A1E20F13
:1033C000F31F25913491422F47704EA3A90163E06A
:1033D000569547956A95E1F7BA0176956795232F3B
:1033E000269526952FA36F732C81629F602D112443
:1033F0006DA34170409313049CA38BA329A130E0DB
:103400008217930760F08AA1882329F0281B3109CD
:103410003CA32BA304C060E0CE010E94EA188DA15A
:1034200081508DA3288D2F5F288F4C893FA1340FA9
:103430008C85380F3A836B8D662361F070E0822FA4
:10344000992787FD90950E9400218C8D869F300DD5
:1034500011243A838A8190E0CB966BE370E00E945E
:1034600000218A833E893B83698D662371F077272B
:1034700067FD7095822F992787FD90950E94002106
:103480008A8D869F300D11243B836D8D662391F0CC
:10349000822F992787FD909570E00E940021CB0133
:1034A00062E070E00E9400212E8D9B81289F900D8C
:1034B00011249B838B814F3339F08A300CF089E0E3
:1034C00087FD80E08B8301C01B82F894EA81F0E0E5
:1034D000EC52F84FE491E093160498A58D81989FE3
:1034E000802D11249B81899F802D11249EA1899F6D
:1034F000802D112480931504809314047894DF9117
:10350000CF91089560E00C94C11960911504662371
:1035100021F1809118048F5F809318049091160414
:103520008917D8F08091170491E0892780931704B8
:103530001092180480911304882369F09091160169
:1035400083E4989F802D1124895B809316010E944B
:10355000E020909314040C94DF1808951F920F92AA
:103560000FB60F9211242F933F934F935F936F9356
:103570007F938F939F93AF93BF93EF93FF930E949B
:10358000851AFF91EF91BF91AF919F918F917F919C
:103590006F915F914F913F912F910F900FBE0F90C0
:1035A0001F901895CF93DF93EC0160E00E94FB1809
:1035B0008DE198E09E878D871B8A1A8A81E0898336
:1035C00089E08E8B198E1B8E1D8EDF91CF91089511
:1035D000CF93DF93EC0160E00E94FB1885E198E057
:1035E0009E878D871B8A1A8A81E0898389E08E8B6A
:1035F000198E1B8E1D8EDF91CF910895CF93DF938F
:10360000EC0160E00E94FB188FE098E09E878D87B8
:103610001B8A1A8A81E0898389E08E8B198E1B8E22
:103620001D8EDF91CF910895FC01862F992787FD8C
:103630009095668170E06F5F7F4F0E9400218583C7
:1036400008951F920F920FB60F9211242F933F935C
:103650008F939F93AF93BF9380911A0490911B0413
:10366000A0911C04B0911D043091190423E0230F94
:103670002D3720F40196A11DB11D05C026E8230FAA
:103680000296A11DB11D2093190480931A049093F2
:103690001B04A0931C04B0931D0480911E04909100
:1036A0001F04A0912004B09121040196A11DB11D19
:1036B00080931E0490931F04A0932004B0932104D0
:1036C000BF91AF919F918F913F912F910F900FBE1E
:1036D0000F901F9018952FB7F89460911A0470916D
:1036E0001B0480911C0490911D042FBF08953FB7C7
:1036F000F89480911E0490911F04A0912004B09131
:10370000210426B5A89B05C02F3F19F00196A11DE5
:10371000B11D3FBF6627782F892F9A2F620F711D29
:10372000811D911D42E0660F771F881F991F4A95E2
:10373000D1F70895CF92DF92EF92FF92CF93DF936C
:103740006B017C010E94771BEB01C114D104E104E1
:10375000F10489F00E94481F0E94771B6C1B7D0BAF
:10376000683E734090F381E0C81AD108E108F1087F
:10377000C851DC4FEACFDF91CF91FF90EF90DF90FF
:10378000CF900895789484B5826084BD84B58160BB
:1037900084BD85B5826085BD85B5816085BDEEE659
:1037A000F0E0808181608083E1E8F0E01082808138
:1037B00082608083808181608083E0E8F0E08081A6
:1037C00081608083E1EBF0E0808184608083E0EBC6
:1037D000F0E0808181608083EAE7F0E080818460AE
:1037E000808380818260808380818160808380810A
:1037F000806880831092C10008958E3008F08E504A
:1038000087702091170190E4299F90011124822B49
:1038100080937C0080917A00806480937A0080910C
:103820007A0086FDFCCF809178002091790090E0AD
:10383000922B08951F93CF93DF93182FEB0161E034
:103840000E94A21C209711F460E004C0CF3FD10574
:1038500039F461E0812FDF91CF911F910C94DB1C33
:10386000E12FF0E0EF5CF74FE491E330F9F048F43A
:10387000E130B9F0E230A1F584B5806284BDC8BD05
:1038800034C0E730E9F0E83019F1E43049F58091CF
:103890008000806280938000D0938B00C0938A0068
:1038A00024C084B5806884BDC7BD1FC080918000DE
:1038B000806880938000D0938900C093880015C0F1
:1038C0008091B00080688093B000C093B3000DC0B9
:1038D0008091B00080628093B000C093B40005C0B6
:1038E000C038D1050CF0B5CFAFCFDF91CF911F918C
:1038F0000895833081F028F4813099F08230A1F06E
:1039000008958730A9F08830B9F08430D1F48091DF
:1039100080008F7D03C0809180008F77809380002E
:10392000089584B58F7702C084B58F7D84BD0895D6
:103930008091B0008F7703C08091B0008F7D80931D
:10394000B0000895CF93DF9390E0FC01EB5BF74F5D
:103950002491FC01E75AF74F8491882349F190E0C4
:10396000880F991FFC01EF57F74FA591B491895823
:10397000974FFC01C591D4919FB7611108C0F8948D
:103980008C91209582238C93888182230AC0623097
:1039900051F4F8948C91322F309583238C93888145
:1039A000822B888304C0F8948C91822B8C939FBFC8
:1039B000DF91CF9108950F931F93CF93DF931F92C1
:1039C000CDB7DEB7282F30E0F901EF5CF74F8491D7
:1039D000F901EB5BF74F1491F901E75AF74F0491A6
:1039E0000023C9F0882321F069830E94791C698132
:1039F000E02FF0E0EE0FFF1FE958F74FA591B491CB
:103A00009FB7F8948C91611103C01095812301C078
:103A1000812B8C939FBF0F90DF91CF911F910F91BE
:103A20000895CF93DF93282F30E0F901EF5CF74F33
:103A30008491F901EB5BF74FD491F901E75AF74F05
:103A4000C491CC2391F081110E94791CEC2FF0E0FD
:103A5000EE0FFF1FE359F74FA591B4912C912D2341
:103A600081E090E021F480E002C080E090E0DF910E
:103A7000CF91089508950E94C21B0E943A1D0E9492
:103A8000BA04C0E0D0E00E9420092097E1F30E9430
:103A90000000F9CFCF92DF92EF92FF920F931F9326
:103AA000CF93DF936C017A01EB01E60EF71E00E085
:103AB00010E0CE15DF0561F06991D601ED91FC9122
:103AC0000190F081E02DC6010995080F191FF1CF73
:103AD000C801DF91CF911F910F91FF90EF90DF9080
:103AE000CF9008956115710581F0DB010D900020E4
:103AF000E9F7AD0141505109461B570BDC01ED912F
:103B0000FC910280F381E02D099480E090E008951B
:103B1000EF92FF920F931F93CF93DF938C01FB01E2
:103B2000C0E0D0E064917F018FEFE81AF80A6623C5
:103B300061F0D801ED91FC910190F081E02DC80178
:103B40000995C80FD91FF701EDCFCE01DF91CF91B5
:103B50001F910F91FF90EF900895DC01ED91FC9182
:103B60000190F081E02D099465E671E00C94721DDE
:103B70000F931F93CF93DF93EC010E94881D8C015C
:103B8000CE010E94B41D800F911FDF91CF911F9134
:103B90000F9108950F931F93CF93DF93EC010E9431
:103BA000721D8C01CE010E94B41D800F911FDF9108
:103BB000CF911F910F9108958F929F92AF92BF92D4
:103BC000CF92DF92EF92FF920F931F93CF93DF93E9
:103BD000CDB7DEB7A1970FB6F894DEBF0FBECDBF4D
:103BE0007C01C42EE52FCB01D22E19A221E02D1588
:103BF00010F02AE0D22E8E010F5D1F4F8D2C912CDC
:103C0000A12CB12C6C2D7E2FA50194010E941421B2
:103C10008C2DD29E80191124015011098A3014F480
:103C2000805D01C0895CF801808321153105410563
:103C3000510521F0C22EE32FCA01E4CFB801C7011C
:103C40000E94721DA1960FB6F894DEBF0FBECDBFC5
:103C5000DF91CF911F910F91FF90EF90DF90CF9068
:103C6000BF90AF909F908F900895CF92DF92EF9288
:103C7000FF920F931F93CF93DF93EC016A017B01B7
:103C80002115310579F4E881F9810190F081E02D69
:103C9000642FDF91CF911F910F91FF90EF90DF90F4
:103CA000CF9009942A303105E9F477FF1AC06DE20C
:103CB0000E94AD1D8C0144275527BA014C195D099E
:103CC0006E097F092AE0CE010E94DC1D800F911F42
:103CD000DF91CF911F910F91FF90EF90DF90CF90E8
:103CE00008952AE0B701A601CE01DF91CF911F917F
:103CF0000F91FF90EF90DF90CF900C94DC1D9A0114
:103D0000AB01662757FD6095762F0C94351E0F93F7
:103D10001F93CF93DF93EC019A01AB01662757FD08
:103D20006095762F0E94351E8C01CE010E94B41D35
:103D3000800F911FDF91CF911F910F910895211551
:103D4000310541F4DC01ED91FC910190F081E02D11
:103D5000642F09940C94DC1D9A01462F50E060E01A
:103D600070E00C949F1E9A01AB0160E070E00C942F
:103D70009F1E611571058105910511F00C94C921F3
:103D80000895CF93DF9300D000D0CDB7DEB79B016D
:103D9000AC01611571058105910569F069833A836C
:103DA0004B835C830E94C42129813A814B815C81D1
:103DB0000E94362103C060E070E0CB010F900F90AD
:103DC0000F900F90DF91CF910895CF92DF92EF92F5
:103DD000FF926B017C01621773078407950764F4F7
:103DE000CA01B9016C197D098E099F090E94C11E83
:103DF0006C0D7D1D8E1D9F1DFF90EF90DF90CF906D
:103E000008954F925F926F927F92AF92BF92CF923E
:103E1000DF92EF92FF920F931F93CF93DF93CDB773
:103E2000DEB729013A01621B730B840B950B2989BC
:103E30003A894B895C892A193B094C095D09298B10
:103E40003A8B4B8B5C8B9B01AC0169897A898B899E
:103E50009C890E94D020E418F50806091709A801DA
:103E600097010E9436212A0D3B1D4C1D5D1DCA0184
:103E7000B901DF91CF911F910F91FF90EF90DF90EB
:103E8000CF90BF90AF907F906F905F904F900895CC
:103E900008955058BB27AA270ED0E5C0D6D030F0E1
:103EA000DBD020F031F49F3F11F41EF4CBC00EF4B0
:103EB000E095E7FBC1C0E92FE7D080F3BA176207AE
:103EC00073078407950718F071F49EF5FFC00EF490
:103ED000E0950B2EBA2FA02D0B01B90190010C011A
:103EE000CA01A0011124FF27591B99F0593F50F432
:103EF000503E68F11A16F040A22F232F342F44278A
:103F0000585FF3CF469537952795A795F040539581
:103F1000C9F77EF41F16BA0B620B730B840BBAF051
:103F20009150A1F0FF0FBB1F661F771F881FC2F7BC
:103F30000EC0BA0F621F731F841F48F487957795D0
:103F40006795B795F7959E3F08F0B3CF9395880F87
:103F500008F09927EE0F97958795089504D06894F7
:103F6000B111B5C0089598D088F09F5790F0B92F3F
:103F70009927B751A0F0D1F0660F771F881F991FBE
:103F80001AF0BA95C9F712C0B13081F09FD0B1E0F4
:103F900008959CC0672F782F8827B85F39F0B93F04
:103FA000CCF3869577956795B395D9F73EF49095C0
:103FB0008095709561957F4F8F4F9F4F0895E8943E
:103FC00009C097FB3EF490958095709561957F4F61
:103FD0008F4F9F4F9923A9F0F92F96E9BB2793950F
:103FE000F695879577956795B795F111F8CFFAF41F
:103FF000BB0F11F460FF1BC06F5F7F4F8F4F9F4F50
:1040000016C0882311F096E911C0772321F09EE8AD
:10401000872F762F05C0662371F096E8862F70E013
:1040200060E02AF09A95660F771F881FDAF7880FED
:104030009695879597F9089597F99F6780E870E0BE
:1040400060E008959FEF80EC089500240A9416160E
:10405000170618060906089500240A941216130676
:10406000140605060895092E0394000C11F4882304
:1040700052F0BB0F40F4BF2B11F460FF04C06F5F20
:104080007F4F8F4F9F4F089557FD9058440F551FF6
:1040900059F05F3F71F04795880F97FB991F61F0CA
:1040A0009F3F79F087950895121613061406551F41
:1040B000F2CF4695F1DF08C0161617061806991FAD
:1040C000F1CF86957105610508940895E894BB27A2
:1040D00066277727CB0197F908950BD0C4CFB5DFBA
:1040E00028F0BADF18F0952309F0A6CFABCF112442
:1040F000EECFCADFA0F3959FD1F3950F50E0551F87
:10410000629FF001729FBB27F00DB11D639FAA272C
:10411000F00DB11DAA1F649F6627B00DA11D661F7B
:10412000829F2227B00DA11D621F739FB00DA11D9C
:10413000621F839FA00D611D221F749F3327A00D56
:10414000611D231F849F600D211D822F762F6A2FF2
:1041500011249F5750408AF0E1F088234AF0EE0F77
:10416000FF1FBB1F661F771F881F91505040A9F784
:104170009E3F510570F060CFAACF5F3FECF3983EB1
:10418000DCF3869577956795B795F795E7959F5FEB
:10419000C1F7FE2B880F911D9695879597F9089585
:1041A000DB018F939F930E945521BF91AF91A29FF6
:1041B000800D911DA39F900DB29F900D1124089525
:1041C000991B79E004C0991F961708F0961B881F69
:1041D0007A95C9F780950895AA1BBB1B51E107C0CA
:1041E000AA1FBB1FA617B70710F0A61BB70B881F87
:1041F000991F5A95A9F780959095BC01CD01089516
:1042000097FB072E16F4009407D077FD09D00E9483
:10421000EC2007FC05D03EF4909581959F4F0895C2
:10422000709561957F4F0895A1E21A2EAA1BBB1BC2
:10423000FD010DC0AA1FBB1FEE1FFF1FA217B30772
:10424000E407F50720F0A21BB30BE40BF50B661F88
:10425000771F881F991F1A9469F76095709580954C
:1042600090959B01AC01BD01CF010895052E97FBF0
:104270001EF400940E944D2157FD07D00E94142186
:1042800007FC03D04EF40C944D2150954095309589
:1042900021953F4F4F4F5F4F0895909580957095B2
:1042A00061957F4F8F4F9F4F08950E946621A59F74
:1042B000900DB49F900DA49F800D911D1124089521
:1042C000EE0FFF1F0590F491E02D0994A29FB0011D
:1042D000B39FC001A39F700D811D1124911DB29F3A
:1042E000700D811D1124911D08958F929F92AF92A0
:1042F000BF92CF92DF92EF92FF92CF93DF93EC01C8
:10430000688179818A819B8161157105810591059B
:1043100021F464E279ED8BE597E02DE133EF41E0A4
:1043200050E00E94362149015A019B01AC01A7EAE5
:10433000B1E40E9455216B017C01ACEEB4EFA50104
:1043400094010E94D521C60ED71EE81EF91EF7FE65
:1043500006C081E0C81AD108E10880E8F80AC882DE
:10436000D982EA82FB82C701B6019F77DF91CF91A4
:10437000FF90EF90DF90CF90BF90AF909F908F9085
:1043800008950E947521089586E091E00E947521AC
:10439000089560930601709307018093080190933C
:1043A00009010895B7FF0C9455210E945521821BE5
:0843B000930B0895F894FFCF70
:1043B8000000220480000100000001FFFFFFFF0150
:1043C80001002400140001015041555345440020C8
:1043D80000206672616D6573001620746F20726527
:1043E80073756D6500596F752064696564210054A3
:1043F800696D653A00206672616D65732E005072B2
:104408006573732016000000000053124A1D4C4FBC
:1044180041444552000D0A006E616E00696E6600E7
:044428006F76660045
:00000001FF
