:100000000C9449040C9471040C9471040C947104C4
:100010000C9471040C9471040C9471040C9471048C
:100020000C9471040C9471040C9471040C9484234A
:100030000C9471040C9471040C9471040C9471046C
:100040000C940C240C9471040C9471040C947104A1
:100050000C9471040C9471040C9471040C9471044C
:100060000C9471040C947104202020204C6F616466
:10007000696E672E2E2E2E009C0095008C0080004D
:100080004368616E67652047616D6500436F6E74FC
:10009000726F6C730053746174757300537572766C
:1000A0006976616C000820183C7E7E7E7E7E7E7EB6
:1000B0007E7E7E7E7E7E7E7E7E7E7E7E7E7E7E7E60
:1000C0007E7E7E7E7E3C1808063C7E7E7E7E3C08E0
:1000D00004FFFFFFFF583000000000000000000098
:1000E0000000000000000000000000000000000010
:1000F0000000000000000000000000000000000000
:1001000000000000000000000000000000000000EF
:1001100000000000000000000000000000000000DF
:1001200000000000000000000000000000000000CF
:1001300000000000000000000000000000000000BF
:1001400000000000000000000000000000000000AF
:10015000000000000000000000000000000000009F
:10016000000000000000000000000000000000008F
:10017000000000000000000000000000000000007F
:10018000000000000000000000000000000000006F
:10019000000000000000000000000000000000005F
:1001A000000000000000000000000000000000004F
:1001B00000000072221C88088B80E78439108B6550
:1001C000228814CA41144A451082A8A08822AA2174
:1001D0000451411072A89CF8229A21079139F00A23
:1001E0002F82883E8A21051F05108A28A288228A2C
:1001F000411491451072289C88228B80E45139105B
:1002000000000000000000000000000000000000EE
:1002100000000000000000000000000000000000DE
:1002200000000000000000000000000000000000CE
:1002300000000000000000000000000000000000BE
:10024000000000000000000000000000000003CFDC
:100250003E71C00511400000000228A08A20052937
:10026000400000000228A0820000440000000003BB
:10027000CF3C71C0004400000000020A20082000AA
:100280007C000000000209208A20004400000000D9
:100290000208BE71C0004400000000000000000021
:1002A0000000007FF000000000000000000080005F
:1002B00000000000000000000135500000000000B8
:1002C000000000024650000000000000000004246E
:1002D00020000000000000000008162000000000C0
:1002E000000000001065200808030F3FFFFF3F0FCC
:1002F000030808FCCEC7FFFFC786FC0808183C248B
:100300006642C3817E1804FFFFFFFFFFFFFFFFFF70
:10031000FFFFFF5804FFFFFFFFFFFFFFFFFFFFFF8F
:10032000FFFFFFFFFFFFFFFFFFFFFFFFFFFFFFFFDD
:10033000FFFFFFFFFFFFFFFFFFFFFFFFFFFFFFFFCD
:10034000FF08083C6A6A6A3C24240003053F213FF9
:100350001208120A100A0E1C0E0C1E0C141A141687
:100360001F161E131E1E1B1E1E1F1E3F213F3A2F4F
:100370003A173D173F213F181F02040A041F0E04BD
:10038000040E1F0A1F0A0E0E1F04110E2E252E2FFB
:100390002A2E262929021F02081F08150E04040E02
:1003A000150E15151B151B040604040C0400000093
:1003B0000017000300031F0A1F16371A1904130A37
:1003C000153A000300000E11110E000A040A040E73
:1003D000040030000404040010001804031F111F5F
:1003E000121F101D151711151F07041F17151D1FAC
:1003F000151D01011F1F151F17151F000A000032D0
:1004000000040A110A0A0A110A040115020E111742
:100410001E051E1F150A0E110A1F110E1F15111F92
:1004200005010E111D1F041F111F1108100F1F04BD
:100430001B1F10101F061F1E040F0E110E1F090692
:100440000E112E1F051A121509011F011F101F0F73
:10045000180F1F0C1F1B041B031C03191513001F6F
:1004600011030418111F00020102202020000102C4
:100470000C121E1F120C0C12120C121F0C1A140458
:100480001E05242A1E1F021C141D1020201D1F08DB
:1004900014111F101E041E1E021C0C120C3E0A0416
:1004A0000C123E1E040214160A020F120E101E0E2B
:1004B000100E1E081E120C1226281E322A26041E9A
:1004C00021001F00211E040102013F213F05077F7B
:1004D0004141417F3E5B4F5B3E3E6B4F6B3E183C64
:1004E000783C18183C7E3C181C577D571C1C5E7FBE
:1004F0005E1C007E43437E007E73737E007E7F7FA2
:100500007E7F4141417F30483A060E06297929060F
:100510007F4141417F60703F02042A1C361C2A7FC4
:100520003E1C080000081C3E7F14227F22143C3C25
:100530003C7EFF18423C817E3E6375633E3E616BAC
:10054000633E3E636B6B3E04027F020410207F20FB
:100550001008082A1C08081C2A0808143E554122C5
:10056000637569756310181C1810040C1C0C0400CA
:100570000000000000005F00000007000700147F7B
:10058000147F14042A7F2A10231308646236495604
:1005900020500008070300001C2241000041221CDB
:1005A000002A1C3E1C2A08083E080800E0600000E3
:1005B0000808080808006060000060100804033E96
:1005C0005149453E00427F40006251494946214120
:1005D000494D331814127F1027454545393C4A4987
:1005E0004930412111090736494949360649492907
:1005F0001E00002400000080640000081422410056
:100600001414141414004122140802015909063E5E
:10061000415D594E7C1211127C7F494949363E4159
:100620004141227F4141221C7F494949417F0909BB
:1006300009013E414151327F0808087F00417F4156
:10064000002041413F017F081422417F404040404B
:100650007F020C027F7F0204087F3E4141413E7FC2
:10066000090909063E416141BE7F0919294626490B
:1006700049493201017F01013F4040403F1F204076
:10068000201F3F4038403F6314081463030478047C
:10069000036151494543007F414100030408106054
:1006A0000041417F000402010204808080808000BC
:1006B0000307080020545478407F284444383844C5
:1006C000444428384444287F3854545418087E0938
:1006D000090218A4A49C787F0804047800447D4093
:1006E00000006080847D7F1010284400417F40001E
:1006F0007C047804787C080404783844444438FC4A
:100700001824241818242418FC7C0804040808540D
:10071000545420043F4444203C4040207C1C204052
:10072000201C3C4020403C44281028444C90909091
:100730007C4464544C44000836410000007F0000B3
:100740000041360800180408100C7F4141417F0A1F
:100750004E6F2053442063617264206F720A6E6F83
:10076000204C4F414445522E4845580A0A153A45F7
:10077000786974001D20466C617368696E670A2091
:10078000206C6F616465722E2E2E0A0A444F4E272C
:1007900054205455524E204F464621000A0A153A1D
:1007A00049676E6F7265006D560A0A504C45415399
:1007B00045205455524E204F464620004C4F57205E
:1007C0004241545445525921200005008930080205
:1007D0003802497868140000F6E8DBCFC3B8AEA44D
:1007E0009B928A827B746E68625C57524E49454187
:1007F0003E3A3734312E2C29272523211F1D1C1A60
:100800001917161514131211100F0E0D0C0B0A09DF
:10081000080706450068010000050068013801006E
:1008200000050038016801000031082D080101FFB2
:10083000030101F7030000000800020100000304A7
:100840000700000000000000000102040810204022
:10085000800102040810200102040810200404048E
:100860000404040404020202020202030303030359
:1008700003000000002300260029000000000025DE
:100880000028002B0000000000240027002A0000A0
:10089000531011241FBECFEFD8E0DEBFCDBF11E053
:1008A000A0E0B1E0E4E8F5E502C005900D92A23BBE
:1008B000B107D9F724E0A2EBB1E001C01D92AE3E32
:1008C000B207E1F718E0C2E9D8E004C02297FE01C0
:1008D0000E94482AC039D107C9F70E9426260C94E5
:1008E000C02A0C9400008FEC91E00E94851A8823A6
:1008F000D1F325ED30E040E060E08FE892E00E9427
:10090000DF1464E089ED91E00E94CC11882339F076
:1009100084EF91E00E94A8231092E701089561E01E
:1009200089ED91E00E94CC11882349F061E084EFC9
:1009300091E00E94FF2384EF91E00E94A82363E0EE
:1009400089ED91E00E94CC11882349F084EF91E079
:100950000E94C52360E084EF91E00E94FF2366E0DF
:1009600089ED91E00E94CC11882309F4BCCF8FEC73
:1009700091E00E94911CB7CF8FEC91E00E944B1D3B
:100980006DEC74E08FE892E00E942B170E947304D4
:100990001092E701109295026EE18FEC91E00C94B9
:1009A000E118DF92EF92FF920F931F93CF93DF93A3
:1009B000C3E0D0E010E18CE1F82E90E2D92E8FEC6C
:1009C00091E00E94851A8823D1F300E324E540E0FA
:1009D00060E08FE892E00E940F13E12C00E027EE28
:1009E00032E046E268E18FE892E00E943E16EE2493
:1009F000E39427EE32E046E264E38FE892E00E945F
:100A00003E164FE060E089ED91E00E94D511882309
:100A100079F08091C4019091C50101979093C5012F
:100A20008093C40197FF04C0D093C501C093C40153
:100A30004FE062E089ED91E00E94D511882379F0C2
:100A40008091C4019091C50101969093C501809356
:100A5000C401049724F01092C5011092C40164E00F
:100A600089ED91E00E94CC11811143C08091C401B5
:100A70009091C501892B59F488E1809398021093D5
:100A8000990268E171E08FE892E00E9498268091D7
:100A9000C4019091C501019751F4F092980210930E
:100AA00099026FE171E08FE892E00E9498268091B0
:100AB000C4019091C501029751F4F09298021093ED
:100AC000990265E271E08FE892E00E949826809199
:100AD000C4019091C501039709F071CFD09298029B
:100AE000109399026BE271E08FE892E00E949826E1
:100AF00066CFDF91CF911F910F91FF90EF90DF9024
:100B000008952F923F924F925F926F927F928F92B1
:100B10009F92AF92BF92CF92DF92EF92FF920F938C
:100B20001F93CF93DF934AE1242E312CC6E2D0E00D
:100B30005AEF852E99249A94AA24A394B12C76E195
:100B4000672E712C5524539438E0432E8FEC91E09E
:100B50000E94851A8823D1F380910A01882309F421
:100B60000FC78091C60181110BC760910D01709173
:100B70000E016F5F7F4F70930E0160930D014AE08D
:100B800050E08FE892E00E9474274091120150914A
:100B900013018091CB019091CC01480F591F5093C4
:100BA000130140931201E090CD0100E021E433E015
:100BB000609114018FE892E00E943E1642E060E0EE
:100BC00089ED91E00E94D511882341F080911401B4
:100BD00090911501181619060CF4A3C742E062E0C3
:100BE00089ED91E00E94D511882341F08091140194
:100BF000909115018C3491050CF49DC742E060E0A2
:100C000089ED91E00E94D511882379F0809114013B
:100C1000909115011816190644F441E065E089ED3C
:100C200091E00E94D511811190C742E062E089ED08
:100C300091E00E94D511882379F080911401909160
:100C400015018C34910544F441E065E089ED91E0B3
:100C50000E94D511811196C744E164E089ED91E0CD
:100C60000E94D511882321F080910F018111A7C71F
:100C700044E166E089ED91E00E94D5118111509226
:100C8000C6012091BE013091BF0180910D0190916C
:100C90000E0128173907E1F48FEC91E00E94F91852
:100CA0002CE030E040E050E061E070E080E090E077
:100CB0000E94CB277093BD016093BC018091BE015F
:100CC0009091BF0188539F4F9093BF018093BE01C5
:100CD0008091BC019091BD0101970397D8F42BEF4F
:100CE00032E04091C0016091C2018FE892E00E9421
:100CF000DF148091C0019091C10101969093C101D0
:100D00008093C0011092BB011092BA011092B701FA
:100D10001092B6018091BC019091BD010497039798
:100D200048F521EF32E04091B8016091BA018FE8B7
:100D300092E00E94DF148091BA019091BB01BC0146
:100D4000882777FD8095982F0E94C72820E030E003
:100D500040EC5FE30E9430280E9494287093BB010E
:100D60006093BA011092C1011092C0011092B701B4
:100D70001092B6018091BA019091BB018035910526
:100D800094F01092BB011092BA0122E230E040E0F0
:100D900050E066E070E080E090E00E94CB27709326
:100DA000B9016093B8018091BC019091BD01079792
:100DB000039790F427EC30E04091B4016091B601C4
:100DC0008FE892E00E94DF141092BB011092BA01EA
:100DD0001092C1011092C0018091B4019091B501AF
:100DE000181619062CF0B0920C01A0920B0108C045
:100DF0008A9734F08FEF9FEF90930C0180930B0153
:100E00008091B6019091B70101978235910558F113
:100E10002AE230E040E050E060E070E0CB010E9468
:100E2000CB277093B5016093B40121E030E040E03E
:100E300050E060E070E0CB010E94CB277093B301DB
:100E40006093B2016115710539F482E590E09093E9
:100E5000B7018093B60107C06130710521F470932A
:100E6000B7016093B6018091B2019091B3010097F0
:100E700091F48091B6019091B701BC01882777FD6C
:100E80008095982F0E94C72820E030E040EC5FE377
:100E90000E942F2813C0019729F58091B6019091E7
:100EA000B701BC01882777FD8095982F0E94C7283D
:100EB00020E030E040EC5FE30E9430280E9494285C
:100EC0007093B7016093B6018091B4019091B50120
:100ED00020910B0130910C01820F931F9093B5016B
:100EE0008093B4018091BC019091BD010A97039752
:100EF000E8F425EA30E04AE06DE48FE892E00E94F1
:100F0000DF148091140190911501029690931501C0
:100F1000809314011092BB011092BA011092C1018A
:100F20001092C0011092B7011092B6018091120187
:100F300090911301C297C4F021E04CE161E084EF8D
:100F400091E00E94C71F01E020E041E061E084EFF2
:100F500091E00E94721F2EEF47E062E084EF91E083
:100F60000E94721F10920A01E090C001F090C1012E
:100F70000091C2011091C3014091120150911301DF
:100F800060911401709115012BEFC22E22E0D22E38
:100F900021E433E08FEC91E00E94E91D882341F0C9
:100FA0008091BC019091BD010197039708F426C67A
:100FB000E090B801F090B9010091BA011091BB0125
:100FC000409112015091130160911401709115012B
:100FD00091EFC92E92E0D92E21E433E08FEC91E01D
:100FE0000E94E91D882341F08091BC019091BD01D0
:100FF0000497039708F41BC6E090B401F090B50184
:101000000091B6011091B701409112015091130166
:10101000609114017091150187ECC82E80E0D82EE4
:1010200021E433E08FEC91E00E94E91D882341F038
:101030008091BC019091BD010797039708F410C6F9
:1010400040911201509113016091140170911501AA
:10105000B5EACB2EB0E0DB2E1AE0E12EF12C0DE448
:1010600010E021E433E08FEC91E00E94E91D882339
:1010700041F08091BC019091BD010A97039708F45B
:1010800008C68091C4019091C501892B09F0B9C0AF
:1010900023E133E04CE260E08FE892E00E94DF144D
:1010A00025E033E04CE16EE18FE892E00E94DF142E
:1010B000409112015091130160911401709115013A
:1010C000F3E1CF2EF3E0DF2EACE2EA2EF12C00E0CC
:1010D00010E021E433E08FEC91E00E94E91D8823C9
:1010E00029F0D0931301C09312011DC04091120149
:1010F00050911301609114017091150135E0C32ED8
:1011000033E0D32EECE1EE2EF12C0EE110E021E4E1
:1011100033E08FEC91E00E94E91D882359F0709232
:101120001301609212011092CC011092CB015092E7
:101130000F010BC08091CB019091CC01019690934F
:10114000CC018093CB0110920F014091C0015091CE
:10115000C1016091C2017091C30193E1C92E93E076
:10116000D92E2CE2E22EF12C00E010E02BEF32E041
:101170008FEC91E00E94E91D8111A4C54091C0014E
:101180005091C1016091C2017091C30105E0C02E70
:1011900003E0D02E8CE1E82EF12C0EE110E02BEFD5
:1011A00032E08FEC91E00E94E91D81118BC54091E6
:1011B000B8015091B9016091BA017091BB01B5E0DD
:1011C000CB2EB3E0DB2E1CE1E12EF12C0EE110E082
:1011D00021EF32E08FEC91E00E94E91D882389F035
:1011E0001092BB011092BA0122E230E040E050E0E0
:1011F00060E070E0CB010E94CB277093B90160934F
:10120000B8018091C4019091C501019709F04AC1CC
:1012100025E033E04CE160E08FE892E00E94DF14CB
:1012200025E033E04CE16CE38FE892E00E94DF14AC
:1012300025E033E04CE262E18FE892E00E94DF14A7
:1012400025E033E04CE26AE28FE892E00E94DF148E
:101250004091120150911301609114017091150198
:10126000F5E0CF2EF3E0DF2EACE1EA2EF12C00E02A
:1012700010E021E433E08FEC91E00E94E91D882327
:1012800029F070921301609212011FC04091120167
:1012900050911301609114017091150135E0C32E36
:1012A00033E0D32EECE1EE2EF12C0CE310E021E440
:1012B00033E08FEC91E00E94E91D882369F086E31A
:1012C00090E090931301809312011092CC01109240
:1012D000CB0150920F0142C0409112015091130175
:1012E000609114017091150195E0C92E93E0D92EFB
:1012F0002CE2E22EF12C02E110E021E433E08FEC4D
:1013000091E00E94E91D811119C040911201509194
:101310001301609114017091150105E0C02E03E0E6
:10132000D02E8CE2E82EF12C0AE210E021E433E02A
:101330008FEC91E00E94E91D882329F0D0931301DE
:10134000C0931201C2CF8091CB019091CC01019644
:101350009093CC018093CB0110920F014091C0017A
:101360005091C1016091C2017091C301B5E0CB2ED3
:10137000B3E0DB2E1CE1E12EF12C00E010E02BEFBE
:1013800032E08FEC91E00E94E91D8111B8C44091D8
:10139000C0015091C1016091C2017091C3010CE381
:1013A00010E02BEF32E08FEC91E00E94E91D8111FB
:1013B000A6C44091C0015091C1016091C2017091D9
:1013C000C301ACE2EA2EF12C02E110E02BEF32E097
:1013D0008FEC91E00E94E91D811191C44091C00100
:1013E0005091C1016091C2017091C3010AE210E005
:1013F0002BEF32E08FEC91E00E94E91D81117FC458
:101400004091B8015091B9016091BA017091BB014E
:10141000E5E0CE2EE3E0DE2EFCE1EF2EF12C00E045
:1014200010E021EF32E08FEC91E00E94E91D811184
:1014300083C44091B8015091B9016091BA01709193
:10144000BB010CE310E021EF32E08FEC91E00E9451
:10145000E91D811171C44091C0015091C101609199
:10146000C2017091C3013CE2E32EF12C02E110E0D5
:101470002BEF32E08FEC91E00E94E91D81115CC4FA
:101480004091C0015091C1016091C2017091C301AE
:101490000AE210E02BEF32E08FEC91E00E94E91DB0
:1014A00081114AC48091C4019091C501029709F04D
:1014B00021C123E133E04CE260E08FE892E00E943A
:1014C000DF1425E033E04CE16EE18FE892E00E940A
:1014D000DF1425E033E040E16EE18FE892E00E9406
:1014E000DF1425E033E040E062E18FE892E00E9403
:1014F000DF1425E033E040E06AE28FE892E00E94EA
:10150000DF14409112015091130160911401709108
:10151000150193E1C92E93E0D92E2CE2E22EF12C95
:1015200000E010E021E433E08FEC91E00E94E91D3F
:10153000882329F0D0931301C09312011DC040915C
:10154000120150911301609114017091150105E091
:10155000C02E03E0D02E8CE1E82EF12C0EE110E03D
:1015600021E433E08FEC91E00E94E91D882359F0DB
:1015700070921301609212011092CC011092CB0173
:1015800050920F0148C04091120150911301609197
:10159000140170911501B5E0CB2EB3E0DB2E10E104
:1015A000E12EF12C0EE110E021E433E08FEC91E02C
:1015B0000E94E91D882339F08AE090E0909313019E
:1015C00080931201D9CF4091120150911301609183
:1015D000140170911501A3E1CA2EA3E0DA2EE12CCB
:1015E000F12C00E010E021E433E08FEC91E00E9468
:1015F000E91D882329F0B092CC01A092CB010BC049
:101600008091CB019091CC0101969093CC01809375
:10161000CB0110920F014091C0015091C101609126
:10162000C2017091C301F5E0CF2EF3E0DF2EE12C73
:10163000F12C02E110E02BEF32E08FEC91E00E9400
:10164000E91D81118BC34091C0015091C10160918E
:10165000C2017091C3010AE210E02BEF32E08FEC7F
:1016600091E00E94E91D811179C34091C001509120
:10167000C1016091C2017091C30133E1C32E33E017
:10168000D32EECE2EE2EF12C00E010E02BEF32E056
:101690008FEC91E00E94E91D811160C34091B80177
:1016A0005091B9016091BA017091BB0195E0C92ECA
:1016B00093E0D92E2CE1E22EF12C0EE110E021EF87
:1016C00032E08FEC91E00E94E91D811164C34091EA
:1016D000B8015091B9016091BA017091BB0180E1EC
:1016E000E82EF12C21EF32E08FEC91E00E94E91D11
:1016F000811151C38091C4019091C501039709F0F4
:101700003FC123E133E04CE260E08FE892E00E94C9
:10171000DF1425E033E040E262E18FE892E00E94CE
:10172000DF1425E033E040E26AE28FE892E00E94B5
:10173000DF1425E033E044E16EE18FE892E00E949F
:10174000DF144091120150911301609114017091C6
:101750001501A3E1CA2EA3E0DA2EBCE2EB2EF12C98
:1017600000E010E021E433E08FEC91E00E94E91DFD
:10177000882329F0D0931301C09312011DC040911A
:101780001201509113016091140170911501E5E06F
:10179000CE2EE3E0DE2EF0E2EF2EF12C02E110E09F
:1017A00021E433E08FEC91E00E94E91D882359F099
:1017B00030921301209212011092CC011092CB01B1
:1017C00050920F0144C04091120150911301609159
:1017D00014017091150125E0C22E23E0D22E30E2D3
:1017E000E32EF12C0AE210E021E433E08FEC91E0EB
:1017F0000E94E91D8111DCCF40911201509113012B
:10180000609114017091150185E0C82E83E0D82EF7
:1018100094E1E92EF12C0EE110E021E433E08FECAD
:1018200091E00E94E91D882339F08EE090E09093CA
:10183000130180931201C0CF8091CB019091CC0114
:1018400001969093CC018093CB0110920F014091AF
:10185000C0015091C1016091C2017091C30113E1B7
:10186000C12E13E0D12E0CE2E02EF12C00E010E0AE
:101870002BEF32E08FEC91E00E94E91D81119EC2B6
:101880004091C0015091C1016091C2017091C301AA
:10189000A5E0CA2EA3E0DA2EB0E2EB2EF12C02E195
:1018A00010E02BEF32E08FEC91E00E94E91D8111F6
:1018B00085C24091C0015091C1016091C2017091F7
:1018C000C3010AE210E02BEF32E08FEC91E00E94BE
:1018D000E91D811173C24091C0015091C101609115
:1018E000C2017091C301F4E1EF2EF12C0EE110E082
:1018F0002BEF32E08FEC91E00E94E91D81115EC276
:101900004091B8015091B9016091BA017091BB0149
:1019100035E0C32E33E0D32EE0E2EE2EF12C02E1CF
:1019200010E021EF32E08FEC91E00E94E91D81117F
:1019300062C24091B8015091B9016091BA017091B1
:10194000BB010AE210E021EF32E08FEC91E00E944F
:10195000E91D811150C24091B8015091B9016091C7
:10196000BA017091BB0124E1E22EF12C0EE110E0EE
:1019700021EF32E08FEC91E00E94E91D81113BC222
:1019800080910A01882309F459C08091C6018823F7
:1019900009F454C06DEC74E08FE892E00E942B17BC
:1019A00098E19093980284E08093990200E324E503
:1019B00040E060E08FE892E00E940F1360E371E086
:1019C0008FE892E00E94B726409298026CE771E09F
:1019D0008FE892E00E94B7268CE080939802609195
:1019E0000D0170910E014AE050E08FE892E00E94F4
:1019F0006C2767E371E08FE892E00E94B72640927F
:101A000098026CE771E08FE892E00E94B72640925E
:101A100098026FE371E08FE892E00E94B72665E0DC
:101A200089ED91E00E94CC11882341F06BE473E0D2
:101A30008FE892E00E942B171092C60180910A0154
:101A4000811184C86DEC74E08FE892E00E942B173E
:101A500000E324E540E060E08FE892E00E940F138D
:101A600082E08093990280E1809398026BE471E0B8
:101A70008FE892E00E94B72618E01093980264EA7B
:101A800071E08FE892E00E94B7268CE18093980283
:101A900065E571E08FE892E00E94B7261093980206
:101AA00060910D0170910E014AE050E08FE892E0E4
:101AB0000E946C276BE571E08FE892E00E94B726E8
:101AC00084E18093980286E28093990264E671E053
:101AD0008FE892E00E94B72665E089ED91E00E94D0
:101AE000CC11882309F42EC884EF91E00E94C5230D
:101AF0008FEF9FEF90930E0180930D01DF91CF91B7
:101B00001F910F91FF90EF90DF90CF90BF90AF901B
:101B10009F908F907F906F905F904F903F902F900D
:101B2000089502979093150180931401B092CE010D
:101B3000A092CD0153C80296909315018093140191
:101B40001092CE011092CD0159C821E041E066E02B
:101B500084EF91E00E94C71F01E020E041E061E0D6
:101B600084EF91E00E94721F809114019091150101
:101B700003979093150180931401B092CE01A09227
:101B8000CD0153C821E041E066E084EF91E00E947E
:101B9000C71F01E020E041E061E084EF91E00E9496
:101BA000721F809114019091150103969093150175
:101BB000809314011092CE011092CD014DC820E007
:101BC00045E06EE184EF91E00E94C71F00E021E054
:101BD00043E063E084EF91E00E94721F8091120164
:101BE000909113010197909313018093120187EF55
:101BF0009FEF9093CC018093CB013AC821E04CE158
:101C000061E084EF91E00E94C71F01E020E041E025
:101C100061E084EF91E00E94721F2EEF47E062E0E6
:101C200084EF91E00E94721F10920A01C1C921E065
:101C30004CE161E084EF91E00E94C71F01E020E0E9
:101C400041E061E084EF91E00E94721F2EEF47E0D7
:101C500062E084EF91E00E94721F10920A01CCC9E9
:101C600021E04CE161E084EF91E00E94C71F01E0B8
:101C700020E041E061E084EF91E00E94721F2EEFCE
:101C800047E062E084EF91E00E94721F10920A0127
:101C9000D7C921E04CE161E084EF91E00E94C71FC9
:101CA00001E020E041E061E084EF91E00E94721FDA
:101CB0002EEF47E062E084EF91E00E94721F1092E5
:101CC0000A01DFC94091C0014C5F2FEC30E0609108
:101CD000C2018FE892E00E94DF149092C1018092CD
:101CE000C0012CE430E040E050E060E070E0CB0167
:101CF0000E94CB277093C3016093C20158CA4091E0
:101D0000C0014C5F2FEC30E06091C2018FE892E09F
:101D10000E94DF149092C1018092C0012CE430E057
:101D200040E050E060E070E0CB010E94CB27709370
:101D3000C3016093C20164CB1092BB011092BA013F
:101D400022E230E040E050E060E070E0CB010E9431
:101D5000CB277093B9016093B801A4CB4091C00127
:101D60004C5F2FEC30E06091C2018FE892E00E945E
:101D7000DF149092C1018092C0012CE430E040E079
:101D800050E060E070E0CB010E94CB277093C3016C
:101D90006093C20183CC1092BB011092BA0122E27F
:101DA00030E040E050E066E070E080E090E00E94CB
:101DB000CB277093B9016093B8019CCC4091C001CE
:101DC0004C5F2FEC30E06091C2018FE892E00E94FE
:101DD000DF141092C1011092C0012CE430E040E009
:101DE00050E060E070E0CB010E94CB277093C3010C
:101DF0006093C20185CD1092BB011092BA0122E21C
:101E000030E040E050E060E070E0CB010E94CB2782
:101E10007093B9016093B801B3CDCF931092E701ED
:101E200044E068E770E08FEC91E00E943F1B813056
:101E300009F498C00CF088C08F3F09F490C081115C
:101E400030C168E670E08FE892E00E9473268FEC64
:101E500091E00E94F91886E290E09093150180933A
:101E6000140184E290E09093130180931201109288
:101E7000CE011092CD0181E090E09093110180930A
:101E800010019093CC018093CB011092C10110926C
:101E9000C0012CE430E040E050E060E070E0CB01B5
:101EA0000E94CB277093C3016093C2011092BF01BF
:101EB0001092BE011092BD011092BC011092BB01A4
:101EC0001092BA0122E230E040E050E060E070E0C1
:101ED000CB010E94CB277093B9016093B801109297
:101EE000B7011092B6012AE230E040E050E066E02F
:101EF00070E080E090E00E94CB277093B501609382
:101F0000B40121E030E040E050E060E070E0CB015F
:101F10000E94CB277093B3016093B2018FEF9FEFC4
:101F200090930C0180930B0181E080930A01109241
:101F3000C6010E94D1046BE473E08FE892E00E9436
:101F40002B17CF910C948105823009F498C083300F
:101F500009F0A7C08FEC91E0CF910C94911CCF9128
:101F60000C947304C1E08FEC91E00E94851A8823E1
:101F7000D1F365E089ED91E00E94CC11882339F01E
:101F800084EF91E00E94C5231092E7018AC010926D
:101F90009802109299028FEC91E00E943E1990E015
:101FA0009093CA018093C9018FEC91E00E944D1972
:101FB0009093C8018093C7016CE671E08FE892E0CE
:101FC0000E9498266091C9017091CA014AE050E0D0
:101FD0008FE892E00E946C2761E771E08FE892E061
:101FE0000E94B72664EA71E08FE892E00E94B7266B
:101FF00063E771E08FE892E00E9498266091C70144
:102000007091C8014AE050E08FE892E00E94742786
:1020100064EA71E08FE892E00E94B72664E671E01E
:102020008FE892E00E94B726C093E7019CCF109200
:102030009802109299026EE771E08FE892E00E9498
:10204000B72664EA71E08FE892E00E94B72665E85F
:1020500071E08FE892E00E94B72664EA71E08FE8B1
:1020600092E00E94B7266BE871E08FE892E00E9450
:10207000B72664E671E08FE892E00E94B7268FEC05
:1020800091E00E94851A8823D1F365E089ED91E003
:102090000E94CC11882359F284EF91E0CF910C94E7
:1020A000C523CF910895109292021092910287E970
:1020B00091E09093900280938F028FEC91E00E94C8
:1020C0003E1990E09093CA018093C9018FEC91E092
:1020D0000E944D199093C8018093C7012CE430E011
:1020E00040E050E060E070E0CB010E94CB277093AD
:1020F000C3016093C20122E230E040E050E060E0C2
:1021000070E0CB010E94CB277093B9016093B801B6
:102110002AE230E040E050E066E070E080E090E0ED
:102120000E94CB277093B5016093B40121E030E0A9
:1021300040E050E060E070E0CB010E94CB2770935C
:10214000B3016093B2010895CF93CFB7F894809113
:10215000C802811127C0E7E6F8E08491E3E5F8E0E2
:102160009491E82FF0E0EE0FFF1FEB57F74FA5918A
:10217000B4918C91892321F461E08AE00E94C62504
:1021800061E08AE00E948D258CB580618CBD8CB5A4
:1021900080648CBD61E08DE00E948D2561E08BE064
:1021A0000E948D258091C8028F5F8093C802CFBFA7
:1021B000CF91089521E0FC012083089570E085E02F
:1021C0000C940525AF92BF92CF92DF92EF92FF92CF
:1021D0000F931F93CF93DF93EC0189819A812FE0B6
:1021E000289F8001299F100D112485E10E94E82479
:1021F000800F911F24E0969587952A95E1F79A83A1
:1022000089832881222391F1AC81AD80B12CC12C2E
:10221000D12CE885F9857F0100E010E06E817F8197
:102220009B0140E050E08617970728F0BC01E817B3
:10223000F90708F4BF0180E090E01F921F921F92FF
:10224000AF930E94E7276B830F900F900F900F9032
:1022500070E085E0DF91CF911F910F91FF90EF909B
:10226000DF90CF90BF90AF900C940525DF91CF9178
:102270001F910F91FF90EF90DF90CF90BF90AF90A4
:102280000895FC018CE39FE09383828384E0818343
:1022900081E084870895CF93DF93EC018C819D8149
:1022A000892B81F18C858F7151F584E10E94E8249E
:1022B000BC01882777FD8095982F0E94C72826EEBD
:1022C0003FE34EEC50E40E9453290E9499289B0161
:1022D0007B836A836115710581F084E08983FE0147
:1022E00040E0848195812817390710F449830AC09A
:1022F0004F5F32964430A9F702C08FEF89838C85F7
:102300008F5F8C87DF91CF910895FC0188E08083F7
:1023100089E0818387E0828386E0838384E084830D
:1023200082E0858381E186830895DF92EF92FF92B8
:102330000F931F93CF93DF937C01EC0100E010E03B
:10234000DD24DA9462E088810E948D2588810E94D4
:10235000FC25F701E00FF11F892B21F487818F5FA6
:10236000878308C08781882349F08F3F11F4178243
:1023700001C0D78260E088810E948D250F5F1F4FCA
:10238000219607301105F1F6DF91CF911F910F9142
:10239000FF90EF90DF900895FC01E60FF11D81E0C2
:1023A0009781913009F080E00895262F30E0FC01FC
:1023B000E20FF31F8781423028F481508E3F48F0AE
:1023C00080E008958F3FE1F3642F0E94C629913089
:1023D000B9F781E008958EBD00000DB407FEFDCF72
:1023E0008EB50895DC01643508F053C0403308F021
:1023F00050C090968C919097342F359535953595A2
:10240000E62FFF27E7FDF095242F2770823099F4FF
:10241000DF01A753BD4F84E53802A00DB11D112483
:102420008C9190E0022E02C0959587950A94E2F770
:102430008095817009C0833039F446271C968C91B1
:10244000482740FF03C014C0811112C084E5380240
:10245000E00DF11D1124E753FD4F81E090E0022EC5
:1024600001C0880F0A94EAF780959081982310C0E4
:1024700084E53802E00DF11D1124E753FD4F81E0A2
:1024800090E0022E01C0880F0A94EAF79081982B01
:10249000908308951F93CF93DF93EC01162FF89448
:1024A00060E08F850E94C625888918161CF460E0BC
:1024B0000E94C625812F0E94EB11888918161CF4F2
:1024C00061E00E94C6257894DF91CF911F91089515
:1024D00028EF31E0E9ECF2E0DF01A9011D92415063
:1024E0005040E1F7DC0119961C9219971A961C923C
:1024F0000895DF92EF92FF920F931F93CF93DF9394
:10250000EC018C858F5F8C8789ECE82E82E0F82EB9
:10251000D12C6D2D6064CE010E944A1260E8CE017C
:102520000E944A1261E08F850E94C625888918168C
:102530001CF460E00E94C62500E010E0F701E00F07
:10254000F11F80810E94EB110F5F1F4F04351105B1
:10255000A9F7888918161CF461E00E94C625D39457
:1025600084E5E80EF11C86E0D812D3CF60E4CE01FA
:10257000DF91CF911F910F91FF90EF90DF900C941E
:102580004A12FC0160A361A30895FC0160A341A36A
:102590000895CF92DF92FF920F931F93CF93DF9313
:1025A0001F92CDB7DEB76C01062FF42E10E0121784
:1025B00054F4412F4F0D602FC60129830E94F21160
:1025C0001F5F2981F4CF0F90DF91CF911F910F9161
:1025D000FF90DF90CF900895CF92DF92FF920F93FC
:1025E0001F93CF93DF931F92CDB7DEB76C01062FF9
:1025F000F42E10E0121754F4612F600F4F2DC60116
:1026000029830E94F2111F5F2981F4CF0F90DF917F
:10261000CF911F910F91FF90DF90CF900895EF928F
:10262000FF920F931F93CF93DF93EC01F62E142F9D
:10263000E22E0E94EC124FEF400F410F2E2D6F2D16
:10264000CE010E94EC12202F412F6F2DCE010E944F
:10265000C9126FEF6E0D6F0D202F412FCE01DF914C
:10266000CF911F910F91FF90EF900C94C912DF92C0
:10267000EF92FF920F931F93CF93DF93EC01E62E1F
:10268000D22EF42E112707FD1095040F111D47FDC2
:102690001A958F2D992787FD90958017910744F4FF
:1026A0002D2D4F2D6E2DCE010E94EC12F394F1CF03
:1026B000DF91CF911F910F91FF90EF90DF900895E0
:1026C0008F929F92AF92BF92CF92DF92EF92FF9242
:1026D0000F931F93CF93DF93EC01E62ED42E122F8E
:1026E000CC24C394C21AB22EB194BB0CF12C802F0F
:1026F0008470A82E802F8270982E802F8870882E4C
:102700000170F1160CF04DC0C7FC04C01150B39419
:10271000B394CB0CF3948F2D880F8F5FC80EAA2033
:1027200071F0412F4D0D6F2D6E0DCE010E94F211F3
:102730004F2D4D0D612F6E0DCE010E94F21199208B
:1027400071F04D2D411B6F2D6E0DCE010E94F211C7
:102750004D2D4F19612F6E0DCE010E94F211882070
:1027600071F04F2D4D0D6E2D611BCE010E94F211A7
:10277000412F4D0D6E2D6F19CE010E94F2110023D5
:1027800009F4BFCF4D2D4F196E2D611BCE010E9454
:10279000F2114D2D411B6E2D6F19CE010E94F211C9
:1027A000B0CFDF91CF911F910F91FF90EF90DF900D
:1027B000CF90BF90AF909F908F9008958F929F92EF
:1027C000AF92BF92CF92DF92EF92FF920F931F933F
:1027D000CF93DF93EC01B62EA42E122FDD24D394D9
:1027E000D21AC22EC194CC0CFF24F394802F817096
:1027F000882E992493949E0C02708FEF8F0D811771
:10280000C4F5D7FC04C01150C394C394DC0C8F2DC5
:10281000880F8F5FD80E882099F0212F220F290D65
:102820004A2D411B6F2D6B0DCE010E94C91223E072
:102830002E0D4A2D4F19612F6B0DCE010E94C9122A
:10284000002399F0212F220F290D4A2D411B6B2DBA
:102850006F19CE010E94C91223E02E0D4A2D4F1987
:102860006B2D611BCE010E94C912F394E394E39493
:10287000C4CFDF91CF911F910F91FF90EF90DF9028
:10288000CF90BF90AF909F908F9008959F92AF92FE
:10289000BF92CF92DF92EF92FF920F931F93CF934D
:1028A000DF93EC01B62EF42EA22EDE2CD194DD0C9B
:1028B0009D2C920E1E2D160F292D612F0E94EC12B9
:1028C000CC24CA94C00ECF0C292D4C2D612FCE01E3
:1028D0000E94EC12D00EFE0C2D2D4F2D6B2DCE0133
:1028E0000E94C912BA0C6FEF6B0D2D2D4F2DCE012A
:1028F0000E94C91201E02E2D4F2D612FCE010E94A2
:102900006013DE2CD094DB0C02E02E2D4F2D6D2DAC
:10291000CE010E946013CE1804E02E2D4C2D6D2D9B
:10292000CE010E94601308E02E2D4C2D612FCE01A8
:102930000E946013DF91CF911F910F91FF90EF9054
:10294000DF90CF90BF90AF909F900895AF92BF92CD
:10295000CF92DF92EF92FF920F931F93CF93DF936B
:10296000EC01A62EC42EB22EF02E1E2DE194EE0CFC
:10297000D12ED60E2E2D2B0D6D2D0E943713FA94CD
:10298000FE0CC10E6FEF6A0D6B0D611BEF2C01E0A9
:10299000212F4C2DCE010E94DE1302E0212F4C2D61
:1029A0006D2DCE010E94DE13DF91CF911F910F910B
:1029B000FF90EF90DF90CF90BF90AF9008956F920F
:1029C0007F928F929F92AF92BF92CF92DF92EF92BF
:1029D000FF920F931F93CF93DF93F901A490319649
:1029E0005491FC01F0A064350CF00CC1BB24A7FC91
:1029F000B094A62FBB27A7FDB095FD01EA0DFB1DE6
:102A00001E161F060CF0FEC040330CF0FBC0C52E96
:102A1000042F112707FD1095E801C50FD11D57FDA3
:102A2000DA951C161D060CF0EDC0E9012296950101
:102A3000295F3F4F37FF02C0295F3F4F73E0359555
:102A400027957A95E1F747FF0AC0C52EC40E209F4F
:102A5000A001219F500D1124C41BD50B40E00C2D6B
:102A6000112707FD1095040F111D47FD1A9501331D
:102A700011051CF070E3C72EC41A67FD60E0E53550
:102A8000F10514F0E4E5F0E01E2FFC0174857427D5
:102A9000862F992787FD9095FC01EA1BFB0BDF0130
:102AA0005F01F7E0AF22BB24E0E8F0E002C0F5955B
:102AB000E795AA94E2F70E2FB7FD179653E0B59568
:102AC000A7955A95E1F7AC0FBD1FE42FE77051E0D1
:102AD00001C0550FEA95EAF7459545954595E4E51A
:102AE0004E02800D911D112487539D4F40E0DD243F
:102AF000C7FCD094BB24B3943327E42FF0E0EC154B
:102B0000FD050CF07FC0FD01E490F1E0FF1219C05B
:102B1000EC01A02EFD01862E881A9C2E980C911691
:102B200008F067C09E2C9A2019F09880952A988208
:102B3000A69429F43196E4906894AA24A7F82196E3
:102B4000ECCFF1101BC0752E7094EC01A02EFD018E
:102B5000862E881A9C2E980C911608F04AC09E2C3E
:102B60009A2019F0988097209882A69429F431969B
:102B7000E4906894AA24A7F82196ECCFE3E0FE162F
:102B800031F0EC01A02EFD01862E881A2EC0752E84
:102B90007094962EEC01A02EFD019116B0F48E2CAF
:102BA0008A2049F08880692C672660FE02C0852A49
:102BB00001C087208882A69429F43196E490689415
:102BC000AA24A7F893942196E8CF7B2512C09E2CC7
:102BD0009A2019F0988095269882A69429F4319627
:102BE000E4906894AA24A7F821969C2E980C91163C
:102BF00070F3550F19F48C5A9F4F51E04F5FA20F9D
:102C0000B31F7BCFDF91CF911F910F91FF90EF907A
:102C1000DF90CF90BF90AF909F908F907F906F90FC
:102C20000895FB01A491842F90E0E3E095958795AA
:102C3000EA95E1F70296B0E01796F3E0B595A7950F
:102C4000FA95E1F72A9FF0012B9FF00D11248E0FCA
:102C50009F1F860F971FFC018491282F30E047703B
:102C600080E890E002C0959587954A95E2F7282381
:102C7000392381E0232B09F480E008952F923F92BD
:102C80004F925F926F927F928F929F92AF92BF927C
:102C9000CF92DF92EF92FF920F931F93CF93DF9328
:102CA000CDB7DEB72A970FB6F894DEBF0FBECDBF03
:102CB0006C01262E542F01111CC0E1101AC02A9657
:102CC0000FB6F894DEBF0FBECDBFDF91CF911F913D
:102CD0000F91FF90EF90DF90CF90BF90AF909F90BB
:102CE0008F907F906F905F904F903F902F900C94BB
:102CF000DF14F901849131963490B9016E5F7F4FF2
:102D00007A836983A82EB12C9501295F3F4FB3E0E8
:102D100035952795BA95E1F73A87298703702FEF04
:102D2000280F522E10E07FEF730D832D90E09C83CF
:102D30008B83812F992787FD90958A159B050CF031
:102D400071C0812F17FF02C087E0810F682E659444
:102D500065946594812F877887FF03C08150886FC1
:102D60008F5FA0E88A2E912C02C0959487948A9553
:102D7000E2F7472EF12C772467FC70948F2D99276A
:102D800087FD9095EB81FC818E179F070CF047C063
:102D9000A985BA858A9FF0018B9FF00D9A9FF00D4F
:102DA0001124E60DF71D89819A81E80FF91FE4913E
:102DB000F0E0E821F921EF2B79F1023039F003300E
:102DC00041F0013049F4452D6F2D08C0652D442D8B
:102DD00005C0642D412F02C04F2D612FEE2069F0F8
:102DE0003E2D3370E0FE03C0922F961B692FE1FE4B
:102DF00005C0A32DA41B4A2F01C030E0620D450F72
:102E0000C6012E833D835F8378870E94F2113D8146
:102E1000E32E78855F812E81F3944A94AFCF1F5FB4
:102E20005A9487CF2A960FB6F894DEBF0FBECDBF57
:102E3000DF91CF911F910F91FF90EF90DF90CF9096
:102E4000BF90AF909F908F907F906F905F904F90CA
:102E50003F902F900895DC01FB0184918F5F1496C1
:102E60008C9314973196E491EF5F1596EC93159738
:102E70006E5F7F4F5F967C936E935E970895EF929F
:102E80000F93CF93DF93EC014E876D872F87E98AED
:102E9000088B81E0888788A319A28F836BE473E095
:102EA000CE010E942B170E94A4108CB58F7D8CBD83
:102EB0008CB58C7F81608CBD8DB581608DBD8CB5EE
:102EC0008C608CBD61E08E850E948D2561E08D85D2
:102ED0000E948D2561E08F850E948D2589891816B5
:102EE0001CF461E00E948D25888918161CF461E0AD
:102EF0000E948D25898918166CF460E00E94C62511
:102F00006AE070E080E090E00E94852461E08989B9
:102F10000E94C6258D85992787FD9095FC01E35A6F
:102F2000F74FE491F0E0EE0FFF1FE558F74F2591C2
:102F300034913D8B2C8BFC01E75BF74F84918B8F99
:102F40008E85992787FD9095FC01E35AF74FE49110
:102F5000F0E0EE0FFF1FE558F74F259134913B8BC2
:102F60002A8BFC01E75BF74F84918A8F8889992728
:102F700087FD9095FC01E35AF74FE491F0E0EE0FE6
:102F8000FF1FE558F74F259134913F8B2E8BFC01A5
:102F9000E75BF74F84918C8F8F85992787FD9095FC
:102FA000FC01E35AF74FE491F0E0EE0FFF1FE55804
:102FB000F74F25913491398F288FFC01E75BF74F4C
:102FC00084918D8F61E2CE010E944A1264E1CE01AC
:102FD0000E944A128B8587FF02C08FE78B876B8523
:102FE0006068CE010E944A1260E2CE010E944A123D
:102FF0006CE0CE010E944A12CE01DF91CF910F9179
:10300000EF900C9479126F927F928F929F92AF9271
:10301000BF92CF92DF92EF92FF920F931F93CF93C5
:10302000DF93EC01162FF42EB02EE8A064350CF0DF
:1030300081C08FE284170CF47DC0EC81F0E0319701
:103040000E9FC0010F9F900D1124860F911D67FDEB
:103050009A95181619060CF06DC08D81809FC001DD
:103060001124840F911D47FD9A95181619060CF02E
:1030700061C0A62E962EC22ED12C8A2D811B992797
:1030800087FD90952C8130E0821793070CF051C09A
:10309000215031098217930779F0C29ED001C39E57
:1030A000B00DD29EB00D1124A80FB91FEE8DFF8D6B
:1030B000EA0FFB1F749001C0712C8F2C6F2C282DF0
:1030C0002F19332727FD30958D8190E02817390778
:1030D0006CF570FE11C081E0B81206C0482D6A2D53
:1030E000CE010E94F2111EC00B2D2B2D462D692DF5
:1030F000CE010E94371316C089A198A1891791F0BB
:1031000088A381E0B81206C0482D6A2DCE010E9426
:10311000F21107C00B2D2B2D462D692DCE010E94DB
:103120003713E8A276946B0C8394C9CF9B0CA394BD
:10313000A4CFE8A2DF91CF911F910F91FF90EF9064
:10314000DF90CF90BF90AF909F908F907F906F90C7
:1031500008950F93CF93DF93EC01262F6A3039F453
:103160002D8198858A85299F800D112422C06D307C
:1031700011F108854A8569850E94031848855C819C
:103180002985549F200D112429878F81882399F048
:10319000332727FD309584E590E0459F80199109FC
:1031A0001124821793073CF49D818A85499F800DE5
:1031B00011248A87198681E090E0DF91CF910F91E9
:1031C0000895CF93DF93FC01462FEC01CF50DF4FE2
:1031D00070E088EE93E00E94E6296883842F64E122
:1031E0000E94C629811101C081E085ABDF91CF919A
:1031F00008958F929F92AF92BF92CF92DF92EF92FB
:10320000FF92CF93DF93EC01CA8CDB8CC094D094F7
:10321000E12CF12C0E9462244B015C010E9462248B
:10322000A501940120953095409550956095709535
:10323000809590950E94B6299B01AC01C701B6010B
:103240000E94B6296B017C0189809A80A12CB12C47
:103250000E946224680D791D8A1D9B1D6C0D7D1DC9
:103260008E1D9F1DDF91CF91FF90EF90DF90CF904B
:10327000BF90AF909F908F900C949F27FC01EF50D0
:10328000FF4F60813A978AE0689FB00111248081E6
:1032900091810E94D229862F0895CF93DF9300D089
:1032A000CDB7DEB72091EA043091EB04211531054A
:1032B00011F42EEE34E0CE010196821B930B0F9099
:1032C0000F90DF91CF9108958F929F92AF92BF920E
:1032D000CF92DF92EF92FF920F931F93CF93DF93E2
:1032E000EC015C0188EFA80EB11CD5018C918823FC
:1032F00009F44DC08C3018F41CE0181B01C010E01C
:10330000FE01E853FF4F81E080836E01B0ECCB0EED
:10331000D11C60E0C6010E94C1124E01E5EC8E0E88
:10332000911CD4018C9103E0080F9DE2F92E4F2DE2
:10333000481B410F23E0E22E24E560E0C6010E9415
:10334000A61461E0C6010E94C112F401808103E06D
:10335000080F4F2D481B410F24E560E0C6010E9475
:103360004614FE01E753FF4F84E080833196D40179
:103370008C91181B115D1083CA50DF4F68817981D1
:10338000C6010E947326F501808181508083DF9100
:10339000CF911F910F91FF90EF90DF90CF90BF9052
:1033A000AF909F908F900895DF92EF92FF920F93CE
:1033B0001F93CF93DF93EC018C8D9D8D892B09F4A6
:1033C0009CC08E0100541F4F40E061E0C8010E9484
:1033D000C51285E5FE01EC53FF4F9081891B3596A0
:1033E000808331961082698D613009F462C028F0C3
:1033F000888D653008F074C06FC0CE0185960E943C
:10340000E32081E0FE01E853FF4F80836BE473E02B
:10341000C8010E942B171D8E1C8EFE01EA53FF4F20
:10342000108238EAD32E7E018AE0E80EF11CCE012C
:103430000E94851A8823D9F36CEB77E0C8010E94BB
:1034400073266A8D7B8D4AE050E0C8010E9499275F
:1034500067EA77E0C8010E9473266D2D62956F7050
:1034600070E04AE050E0C8010E946C276CE977E008
:10347000C8010E94732664E0C7010E94CC1181112B
:103480003CC0DA94A1F660E0CE010E94DE1083B762
:10349000817F846083BF83B7816083BF83B781608E
:1034A00083BF889583B78E7F83BF83B78E7F83BFAB
:1034B000BECFCD51DF4F488159816A817B814F70EA
:1034C000552766277727483051056105710510F4A7
:1034D00067E009C068E707C0882379F06B5F03C025
:1034E000882359F06FE2C801DF91CF911F910F91AE
:1034F000FF90EF90DF900C949A26DF91CF911F916F
:103500000F91FF90EF90DF9008958F929F92AF926E
:10351000BF92EF92FF920F931F93CF93DF93EC0133
:103520007C0102EFE00EF11CF70180809180A28007
:10353000B3800E94562495018401061B170B280BAB
:10354000390BB901A8015E0111EFA10EB11CF50103
:10355000808190E0A0E0B0E08E0103511F4F8417FE
:103560009507A607B70750F4F80180819181A281E1
:10357000B381892B8A2B8B2B09F040C0F801808105
:103580009181A281B381892B8A2B8B2BA9F57E0196
:10359000F5E2EF0EF11CC7010E94D320C7010E9483
:1035A000A721C7010E94D222CE010E946419CE0138
:1035B0000E94D4197E0120ECE20EF11CC7010E948A
:1035C0007912FE01EA53FF4F8081811103C0C701C8
:1035D0000E9468120E946224F801608371838283D2
:1035E0009383FE01E951FF4FC751DF4F2881398195
:1035F000621B730B7183608380E036C00E94562487
:10360000F5012081620F711D811D911DF7016083FD
:10361000718382839383FE01ED51FF4F408151817D
:10362000628173814F5F5F4F6F4F7F4F4083518344
:1036300062837383F80110821182128213820E94C6
:103640006224FE01E751FF4F60837183828393837D
:10365000CE010E94E210CE010A960E949511CE0181
:1036600048960E944B1181E0DF91CF911F910F91FD
:10367000FF90EF90BF90AF909F908F9008952F9202
:103680003F924F925F926F927F928F929F92AF92F2
:10369000BF92CF92DF92EF92FF920F931F93CF933F
:1036A000DF93CDB7DEB766970FB6F894DEBF0FBED7
:1036B000CDBF9E8B8D8B6F87788B942EFC01EA5348
:1036C000FF4F108288248A941C82A12C30E33B8314
:1036D000B12C6C018AE0C80ED11C6D887E8895ECF7
:1036E000690E711CED89FE89B5962F01242F30E0FB
:1036F0003A8729878D899E8987539F4F9E838D8323
:10370000ED89FE89E653FF4FF887EF832D893E89C7
:1037100028533F4F3C872B878D899E8989539F4F24
:103720009E878D87ED89FE89E054FF4F1F018D89AB
:103730009E890E94851A8823D1F364E0C6010E9405
:10374000CC113B81032F112707FD109581113EC03D
:1037500065E0C6010E94CC11811138C066E0C60147
:103760000E94CC11811132C03C81311142C044E031
:1037700063E0C6010E94D511882321F0B394C201F1
:103780000E94E22344E061E0C6010E94D511882333
:1037900021F0BA94C2010E94E2238B2D992787FD64
:1037A0009095E985FA858E179F0731F0B7FE05C021
:1037B000BB24BA94B90C01C0B12CF301808174E030
:1037C000A72EA80E8B9DA01811241DC0F301A08068
:1037D00064E0C6010E94CC11882309F484C0C201B0
:1037E0000E94A8238B2CA194A99CA02C1124AA94FC
:1037F000AA94C8018A199109A7FC939502970CF421
:1038000076C031E03C830A0D111DA7FC1A9517FF05
:1038100002C00F5F1F4FC801959587959A838983D2
:1038200029812B83ED81FE811082EF81F8858083D1
:1038300081E0EB85FC858083ED85FE8510820F8518
:103840001889E12CF12C4B2D552747FD509533E07D
:10385000E91420F5E416F50669F4ED81FE81308364
:10386000F3018081F22FB89EF00D11248F2FEF818C
:10387000F8858083F80165917491C101298B3C8B97
:103880004A8B5B8B0E94A526FFEFEF1AFF0A0E5FA3
:103890001F4F5B894A893C892989DACF60E0C101E1
:1038A0000E94C112F30180814981B89E400D11240C
:1038B000415024E560E0C1010E94EC1261E0C101C9
:1038C0000E94C112F301808103E0080F4981B89E74
:1038D000400D1124425053E0E52E24E560E0C10183
:1038E0000E94461424CFC2010E94C5237CCF882D9C
:1038F00066960FB6F894DEBF0FBECDBFDF91CF91B5
:103900001F910F91FF90EF90DF90CF90BF90AF90FD
:103910009F908F907F906F905F904F903F902F90EF
:1039200008950F931F93CF93DF938C01EC01C05444
:10393000DF4FCE010E94681264E777E0CE010E945B
:103940007326CE010E9479128CB583608CBD8DB533
:103950008E7F8DBD8BE991E0EEEFFFE30995F801D5
:10396000EA53FF4F10826FE477E0CE010E94A52654
:10397000CE010E947912065F1F4FC8010E94951167
:1039800064E0C8010E94CC11811107C062E370E0BD
:1039900080E090E00E948524F0CFDF91CF911F91CD
:1039A0000F910895E0E8F7E72591349181E0213007
:1039B000304C09F080E00895CF93DF93EC010E9432
:1039C000D21C9E0125533F4FDE01AE51BF4F8823CD
:1039D00009F43CC0E6E9F7E78491F9018083E7E95F
:1039E000F7E7E491EC83E8E9F7E7E491ED83E9E9AF
:1039F000F7E7859194919F838E83EBE9F7E78591B3
:103A0000949199878887EDE9F7E7E491EFABEEE9C8
:103A1000F7E7E491EEABEFE9F7E7E491EC93E0EA46
:103A2000F7E7859194919D8F8C8FE2EAF7E7859176
:103A300094919F8F8E8FE4EAF7E78591949199A3F3
:103A400088A3E6EAF7E78591949120C08CE3F90119
:103A500080831C822FEF2D8380E293E09F838E83EF
:103A600084ED93E09987888781E08FAB8EAB2C93B0
:103A70008CEA9DE09D8F8C8F8EED9DE09F8F8E8FC9
:103A800084E79EE099A388A38CE39FE09BA38AA38D
:103A9000DF91CF910895CF92DF92EF920F93CF9362
:103AA000DF93EC01FC01EF50FF4F82E380833497FA
:103AB00041E050E060E070E04083518362837383B3
:103AC0003B978FEF8083CE010E94DC1CCE010E94C9
:103AD000DA106FEFCE010E94DE106E018AE0C80E90
:103AE000D11CC6010E948511C6010E949511CE010C
:103AF00048960E9441113EE0E32E0FE020E14BE0AA
:103B00006DE0CE0180549F4F0E943F17A596CE01D5
:103B10000E94131F65E0C6010E94CC11882351F05A
:103B200060E0CE01DF91CF910F91EF90DF90CF90C9
:103B30000C94FF2340E06AEC77E0CE010E944F2016
:103B400041E06AEC77E0CE010E944F2042E06AEC4F
:103B500077E0CE010E944F2043E06AEC77E0CE018F
:103B6000DF91CF910F91EF90DF90CF900C944F2089
:103B70008F929F92AF92BF92CF92DF92EF92FF927D
:103B80000F931F93CF93DF93CDB7DEB7260F371F69
:103B9000E216F30684F4EA0CFB1C6E157F055CF458
:103BA000040F151FC016D10634F4C80CD91C81E0CF
:103BB0004C155D050CF080E0DF91CF911F910F91C6
:103BC000FF90EF90DF90CF90BF90AF909F908F903D
:103BD00008952F923F924F925F926F927F928F92B1
:103BE0009F92AF92BF92CF92DF92EF92FF920F938C
:103BF0001F93CF93DF93CDB7DEB760970FB6F894DE
:103C0000DEBF0FBECDBF9E878D87788B6F873A0151
:103C10003E832D8318012701D886CF82F901849134
:103C2000282F30E03A832983ED81FE813196E4919B
:103C30006E2F70E07C836B83EF81F8858491282F51
:103C400030E03A872987EF81F8853196E4916E2F2D
:103C500070E07C876B874B01A984BA846701780187
:103C60000B811C8129813A816F8578898D859E859C
:103C70000E94B81D811102C080E079C08F859889AB
:103C80008215930534F4C101AF85B8898A1B9B0B5B
:103C900002C080E090E06414750424F492012619B7
:103CA000370902C020E030E049855A85420D531D96
:103CB00069817A81EF85F8896E0F7F1F6417750718
:103CC0002CF0BA016E1B7F0B7A8369834B855C8570
:103CD000440D551D6B817C81660D771D641775073A
:103CE0002CF0DA01A619B709BC83AB83B22E00E031
:103CF00010E0782EED84FE84B0ECEB0EF11C64181D
:103D0000620ECF84C218C80E202E3B2C300E832D9D
:103D100090E02B813C81821793070CF0ADCF412CB2
:103D2000512C260CD42C472D440D842F90E0E98192
:103D3000FA818E179F07A4F4232D6D817E81C70120
:103D40000E941116882379F04C2D4D0D222D6F8184
:103D50007885C7010E941116882329F081E007C0E9
:103D60000F5F1F4FD1CF3FEF431A530ADBCF60964F
:103D70000FB6F894DEBF0FBECDBFDF91CF911F917C
:103D80000F91FF90EF90DF90CF90BF90AF909F90FA
:103D90008F907F906F905F904F903F902F900895FD
:103DA000CF93DF9350E0FA01EE0FFF1FE80FF91FEA
:103DB00033A924A9E32FF22FE60FF11DE60FF11D21
:103DC00025913491BA01660F771F680F791FFB01A7
:103DD000ED58FF4F31832083F90165917491FC0107
:103DE000C089C69FD02D1124E40FF51FE558FF4F61
:103DF000D083F901A591B4916B2F70E0ED2FF0E025
:103E0000840F951F6E177F0720F4F90125913491D7
:103E1000D32FFC01E158FF4FDC9FD02D1124D0831C
:103E2000DF91CF910895BF92CF92DF92EF92FF92F0
:103E30000F931F93CF93DF938C0181E0F801808B68
:103E40007801C0E0D0E0BB24B394F9E2CF2EF8E0D3
:103E5000DF2EF801EC0FFD1FE956FF4FB082F7018E
:103E6000D4AAC3AA4C2F60E0C8010E94D01E21969C
:103E7000F2E0EF0EF11CC430D10559F761E070E0BB
:103E800083E00E9405258091B100887F8160809346
:103E9000B100F89410928000109281001092850079
:103EA0001092840088E191E09093890080938800CB
:103EB0008091810088608093810080918100816081
:103EC0008093810080916F00826080936F0078946E
:103ED000DF91CF911F910F91FF90EF90DF90CF90E6
:103EE000BF9008950F93CF93DF93362F642F043044
:103EF00008F049C0323049F158F43323E1F0313051
:103F000009F041C0402FDF91CF910F910C94D01E4A
:103F1000333051F13430B9F5FC01E00FF11DDF0110
:103F2000A559BF4FEC018889489F602D11246C93DF
:103F3000E159FF4F27C0800F911DFC01E15BFF4F4E
:103F40004B3008F06AE060831EC0FC01E00FF11DF9
:103F5000DF01A55ABF4FEC018889489F602D1124CD
:103F60006C93E15AFF4F0EC0FC01E00FF11DDF0121
:103F7000AD59BF4FEC018889489F602D11246C9387
:103F8000E959FF4F2083DF91CF910F910895CF938F
:103F9000DF93243040F530E0FC01E20FF31FDF0136
:103FA000A95BBF4F6C931496EC015889459F402D37
:103FB00011244C93A05CBF4F1C92A901440F551FC4
:103FC000480F591FDA01AD57BF4F1D921C92DF01F8
:103FD000AD5ABF4F81E08C93D901A752BB4F8C9350
:103FE000E95AFF4F1082DF91CF9108958091D90453
:103FF000882319F08091CD0401C080E09091DA040B
:10400000992319F09091CE04890F9091DB049923A4
:1040100019F09091CF04890F9091DC04992319F045
:104020009091D004890F8093B4000895643030F5E6
:1040300070E09C01260F371FF901ED5AFF4F1082E7
:1040400038971082AB01440F551F480F591FFA01D2
:10405000ED57FF4F11821082F901E95AFF4F10828C
:10406000FB01E353FB4F1082FB01EF52FB4F108229
:10407000FB01E752FB4F10820C94F61F08951F932B
:10408000CF93DF93EC01162F643028F40E941620A2
:10409000C10FD11D1C82DF91CF911F910895EF9226
:1040A000FF920F931F93CF93DF931F92CDB7DEB78D
:1040B0007C018B01443018F5642F49830E943F2016
:1040C0004981E42FF0E0DF01AA0FBB1FAE0DBF1D39
:1040D0009C961C930E939B97DF961D921C92EE0D5F
:1040E000FF1D81E08483DF01A15BBF4F89E08C93DA
:1040F0001C961C9218961C92E559FF4F10820F9047
:10410000DF91CF911F910F91FF90EF9008950F9342
:104110001F93CF93DF93EC01462F643008F03EC02D
:10412000062F10E0DC01A00FB11F8C918823B1F1A4
:1041300014968C911497811131C05B968C915B978A
:10414000F801EE0FFF1FEC0FFD1F23899489E22F6A
:10415000F92FE80FF11DE80FF11D85919491F801F9
:10416000EE0FFF1F8F3F2FEF920711F41C9216C026
:1041700097969C93EC0FFD1F9927880F991F078C2A
:10418000F0A1E02DE80FF91F65917491CE010E9416
:104190004F20C00FD11F8B8D8F5F8B8FDF91CF9101
:1041A0001F910F9108951F93CF93DF93EC0110E0BF
:1041B000612FCE010E9487201F5F1430C9F7DF9165
:1041C000CF911F9108951F93CF93DF93EC0110E0DF
:1041D000612FCE010E943F201F5F1430C9F7DF918D
:1041E000CF911F910895AF92BF92CF92DF92EF923D
:1041F000FF920F931F93CF93DF93EC01162F643040
:1042000008F09AC0E62EF12CDC01AE0DBF1D14960D
:104210008C911497882309F48FC0FD01E55BFF4F53
:104220008081811189C0F701EE0FFF1FEC0FFD1F88
:1042300023A534A5FF9680819181880F991F820F55
:10424000931FFC0185919491EE0CFF1C009731F5B2
:10425000DB968C91DB97882341F0DE01AE0DBF1D0C
:10426000DF961D921C92F90117C014961C921497A8
:104270008C918823F1F0CE010E948720FE01EE0D83
:10428000FF1DDF01DF968D919C91880F991F03A47C
:10429000F4A5E02DE80FF91F859194915E01AE0C15
:1042A000BF1C65012FE3C20ED11CABE2AA0EB11CEC
:1042B0000DC0CE01DF91CF911F910F91FF90EF9034
:1042C000DF90CF90BF90AF900C941620BC017695F4
:1042D00067957695679580FF21C0AC01F6E056950D
:1042E0004795FA95E1F7292F269526952695205191
:1042F0004F716F70012FCE010E94721FF6018081F5
:104300009181019691838083880F991FD501ED914A
:10431000FC91E80FF91F85919491D8CF492F6F73C5
:10432000212FCE010E94C71FCE0DDF1DEF96888181
:104330009981019699838883DF91CF911F910F9185
:10434000FF90EF90DF90CF90BF90AF9008951F93B4
:10435000CF93DF93EC0110E0612FCE010E94F32098
:104360001F5F1430C9F7DF91CF911F910895EF922D
:10437000FF920F931F93CF93DF937C01643008F07B
:104380000AC1062F10E0EC01C00FD11FFE01ED5A4B
:10439000FF4F8081882309F4FEC038978081811106
:1043A00009C0C701DF91CF911F910F91FF90EF904E
:1043B0000C94162081508083FE01E557FF4F8081C9
:1043C000811157C09801220F331F2E0D3F1DF90197
:1043D000ED57FF4F8081918101967097AC01440F9A
:1043E000551F0190F081E02DE40FF51F25913491C8
:1043F000FE01E157FF4F422F47704083A901B3E010
:1044000056954795BA95E1F7DA01B695A795349692
:10441000232F26952695208338973A2F3F73D7016F
:1044200050962C91329FA02D1124A083F801E753C0
:10443000FB4F417040839801220F331F2E0D3F1D0B
:10444000F901ED57FF4F91838083DE01A558BF4FDF
:104450002C9130E08217930760F014968C9188239A
:1044600029F0281B31093183208303C0C7010E9432
:104470001620FE01E557FF4F808181508083F4971D
:1044800030813F5F308370972081E45BFF4F408134
:10449000420F8FA1480F4887F0976081662369F02B
:1044A00070E0832F992787FD90950E94E629349626
:1044B0008081869F400D11244887888590E0CB96A7
:1044C0006BE370E00E94E6298887FE01E15BFF4F05
:1044D00040814C873C966081662379F0772767FDA1
:1044E0007095832F992787FD90950E94E629349631
:1044F0008081869F400D11244C87FE01E559FF4FB6
:104500006081662399F0832F992787FD909570E04D
:104510000E94E629CB0162E070E00E94E629349611
:1045200030819C85389F900D11249C878C852F337A
:1045300039F08A300CF089E087FD80E08C8701C07B
:104540001C86F894E885F0E0E852F84FE491D80131
:10455000AB52BB4FEC93F701E00FF11FDF01A956FF
:10456000BF4F9C91D70151968C91989F802D11241B
:104570009485899F802D1124E157FF4F9081899F59
:10458000802D1124F801EF52FB4F8083F801E35393
:10459000FB4F80837894DF91CF911F910F91FF9013
:1045A000EF9008951F93CF93DF93EC0110E0612FFC
:1045B000CE010E94B7211F5F1430C9F7DF91CF9160
:1045C0001F9108956091D104611102C080E023C061
:1045D0008091DD048F5F8093DD049091D50489176D
:1045E000A8F38091D90491E089278093D90410928F
:1045F000DD048091C904882369F09091160183E459
:10460000989F802D1124895B809316010E94C629F2
:104610009093CD0481E06091D204662319F19091CA
:10462000DE049F5F9093DE042091D6049217D0F0B1
:104630008091DA0491E089278093DA041092DE04F5
:104640008091CA04882369F09091160183E4989FB1
:10465000802D1124895B809316010E94C6299093B6
:10466000CE0481E06091D304662319F19091DF04B8
:104670009F5F9093DF042091D7049217D0F0809130
:10468000DB0491E089278093DB041092DF048091A2
:10469000CB04882369F09091160183E4989F802DC4
:1046A0001124895B809316010E94C6299093CF0440
:1046B00081E06091D404662319F19091E0049F5F3A
:1046C0009093E0042091D8049217D0F08091DC04FC
:1046D00091E089278093DC041092E0048091CC045F
:1046E000882379F09091160183E4989F802D1124FE
:1046F000895B809316010E94C6299093D00401C063
:1047000081110C94F61F08951F920F920FB60F920D
:1047100011242F933F934F935F936F937F938F93C6
:104720009F93AF93BF93EF93FF930E94E222FF9179
:10473000EF91BF91AF919F918F917F916F915F9119
:104740004F913F912F910F900FBE0F901F90189592
:10475000CF93DF93EC0160E00E943F2081E298E07C
:104760009CA78BA7FE01FF961182108281E08C83AB
:10477000709689E080833C96108238961082C559E5
:10478000DF4F1882DF91CF910895CF93DF93EC0133
:1047900060E00E943F2089E198E09CA78BA7FE0182
:1047A000FF961182108281E08C83709689E080836D
:1047B0003C96108238961082C559DF4F1882DF91DF
:1047C000CF910895CF93DF93EC0160E00E943F20EA
:1047D00083E198E09CA78BA7FE01FF9611821082CF
:1047E00081E08C83709689E080833C9610823896B5
:1047F0001082C559DF4F1882DF91CF910895FC01D7
:10480000862F992787FD9095628970E06F5F7F4FB3
:104810000E94E629818B08951F920F920FB60F9286
:1048200011242F933F938F939F93AF93BF938091C6
:10483000E2049091E304A091E404B091E504309186
:10484000E10423E0230F2D3720F40196A11DB11DB3
:1048500005C026E8230F0296A11DB11D2093E10497
:104860008093E2049093E304A093E404B093E504FE
:104870008091E6049091E704A091E804B091E904E6
:104880000196A11DB11D8093E6049093E704A093C7
:10489000E804B093E904BF91AF919F918F913F914C
:1048A0002F910F900FBE0F901F9018952FB7F8946F
:1048B0006091E2047091E3048091E4049091E50436
:1048C0002FBF08953FB7F8948091E6049091E704D4
:1048D000A091E804B091E90426B5A89B05C02F3F3C
:1048E00019F00196A11DB11D3FBF6627782F892FB2
:1048F0009A2F620F711D811D911D42E0660F771F77
:10490000881F991F4A95D1F70895CF92DF92EF92B1
:10491000FF92CF93DF936B017C010E946224EB0135
:10492000C114D104E104F10489F00E942E280E94F0
:1049300062246C1B7D0B683E734090F381E0C81AC3
:10494000D108E108F108C851DC4FEACFDF91CF91DF
:10495000FF90EF90DF90CF900895789484B58260B7
:1049600084BD84B5816084BD85B5826085BD85B513
:10497000816085BDEEE6F0E0808181608083E1E8C2
:10498000F0E01082808182608083808181608083FA
:10499000E0E8F0E0808181608083E1EBF0E08081FD
:1049A00084608083E0EBF0E0808181608083EAE7CF
:1049B000F0E0808184608083808182608083808158
:1049C000816080838081806880831092C100089517
:1049D0008E3008F08E5087702091170190E4299F47
:1049E00090011124822B80937C0080917A00806456
:1049F00080937A0080917A0086FDFCCF80917800C8
:104A00002091790090E0922B08951F93CF93DF932C
:104A1000182FEB0161E00E948D25209711F460E0D2
:104A200004C0CF3FD10539F461E0812FDF91CF91F0
:104A30001F910C94C625E12FF0E0EB5CF74FE49159
:104A4000E330F9F048F4E130B9F0E230A1F584B593
:104A5000806284BDC8BD34C0E730E9F0E83019F1A8
:104A6000E43049F580918000806280938000D0938B
:104A70008B00C0938A0024C084B5806884BDC7BD04
:104A80001FC080918000806880938000D09389004F
:104A9000C093880015C08091B00080688093B000FA
:104AA000C093B3000DC08091B00080628093B000CD
:104AB000C093B40005C0C038D1050CF0B5CFAFCF5E
:104AC000DF91CF911F910895833081F028F48130D8
:104AD00099F08230A1F008958730A9F08830B9F0BC
:104AE0008430D1F4809180008F7D03C0809180005C
:104AF0008F7780938000089584B58F7702C084B546
:104B00008F7D84BD08958091B0008F7703C0809120
:104B1000B0008F7D8093B0000895CF93DF9390E035
:104B2000FC01E75BF74F2491FC01E35AF74F8491B6
:104B3000882349F190E0880F991FFC01EB57F74F4C
:104B4000A591B4918558974FFC01C591D4919FB719
:104B5000611108C0F8948C91209582238C938881F0
:104B600082230AC0623051F4F8948C91322F309530
:104B700083238C938881822B888304C0F8948C9142
:104B8000822B8C939FBFDF91CF9108950F931F933A
:104B9000CF93DF931F92CDB7DEB7282F30E0F90116
:104BA000EB5CF74F8491F901E75BF74F1491F90142
:104BB000E35AF74F04910023C9F0882321F0698359
:104BC0000E9464256981E02FF0E0EE0FFF1FE55899
:104BD000F74FA591B4919FB7F8948C91611103C0E0
:104BE0001095812301C0812B8C939FBF0F90DF9183
:104BF000CF911F910F910895CF93DF93282F30E02D
:104C0000F901EB5CF74F8491F901E75BF74FD49121
:104C1000F901E35AF74FC491CC2391F081110E941E
:104C20006425EC2FF0E0EE0FFF1FEF58F74FA59132
:104C3000B4912C912D2381E090E021F480E002C01A
:104C400080E090E0DF91CF91089508950E94AD2417
:104C50000E9425260E94BC04C0E0D0E00E940D0FF7
:104C60002097E1F30E940000F9CFCF92DF92EF92FC
:104C7000FF920F931F93CF93DF936C017A01EB01A7
:104C8000E60EF71E00E010E0CE15DF0561F0699139
:104C9000D601ED91FC910190F081E02DC6010995BE
:104CA000080F191FF1CFC801DF91CF911F910F910C
:104CB000FF90EF90DF90CF9008956115710581F01E
:104CC000DB010D900020E9F7AD0141505109461B71
:104CD000570BDC01ED91FC910280F381E02D0994EA
:104CE00080E090E00895EF92FF920F931F93CF938F
:104CF000DF938C01FB01C0E0D0E064917F018FEF76
:104D0000E81AF80A662361F0D801ED91FC91019050
:104D1000F081E02DC8010995C80FD91FF701EDCF2B
:104D2000CE01DF91CF911F910F91FF90EF900895E9
:104D30000C945D26DC01ED91FC910190F081E02D59
:104D4000099462EA71E00C945D260F931F93CF9350
:104D5000DF93EC010E9473268C01CE010E94A126F4
:104D6000800F911FDF91CF911F910F9108950F93A5
:104D70001F93CF93DF93EC010E945D268C01CE013F
:104D80000E94A126800F911FDF91CF911F910F915B
:104D900008958F929F92AF92BF92CF92DF92EF923F
:104DA000FF920F931F93CF93DF93CDB7DEB7A197F9
:104DB0000FB6F894DEBF0FBECDBF7C01C42EE52F29
:104DC000CB01D22E19A221E02D1510F02AE0D22E0F
:104DD0008E010F5D1F4F8D2C912CA12CB12C6C2DB1
:104DE0007E2FA50194010E94FA298C2DD29E801954
:104DF0001124015011098A3014F4805D01C0895CCE
:104E0000F8018083211531054105510521F0C22E9D
:104E1000E32FCA01E4CFB801C7010E945D26A19625
:104E20000FB6F894DEBF0FBECDBFDF91CF911F91BB
:104E30000F91FF90EF90DF90CF90BF90AF909F9039
:104E40008F900895CF92DF92EF92FF920F931F936E
:104E5000CF93DF93EC016A017B012115310579F4D1
:104E6000E881F9810190F081E02D642FDF91CF91ED
:104E70001F910F91FF90EF90DF90CF9009942A300F
:104E80003105E9F477FF1AC06DE20E949A268C0181
:104E900044275527BA014C195D096E097F092AE09C
:104EA000CE010E94C926800F911FDF91CF911F91E3
:104EB0000F91FF90EF90DF90CF9008952AE0B70117
:104EC000A601CE01DF91CF911F910F91FF90EF903E
:104ED000DF90CF900C94C9269A01AB01662757FD4D
:104EE0006095762F0C9422270F931F93CF93DF9317
:104EF000EC019A01AB01662757FD6095762F0E9461
:104F000022278C01CE010E94A126800F911FDF91E4
:104F1000CF911F910F9108952115310541F4DC01C6
:104F2000ED91FC910190F081E02D642F09940C9497
:104F3000C9269A01AB0160E070E00C948C276115E2
:104F400071058105910511F00C94AF2A0895CF9356
:104F5000DF9300D000D0CDB7DEB79B01AC01611567
:104F600071058105910569F069833A834B835C8300
:104F70000E94AA2A29813A814B815C810E941C2AC5
:104F800003C060E070E0CB010F900F900F900F9086
:104F9000DF91CF910895CF92DF92EF92FF926B0154
:104FA0007C01621773078407950764F4CA01B9018D
:104FB0006C197D098E099F090E94A7276C0D7D1D24
:104FC0008E1D9F1DFF90EF90DF90CF9008954F9220
:104FD0005F926F927F92AF92BF92CF92DF92EF92E9
:104FE000FF920F931F93CF93DF93CDB7DEB72901C5
:104FF0003A01621B730B840B950B29893A894B8903
:105000005C892A193B094C095D09298B3A8B4B8B2A
:105010005C8B9B01AC0169897A898B899C890E9490
:10502000B629E418F50806091709A80197010E9496
:105030001C2A2A0D3B1D4C1D5D1DCA01B901DF91C3
:10504000CF911F910F91FF90EF90DF90CF90BF9085
:10505000AF907F906F905F904F9008950895505853
:10506000BB27AA270ED0E5C0D6D030F0DBD020F089
:1050700031F49F3F11F41EF4CBC00EF4E095E7FB32
:10508000C1C0E92FE7D080F3BA176207730784071E
:10509000950718F071F49EF5FFC00EF4E0950B2E05
:1050A000BA2FA02D0B01B90190010C01CA01A0017A
:1050B0001124FF27591B99F0593F50F4503E68F1D5
:1050C0001A16F040A22F232F342F4427585FF3CF16
:1050D000469537952795A795F0405395C9F77EF4E7
:1050E0001F16BA0B620B730B840BBAF09150A1F030
:1050F000FF0FBB1F661F771F881FC2F70EC0BA0FB6
:10510000621F731F841F48F4879577956795B7953D
:10511000F7959E3F08F0B3CF9395880F08F0992735
:10512000EE0F97958795089504D06894B111B5C096
:10513000089598D088F09F5790F0B92F9927B751CC
:10514000A0F0D1F0660F771F881F991F1AF0BA954B
:10515000C9F712C0B13081F09FD0B1E008959CC072
:10516000672F782F8827B85F39F0B93FCCF3869541
:1051700077956795B395D9F73EF49095809570959E
:1051800061957F4F8F4F9F4F0895E89409C097FB1B
:105190003EF490958095709561957F4F8F4F9F4F0E
:1051A0009923A9F0F92F96E9BB279395F695879552
:1051B00077956795B795F111F8CFFAF4BB0F11F415
:1051C00060FF1BC06F5F7F4F8F4F9F4F16C08823BC
:1051D00011F096E911C0772321F09EE8872F762FF2
:1051E00005C0662371F096E8862F70E060E02AF033
:1051F0009A95660F771F881FDAF7880F969587951F
:1052000097F9089597F99F6780E870E060E0089546
:105210009FEF80EC089500240A94161617061806CE
:105220000906089500240A941216130614060506AA
:105230000895092E0394000C11F4882352F0BB0F3B
:1052400040F4BF2B11F460FF04C06F5F7F4F8F4F9E
:105250009F4F089557FD9058440F551F59F05F3FD9
:1052600071F04795880F97FB991F61F09F3F79F088
:1052700087950895121613061406551FF2CF46950A
:10528000F1DF08C0161617061806991FF1CF86958C
:105290007105610508940895E894BB276627772770
:1052A000CB0197F908950BD0C4CFB5DF28F0BADF52
:1052B00018F0952309F0A6CFABCF1124EECFCADFAB
:1052C000A0F3959FD1F3950F50E0551F629FF00119
:1052D000729FBB27F00DB11D639FAA27F00DB11D72
:1052E000AA1F649F6627B00DA11D661F829F2227FB
:1052F000B00DA11D621F739FB00DA11D621F839F82
:10530000A00D611D221F749F3327A00D611D231F57
:10531000849F600D211D822F762F6A2F11249F57A5
:1053200050408AF0E1F088234AF0EE0FFF1FBB1FC8
:10533000661F771F881F91505040A9F79E3F510567
:1053400070F060CFAACF5F3FECF3983EDCF3869518
:1053500077956795B795F795E7959F5FC1F7FE2B12
:10536000880F911D9695879597F90895DB018F9386
:105370009F930E943B2ABF91AF91A29F800D911DE8
:10538000A39F900DB29F900D11240895991B79E071
:1053900004C0991F961708F0961B881F7A95C9F7C5
:1053A00080950895AA1BBB1B51E107C0AA1FBB1F14
:1053B000A617B70710F0A61BB70B881F991F5A95A1
:1053C000A9F780959095BC01CD01089597FB072E14
:1053D00016F4009407D077FD09D00E94D22907FC6B
:1053E00005D03EF4909581959F4F089570956195F5
:1053F0007F4F0895A1E21A2EAA1BBB1BFD010DC011
:10540000AA1FBB1FEE1FFF1FA217B307E407F50774
:1054100020F0A21BB30BE40BF50B661F771F881F50
:10542000991F1A9469F760957095809590959B01E6
:10543000AC01BD01CF010895052E97FB1EF4009429
:105440000E94332A57FD07D00E94FA2907FC03D097
:105450004EF40C94332A50954095309521953F4F4A
:105460004F4F5F4F089590958095709561957F4F50
:105470008F4F9F4F08950E944C2AA59F900DB49F77
:10548000900DA49F800D911D11240895EE0FFF1F14
:105490000590F491E02D0994A29FB001B39FC00143
:1054A000A39F700D811D1124911DB29F700D811D50
:1054B0001124911D08958F929F92AF92BF92CF9227
:1054C000DF92EF92FF92CF93DF93EC0168817981B5
:1054D0008A819B81611571058105910521F464E242
:1054E00079ED8BE597E02DE133EF41E050E00E944C
:1054F0001C2A49015A019B01AC01A7EAB1E40E94B0
:105500003B2A6B017C01ACEEB4EFA50194010E9433
:10551000BB2AC60ED71EE81EF91EF7FE06C081E0A4
:10552000C81AD108E10880E8F80AC882D982EA825C
:10553000FB82C701B6019F77DF91CF91FF90EF907B
:10554000DF90CF90BF90AF909F908F9008950E9472
:105550005B2A089586E091E00E945B2A089560939B
:105560000601709307018093080190930901089543
:10557000B7FF0C943B2A0E943B2A821B930B089591
:04558000F894FFCFCD
:105584000000EE0480000100000001FFFFFFFF01A6
:1055940001002400260001014C6F6E656C790052F5
:1055A4006964676500546F7765720048696C6C00C4
:1055B40050415553454400206672616D6573001671
:1055C40020746F20726573756D6500596F75206462
:1055D400696564210054696D653A00206672616DE5
:1055E40065732E0050726573732016004350553A4C
:1055F400002500467265652052414D3A2000152071
:105604004A756D7000162052756E00172050617532
:1056140073650000000000A91835264C4F4144452D
:1056240052000D0A006E616E00696E66006F766648
:02563400000074
:00000001FF
