:100000000C9497030C94BF030C94BF030C94BF0390
:100010000C94BF030C94BF030C94BF030C94BF0358
:100020000C94BF030C94BF030C94BF030C94B21543
:100030000C94BF030C94BF030C94BF030C94BF0338
:100040000C9470190C94BF030C94BF030C94BF0361
:100050000C94BF030C94BF030C94BF030C94BF0318
:100060000C94BF030C94BF0308087E5A5A5A7E248E
:10007000240058040000000000000000000000FF01
:10008000FFFFFFFFFFFFFFFFFFFFFFFFFFFFFFFF80
:10009000FFFFFFFFFFFFFFFFFFFFFFFFFFFFFFFF70
:1000A0000808183C246642C3817E4661696C7572FB
:1000B000650013011C0124013001536D6173682038
:1000C000262043726173680020436F6E6E6563740F
:1000D000696E672E2E2E00202020204C6F616469EF
:1000E0006E672E2E2E2E00202020204C6F6164691A
:1000F0006E672E2E2E2E00536D61736820262043CE
:100100007261736800536D617368202620437261C9
:10011000736800537572766976616C004F7074690C
:100120006F6E73004D756C7469706C6179657200E7
:100130004261636B20746F205469746C6500030521
:100140003F213F1208120A100A0E1C0E0C1E0C143E
:100150001A14161F161E131E1E1B1E1E1F1E3F21C5
:100160003F3A2F3A173D173F213F181F02040A0458
:100170001F0E04040E1F0A1F0A0E0E1F04110E2E5E
:10018000252E2F2A2E262929021F02081F08150EA8
:1001900004040E150E15151B151B040604040C048F
:1001A0000000000017000300031F0A1F16371A196A
:1001B00004130A153A000300000E11110E000A0480
:1001C0000A040E04003000040404001000180403A4
:1001D0001F111F121F101D151711151F07041F17C0
:1001E000151D1F151D01011F1F151F17151F000AC3
:1001F00000003200040A110A0A0A110A0401150259
:100200000E11171E051E1F150A0E110A1F110E1FB3
:1002100015111F05010E111D1F041F111F110810BC
:100220000F1F041B1F10101F061F1E040F0E110EA0
:100230001F09060E112E1F051A121509011F011F95
:10024000101F0F180F1F0C1F1B041B031C03191575
:1002500013001F11030418111F00020102202020A7
:100260000001020C121E1F120C0C12120C121F0C99
:100270001A14041E05242A1E1F021C141D102020FF
:100280001D1F0814111F101E041E1E021C0C120C30
:100290003E0A040C123E1E040214160A020F120E2D
:1002A000101E0E100E1E081E120C1226281E322AB8
:1002B00026041E21001F00211E040102013F213FD0
:1002C00005077F4141417F3E5B4F5B3E3E6B4F6B7D
:1002D0003E183C783C18183C7E3C181C577D571C37
:1002E0001C5E7F5E1C007E43437E007E73737E0037
:1002F0007E7F7F7E7F4141417F30483A060E06294E
:100300007929067F4141417F60703F02042A1C36F3
:100310001C2A7F3E1C080000081C3E7F14227F22FE
:10032000143C3C3C7EFF18423C817E3E6375633E3C
:100330003E616B633E3E636B6B3E04027F020410C2
:10034000207F201008082A1C08081C2A0808143ED0
:10035000554122637569756310181C1810040C1C34
:100360000C04000000000000005F00000007000710
:1003700000147F147F14042A7F2A10231308646258
:1003800036495620500008070300001C2241000097
:1003900041221C002A1C3E1C2A08083E080800E0D6
:1003A000600000080808080800606000006010088D
:1003B00004033E5149453E00427F40006251494995
:1003C000462141494D331814127F102745454539C0
:1003D0003C4A494930412111090736494949360605
:1003E0004949291E00002400000080640000081410
:1003F000224100141414141400412214080201595B
:1004000009063E415D594E7C1211127C7F494949D3
:10041000363E414141227F4141221C7F49494941A9
:100420007F090909013E414151327F0808087F00D8
:10043000417F41002041413F017F081422417F401C
:100440004040407F020C027F7F0204087F3E414112
:10045000413E7F090909063E416141BE7F091929D4
:1004600046264949493201017F01013F4040403F52
:100470001F2040201F3F4038403F6314081463038F
:10048000047804036151494543007F41410003045E
:100490000810600041417F00040201020480808056
:1004A0008080000307080020545478407F2844448B
:1004B000383844444428384444287F385454541825
:1004C000087E09090218A4A49C787F080404780017
:1004D000447D4000006080847D7F101028440041EE
:1004E0007F40007C047804787C0804047838444415
:1004F0004438FC1824241818242418FC7C0804040C
:10050000080854545420043F4444203C4040207C7C
:100510001C2040201C3C4020403C44281028444CD7
:100520009090907C4464544C440008364100000094
:100530007F00000041360800180408100C7F41417C
:10054000417F0A4E6F2053442063617264206F72B2
:100550000A6E6F204C4F414445522E4845580A0AB6
:10056000153A45786974001D20466C617368696EA0
:10057000670A20206C6F616465722E2E2E0A0A4471
:100580004F4E2754205455524E204F464621006D61
:10059000560A0A504C454153450A5455524E204F75
:1005A0004646004C4F5720424154544552590A0088
:1005B000177361766500166261636B00157479705C
:1005C00065000A0A0A153A6F6B617920163A65646C
:1005D000697400596F7520656E74657265640A00F0
:1005E000540A03E181867F3E186D830F0F0E01834D
:1005F000866033186DC3198F1803C38E6033186D6E
:10060000E330CF1803C39E603630CDE360CF3006B1
:10061000C79E7E3E30CDB360CF300CC6F66033301F
:10062000D9B660CF33CFCCF66061B0DB1E60CF307F
:10063000D86CE6C061B0DB1E618F19986CC6C063D0
:10064000B19B0E330F0FB078C6FF7E1F1B061E0F27
:1006500017534400161378001613140015102000C9
:100660001520100000000500893008023802497882
:1006700068140000450068010000050068013801A9
:1006800000000500380168010000F6E8DBCFC3B8C0
:10069000AEA49B928A827B746E68625C57524E490C
:1006A00045413E3A3734312E2C29272523211F1D61
:1006B0001C1A1917161514131211100F0E0D0C0B0E
:1006C0000A09080706C906CD060101F7030101FF63
:1006D0000300000000240027002A0000000000257D
:1006E0000028002B00000000002300260029000441
:1006F00004040404040404020202020202030303C9
:1007000003030301020408102040800102040810C2
:100710002001020408102000000007000201000070
:10072000030406000000000000000000C1031124C3
:100730001FBECFEFD8E0DEBFCDBF11E0A0E0B1E03B
:10074000EEE4FFE302C005900D92A032B107D9F7A5
:1007500014E0A0E2B1E001C01D92A733B107E1F7B8
:1007600017E0CEE2D7E004C02297FE010E94091FE5
:10077000CC32D107C9F70E949E1B0C94A51F0C9484
:1007800000001092E3011092E2018BE191E090935E
:10079000E1018093E00160E070E080E090E02CE413
:1007A00030E040E050E00E94411D70931B026093D6
:1007B0001A020895CF92DF92EF92FF920F931F9348
:1007C000CF93DF93C1E0D0E080E291E00E9443103C
:1007D0008823D1F380EE91E060911A0240911C02CF
:1007E00020EA30E00E94CF0980911C0290911D0206
:1007F000019690931D0280931C0240911301509129
:10080000140180910D0190910E01480F591F5093D2
:100810000E0140930D0180EE91E060910B0128E6FE
:1008200030E000E0E09018020E94640A80EE91E05F
:1008300060E04CE222E730E00E94CF098AE291E0DA
:1008400061E042E00E949906882371F080910D01D9
:1008500090910E012091110130911201821B930B96
:1008600090930E0180930D018AE291E063E042E0F3
:100870000E949906882371F080910D0190910E01DC
:100880002091110130911201820F931F90930E015C
:1008900080930D018AE291E060E042E00E949906B7
:1008A000882391F080910B0190910C0120910F0110
:1008B00030911001821B930B90930C0180930B01DC
:1008C000D0931902C09318028AE291E062E042E0FC
:1008D0000E949906882391F080910B0190910C0160
:1008E00020910F0130911001820F931F90930C0102
:1008F00080930B0110921902109218028AE291E083
:1009000064E044E10E949906882399F080911301E4
:1009100090911401892B69F485E491E00E94EB1811
:1009200080910D0190910E01449790930E01809358
:100930000D018AE291E066E00E948F06882369F04B
:1009400085E491E00E94F118DF91CF911F910F9102
:10095000FF90EF90DF90CF90089560910B01709120
:100960000C0140910D0150910E0180E291E028E6CA
:1009700030E000E010E0ACE2EA2EF12CF2E7CF2EFE
:10098000F0E0DF2E0E94130E813021F4109214014A
:100990001092130160910B0170910C0140910D01B7
:1009A00050910E0180E291E028E630E000E010E096
:1009B000ECE2EE2EF12CB2E7CB2EB0E0DB2E0E9463
:1009C000130E882321F4D0931401C0931301609176
:1009D0000B0170910C0140910D0150910E0100919D
:1009E0001A0210911B02E0901C02F0901D0280E29E
:1009F00091E028E630E0A0EACA2EA0E0DA2E0E94BC
:100A0000130E813031F480EE91E06AEA70E00E94CA
:100A1000D71B60911A0270911B0240911C025091E9
:100A20001D0280E291E020EA30E000E010E0FCE20C
:100A3000EF2EF12CE2E7CE2EE0E0DE2E0E94130E28
:100A4000813009F0C1CE10921D0210921C0260E0AC
:100A500070E080E090E02CE430E040E050E00E9464
:100A6000411D70931B0260931A02AECE80E291E0AA
:100A700062EB70E044E00E94FC10813001F18230B2
:100A80002CF48F3F41F0882369F008958230E1F023
:100A9000833069F526C080E291E067EF70E00E9444
:100AA000C113089580EE91E067EE70E00E94D71BBD
:100AB00080E291E00E94F80F0E94DA03089580EE30
:100AC00091E067ED70E004C080EE91E068EC70E0CA
:100AD0000E94D71B64E670E080E090E00E94EC1971
:100AE000089580E291E06AEB70E00E94C1130895DE
:100AF0000F931F9300E211E0C8010E94C61380EE1D
:100B000091E060EC72E00E94190BC80165E071E0B1
:100B10000E94C1131092380181E08093E6011F9179
:100B20000F910895882319F48CB5806202C08CB5AA
:100B30008F7D8CBD08959CB5937F982B9CBD0895A7
:100B40002CB5382F33702C7F322B3CBD2DB590E067
:100B5000959587959595879581702E7F822B8DBD74
:100B600008958AE061E00E943B1B8AE061E00E94F8
:100B7000CF1A8CB580618CBD8CB580648CBD8DE046
:100B800061E00E94CF1A8BE061E00E94CF1A0895C5
:100B9000FC0181E08083089585E070E00E946F1A77
:100BA00008956F927F928F929F92AF92BF92CF9251
:100BB000DF92EF92FF920F931F93CF93DF93EC019D
:100BC00089819A818C0124E0000F111F2A95E1F799
:100BD000081B190B85E10E944D1ABC01600F711FA3
:100BE00084E0769567958A95E1F77A8369838881B1
:100BF000882381F12E813F816217730710F4B901B8
:100C000006C0888599858617970708F4BC0100D02F
:100C100000D080E090E040E050E0E884F98400E01B
:100C200010E0AD80BB24CC24DD246C8077248824A4
:100C30009924EDB7FEB761827282838294820E940A
:100C4000D61C6B830F900F900F900F9085E070E093
:100C50000E946F1ADF91CF911F910F91FF90EF903B
:100C6000DF90CF90BF90AF909F908F907F906F90CC
:100C70000895FC018CE39FE09383828384E0818369
:100C800081E084870895CF93DF93EC018C8590E019
:100C90008F719070892B69F584E10E944D1AAA2703
:100CA00097FDA095BA2FBC01CD010E94951D26EE9F
:100CB0003FE34EEC50E40E94211E0E94671D9B0101
:100CC000AC017B836A836115710589F084E08983B7
:100CD000B901FE0120E0848195816817790710F43D
:100CE00029830AC02F5F32962430A9F702C08FEF04
:100CF00089838C858F5F8C87DF91CF910895FC016C
:100D000088E0808389E0818387E0828386E0838333
:100D100084E0848382E0858381E18683089520E0F6
:100D2000FC01E60FF11D8781813009F421E0822F5B
:100D30000895E62FF0E0423040F420E0E80FF91F7C
:100D4000878181508E3F88F40FC0E80FF91F87819B
:100D50008F3F11F420E009C020E090E0642F70E0A4
:100D60000E94A31E019709F421E0822F08950F939A
:100D70001F93CF93DF93EC0110E00FEF888162E0C7
:100D80000E94CF1A88810E946E1B2F81892B19F433
:100D90002F5F2F8307C0222349F02F3F11F41F82BA
:100DA00001C00F83888160E00E94CF1A1F5F2196E7
:100DB000173021F7DF91CF911F910F910895FC011A
:100DC000742F643508F05DC047FD5BC040330CF004
:100DD00058C0878D823019F5842F85958595859526
:100DE000992787FD9095462F552747FD509524E577
:100DF00030E0829FF001839FF00D929FF00D11244F
:100E0000E40FF51FE25EFD4F808190E0272F2770F1
:100E100002C0959587952A95E2F780958170972F66
:100E2000959595959595462F552747FD5095272FD4
:100E300027708823A1F4E4E59E02F0011124E40F59
:100E4000F51FE25EFD4F81E090E002C0880F991F20
:100E50002A95E2F780952081282320830895E4E5F0
:100E60009E02F0011124E40FF51FE25EFD4F81E0C8
:100E700090E002C0880F991F2A95E2F72081282B65
:100E800020830895FC01678F60A30895FC01678F9C
:100E900040A30895AF92BF92CF92DF92EF92FF925C
:100EA0000F931F93CF93DF93EC01162FF42EE22EB6
:100EB000AA24402F552747FD50958F2D992787FD50
:100EC0009095481B590B57FF03C0509541955F4FB4
:100ED0002E2D332727FD3095812F992787FD90955B
:100EE000281B390B37FF03C0309521953F4F24173E
:100EF000350744F4AA24A3948F2DF12E182F802FA8
:100F00000E2DE82EE11634F48E2DE12E182F802FB1
:100F10000F2DF82EDE2CD11A202F332727FD3095E8
:100F20008F2D992787FD9095281B390B37FF03C01C
:100F3000309521953F4FB22EF0161CF0CC24CA9468
:100F400002C0CC24C3948D2DD7FC8F5F082F05954C
:100F500011C0AA2021F0CE016F2D412F03C0CE0178
:100F6000612F4F2D0E94DF060B1907FF02C0FC0CFA
:100F70000D0D1F5FE1166CF7DF91CF911F910F915F
:100F8000FF90EF90DF90CF90BF90AF9008950F93B8
:100F9000042F322F262F2150230F0E944A070F9132
:100FA00008950F93362F042F0150020F232F0E9414
:100FB0004A070F9108959F92AF92BF92CF92DF920E
:100FC000EF92FF920F931F93CF93DF936C01B62E96
:100FD000942EA02EC0E0D0E0E62EFF24E7FCF09493
:100FE000022F112707FD10950E0D1F1D06C0C6010B
:100FF000492D2A2D0E94D10721966B2D6C0FCE0111
:101000008E0D9F1D8017910794F3DF91CF911F9153
:101010000F91FF90EF90DF90CF90BF90AF909F9097
:1010200008952F923F925F926F927F928F929F923C
:10103000AF92BF92CF92DF92EF92FF920F931F93E6
:10104000DF93CF9300D000D000D0CDB7DEB79E8322
:101050008D83C62ED42EEE24E394E21A8EEF289FC1
:10106000502C1124842E8A94962E9A94A42EA39404
:10107000B62EB394F22E662423E0722E10E0C8013F
:10108000847090709A838983F801E270F070FC8319
:10109000EB8398E0292E312C202231220170107030
:1010A00054C0E7FC04C0FA94F2E05F0EE50C6394D0
:1010B00089819A81892B71F04F2D4D0D8D819E81F3
:1010C0006B2D0E94DF066F2D6C0D8D819E814A2D48
:1010D0000E94DF06EB81FC81EF2B71F04D2D4F1943
:1010E0008D819E816B2D0E94DF066F2D6C0D8D8191
:1010F0009E81482D0E94DF062114310471F06C2D71
:101100006F198D819E814A2D0E94DF064F2D4D0D56
:101110008D819E81692D0E94DF060115110571F0F8
:101120006C2D6F198D819E81482D0E94DF064D2DFB
:101130004F198D819E81692D0E94DF06E70CF2E038
:101140007F0E8A949A94A394B3946F140CF4A9CF4D
:1011500026960FB6F894DEBF0FBECDBFCF91DF91BC
:101160001F910F91FF90EF90DF90CF90BF90AF90C5
:101170009F908F907F906F905F903F902F900895F9
:101180004F925F926F927F928F929F92AF92BF9297
:10119000CF92DF92EF92FF920F931F93CF93DF9343
:1011A000EC01A62E742E9E2DFF24F394F21A8EEFDE
:1011B000289F802C1124B42EBA9453E0C52ECE0C57
:1011C000E22EDD2443E0942E10E031E0432E512C3A
:1011D00040225122692E63940270107034C0F7FCD3
:1011E00004C0EA9482E0880EF80CD39441145104B0
:1011F00089F06D2D6A0D472D4E192E2D220F260DCB
:10120000CE010E94D1076E2D6A0DCE014B2D2C2DE3
:101210000E94D1070115110589F06A2D6D19472D1E
:101220004E192E2D220F260DCE010E94D1076A2DB8
:101230006E19CE014B2D2C2D0E94D107F90C82E0A6
:10124000980EBA94C80EDE1454F2DF91CF911F911C
:101250000F91FF90EF90DF90CF90BF90AF909F9055
:101260008F907F906F905F904F9008957F928F92B4
:101270009F92AF92BF92CF92DF92EF92FF920F9325
:101280001F936C01962EA42EF22E7E2C760E1EEF4E
:10129000E19E102D1124812E820E672D282D0E9493
:1012A000C707B02EBA0CBA94C601672D4B2D282D56
:1012B0000E94C707AE0C100FC601692D4A2D212FC1
:1012C0000E94D107F90CFA94C6016F2D4A2D212FE7
:1012D0000E94D107C601672D4A2D2E2D01E00E94E4
:1012E0001108FE18C6016F2D4A2D2E2D02E00E9416
:1012F0001108BE18C6016F2D4B2D2E2D04E00E9443
:101300001108C601672D4B2D2E2D08E00E941108F3
:101310001F910F91FF90EF90DF90CF90BF90AF9013
:101320009F908F907F9008958F929F92AF92BF92DF
:10133000CF92DF92EF92FF920F931F936C01162FC3
:10134000A42E922EF02EBE2C8E2C860E2EEFE29E18
:10135000E02C11242E2D290D682D0E94DB07AB0CEB
:10136000FA94FE0C1150190D1B19C601612F4A2D5C
:101370002B2D01E0EF2C0E94C008C601682D4A2DDC
:101380002B2D02E00E94C0081F910F91FF90EF905B
:10139000DF90CF90BF90AF909F908F9008953F9235
:1013A0004F925F926F927F928F929F92AF92BF9275
:1013B000CF92DF92EF92FF920F931F93CF93DF9321
:1013C0004C01362E442EF901A490319654906F01B1
:1013D0000894C11CD11C8A2D992787FD90950796EA
:1013E00068E070E00E94B71EE62EFF24E7FCF09450
:1013F00000E0C0E0D0E060E8662E712C26C0E12F4E
:10140000E595E595E595FF27E7FDF095EC0FFD1FC8
:10141000EC0DFD1DE4912E2F30E0812F8770A3018C
:1014200002C0559547958A95E2F724233523232B4F
:1014300031F0612F630DC4014B2D0E94DF061F5F49
:101440001A15ECF20F5FCE0DDF1D051524F410E028
:10145000B02EB40CF5CFDF91CF911F910F91FF907B
:10146000EF90DF90CF90BF90AF909F908F907F9044
:101470006F905F904F903F900895FB018491E42F0F
:10148000E695E695E695F0E0329690E00796A3E0C3
:1014900095958795AA95E1F730E0DC01A29FC00100
:1014A000A39F900DB29F900D1124E80FF91FE60F36
:1014B000F71FE491477080E890E002C0959587950A
:1014C0004A95E2F78E2308952F923F924F925F92B2
:1014D0006F927F928F929F92AF92BF92CF92DF9244
:1014E000EF92FF920F931F93DF93CF9300D000D022
:1014F0000F92CDB7DEB73C01862E4A83F901BE2C90
:10150000002329F4EE2019F40E94CF097AC0A49098
:10151000319694901F010894211C311C037009839B
:101520008A2D992787FD9095079668E070E00E94C4
:10153000B71E462E552447FC5094C92CCA94FF244C
:101540001D821C824A2D41504B8356C0E02FE595E9
:10155000E595E595FF27E7FDF0958C819D81E80FE6
:10156000F91FE20DF31DE4912E2F30E0802F8770DC
:10157000A0E8B0E002C0B595A7958A95E2F72A23C6
:101580003B23232B61F1B981B13051F0B13028F008
:10159000B23049F0B33061F409C0102FEF2C08C00D
:1015A000ED2C1F2D05C01D2DEC2C02C01C2DE02E96
:1015B000BB2069F0E3E0BE228B2DB0FE03C0FA2D04
:1015C000F11B1F2F81FF03C0492D4E19E42E180D6A
:1015D0005A81E50EC301612F4E2D0E94DF060F5F79
:1015E000DA940A150CF4B2CFF3948C819D81840DAA
:1015F000951D9D838C83CA94F9141CF4DB8000E054
:10160000F0CF0F900F900F900F900F90CF91DF9130
:101610001F910F91FF90EF90DF90CF90BF90AF9010
:101620009F908F907F906F905F904F903F902F9002
:101630000895DC01FB0184918F5F14968C931497BD
:10164000319684918F5F15968C93159731965E969F
:10165000FC93EE935D9708953F924F925F926F9245
:101660007F928F929F92AF92BF92CF92DF92EF9232
:10167000FF920F931F93CF93DF93EC01862EA42E3E
:10168000422F102F3F8C23E526170CF4ABC03FE20E
:101690003A150CF4A7C0C02EDD248C8190E0019790
:1016A0009C01C29EC001C39E900DD29E900D11243C
:1016B000262F332727FD3095820F931F1816190602
:1016C0000CF090C08D8190E09C01C29EC001C39E31
:1016D000900DD29E900D11242A2D332727FD309591
:1016E000820F931F181619060CF07CC09924442E03
:1016F00055246DC09C01215030404217530711F40E
:1017000060E00EC0429EC001439E900D529E900D1F
:101710001124840F951FED8DFE8DE80FF91F649144
:101720004C9DC0014D9D900D5C9D900D1124682C29
:10173000680EBB24792C780C3FC0E62EFF2460FF96
:1017400019C0113039F44B2D4A0DCE01672D0E947E
:10175000DF062EC02C9DC0012D9D900D3C9D900D4F
:1017600011244A2D480FCE01662D212F012F0E94F2
:10177000DB071EC098A18F8D9817D1F09F8F113075
:1017800039F44B2D4A0DCE01672D0E94DF060FC0A4
:101790002C9DC0012D9D900D3C9D900D11244A2D36
:1017A000480FCE01662D212F012F0E94DB073F8EAF
:1017B000F594E7946E2DB3942B2D332727FD3095A8
:1017C0008D8190E0281739070CF4B7CF9394492DF9
:1017D000552747FD50958C8190E0481759070CF428
:1017E00089CF3F8EDF91CF911F910F91FF90EF90A6
:1017F000DF90CF90BF90AF909F908F907F906F9031
:101800005F904F903F9008950F93CF93DF93EC013B
:10181000262F6A3049F48D819885899F802D112467
:101820009A85980F9A8726C06D3029F169854A8577
:1018300008850E942C0B9C816885969F402D112461
:101840008985480F49878F818823A9F0552747FD4F
:101850005095699F9001112484E590E0821B930BC1
:101860008417950744F49D81699F902D11248A85E2
:10187000890F8A87198681E090E0DF91CF910F91DF
:1018800008951F93CF93DF93EC01162FF8948E8564
:1018900060E00E943B1B8F8518161CF460E00E94DC
:1018A0003B1B1EBD0DB407FEFDCF8EB58F851816F0
:1018B0001CF461E00E943B1B7894DF91CF911F9153
:1018C0000895FF920F931F93CF93DF93EC01FF24B2
:1018D00000E010E06F2D6064CE010E94410CCE014B
:1018E00060E80E94410C8E8561E00E943B1B8F8561
:1018F00018161CF460E00E943B1BF801E25EFD4FED
:1019000090E080818EBD0DB407FEFDCF8EB59F5F48
:1019100031969435B1F78F8518161CF461E00E945A
:101920003B1BF3940C5A1F4F86E0F81699F6CE0134
:1019300060E40E94410CDF91CF911F910F91FF90C5
:101940000895CF93DF93DC0188EF91E0EEE1F2E0C0
:10195000EF019C01199221503040E1F719961C9239
:1019600019971A961C92DF91CF910895EF920F93D9
:10197000CF93DF93EC014D876C872E87E88A0F8722
:1019800081E088878F8F18A28F83CE016EE371E08C
:101990000E94190B0E94B10581E00E94920585E02A
:1019A0000E94A0058CE00E949B058D8561E00E944D
:1019B000CF1A8C8561E00E94CF1A8E8561E00E946B
:1019C000CF1A888918161CF461E00E94CF1A8F85FF
:1019D00018161CF461E00E94CF1A888918166CF45E
:1019E00060E00E943B1B6AE070E080E090E00E94B3
:1019F000EC19888961E00E943B1BEC852E2F332770
:101A000027FD3095F901E151F94FE491F0E0EE0F37
:101A1000FF1FE552F94F859194919C8B8B8B2D5F25
:101A2000384FF90184918A8FED852E2F332727FDBA
:101A30003095F901E151F94FE491F0E0EE0FFF1F0D
:101A4000E552F94F859194919A8B898B2D5F384F90
:101A5000F9018491898FEF852E2F332727FD30954B
:101A6000F901E151F94FE491F0E0EE0FFF1FE5526B
:101A7000F94F859194919E8B8D8B2D5F384FF90195
:101A800084918B8FEE852E2F332727FD3095F9011A
:101A9000E151F94FE491F0E0EE0FFF1FE552F94FED
:101AA00085919491988F8F8B2D5F384FF901849198
:101AB0008C8FCE0161E20E94410CCE0164E10E9454
:101AC000410C8B8587FF02C08FE78B876B85606831
:101AD000CE010E94410CCE0160E20E94410CCE0179
:101AE0006CE00E94410CCE010E94610CDF91CF910D
:101AF0000F91EF900895CF93DF93DC01E0E8F7E7D3
:101B000085919491ED01C553DF4FAD014F515F4F6A
:101B10008150904C09F04EC0E6E9F7E7E491E88384
:101B2000E7E9F7E7E4911496EC931497E8E9F7E70F
:101B3000E4911596EC931597E9E9F7E7859194916F
:101B400017969C938E931697EBE9F7E785919491FE
:101B500019969C938E931897EDE9F7E7E491D79641
:101B6000EC93D797EEE9F7E7E491D696EC93D69706
:101B7000EFE9F7E7E491EA01E883E0EAF7E7859126
:101B800094915D969C938E935C97E2EAF7E785913A
:101B900094915F969C938E935E97E4EAF7E7859124
:101BA000949191969C938E939097E6EAF7E78591AE
:101BB000949132C08CE3888314961C9214972FEF73
:101BC00015962C93159780E293E017969C938E932D
:101BD000169784ED93E019969C938E93189781E065
:101BE000D7968C93D797D6968C93D697FA01208365
:101BF0008CEA9DE05D969C938E935C978EED9DE0C4
:101C00005F969C938E935E9784E79EE091969C935B
:101C10008E9390978CE39FE093969C938E939297EC
:101C2000DF91CF9108952F923F924F925F926F92E2
:101C30007F928F929F92AF92BF92CF92DF92EF925C
:101C4000FF920F931F93DF93CF9300D000D0CDB7B7
:101C5000DEB79A838983F9018491482E5524319601
:101C600084913197FC83EB83F60124910894C11C85
:101C7000D11CF60134910894C108D1085201A60E76
:101C8000B71E0A151B050CF06BC0D801A20FB11DC1
:101C90006A177B070CF064C0682E7724C301840F99
:101CA000951FE816F9060CF05BC0F701E30FF11D74
:101CB0004E175F070CF054C0601771071CF08824A2
:101CC000992403C04801861A970A4E155F051CF037
:101CD00020E030E003C09701241B350BAA16BB0699
:101CE00014F4120103C01D01261A370A8E179F072C
:101CF00014F4230103C02F01441A550AB22E69803F
:101D00007A8020EC30E0620E731E342F3E19E32EF1
:101D1000EB0CA82CF62EF01AF80C1DC01A2D0F2D66
:101D200013C0C3016B817C81412F2B2D0E943D0A82
:101D3000882371F1C301B601402F2E2D0E943D0A68
:101D4000882331F181E00DC0812F90E08215930549
:101D500044F3B394E3948B2D90E084159505F4F24D
:101D600080E00F900F900F900F90CF91DF911F9117
:101D70000F91FF90EF90DF90CF90BF90AF909F902A
:101D80008F907F906F905F904F903F902F9008952D
:101D90001F5F0F5FD9CFEF92FF920F931F93CF93E7
:101DA000DF937C018C0100541F4FC8010E94A10CDD
:101DB000C80167E675E00E94D71BC8010E94610C4C
:101DC00083E00E94A00580E091E0EEEFFFE309953B
:101DD00086EC90E0E80EF91EF7011082C80162E47B
:101DE00075E00E94221CC8010E94610CE701CC5BD7
:101DF000D040CE010E94B706CE0164E00E948F065B
:101E0000882339F462E370E080E090E00E94EC19EE
:101E1000F0CFDF91CF911F910F91FF90EF90089538
:101E20000F931F93CF93DF93EC018C0100541F4F4E
:101E3000C80161E040E00E944607FE01E753FF4F02
:101E4000CC53DF4F85E59881891B808326961882C5
:101E5000CA5CD040698D613009F43EC0613028F021
:101E6000888D653008F051C04BC0CE0185960E9428
:101E70008C17CE0160E00E94CC05C8010E94A10C25
:101E8000C853DF4F81E08883C85CD040C80163EA53
:101E900075E00E94D71B6A8D7B8DC8014AE050E037
:101EA0000E94C51CC8016FE875E00E94D71BC801DD
:101EB0000E94610C83B7817F846083BF83B7816098
:101EC00083BF83B7816083BF889583B78E7F83BFCD
:101ED00083B78E7F83BF1FC0CE51DF4F888199812A
:101EE000AA81BB818F709070A070B0700897A10517
:101EF000B10518F4C80167E00CC0C80168E709C063
:101F0000882349F06B5FC80104C0882321F0C80111
:101F10006FE20E94FA1BDF91CF911F910F910895FC
:101F2000AF92BF92CF92DF92EF92FF920F931F93E7
:101F3000CF93DF93EC01C950DF4F8881C75FD0405A
:101F4000882309F44AC08C3010F010E002C01CE075
:101F5000181BC853DF4F81E08883C85CD04060EC19
:101F6000C62ED12CCC0EDD1EC60160E00E944207B9
:101F700055ECA52EB12CAC0EBD1EF50100814DE235
:101F8000F42E4F2D401B410F0D5FC60160E024E58C
:101F900033E0E32E0E949409C60161E00E944207EB
:101FA000F5010081F01AF10E0D5FC60160E04F2DC2
:101FB00024E50E943609C753DF4F84E08993F50179
:101FC0008081181B115D1883AB9669917991C601C8
:101FD0000E94D71B888181508883DF91CF911F9108
:101FE0000F91FF90EF90DF90CF90BF90AF9008954A
:101FF0004F925F926F927F928F929F92AF92BF9219
:10200000CF92DF92EF92FF920F931F932C01FC016E
:10201000628C738C60947094882499240E94C619F1
:102020005B016C010E94C6197B018C01F2014180A9
:1020300052800E94C619460E571EA094B094C094B8
:10204000D094E094F09400951095C601B501A801D4
:1020500097010E94841EA40193010E94841E460ED3
:10206000571EC2010E945F1D1F910F91FF90EF90BC
:10207000DF90CF90BF90AF909F908F907F906F90A8
:102080005F904F900895AF92BF92CF92DF92EF9200
:10209000FF920F931F93CF93DF93EC01E1EFAE2EEE
:1020A000B12CA80EB91EF501E080F18002811381E8
:1020B0000E94B819E61AF70A080B190B70EFC72E21
:1020C000D12CCC0EDD1EF601808190E0A0E0B0E0C6
:1020D0008E159F05A007B10708F081C08E0104513D
:1020E0001F4FF80180819181A281B3810097A105E2
:1020F000B10509F474C00E94B819F6012081620F7D
:10210000711D811D911DF50160837183828393830D
:10211000FE01EE51FF4F80819181A281B381019632
:10212000A11DB11D80839183A283B383F801108226
:102130001182128213820E94C619C851DF4F688330
:1021400079838A839B83C85ED040CE010E94D105EB
:10215000CE010A960E94B706CE0148960E94430619
:1021600081E032C08E010B5D1F4FC8010E940F1825
:10217000C8010E94D618C8010E946717CE010E94AC
:10218000900FCE010E94100F8E0100541F4FC80106
:102190000E94610CCA53DF4F8881C65CD0408823FF
:1021A00019F4C8010E94A10C0E94C619C451DF4F46
:1021B000688379838A839B83249728813981621B72
:1021C000730B7A936A9380E0DF91CF911F910F9107
:1021D000FF90EF90DF90CF90BF90AF900895C451E3
:1021E000DF4F88819981AA81BB81CC5ED040009766
:1021F000A105B10541F7B6CF2F923F924F925F9262
:102200006F927F928F929F92AF92BF92CF92DF9206
:10221000EF92FF920F931F93DF93CF93CDB7DEB76B
:1022200062970FB6F894DEBF0FBECDBF6C016C8312
:102230007D834B8326EC30E0C20ED31EF601108264
:102240002AE33FEFC20ED31E1AE0A12EB12CAC0C34
:10225000BD1CB5E22B2E312C2C0C3D1CA0EC4A2EC3
:10226000512C4C0C5D1C1A823FEF398310E0F0E3D7
:102270007F2E6624A60147535F4F5F834E83C601BE
:1022800086539F4F99878887F601E853FF4FFB8756
:10229000EA87960129533F4F3D872C87E5EC8E2E28
:1022A000912C8C0C9D1C5B81452F50E05F874E87E5
:1022B0008B818150888BC6010E9443108823D9F3FB
:1022C000C50164E00E948F06882369F4C50165E0BA
:1022D0000E948F06882339F4C50166E00E948F06AC
:1022E000882309F4D3C0F4010081C50164E00E9491
:1022F0008F06882329F0C1010E94EB181983CBC0F7
:10230000C1010E94F118C7C0C50163E044E00E940A
:102310009906882321F01F5FC1010E94F718C501AB
:1023200061E044E00E949906882321F01150C10128
:102330000E94F718812F992787FD90952E853F855C
:102340008217930711F410E002C017FD1889F401F9
:102350008081819F902D11248C5F682E691A28C07E
:10236000872D992787FD9095262D332727FD3095BA
:10237000821B930B0297D4F4898162960FB6F8946E
:10238000DEBF0FBECDBFCF91DF911F910F91FF90A8
:10239000EF90DF90CF90BF90AF909F908F907F9005
:1023A0006F905F904F903F902F900895F1E0FA83E7
:1023B000862D992787FD9095272D332727FD30956A
:1023C000820F931F62E070E00E94B71E762EEE81AE
:1023D000FF811082E885F985608321E0EA85FB852D
:1023E0002083EC85FD8510822C813D81C9019A8B6B
:1023F000898B00E0E12EFF24E7FCF09420C0802FC1
:1024000090E08E159F0569F423E0EE81FF81208323
:10241000F40180818E9D802D1124870DE885F9853A
:102420008083E989FA8965917491C2010E94221C16
:102430000F5F29893A892E5F3F4F3A8B298B3B8169
:102440000317E8F2C20160E00E944207F4014081F4
:102450004E9D402D11244150470DC20160E024E5FE
:102460000E94C707C20161E00E944207F401008197
:102470000E9D402D11244250470D0D5FC20160E0BA
:1024800024E573E0E72E0E94360915CFFA81FF2379
:1024900009F066CF39CF802F90E0909581959F4FBE
:1024A0002E853F85AC01249FC001259F900D349F50
:1024B000900D11246EEF662E680E52CF2F923F9230
:1024C0004F925F926F927F928F929F92AF92BF9244
:1024D000CF92DF92EF92FF920F931F93DF93CF93F0
:1024E000CDB7DEB72B970FB6F894DEBF0FBECDBFCA
:1024F0009B878A877A8369835C834B838C010F5126
:102500001F4FF8018081882309F422C18A859B85A9
:1025100088539F4F9B878A8781E0EA85FB8580836C
:1025200012921292E65CF040FB87EA87108E90ECE4
:10253000E92EF12CEE0EFF1EC70161E00E9442075A
:102540008AE0282E312C8A859B85280E391EB5E21B
:102550006B2E712C680E791EE981FA81F491FD834E
:10256000A9EC8A2E912C880E991EFAECCF2ED12C34
:10257000C80ED91EE4EC4E2E512C480E591E8B531A
:102580009F4F9F838E8372EEA72EB12C8A859B85E9
:10259000A80EB91E198708878A859B850E9443105B
:1025A0008823D1F39D81992311F410E003C0EE81BB
:1025B000FF811081C70160E040E020EE35E00E941D
:1025C000CF098B819C81892B41F0145FC70160E0AA
:1025D000412F2B813C810E94CF09F40110828CE0B5
:1025E000F6018083C70169817A810E94D71BF201BD
:1025F000208130E0C901880F991F820F931F9095A9
:1026000081959F4F8D5AF4018083EE81FF81208157
:1026100030E0C901880F991F820F931F9095819513
:102620009F4F835DF6018083F501808184FF04C0A4
:10263000C70160E676E003C0C7016CE576E00E9462
:10264000221CF201208130E0C901880F991F820FFE
:10265000931F909581959F4F8D5AF4018083F601C9
:1026600080818F5F8083EA85FB8586A9882321F09E
:10267000C70168E576E003C0C70164E576E00E9423
:10268000221CF201808190E09C01220F331F280F51
:10269000391F309521953F4F2D5AF4012083F601C3
:1026A00080818F5F8083C70160E576E00E94221CF5
:1026B000C10165E00E948F06882351F0EA85FB8501
:1026C00066A96F5FC3010E94FD18C3010E94F7183D
:1026D000C10164E00E948F06882399F4E885F9859A
:1026E0006081262F30E040E050E0F501808191814B
:1026F000A281B38182179307A407B50708F16F3F42
:10270000F9F08A859B858F519F4F9B878A878FEF32
:10271000EA85FB858083E15EF040FB87EA87C301A1
:1027200060E00E947C17C3010E94EB1881E0EA85FB
:10273000FB85808F0DC08A859B850E94CB0E2CCF98
:10274000C10166E00E948F06882309F425CFF3CFEC
:102750002B960FB6F894DEBF0FBECDBFCF91DF91A1
:102760001F910F91FF90EF90DF90CF90BF90AF90AF
:102770009F908F907F906F905F904F903F902F90A1
:10278000089540E050E00E945E120895AF92BF921B
:10279000CF92DF92EF920F93CF93DF936C0180EF94
:1027A00090E0C80ED91E82E3F601808381E090E0BC
:1027B000A0E0B0E0B293A293929382936F0185EF71
:1027C0009FEFC80ED91E8FEFF60180838FE19FEF38
:1027D000C80ED91EC6010E947B0DC6010E94C80505
:1027E000C6016FEF0E94CC054AE0A42EB12CAC0CC0
:1027F000BD1CC5010E947F06C5010E94B706C60127
:1028000048960E943906C60180549F4F6DE04BE008
:1028100020E10FE03EE0E32E0E94B60CE601A59613
:10282000CE010E940A19C50165E00E948F06882327
:1028300029F0CE0160E00E94FD1818C0CE0166E6C6
:1028400076E040E00E94A117CE0166E676E041E026
:102850000E94A117CE0166E676E042E00E94A11731
:10286000CE0166E676E043E00E94A117DF91CF91AA
:102870000F91EF90DF90CF90BF90AF9008950F939E
:10288000CF93DF93EC01043008F06BC0623009F4A1
:1028900050C0633030F4662359F0613009F061C0F4
:1028A00011C0633009F44BC0643009F05AC04DC008
:1028B000FC01E00FF11DE15BFF4F4B3008F04AE0F7
:1028C00040834FC0A02FB0E0BD01660F771F680F97
:1028D000791F842F90E0880F991FFB0123A934A949
:1028E000280F391FF901859194916D587F4FFB0195
:1028F00091838083FC0145915491FE01EA0FFB1FF7
:10290000E558FF4F8889849F002D11240083252FCF
:102910003327802F90E02817390708F4052FAC0FD4
:10292000BD1FA158BF4F8889089F802D11248C930B
:1029300018C0FC01E00FF11DE55AFF4F0BC0FC0170
:10294000E00FF11DED59FF4F05C0FC01E00FF11D37
:10295000E559FF4F8889489F802D11248083349644
:102960002083DF91CF910F910895CF93DF93EC01F6
:10297000243010F5A22FB0E0FC01EA0FFB1FE95B49
:10298000FF4F608334968889489F802D112480836F
:10299000E05CFF4F1082CD01880F991FC80FD91F2F
:1029A000CD57DF4F19821882F89781E08083A65EA9
:1029B000BB4F8C9334961082DF91CF910895809114
:1029C0001A04882311F490E002C0909126048091AB
:1029D0001B04882319F080912704980F80911C0410
:1029E000882319F080912804980F80911D04882372
:1029F00019F080912904980F9093B4000895609184
:102A00002204662341F1809116048F5F809316049F
:102A100090911E048917F8F090E080911A048823A1
:102A200009F491E090931A041092160480912A04FC
:102A3000882379F08091150123E4829FC00111243D
:102A4000895B8093150190E070E00E94A31E809343
:102A5000260421E001C020E060912304662339F1BF
:102A6000809117048F5F8093170490911F0489173A
:102A7000F0F090E080911B04882309F491E090939A
:102A80001B041092170480912B04882379F0809105
:102A9000150123E4829FC0011124895B80931501F5
:102AA00090E070E00E94A31E8093270421E06091D3
:102AB0002404662339F1809118048F5F80931804F1
:102AC000909120048917F0F090E080911C048823F5
:102AD00009F491E090931C041092180480912C0446
:102AE000882379F08091150123E4829FC00111248D
:102AF000895B8093150190E070E00E94A31E809393
:102B0000280421E060912504662339F1809119049D
:102B10008F5F80931904909121048917F0F090E061
:102B200080911D04882309F491E090931D04109274
:102B3000190480912D04882391F08091150123E4DC
:102B4000829FC0011124895B8093150190E070E0A1
:102B50000E94A31E8093290402C0222311F00E9428
:102B6000DF1408951F920F920FB60F9211242F9326
:102B70003F934F935F936F937F938F939F93AF9305
:102B8000BF93EF93FF930E94FF14FF91EF91BF91CA
:102B9000AF919F918F917F916F915F914F913F91F5
:102BA0002F910F900FBE0F901F901895CF93DF932A
:102BB000EC01643010F5A62FB0E0FC01EA0FFB1F1A
:102BC000ED5AFF4F108238971082CD01880F991F60
:102BD000C80FD91FCD57DF4F198218823C9610823B
:102BE000FD01EA5DFB4F1082FD01EE5DFB4F10829F
:102BF000A65EBB4F1C920E94DF14DF91CF91089517
:102C0000DF92EF92FF920F931F93CF93DF937C019C
:102C1000D62E43E0461708F452C1062F10E0DC011F
:102C2000A00FB11FAD5ABF4F8C91A355B040882360
:102C300009F445C1FD01E55BFF4F8081882321F444
:102C4000C7010E94D6153BC181508083BD016557E5
:102C50007F4FFB018081882309F052C0F801EE0FFD
:102C6000FF1FEE0DFF1DEF01CD57DF4F88819981CA
:102C70000196880F991FED58FF4F0190F081E02DCC
:102C8000E80FF91F25913491A157BF4F822F87700C
:102C90008C93A901F3E056954795FA95E1F7CA019F
:102CA000969587951496232F3327269526952C9352
:102CB0008F73F7012089829F802D1124FB0180836F
:102CC000F801E65DFB4F4170408388819981019650
:102CD0009983888358972C91AB57B04030E0821786
:102CE000930770F0A158BF4F8C91882329F0281BBF
:102CF00031093983288304C0C7016D2D0E94D61580
:102D0000E701C00FD11FFE01E557FF4F80818150C1
:102D10008083FE01E95AFF4F90819F5F9083FE01FF
:102D2000ED56FF4FC95BDF4FE0818881C754D0402B
:102D3000E80F8FA1E80FE887CD59DF4F6881C356B0
:102D4000D040662389F0892F992787FD909570E000
:102D50000E94B71EC959DF4F8881C756D040869F51
:102D6000802D11248E0F8887F701E00FF11F8085D9
:102D700090E0CB966BE370E00E94B71E8087E15B2A
:102D8000FF4F2081EF54F0402487E55AFF4F6081C8
:102D9000EB55F0406623A1F0E95AFF4F8081772779
:102DA00067FD7095992787FD90950E94B71E38960C
:102DB0008081EF55F040869F802D1124820F8487FB
:102DC000F701E00FF11FE559FF4F6081EB56F0402E
:102DD0006623C1F0E95AFF4F8081992787FD9095BE
:102DE00070E00E94B71ECB0162E070E00E94B71E47
:102DF00078969081EF56F040899F802D112494851C
:102E0000890F8487F701E00FF11F84858A300CF069
:102E100089E0F701E00FF11F87FD80E08487F7016B
:102E2000E00FF11FE95BFF4F8081E754F0408F33E3
:102E300009F41486F894A701400F511FDA0118967F
:102E4000EC91F0E0E657F94FE491D801A25EBB4F58
:102E5000EC93FA012485332727FD309549565F4FBF
:102E6000DA018C9190E0F901E89F9001E99F300D23
:102E7000F89F300D1124D70151968C9190E0F90103
:102E8000E89F9001E99F300DF89F300D11244850C4
:102E90005040DA018C91992787FD9095FC012E9F77
:102EA000C0012F9F900D3E9F900D1124F801EE5D03
:102EB000FB4F80830A5D1B4FD8018C937894DF9180
:102EC000CF911F910F91FF90EF90DF9008950F9396
:102ED0001F938C0160E00E940016C80161E00E940F
:102EE0000016C80162E00E940016C80163E00E945B
:102EF00000161F910F9108951F93CF93DF93EC015C
:102F0000162F643028F40E94D615C10FD11D1C82E3
:102F1000DF91CF911F9108950F931F938C0160E073
:102F20000E947C17C80161E00E947C17C80162E022
:102F30000E947C17C80163E00E947C171F910F91CB
:102F40000895EF92FF921F93CF93DF93EC017B01E3
:102F5000142F4430F0F4642F0E947C17812F90E0EE
:102F6000FC01EE0FFF1FEC0FFD1FF4A6E3A6FF967A
:102F700011821082FE01E80FF91F81E08483E15B7A
:102F8000FF4F89E080833C961082389610823896F5
:102F90001082DF91CF911F91FF90EF9008951F93C2
:102FA000CF93DF93AC01162F6430A8F5262F30E0C5
:102FB000EC01C20FD31F8881882369F18C8188239B
:102FC00051F5D901AA0FBB1FA40FB51F8B8D90E03F
:102FD000880F991F5396ED91FC915497E80FF91FB4
:102FE000859194912FEF8F3F920711F4188213C0AF
:102FF0009FA390E0880F991F5F96ED91FC919097A9
:10300000E80FF91F65917491CA01412F0E94A11721
:103010008B8D8F5F8B8FDF91CF911F9108950F93D1
:103020001F938C0160E00E94CF17C80161E00E94ED
:10303000CF17C80162E00E94CF17C80163E00E9469
:10304000CF171F910F9108958F929F92BF92CF92A9
:10305000DF92EF92FF920F931F93CF93DF937C0148
:10306000B62E83E0861708F495C0C62EDD24D7015E
:10307000AC0DBD1D14968C911497882309F48AC059
:10308000A55BBF4F8C91AB54B040882309F082C040
:103090004601880C991C8E0C9F1C8401015C1F4FFB
:1030A000E801E881F981EE0FFF1FE4014BA55CA563
:1030B000E40FF51F259134912115310509F047C022
:1030C000DB968C91DB97813039F4F8011182108204
:1030D000FA01259134913BC014961C9214978C915F
:1030E000882381F0C7010E94CF17D8018D919C9150
:1030F000880F991FE401EBA5FCA5E80FF91F2591A6
:10310000349125C0C7010E94D61544C0E6E036952B
:103110002795EA95E1F76F70422F4F7175E036956C
:1031200027957A95E1F72051C7010B2D0E943F1496
:1031300088819981019699838883880F991FD60188
:10314000ED91FC91E80FF91F259134910DC04601D6
:10315000880C991CC701880D991DEC01EF964BE274
:10316000C42ED12CC80ED91EB901769567957695D7
:10317000679520FDCBCF6F73432FC7012B2D0E9486
:10318000B514F701E80DF91DFF9680819181019634
:1031900091838083DF91CF911F910F91FF90EF90EA
:1031A000DF90CF90BF909F908F9008950F931F93C3
:1031B0008C0160E00E942418C80161E00E9424187C
:1031C000C80162E00E942418C80163E00E9424182C
:1031D0001F910F91089562E876E040E00E94A117E8
:1031E00008956AE776E040E00E94A117089564E739
:1031F00076E040E00E94A1170895FC01862F6289C5
:1032000070E06F5F7F4F992787FD90950E94B71EF2
:10321000818B08959F92AF92BF92CF92DF92EF92EF
:10322000FF920F931F93CF93DF93EC0181E0888B84
:1032300047E9C42ED12CCC0EDD1E33E3E32EF12C56
:10324000EC0EFD1E10E09924939425ECA22E26E0AE
:10325000B22EF60191926F01F701A192B1927F0116
:10326000CE0161E040E020E0012F0E943F141F5F8B
:10327000143079F783E061E070E00E946F1A80916A
:10328000B100887F81608093B100F8941092800033
:1032900010928100109285001092840088E191E0E4
:1032A000909389008093880080918100886080934A
:1032B00081008091810081608093810080916F0006
:1032C000826080936F007894DF91CF911F910F916E
:1032D000FF90EF90DF90CF90BF90AF909F900895B8
:1032E0001F920F920FB60F9211242F933F938F933B
:1032F0009F93AF93BF938091320490913304A09138
:103300003404B0913504309136040196A11DB11DED
:10331000232F2D5F2D3720F02D570196A11DB11DB4
:10332000209336048093320490933304A0933404A2
:10333000B093350480912E0490912F04A091300415
:10334000B09131040196A11DB11D80932E0490937C
:103350002F04A0933004B0933104BF91AF919F919B
:103360008F913F912F910F900FBE0F901F90189546
:103370008FB7F89420913204309133044091340493
:10338000509135048FBFB901CA0108959FB7F894D1
:1033900020912E0430912F0440913004509131043B
:1033A00086B5A89B06C08F3F21F02F5F3F4F4F4F40
:1033B0005F4F9FBF542F432F322F2227280F311DDD
:1033C000411D511D82E0220F331F441F551F8A9556
:1033D000D1F7B901CA010895EF92FF920F931F939D
:1033E000CF93DF937B018C010E94C619EB010EC0C5
:1033F0000E94C6196C1B7D0B685E7340C8F308946D
:10340000E108F10801091109C851DC4FE114F10488
:103410000105110569F7DF91CF911F910F91FF9081
:10342000EF900895789484B5826084BD84B58160FE
:1034300084BD85B5826085BD85B5816085BDEEE6BC
:10344000F0E0808181608083E1E8F0E0108280819B
:1034500082608083808181608083E0E8F0E0808109
:1034600081608083E1EBF0E0808184608083E0EB29
:10347000F0E0808181608083EAE7F0E08081846011
:10348000808380818260808380818160808380816D
:10349000806880831092C1000895982F8E3008F0C4
:1034A0009E509770809116018295880F880F807CBE
:1034B000892B80937C0080917A00806480937A00CD
:1034C00080917A0086FDFCCF2091780040917900B0
:1034D000942F80E030E0282B392BC90108951F93E9
:1034E000CF93DF93182FEB0161E00E94CF1A209752
:1034F00009F44AC0CF3FD10509F449C0E12FF0E0FB
:10350000E95EF84F84918330C1F0843028F4813033
:1035100051F08230B1F50CC0863019F1873049F195
:10352000843079F514C084B5806884BDC7BD33C0CC
:1035300084B5806284BDC8BD2EC080918000806843
:1035400080938000D0938900C093880024C080912C
:103550008000806280938000D0938B00C0938A00AB
:103560001AC08091B00080688093B000C093B3000F
:1035700012C08091B00080628093B000C093B4000C
:103580000AC0C038D1051CF4812F60E002C0812F31
:1035900061E00E943B1BDF91CF911F910895CF9373
:1035A000DF93482F50E0CA018D5F984FFC013491A2
:1035B0004151594FFA018491882369F190E0880FB5
:1035C000991FFC01EF52F94FA591B491FC01E5520E
:1035D000F94FC591D491662351F42FB7F8948C918B
:1035E000932F909589238C93888189230BC0623017
:1035F00061F42FB7F8948C91932F909589238C9335
:103600008881832B88832FBF06C09FB7F8948C9145
:10361000832B8C939FBFDF91CF910895833071F0FE
:10362000843028F48130A1F0823021F514C0863036
:10363000B1F08730D1F08430E9F404C0809180008B
:103640008F7703C0809180008F7D809380000895E4
:1036500084B58F7702C084B58F7D84BD0895809135
:10366000B0008F778093B00008958091B0008F7D77
:103670008093B0000895FF920F931F93F62E482F6A
:1036800050E0CA01895E984FFC012491CA018D5F08
:10369000984FFC0114914151594FFA0104910023B4
:1036A000C9F0222319F0822F0E940E1BE02FF0E0B8
:1036B000EE0FFF1FE552F94FA591B4919FB7F89413
:1036C000FF2021F48C911095812302C08C91812BD5
:1036D0008C939FBF1F910F91FF9008950F931F939D
:1036E000482F50E0CA01895E984FFC012491CA011D
:1036F0008D5F984FFC0104914151594FFA0114918B
:10370000112319F420E030E015C0222319F0822F94
:103710000E940E1B812F90E0880F991F8B51994FAB
:10372000FC01A591B4918C9120E030E0802311F050
:1037300021E030E0C9011F910F910895CF93DF93ED
:103740000E94121A0E947805C0E0D0E00E9436055F
:103750002097E1F30E940000F9CFCF92DF92EF9221
:10376000FF920F931F93CF93DF937C016B018A012C
:10377000C0E0D0E00FC0D6016D916D01D701ED9191
:10378000FC910190F081E02DC7010995C80FD91F68
:10379000015010400115110571F7CE01DF91CF9155
:1037A0001F910F91FF90EF90DF90CF900895EF92CF
:1037B000FF920F931F93CF93DF937C018B01C0E0A7
:1037C000D0E0F8010F5F1F4F6491662359F0D701D5
:1037D000ED91FC910190F081E02DC7010995C80F92
:1037E000D91FEFCFCE01DF91CF911F910F91FF90A5
:1037F000EF900895DC01ED91FC910190F081E02DB6
:1038000009950895EF92FF920F931F938C01DC01AD
:10381000ED91FC910190F081E02D6DE009957C0126
:10382000D801ED91FC910190F081E02DC8016AE092
:1038300009959C012E0D3F1DC9011F910F91FF900D
:10384000EF900895EF92FF920F931F937C010E94D7
:10385000D71B8C01C7010E94021C9C01200F311F45
:10386000C9011F910F91FF90EF900895CF93DF93BF
:10387000EC016115710519F420E030E00FC0DB01A7
:103880000D900020E9F71197A61BB70BE881F9818D
:103890000280F381E02DAD0109959C01C901DF9102
:1038A000CF9108954F925F927F928F929F92AF92A5
:1038B000BF92CF92DF92EF92FF920F931F93DF930D
:1038C000CF93CDB7DEB7A1970FB6F894DEBF0FBE8A
:1038D000CDBF2C01742ECB01223008F42AE019A2AE
:1038E00031E2C32ED12CCC0EDD1E822E9924AA24C7
:1038F000BB24672D752FA50194010E94CA1E790172
:103900008A01C801B701A50194010E94841E472DB8
:10391000461B0894C108D1084A3014F4405D01C028
:10392000495CF6014083E114F1040105110521F021
:103930007E2C5F2DC801DDCFC201B6010E94361C6E
:10394000A1960FB6F894DEBF0FBECDBFCF91DF9129
:103950001F910F91FF90EF90DF90CF90BF90AF90AD
:103960009F908F907F905F904F900895DC0121157C
:10397000310541F4ED91FC910190F081E02D642F2F
:10398000099508950E94521C0895EF92FF920F939B
:103990001F939A017B0100E010E0B801A7010E948B
:1039A000B61C1F910F91FF90EF9008952F923F92B8
:1039B0004F925F926F927F928F929F92AF92BF923F
:1039C000CF92DF92EF92FF920F931F93DF93CF93EB
:1039D000CDB7DEB73B014C0119012A016D897E8903
:1039E0008F89988D6A197B098C099D09621A730A5F
:1039F000840A950AA40193010E94841EE218F30828
:103A000004091509A80197010E94EC1E2A0D3B1D0F
:103A10004C1D5D1DB901CA01CF91DF911F910F911E
:103A2000FF90EF90DF90CF90BF90AF909F908F90DE
:103A30007F906F905F904F903F902F900895EF92FE
:103A4000FF920F931F937B018C0161157105810516
:103A5000910529F420E030E040E050E00BC00E94E6
:103A6000601FA80197010E94EC1EAC01CB01DA0196
:103A70009C01AD01B901CA011F910F91FF90EF9018
:103A80000895EF92FF920F931F937B018C016217B1
:103A900073078407950764F4261B370B480B590BF3
:103AA000CA01B9010E941F1DE60EF71E081F191F4B
:103AB000B701C8011F910F91FF90EF9008950097F3
:103AC00029F0BC0180E090E00E94651F089598D025
:103AD00088F09F5790F0B92F9927B751A0F0D1F0F7
:103AE000660F771F881F991F1AF0BA95C9F712C081
:103AF000B13081F09FD0B1E008959CC0672F782F3E
:103B00008827B85F39F0B93FCCF3869577956795EC
:103B1000B395D9F73EF490958095709561957F4F58
:103B20008F4F9F4F0895E89409C097FB3EF49095FE
:103B30008095709561957F4F8F4F9F4F9923A9F086
:103B4000F92F96E9BB279395F69587957795679515
:103B5000B795F111F8CFFAF4BB0F11F460FF1BC059
:103B60006F5F7F4F8F4F9F4F16C0882311F096E9EC
:103B700011C0772321F09EE8872F762F05C066239A
:103B800071F096E8862F70E060E02AF09A95660F53
:103B9000771F881FDAF7880F9695879597F908950C
:103BA00097F99F6780E870E060E008959FEF80ECF0
:103BB000089500240A941616170618060906089593
:103BC00000240A9412161306140605060895092EF9
:103BD0000394000C11F4882352F0BB0F40F4BF2B68
:103BE00011F460FF04C06F5F7F4F8F4F9F4F0895A8
:103BF00057FD9058440F551F59F05F3F71F047959E
:103C0000880F97FB991F61F09F3F79F08795089582
:103C1000121613061406551FF2CF4695F1DF08C0A1
:103C2000161617061806991FF1CF869571056105BE
:103C300008940895E894BB2766277727CB0197F966
:103C400008950BD0C4CFB5DF28F0BADF18F0952364
:103C500009F0A6CFABCF1124EECFCADFA0F3959F1A
:103C6000D1F3950F50E0551F629FF001729FBB2763
:103C7000F00DB11D639FAA27F00DB11DAA1F649F0F
:103C80006627B00DA11D661F829F2227B00DA11DC2
:103C9000621F739FB00DA11D621F839FA00D611D48
:103CA000221F749F3327A00D611D231F849F600D69
:103CB000211D822F762F6A2F11249F5750408AF0A2
:103CC000E1F088234AF0EE0FFF1FBB1F661F771F2E
:103CD000881F91505040A9F79E3F510570F060CF6A
:103CE000AACF5F3FECF3983EDCF386957795679516
:103CF000B795F795E7959F5FC1F7FE2B880F911D4C
:103D00009695879597F90895629FD001739FF0016A
:103D1000829FE00DF11D649FE00DF11D929FF00D5B
:103D2000839FF00D749FF00D659FF00D9927729F92
:103D3000B00DE11DF91F639FB00DE11DF91FBD011D
:103D4000CF0111240895AA1BBB1B51E107C0AA1F74
:103D5000BB1FA617B70710F0A61BB70B881F991F2C
:103D60005A95A9F780959095BC01CD01089597FBD0
:103D7000092E07260AD077FD04D0E5DF06D0002003
:103D80001AF4709561957F4F0895F6F79095819597
:103D90009F4F0895A1E21A2EAA1BBB1BFD010DC067
:103DA000AA1FBB1FEE1FFF1FA217B307E407F507EB
:103DB00020F0A21BB30BE40BF50B661F771F881FC7
:103DC000991F1A9469F760957095809590959B015D
:103DD000AC01BD01CF01089597FB092E05260ED039
:103DE00057FD04D0D7DF0AD0001C38F45095409519
:103DF000309521953F4F4F4F5F4F0895F6F79095BF
:103E00008095709561957F4F8F4F9F4F0895EE0F6E
:103E1000FF1F0590F491E02D0994A0E0B0E0E3E1EC
:103E2000FFE10C94761FEC01A880B980CA80DB808A
:103E3000A114B104C104D10441F484E2A82E89ED97
:103E4000B82E8BE5C82E87E0D82EC601B5012DE12E
:103E500033EF41E050E00E94EC1E27EA31E440E0FD
:103E600050E00E94841E7B018C01C601B5012DE14A
:103E700033EF41E050E00E94EC1ECA01B9012CEE84
:103E800034EF4FEF5FEF0E94841E6E0D7F1D801F89
:103E9000911F97FF04C06150704080409048688334
:103EA00079838A839B839B01AC015F77B901CA0147
:103EB000CDB7DEB7EAE00C94921F0E940D1F089563
:103EC00087E091E00E940D1F0895609307017093B1
:103ED00008018093090190930A0108952F923F925F
:103EE0004F925F926F927F928F929F92AF92BF920A
:103EF000CF92DF92EF92FF920F931F93CF93DF93B6
:103F0000CDB7DEB7CA1BDB0B0FB6F894DEBF0FBE12
:103F1000CDBF09942A88398848885F846E847D845F
:103F20008C849B84AA84B984C884DF80EE80FD8061
:103F30000C811B81AA81B981CE0FD11D0FB6F894D7
:0E3F4000DEBF0FBECDBFED010895F894FFCF98
:103F4E004C4F414445520001000000140014000281
:103F5E000001000100010100000000040CAD1B0077
:00000001FF
