:100000000C9499040C94C1040C94C1040C94C10484
:100010000C94C1040C94C1040C94C1040C94C1044C
:100020000C94C1040C94C1040C94C1040C942619C2
:100030000C94C1040C94C1040C94C1040C94C1042C
:100040000C9499190C94C1040C94C1040C94C1042F
:100050000C94C1040C94C1040C94C1040C94C1040C
:100060000C94C1040C94C10420436F6E6E656374DC
:10007000696E672E2E2E0050726573732016000075
:100080002F3400426174746572793A002020202078
:100090004C6F6164696E672E2E2E2E00C400BC006A
:1000A000B000A4004368616E67652047616D65001C
:1000B0004D756C7469706C61796572004F7074690C
:1000C0006F6E7300537572766976616C005810FF1D
:1000D000FFFFFFFFFFFFFFFFFFF0FF0003FFFFFF3A
:1000E000FFFE007FF000FFFC0000000001FF800029
:1000F000FFFFFFFFFFFFFFFFFFFFF0FFFC07FFFF1A
:10010000FFFFFFFFFFF0FFC3F8FFFFFE001FFC0033
:1001100030003FFF000001FFE003FFC0FFFFFFFFD3
:10012000FFFFFFFFFFFFF0FFFFFFFFFFFFFFFFFFEE
:10013000FFF0FF0003FFFFFFFFFE007FF000FFFC6A
:100140000000000001FF8000FFFFFFFFFFFFFFFF37
:10015000FFFFF0FFFC07FFFFFFFFFFFFFFF0FFC304
:10016000F8FFFFFE001FFC0030003FFF000001FF12
:10017000E003FFC0FFFFFFFFFFFFFFFFFFFFF0589F
:10018000300000000000000000000000000000003F
:10019000000000000000000000000000000000005F
:1001A000000000000000000000000000000000004F
:1001B000000000000000000000000000000000003F
:1001C000000000000000000000000000000000002F
:1001D000000000000000000000000000000000001F
:1001E000000000000000000000000000000000000F
:1001F00000000000000000000000000000000000FF
:1002000000000000000000000000000000000000EE
:1002100000000000000000000000000000000000DE
:1002200000000000000000000000000000000000CE
:1002300000000000000000000000000000000000BE
:1002400000000000000000000000000000000000AE
:100250000000000000000000000000000072221CEE
:1002600088088B80E78439108B65228814CA411472
:100270004A451082A8A08822AA210451411072A8E0
:100280009CF8229A21079139F00A2F82883E8A2110
:10029000051F05108A28A288228A411491451072F0
:1002A000289C88228B80E451391000000000000057
:1002B000000000000000000000000000000000003E
:1002C000000000000000000000000000000000002E
:1002D000000000000000000000000000000000001E
:1002E000000000000000000000000000000000000E
:1002F000000000000000000003CF3E71C005114067
:100300000000000228A08A200529400000000228E1
:10031000A0820000440000000003CF3C71C00044F4
:1003200000000000020A200820007C0000000002FB
:1003300009208A200044000000000208BE71C000AD
:10034000440000000000000000000000007FF000FA
:10035000000000000000000080000000000000001D
:10036000000001355000000000000000000246506F
:100370000000000000000000042420000000000035
:1003800000000008162000000000000000001065BA
:10039000200808FCCEC7FFFFC786FC0808183C24CD
:1003A0006642C3817E1804000000FFFFFFFFFFFFCD
:1003B000FFFFFF58040000000000000000000000E4
:1003C000FFFFFFFFFFFFFFFFFFFFFFFFFFFFFFFF3D
:1003D000FFFFFFFFFFFFFFFFFFFFFFFFFFFFFFFF2D
:1003E000FF08083C6A6A6A3C24240003053F213F59
:1003F0001208120A100A0E1C0E0C1E0C141A1416E7
:100400001F161E131E1E1B1E1E1F1E3F213F3A2FAE
:100410003A173D173F213F181F02040A041F0E041C
:10042000040E1F0A1F0A0E0E1F04110E2E252E2F5A
:100430002A2E262929021F02081F08150E04040E61
:10044000150E15151B151B040604040C04000000F2
:100450000017000300031F0A1F16371A1904130A96
:10046000153A000300000E11110E000A040A040ED2
:10047000040030000404040010001804031F111FBE
:10048000121F101D151711151F07041F17151D1F0B
:10049000151D01011F1F151F17151F000A0000322F
:1004A00000040A110A0A0A110A040115020E1117A2
:1004B0001E051E1F150A0E110A1F110E1F15111FF2
:1004C00005010E111D1F041F111F1108100F1F041D
:1004D0001B1F10101F061F1E040F0E110E1F0906F2
:1004E0000E112E1F051A121509011F011F101F0FD3
:1004F000180F1F0C1F1B041B031C03191513001FCF
:1005000011030418111F0002010220202000010223
:100510000C121E1F120C0C12120C121F0C1A1404B7
:100520001E05242A1E1F021C141D1020201D1F083A
:1005300014111F101E041E1E021C0C120C3E0A0475
:100540000C123E1E040214160A020F120E101E0E8A
:10055000100E1E081E120C1226281E322A26041EF9
:1005600021001F00211E040102013F213F05077FDA
:100570004141417F3E5B4F5B3E3E6B4F6B3E183CC3
:10058000783C18183C7E3C181C577D571C1C5E7F1D
:100590005E1C007E43437E007E73737E007E7F7F01
:1005A0007E7F4141417F30483A060E06297929066F
:1005B0007F4141417F60703F02042A1C361C2A7F24
:1005C0003E1C080000081C3E7F14227F22143C3C85
:1005D0003C7EFF18423C817E3E6375633E3E616B0C
:1005E000633E3E636B6B3E04027F020410207F205B
:1005F0001008082A1C08081C2A0808143E55412225
:10060000637569756310181C1810040C1C0C040029
:100610000000000000005F00000007000700147FDA
:10062000147F14042A7F2A10231308646236495663
:1006300020500008070300001C2241000041221C3A
:10064000002A1C3E1C2A08083E080800E060000042
:100650000808080808006060000060100804033EF5
:100660005149453E00427F4000625149494621417F
:10067000494D331814127F1027454545393C4A49E6
:100680004930412111090736494949360649492966
:100690001E000024000000806400000814224100B5
:1006A0001414141414004122140802015909063EBE
:1006B000415D594E7C1211127C7F494949363E41B9
:1006C0004141227F4141221C7F494949417F09091B
:1006D00009013E414151327F0808087F00417F41B6
:1006E000002041413F017F081422417F40404040AB
:1006F0007F020C027F7F0204087F3E4141413E7F22
:10070000090909063E416141BE7F0919294626496A
:1007100049493201017F01013F4040403F1F2040D5
:10072000201F3F4038403F631408146303047804DB
:10073000036151494543007F4141000304081060B3
:100740000041417F0004020102048080808080001B
:100750000307080020545478407F28444438384424
:10076000444428384444287F3854545418087E0997
:10077000090218A4A49C787F0804047800447D40F2
:1007800000006080847D7F1010284400417F40007D
:100790007C047804787C080404783844444438FCA9
:1007A0001824241818242418FC7C0804040808546D
:1007B000545420043F4444203C4040207C1C2040B2
:1007C000201C3C4020403C44281028444C909090F1
:1007D0007C4464544C44000836410000007F000013
:1007E0000041360800180408100C7F4141417F0A7F
:1007F0004E6F2053442063617264206F720A6E6FE3
:10080000204C4F414445522E4845580A0A153A4556
:10081000786974001D20466C617368696E670A20F0
:10082000206C6F616465722E2E2E0A0A444F4E278B
:1008300054205455524E204F464621000A0A153A7C
:1008400049676E6F7265006D560A0A504C454153F8
:1008500045205455524E204F464620004C4F5720BD
:100860004241545445525921200005008930080264
:100870003802497868140000F6E8DBCFC3B8AEA4AC
:100880009B928A827B746E68625C57524E494541E6
:100890003E3A3734312E2C29272523211F1D1C1ABF
:1008A0001917161514131211100F0E0D0C0B0A093F
:1008B00008070645006801000005006801380100CE
:1008C000000500380168010000D108CD080101FFD2
:1008D000030101F703000000080002010000030407
:1008E0000700000000000000000102040810204082
:1008F00080010204081020010204081020040404EE
:1009000004040404040202020202020303030303B8
:10091000030000000023002600290000000000253D
:100920000028002B0000000000240027002A0000FF
:10093000C80811241FBECFEFD8E0DEBFCDBF11E045
:10094000A0E0B1E0E4EDFFE302C005900D92AA350E
:10095000B107D9F724E0AAE5B1E001C01D92A130AA
:10096000B207E1F719E0C2E3D9E004C02297FE0123
:100970000E94701FC033D107C9F70E94B31B0C94AB
:10098000E81F0C9400008AE691E00E946912882317
:10099000D1F32FE731E040E060E088EB91E00E9486
:1009A000010D64E084E791E00E94160A882339F083
:1009B0008FE891E00E944A1910928201089561E047
:1009C00084E791E00E94160A882349F061E08FE8ED
:1009D00091E00E948C198FE891E00E944A1963E02F
:1009E00084E791E00E94160A882349F08FE891E09D
:1009F0000E94601960E08FE891E00E948C1966E027
:100A000084E791E00E94160A882309F4BCCF8AE6A5
:100A100091E00E947514B7CF8AE691E00E942F15ED
:100A20006DE675E088EB91E00E944D0F0E94C304D3
:100A3000109282011092BE0108955F926F927F9290
:100A40008F929F92AF92BF92CF92DF92EF92FF92DE
:100A50000F931F93CF93DF93C7E1D0E055245394B6
:100A6000F7E2AF2EB12CA7EF8A2E99249A94662430
:100A70006394712C8AE691E00E9469128823D1F375
:100A800080910A01882309F4FCC160910D017091E5
:100A90000E016F5F7F4F70930E0160930D014AE06E
:100AA00050E088EB91E00E94FF1C409114015091AE
:100AB00015018091660190916701480F591F50936D
:100AC000150140931401E090680100E021EE33E04D
:100AD0006091160188EB91E00E94600E23EB33E0F9
:100AE0004CE260E088EB91E00E94010D25EA33E0E2
:100AF0004CE164E188EB91E00E94010D42E060E08E
:100B000084E791E00E941F0A882341F0809116013A
:100B100090911701181619060CF410C242E062E019
:100B200084E791E00E941F0A882341F0209116017A
:100B3000309117012C3431050CF40FC244E164E00C
:100B400084E791E00E941F0A882321F080910F0121
:100B5000811112C2209160013091610180910D01DB
:100B600090910E0128173907C1F423E030E040E0EE
:100B700050E061E070E080E090E00E945D1D7093C5
:100B80005F0160935E0180916001909161018853E3
:100B90009F4F909361018093600180915E019091DD
:100BA0005F01019799F42BE933E040916201609174
:100BB000640188EB91E00E94010D809162019091A7
:100BC00063010196909363018093620180915E01BD
:100BD00090915F01029799F421E933E040915A0125
:100BE00060915C0188EB91E00E94010D80915C01B5
:100BF00090915D01019690935D0180935C018091DD
:100C00005E0190915F010397B9F42DEC30E04091C3
:100C10000B0160E088EB91E00E94010D22E230E0E0
:100C200040E050E060E270E080E090E00E945D1DF6
:100C300070930C0160930B014091140150911501C8
:100C4000609116017091170133EBC32E33E0D32E60
:100C5000ECE2EE2EF12C00E010E021EE33E08AE62B
:100C600091E00E94BB15882329F0B0921501A09253
:100C700014011DC04091140150911501609116019D
:100C80007091170195EAC92E93E0D92E2CE1E22E3E
:100C9000F12C04E110E021EE33E08AE691E00E94BD
:100CA000BB15882359F0D0931501C09314011092FD
:100CB00067011092660150920F010BC0809166018E
:100CC000909167010196909367018093660110925D
:100CD0000F01E0906201F0906301009164011091B6
:100CE00065014091140150911501609116017091B8
:100CF00017018BE9C82E83E0D82E21EE33E08AE677
:100D000091E00E94BB15811110920A01409162018D
:100D100050916301609164017091650113EBC12EE4
:100D200013E0D12E0CE2E02EF12C00E010E02BE9D4
:100D300033E08AE691E00E94BB1581112FC14091FA
:100D40006201509163016091640170916501A5EAAF
:100D5000CA2EA3E0DA2EBCE1EB2EF12C04E110E068
:100D60002BE933E08AE691E00E94BB15811116C1A0
:100D7000E0905A01F0905B0100915C0110915D01DF
:100D80004091140150911501609116017091170165
:100D9000F1E9CF2EF3E0DF2E21EE33E08AE691E099
:100DA0000E94BB15811110920A0140915A01509185
:100DB0005B0160915C0170915D0133EBC32E33E008
:100DC000D32EECE2EE2EF12C00E010E021E933E02E
:100DD0008AE691E00E94BB158111F2C040915A0150
:100DE00050915B0160915C0170915D0195EAC92EA3
:100DF00093E0D92E2CE1E22EF12C04E110E021E960
:100E000033E08AE691E00E94BB158111D9C0809140
:100E10005C0190915D018035910594F010925D0127
:100E200010925C0128E230E040E050E064E170E0C4
:100E300080E090E00E945D1D70935B0160935A0119
:100E4000E0900B01F0900C014091140150911501BC
:100E500060911601709117018DECC82E80E0D82E9C
:100E600000E010E021EE33E08AE691E00E94BB153D
:100E7000882339F080915E0190915F01039709F416
:100E8000B2C080910A018111F5CD1092C10110927A
:100E9000C2016AE171E088EB91E00E94421C6CE4BF
:100EA00071E088EB91E00E94421C64E271E088EB03
:100EB00091E00E94421C60910D0170910E014AE088
:100EC00050E088EB91E00E94F71C6AE271E088EB49
:100ED00091E00E94421C6CE471E088EB91E00E947A
:100EE000421C63E371E088EB91E00E94421C65E0E4
:100EF00084E791E00E94160A882309F4BBCD8FE8AD
:100F000091E00E9460198FEF9FEF90930E01809304
:100F10000D016DE675E088EB91E0DF91CF911F91B7
:100F20000F91FF90EF90DF90CF90BF90AF909F9088
:100F30008F907F906F905F900C944D0F20911201D5
:100F400030911301821B930B90931701809316012C
:100F50007092690160926801E1CD809112019091D7
:100F60001301820F931F9093170180931601109223
:100F7000690110926801E2CD8FE891E00E944A1960
:100F80008091140190911501019790931501809320
:100F900014019092670180926601DCCD109263018A
:100FA000109262012CE430E040E050E060E070E03C
:100FB000CB010E945D1D7093650160936401D8CEE2
:100FC00010925D0110925C0128E230E040E050E0B8
:100FD00064E170E080E090E00E945D1D70935B0131
:100FE00060935A0114CF10920A014BCFCF93109205
:100FF000820144E06CE970E08AE691E00E942313EC
:10100000813009F47AC00CF06AC08F3F09F472C0D5
:101010008111BCC06CE870E088EB91E00E94001C7C
:101020008AE691E00E94031184E190E09093170119
:101030008093160190931501809314011092690119
:101040001092680182E090E0909313018093120166
:1010500081E090E0909311018093100190936701DB
:1010600080936601109263011092620110926101F7
:101070001092600110925F0110925E012CE430E04A
:1010800040E050E060E070E0CB010E945D1D709395
:1010900065016093640110925D0110925C0128E289
:1010A00030E040E050E064E170E080E090E00E94D9
:1010B0005D1D70935B0160935A0180E290E0909314
:1010C0000C0180930B0181E080930A016BEE73E0C9
:1010D00088EB91E00E944D0FCF910C941D0582305A
:1010E00009F447C0833009F051C08AE691E0CF91FE
:1010F0000C947514CF910C94C304C1E08AE691E07E
:101100000E9469128823D1F365E084E791E00E9490
:10111000160A882339F08FE891E00E946019109236
:10112000820134C01092C1011092C20163E870E0E4
:1011300088EB91E00E94001C4AE050E0609183013E
:1011400088EB91E00E94241D60E870E088EB91E05C
:101150000E94301C6FE770E088EB91E00E94301C29
:1011600067E770E088EB91E00E94301CC093820139
:10117000C5CF68E670E088EB91E00E94001C64E651
:1011800070E080E090E0CF910C94121ACF91089516
:101190001092BB011092BA018FE391E09093B901D4
:1011A0008093B8012CE430E040E050E060E070E073
:1011B000CB010E945D1D709365016093640128E27C
:1011C00030E040E050E064E170E080E090E00E94B8
:1011D0005D1D70935B0160935A010895CF93CFB763
:1011E000F8948091F101811127C0E7E0F9E0849142
:1011F000E3EFF8E09491E82FF0E0EE0FFF1FEB5DD6
:10120000F64FA591B4918C91892321F461E08AE095
:101210000E94531B61E08AE00E941A1B8CB580611A
:101220008CBD8CB580648CBD61E08DE00E941A1B82
:1012300061E08BE00E941A1B8091F1018F5F809327
:10124000F101CFBFCF91089521E0FC0120830895E3
:1012500070E085E00C94921AAF92BF92CF92DF9229
:10126000EF92FF920F931F93CF93DF93EC0189814D
:101270009A812FE0289F8001299F100D112485E17C
:101280000E94751A800F911F24E0969587952A95E4
:10129000E1F79A8389832881222391F1AC81AD8083
:1012A000B12CC12CD12CE885F9857F0100E010E03C
:1012B0006E817F819B0140E050E08617970728F000
:1012C000BC01E817F90708F4BF0180E090E01F9225
:1012D0001F921F92AF930E94791D6B830F900F9006
:1012E0000F900F9070E085E0DF91CF911F910F91EB
:1012F000FF90EF90DF90CF90BF90AF900C94921A38
:10130000DF91CF911F910F91FF90EF90DF90CF90E1
:10131000BF90AF900895FC018CE39FE0938382839C
:1013200084E0818381E084870895CF93DF93EC018B
:101330008C819D81892B81F18C858F7151F584E1A0
:101340000E94751ABC01882777FD8095982F0E940E
:10135000EF1D26EE3FE34EEC50E40E947B1E0E9400
:10136000C11D9B017B836A836115710581F084E057
:101370008983FE0140E0848195812817390710F4A4
:1013800049830AC04F5F32964430A9F702C08FEFFD
:1013900089838C858F5F8C87DF91CF910895FC01C5
:1013A00088E0808389E0818387E0828386E083838D
:1013B00084E0848382E0858381E186830895DF92DF
:1013C000EF92FF920F931F93CF93DF937C01EC0179
:1013D00000E010E0DD24DA9462E088810E941A1BAC
:1013E00088810E94891BF701E00FF11F892B21F4EE
:1013F00087818F5F878308C08781882349F08F3F6B
:1014000011F4178201C0D78260E088810E941A1B04
:101410000F5F1F4F219607301105F1F6DF91CF9135
:101420001F910F91FF90EF90DF900895FC01E60F60
:10143000F11D81E09781913009F080E00895262F19
:1014400030E0FC01E20FF31F8781423028F4815025
:101450008E3F48F080E008958F3FE1F3642F0E94B3
:10146000EE1E9130B9F781E008958EBD00000DB4F5
:1014700007FEFDCF8EB50895DC01643508F053C03A
:10148000403308F050C090968C919097342F35954A
:1014900035953595E62FFF27E7FDF095242F27702A
:1014A000823099F4DF01AE50BE4F84E53802A00DC2
:1014B000B11D11248C9190E0022E02C09595879564
:1014C0000A94E2F78095817009C0833039F4462789
:1014D0001C968C91482740FF03C014C0811112C094
:1014E00084E53802E00DF11D1124EE50FE4F81E03D
:1014F00090E0022E01C0880F0A94EAF7809590814F
:10150000982310C084E53802E00DF11D1124EE503F
:10151000FE4F81E090E0022E01C0880F0A94EAF7A6
:101520009081982B908308951F93CF93DF93EC01C4
:10153000162FF89460E08F850E94531B8889181637
:101540001CF460E00E94531B812F0E94350A888999
:1015500018161CF461E00E94531B7894DF91CF9120
:101560001F91089528EF31E0E2EFF1E0DF01A901DA
:101570001D9241505040E1F7DC0119961C921997D9
:101580001A961C920895DF92EF92FF920F931F9389
:10159000CF93DF93EC018C858F5F8C8782EFE82EF1
:1015A00081E0F82ED12C6D2D6064CE010E94940A4A
:1015B00060E8CE010E94940A61E08F850E94531B6F
:1015C000888918161CF460E00E94531B00E010E0AC
:1015D000F701E00FF11F80810E94350A0F5F1F4F56
:1015E00004351105A9F7888918161CF461E00E94DA
:1015F000531BD39484E5E80EF11C86E0D812D3CFB8
:1016000060E4CE01DF91CF911F910F91FF90EF9099
:10161000DF900C94940AFC0160A361A30895FC017F
:1016200060A341A30895CF92DF92FF920F931F937F
:10163000CF93DF931F92CDB7DEB76C01062FF42E48
:1016400010E0121754F4412F4F0D602FC60129836B
:101650000E943C0A1F5F2981F4CF0F90DF91CF9148
:101660001F910F91FF90DF90CF900895CF92DF925E
:10167000FF920F931F93CF93DF931F92CDB7DEB7E7
:101680006C01062FF42E10E0121754F4612F600F36
:101690004F2DC60129830E943C0A1F5F2981F4CF88
:1016A0000F90DF91CF911F910F91FF90DF90CF901E
:1016B0000895DF92EF92FF920F931F93CF93DF93E2
:1016C000EC01E62ED22EF42E112707FD1095040F03
:1016D000111D47FD1A958F2D992787FD909580172D
:1016E000910744F42D2D4F2D6E2DCE010E94360B07
:1016F000F394F1CFDF91CF911F910F91FF90EF9075
:10170000DF9008958F929F92AF92BF92CF92DF9217
:10171000EF92FF920F931F93CF93DF93EC01E62E8E
:10172000D42E122FCC24C394C21AB22EB194BB0C67
:10173000F12C802F8470A82E802F8270982E802FFD
:101740008870882E0170F1160CF04DC0C7FC04C0E3
:101750001150B394B394CB0CF3948F2D880F8F5FFB
:10176000C80EAA2071F0412F4D0D6F2D6E0DCE01C8
:101770000E943C0A4F2D4D0D612F6E0DCE010E942F
:101780003C0A992071F04D2D411B6F2D6E0DCE013D
:101790000E943C0A4D2D4F19612F6E0DCE010E9403
:1017A0003C0A882071F04F2D4D0D6E2D611BCE012E
:1017B0000E943C0A412F4D0D6E2D6F19CE010E94E3
:1017C0003C0A002309F4BFCF4D2D4F196E2D611B2C
:1017D000CE010E943C0A4D2D411B6E2D6F19CE018A
:1017E0000E943C0AB0CFDF91CF911F910F91FF90E3
:1017F000EF90DF90CF90BF90AF909F908F90089523
:101800008F929F92AF92BF92CF92DF92EF92FF9210
:101810000F931F93CF93DF93EC01B62EA42E122FBC
:10182000DD24D394D21AC22EC194CC0CFF24F3949D
:10183000802F8170882E992493949E0C02708FEFD4
:101840008F0D8117C4F5D7FC04C01150C394C39405
:10185000DC0C8F2D880F8F5FD80E882099F0212FF8
:10186000220F290D4A2D411B6F2D6B0DCE010E94B9
:10187000130B23E02E0D4A2D4F19612F6B0DCE0156
:101880000E94130B002399F0212F220F290D4A2DBE
:10189000411B6B2D6F19CE010E94130B23E02E0DFF
:1018A0004A2D4F196B2D611BCE010E94130BF3942F
:1018B000E394E394C4CFDF91CF911F910F91FF90F8
:1018C000EF90DF90CF90BF90AF909F908F90089552
:1018D0009F92AF92BF92CF92DF92EF92FF920F93BF
:1018E0001F93CF93DF93EC01B62EF42EA22EDE2CA5
:1018F000D194DD0C9D2C920E1E2D160F292D612FDB
:101900000E94360BCC24CA94C00ECF0C292D4C2D2E
:10191000612FCE010E94360BD00EFE0C2D2D4F2DC7
:101920006B2DCE010E94130BBA0C6FEF6B0D2D2D9A
:101930004F2DCE010E94130B01E02E2D4F2D612F54
:10194000CE010E94820BDE2CD094DB0C02E02E2D07
:101950004F2D6D2DCE010E94820BCE1804E02E2D4E
:101960004C2D6D2DCE010E94820B08E02E2D4C2DAA
:10197000612FCE010E94820BDF91CF911F910F91B9
:10198000FF90EF90DF90CF90BF90AF909F90089521
:10199000AF92BF92CF92DF92EF92FF920F931F937D
:1019A000CF93DF93EC01A62EC42EB22EF02E1E2D67
:1019B000E194EE0CD12ED60E2E2D2B0D6D2D0E9406
:1019C000590BFA94FE0CC10E6FEF6A0D6B0D611B83
:1019D000EF2C01E0212F4C2DCE010E94000C02E0E3
:1019E000212F4C2D6D2DCE010E94000CDF91CF9147
:1019F0001F910F91FF90EF90DF90CF90BF90AF902D
:101A000008956F927F928F929F92AF92BF92CF92E2
:101A1000DF92EF92FF920F931F93CF93DF93F90121
:101A2000A49031965491FC01F0A064350CF00CC1E7
:101A3000BB24A7FCB094A62FBB27A7FDB095FD0142
:101A4000EA0DFB1D1E161F060CF0FEC040330CF005
:101A5000FBC0C52E042F112707FD1095E801C50F07
:101A6000D11D57FDDA951C161D060CF0EDC0E901DD
:101A700022969501295F3F4F37FF02C0295F3F4FF4
:101A800073E0359527957A95E1F747FF0AC0C52E93
:101A9000C40E209FA001219F500D1124C41BD50B03
:101AA00040E00C2D112707FD1095040F111D47FD77
:101AB0001A95013311051CF070E3C72EC41A67FD97
:101AC00060E0E535F10514F0E4E5F0E01E2FFC01DF
:101AD00074857427862F992787FD9095FC01EA1B52
:101AE000FB0BDF015F01F7E0AF22BB24E0E8F0E091
:101AF00002C0F595E795AA94E2F70E2FB7FD179669
:101B000053E0B595A7955A95E1F7AC0FBD1FE42FAB
:101B1000E77051E001C0550FEA95EAF74595459504
:101B20004595E4E54E02800D911D11248E509E4F87
:101B300040E0DD24C7FCD094BB24B3943327E42FCA
:101B4000F0E0EC15FD050CF07FC0FD01E490F1E044
:101B5000FF1219C0EC01A02EFD01862E881A9C2EC2
:101B6000980C911608F067C09E2C9A2019F0988066
:101B7000952A9882A69429F43196E4906894AA2430
:101B8000A7F82196ECCFF1101BC0752E7094EC01D4
:101B9000A02EFD01862E881A9C2E980C911608F016
:101BA0004AC09E2C9A2019F0988097209882A6947B
:101BB00029F43196E4906894AA24A7F82196ECCFF2
:101BC000E3E0FE1631F0EC01A02EFD01862E881A0E
:101BD0002EC0752E7094962EEC01A02EFD0191164C
:101BE000B0F48E2C8A2049F08880692C672660FE2C
:101BF00002C0852A01C087208882A69429F43196E4
:101C0000E4906894AA24A7F893942196E8CF7B25C2
:101C100012C09E2C9A2019F0988095269882A6943E
:101C200029F43196E4906894AA24A7F821969C2E72
:101C3000980C911670F3550F19F48C5A9F4F51E080
:101C40004F5FA20FB31F7BCFDF91CF911F910F91F9
:101C5000FF90EF90DF90CF90BF90AF909F908F90CC
:101C60007F906F900895FB01A491842F90E0E3E0B2
:101C700095958795EA95E1F70296B0E01796F3E01F
:101C8000B595A795FA95E1F72A9FF0012B9FF00DE6
:101C900011248E0F9F1F860F971FFC018491282F00
:101CA00030E0477080E890E002C0959587954A95AE
:101CB000E2F72823392381E0232B09F480E00895FB
:101CC0002F923F924F925F926F927F928F929F924C
:101CD000AF92BF92CF92DF92EF92FF920F931F933A
:101CE000CF93DF93CDB7DEB72A970FB6F894DEBF58
:101CF0000FBECDBF6C01262E542F01111CC0E11068
:101D00001AC02A960FB6F894DEBF0FBECDBFDF9182
:101D1000CF911F910F91FF90EF90DF90CF90BF90E8
:101D2000AF909F908F907F906F905F904F903F907B
:101D30002F900C94010DF901849131963490B901E2
:101D40006E5F7F4F7A836983A82EB12C9501295F3E
:101D50003F4FB3E035952795BA95E1F73A87298744
:101D600003702FEF280F522E10E07FEF730D832D9D
:101D700090E09C838B83812F992787FD90958A150E
:101D80009B050CF071C0812F17FF02C087E0810F07
:101D9000682E659465946594812F877887FF03C0CA
:101DA0008150886F8F5FA0E88A2E912C02C0959495
:101DB00087948A95E2F7472EF12C772467FC70947C
:101DC0008F2D992787FD9095EB81FC818E179F07BA
:101DD0000CF047C0A985BA858A9FF0018B9FF00D52
:101DE0009A9FF00D1124E60DF71D89819A81E80F65
:101DF000F91FE491F0E0E821F921EF2B79F10230AD
:101E000039F0033041F0013049F4452D6F2D08C001
:101E1000652D442D05C0642D412F02C04F2D612F2B
:101E2000EE2069F03E2D3370E0FE03C0922F961B2A
:101E3000692FE1FE05C0A32DA41B4A2F01C030E08D
:101E4000620D450FC6012E833D835F8378870E9414
:101E50003C0A3D81E32E78855F812E81F3944A947C
:101E6000AFCF1F5F5A9487CF2A960FB6F894DEBF84
:101E70000FBECDBFDF91CF911F910F91FF90EF90DB
:101E8000DF90CF90BF90AF909F908F907F906F909A
:101E90005F904F903F902F900895DC01FB0184915B
:101EA0008F5F14968C9314973196E491EF5F15969B
:101EB000EC9315976E5F7F4F5F967C936E935E9762
:101EC0000895EF920F93CF93DF93EC014E876D87C8
:101ED0002F87E98A088B81E0888788A319A28F83DE
:101EE0006BEE73E0CE010E944D0F0E94EE088CB5A0
:101EF0008F7D8CBD8CB58C7F81608CBD8DB58160F4
:101F00008DBD8CB58C608CBD61E08E850E941A1BE6
:101F100061E08D850E941A1B61E08F850E941A1B6B
:101F2000898918161CF461E00E941A1B888918160A
:101F30001CF461E00E941A1B898918166CF460E099
:101F40000E94531B6AE070E080E090E00E94121A49
:101F500061E089890E94531B8D85992787FD9095A3
:101F6000FC01E350F74FE491F0E0EE0FFF1FE55E58
:101F7000F64F259134913D8B2C8BFC01E751F74FA7
:101F800084918B8F8E85992787FD9095FC01E35076
:101F9000F74FE491F0E0EE0FFF1FE55EF64F25915D
:101FA00034913B8B2A8BFC01E751F74F84918A8F48
:101FB0008889992787FD9095FC01E350F74FE491BC
:101FC000F0E0EE0FFF1FE55EF64F259134913F8B59
:101FD0002E8BFC01E751F74F84918C8F8F859927C9
:101FE00087FD9095FC01E350F74FE491F0E0EE0F90
:101FF000FF1FE55EF64F25913491398F288FFC0144
:10200000E751F74F84918D8F61E2CE010E94940ACF
:1020100064E1CE010E94940A8B8587FF02C08FE79E
:102020008B876B856068CE010E94940A60E2CE01C6
:102030000E94940A6CE0CE010E94940ACE01DF91C6
:10204000CF910F91EF900C94C30A6F927F928F9271
:102050009F92AF92BF92CF92DF92EF92FF920F9337
:102060001F93CF93DF93EC01162FF42EB02EE8A030
:1020700064350CF081C08FE284170CF47DC0EC81D4
:10208000F0E031970E9FC0010F9F900D1124860F35
:10209000911D67FD9A95181619060CF06DC08D817B
:1020A000809FC0011124840F911D47FD9A95181639
:1020B00019060CF061C0A62E962EC22ED12C8A2DA8
:1020C000811B992787FD90952C8130E0821793071B
:1020D0000CF051C0215031098217930779F0C29E4C
:1020E000D001C39EB00DD29EB00D1124A80FB91F10
:1020F000EE8DFF8DEA0FFB1F749001C0712C8F2CA9
:102100006F2C282D2F19332727FD30958D8190E0D6
:10211000281739076CF570FE11C081E0B81206C0AF
:10212000482D6A2DCE010E943C0A1EC00B2D2B2D7E
:10213000462D692DCE010E94590B16C089A198A188
:10214000891791F088A381E0B81206C0482D6A2D46
:10215000CE010E943C0A07C00B2D2B2D462D692D68
:10216000CE010E94590BE8A276946B0C8394C9CFE0
:102170009B0CA394A4CFE8A2DF91CF911F910F9164
:10218000FF90EF90DF90CF90BF90AF909F908F9097
:102190007F906F9008950F93CF93DF93EC01262FDC
:1021A0006A3039F42D8198858A85299F800D112404
:1021B00022C06D3011F108854A8569850E9425107D
:1021C00048855C812985549F200D112429878F81A2
:1021D000882399F0332727FD309584E590E0459FCB
:1021E000801991091124821793073CF49D818A85F7
:1021F000499F800D11248A87198681E090E0DF9144
:10220000CF910F9108958F929F92AF92BF92CF92EC
:10221000DF92EF92FF92CF93DF93EC01CA8CDB8CBD
:10222000C094D094E12CF12C0E94EF194B015C0179
:102230000E94EF19A5019401209530954095509585
:1022400060957095809590950E94DE1E9B01AC0173
:10225000C701B6010E94DE1E6B017C0189809A8055
:10226000A12CB12C0E94EF19680D791D8A1D9B1DB0
:102270006C0D7D1D8E1D9F1DDF91CF91FF90EF9006
:10228000DF90CF90BF90AF909F908F900C94311DB6
:102290008F929F92AF92BF92CF92DF92EF92FF9276
:1022A0000F931F93CF93DF93EC015C0186E8A80E98
:1022B000B11CD5018C91882309F44DC08C3018F4E1
:1022C0001CE0181B01C010E0FE01EA5AFF4F81E03C
:1022D00080836E01BEE4CB0ED11C60E0C6010E947B
:1022E0000B0B4E01E3E58E0E911CD4018C9103E0A3
:1022F000080F9DE2F92E4F2D481B410F23E0E22EDF
:1023000024E560E0C6010E94C80C61E0C6010E949D
:102310000B0BF401808103E0080F4F2D481B410F88
:1023200024E560E0C6010E94680CFE01E95AFF4FF7
:1023300084E080833196D4018C91181B115D108349
:10234000CC57DF4F68817981C6010E94001CF501DE
:10235000808181508083DF91CF911F910F91FF90F9
:10236000EF90DF90CF90BF90AF909F908F900895A7
:10237000DF92EF92FF920F931F93CF93DF93EC01C5
:102380008C8D9D8D892B09F49CC08E01025B1F4FA3
:1023900040E061E0C8010E940F0B85E5FE01EE5AA6
:1023A000FF4F9081891B3596808331961082698D0D
:1023B000613009F462C028F0888D653008F074C07F
:1023C0006FC0CE0185960E94CC1781E0FE01EA5ACB
:1023D000FF4F80836BEE73E0C8010E944D0F1D8E8E
:1023E0001C8EFE01EC5AFF4F108238EAD32E7E017C
:1023F0008AE0E80EF11CCE010E9469128823D9F30D
:102400006CE578E0C8010E94001C6A8D7B8D4AE073
:1024100050E0C8010E942B1D67E478E0C8010E94CB
:10242000001C6D2D62956F7070E04AE050E0C801AD
:102430000E94F71C6CE378E0C8010E94001C64E075
:10244000C7010E94160A81113CC0DA94A1F660E02F
:10245000CE010E94280983B7817F846083BF83B740
:10246000816083BF83B7816083BF889583B78E7F88
:1024700083BF83B78E7F83BFBECFCF58DF4F4881E6
:1024800059816A817B814F705527662777274830AD
:1024900051056105710510F467E009C068E707C0E0
:1024A000882379F06B5F03C0882359F06FE2C8017D
:1024B000DF91CF911F910F91FF90EF90DF900C94DF
:1024C000251CDF91CF911F910F91FF90EF90DF902E
:1024D00008958F929F92AF92BF92EF92FF920F93C7
:1024E0001F93CF93DF93EC017C0100E8E00EF11C19
:1024F000F70180809180A280B3800E94E31995014A
:102500008401061B170B280B390BB901A8015E01CA
:102510001FE7A10EB11CF501808190E0A0E0B0E0C2
:102520008E0105581F4F84179507A607B70750F46B
:10253000F80180819181A281B381892B8A2B8B2B19
:1025400009F040C0F80180819181A281B381892B7B
:102550008A2B8B2BA9F57E01F5E2EF0EF11CC7014A
:102560000E94C917C7010E943618C7010E94FA18B5
:10257000CE010E944811CE010E94B8117E012EE4C6
:10258000E20EF11CC7010E94C30AFE01EC5AFF4F84
:102590008081811103C0C7010E94B20A0E94EF1915
:1025A000F8016083718382839383FE01EB58FF4FB0
:1025B000C958DF4F28813981621B730B7183608397
:1025C00080E036C00E94E319F5012081620F711D81
:1025D000811D911DF7016083718382839383FE01C6
:1025E000EF58FF4F40815181628173814F5F5F4F90
:1025F0006F4F7F4F4083518362837383F801108252
:102600001182128213820E94EF19FE01E958FF4FD6
:102610006083718382839383CE010E942C09CE0153
:102620000A960E94DF09CE0148960E94950981E032
:10263000DF91CF911F910F91FF90EF90BF90AF90DE
:102640009F908F9008952F923F924F925F926F923A
:102650007F928F929F92AF92BF92CF92DF92EF9232
:10266000FF920F931F93CF93DF93CDB7DEB766979B
:102670000FB6F894DEBF0FBECDBF9E8B8D8B6F87DC
:10268000788B942EFC01EC5AFF4F108288248A9498
:102690001C82A12C30E33B83B12C6C018AE0C80E74
:1026A000D11C6D887E8893E5690E711CED89FE89C9
:1026B000B5962F01242F30E03A8729878D899E898E
:1026C000895A9F4F9E838D83ED89FE89E85AFF4F7B
:1026D000F887EF832D893E892A5A3F4F3C872B8705
:1026E0008D899E898B5A9F4F9E878D87ED89FE89A4
:1026F000E25BFF4F1F018D899E890E94691288232A
:10270000D1F364E0C6010E94160A3B81032F112712
:1027100007FD109581113EC065E0C6010E94160AB2
:10272000811138C066E0C6010E94160A811132C0CC
:102730003C81311142C044E063E0C6010E941F0A9F
:10274000882321F0B394C2010E94761944E061E02D
:10275000C6010E941F0A882321F0BA94C2010E9478
:1027600076198B2D992787FD9095E985FA858E1727
:102770009F0731F0B7FE05C0BB24BA94B90C01C065
:10278000B12CF301808174E0A72EA80E8B9DA018B8
:1027900011241DC0F301A08064E0C6010E94160A46
:1027A000882309F484C0C2010E944A198B2CA19489
:1027B000A99CA02C1124AA94AA94C8018A19910951
:1027C000A7FC939502970CF476C031E03C830A0D88
:1027D000111DA7FC1A9517FF02C00F5F1F4FC801FC
:1027E000959587959A83898329812B83ED81FE8135
:1027F0001082EF81F885808381E0EB85FC85808302
:10280000ED85FE8510820F851889E12CF12C4B2D6A
:10281000552747FD509533E0E91420F5E416F506F9
:1028200069F4ED81FE813083F3018081F22FB89E3F
:10283000F00D11248F2FEF81F8858083F8016591C9
:102840007491C101298B3C8B4A8B5B8B0E94301C9D
:10285000FFEFEF1AFF0A0E5F1F4F5B894A893C8921
:102860002989DACF60E0C1010E940B0BF30180815E
:102870004981B89E400D1124415024E560E0C1011A
:102880000E94360B61E0C1010E940B0BF3018081B5
:1028900003E0080F4981B89E400D1124425053E0D7
:1028A000E52E24E560E0C1010E94680C24CFC2013E
:1028B0000E9460197CCF882D66960FB6F894DEBF13
:1028C0000FBECDBFDF91CF911F910F91FF90EF9081
:1028D000DF90CF90BF90AF909F908F907F906F9040
:1028E0005F904F903F902F9008950F931F93CF9339
:1028F000DF938C01EC01C25BDF4FCE010E94B20A74
:1029000064E178E0CE010E94001CCE010E94C30A5F
:102910008CB583608CBD8DB58E7F8DBD83E491E0D9
:10292000EEEFFFE30995F801EC5AFF4F10826FEECE
:1029300077E0CE010E94301CCE010E94C30A065FE0
:102940001F4FC8010E94DF0964E0C8010E94160AF7
:10295000811107C062E370E080E090E00E94121AEB
:10296000F0CFDF91CF911F910F910895E0E8F7E745
:102970002591349181E02130304C09F080E00895B8
:10298000CF93DF93EC010E94B6149E01275A3F4F6C
:10299000DE01A059BF4F882309F43CC0E6E9F7E700
:1029A0008491F9018083E7E9F7E7E491EC83E8E9B2
:1029B000F7E7E491ED83E9E9F7E7859194919F8347
:1029C0008E83EBE9F7E78591949199878887EDE904
:1029D000F7E7E491EBA7EEE9F7E7E491EAA7EFE97F
:1029E000F7E7E491EC93E0EAF7E7859194919D8F06
:1029F0008C8FE2EAF7E7859194919F8F8E8FE4EABE
:102A0000F7E78591949199A388A3E6EAF7E7859182
:102A1000949120C08CE3F90180831C822FEF2D83D9
:102A200080E293E09F838E8384ED93E0998788878B
:102A300081E08BA78AA72C938CEA9DE09D8F8C8FD9
:102A40008EED9DE09F8F8E8F84E79EE099A388A3F3
:102A50008CE39FE09BA38AA3DF91CF910895CF924F
:102A6000DF92EF920F93CF93DF93EC01FC01E158DB
:102A7000FF4F82E38083349741E050E060E070E0F4
:102A800040835183628373833B978FEF8083CE01B2
:102A90000E94C014CE010E9424096FEFCE010E9453
:102AA00028096E018AE0C80ED11CC6010E94CF0918
:102AB000C6010E94DF09CE0148960E948B093EE0C4
:102AC000E32E0FE020E14BE06DE0CE01825B9F4FF3
:102AD0000E94610FA596CE010E94DF1665E0C60137
:102AE0000E94160A882351F060E0CE01DF91CF9159
:102AF0000F91EF90DF90CF900C948C1940E06AE634
:102B000078E0CE01DF91CF910F91EF90DF90CF90E1
:102B10000C947E178F929F92AF92BF92CF92DF92CA
:102B2000EF92FF920F931F93CF93DF93CDB7DEB752
:102B3000260F371FE216F30684F4EA0CFB1C6E1511
:102B40007F055CF4040F151FC016D10634F4C80CC1
:102B5000D91C81E04C155D050CF080E0DF91CF9130
:102B60001F910F91FF90EF90DF90CF90BF90AF90AB
:102B70009F908F9008952F923F924F925F926F9205
:102B80007F928F929F92AF92BF92CF92DF92EF92FD
:102B9000FF920F931F93CF93DF93CDB7DEB760976C
:102BA0000FB6F894DEBF0FBECDBF9E878D87788BA2
:102BB0006F873A013E832D8318012701D886CF8283
:102BC000F9018491282F30E03A832983ED81FE8139
:102BD0003196E4916E2F70E07C836B83EF81F885F2
:102BE0008491282F30E03A872987EF81F885319644
:102BF000E4916E2F70E07C876B874B01A984BA84C7
:102C0000670178010B811C8129813A816F85788960
:102C10008D859E850E948A15811102C080E079C051
:102C20008F8598898215930534F4C101AF85B889E1
:102C30008A1B9B0B02C080E090E06414750424F4AE
:102C400092012619370902C020E030E049855A85F3
:102C5000420D531D69817A81EF85F8896E0F7F1FC0
:102C6000641775072CF0BA016E1B7F0B7A8369839A
:102C70004B855C85440D551D6B817C81660D771DF0
:102C8000641775072CF0DA01A619B709BC83AB836A
:102C9000B22E00E010E0782EED84FE84BEE4EB0E50
:102CA000F11C6418620ECF84C218C80E202E3B2C73
:102CB000300E832D90E02B813C81821793070CF01E
:102CC000ADCF412C512C260CD42C472D440D842FF4
:102CD00090E0E981FA818E179F07A4F4232D6D817E
:102CE0007E81C7010E94330E882379F04C2D4D0D53
:102CF000222D6F817885C7010E94330E882329F029
:102D000081E007C00F5F1F4FD1CF3FEF431A530A37
:102D1000DBCF60960FB6F894DEBF0FBECDBFDF915C
:102D2000CF911F910F91FF90EF90DF90CF90BF90C8
:102D3000AF909F908F907F906F905F904F903F905B
:102D40002F900895CF93DF9350E0FA01EE0FFF1F0D
:102D5000E80FF91F37852089E32FF22FE60FF11DC9
:102D6000E60FF11D25913491FA01EE0FFF1FE80FD8
:102D7000F91F30A3278FF90165917491FC01D4816B
:102D8000D69FC02D1124E40FF51FC1A3F901A59111
:102D9000B4916B2F70E0EC2FF0E0DC01A40FB51FB5
:102DA0006E177F0720F4F90125913491C32FCD9F31
:102DB000C02D11249296CC93DF91CF91089521E0FC
:102DC000FC01248324E020A729EC38E0308B2787FE
:102DD00040E060E00E94A21661E070E083E00E94A3
:102DE000921AE1EBF0E08081887F81608083F89423
:102DF00010928000E1E8F0E01082109285001092BD
:102E0000840088E191E0909389008093880080811C
:102E100088608083808181608083EFE6F0E080813C
:102E200082608083789408950F93FC01862F642F2D
:102E3000011129C08230D1F048F4882391F081300B
:102E400011F540E0CF010F910C94A2168330A9F048
:102E50008430C9F48481489F602D1124658F268FAA
:102E600012C04B3008F06AE0668B0DC08481489F29
:102E7000602D1124618F228F06C08481489F602DB0
:102E80001124638F248F0F910895FC0121110EC02E
:102E9000648B8481489F402D1124458B15A214A278
:102EA00013A281E0878B8093F603108E08958091A2
:102EB000F603882319F08091F30301C080E080932A
:102EC000B4000895FC0161110DC0178A158A14A27F
:102ED00013A2108E1092F3031092F4031092F603D3
:102EE0000C9457170895CF93DF93EC01611103C041
:102EF0000E9462171982DF91CF9108950F931F935B
:102F0000CF93DF93EC018B0141110EC060E00E9472
:102F100073171E870D871B8A1A8A81E0898389E0CF
:102F20008E8B198E1B8E1D8EDF91CF911F910F916D
:102F30000895CF93DF93EC01611128C08881882325
:102F400029F18981811122C089852F819885E22FFD
:102F5000F92FE80FF11DE80FF11D859194918F3F36
:102F60002FEF920711F4188211C09C879927880FC0
:102F7000991FEA85FB85E80FF91F6591749140E080
:102F8000CE010E947E1789858F5F8987DF91CF915F
:102F9000089560E00C94991760E00C9473170F93F8
:102FA000CF93DF93EC0161115DC08981882309F41F
:102FB00059C08D89811156C02D853E858A899B898E
:102FC000880F991F820F931FFC01859194910097A0
:102FD000D1F48989882321F01B8A1A8AF90111C04A
:102FE0001982888160E0882331F0CE010E94991710
:102FF0008A899B8925C0CE01DF91CF910F910C94D6
:10300000621785919491BC01769567957695679541
:1030100080FF1DC0AC01A6E056954795AA95E1F743
:10302000292F26952695269520514F716F7000E027
:10303000CE010E9414178A899B8901969B8B8A8BEB
:10304000880F991FED85FE85E80FF91FDACF492F0C
:103050006F7320E0CE010E9445178A899B890196F3
:103060009B8B8A8BDF91CF910F91089560E00C9438
:10307000CF17CF93DF93EC016111B9C08F898823FB
:1030800009F4B5C08D89811105C0CE01DF91CF91C2
:103090000C94621781508D8B8DA1811138C08BA14A
:1030A0009CA101969C01220F331FEF8DF8A1E20F26
:1030B000F31F25913491422F47704EA3A90163E07D
:1030C000569547956A95E1F7BA0176956795232F4E
:1030D000269526952FA36F732C81629F602D112456
:1030E0006DA341704093F2039CA38BA329A130E010
:1030F0008217930760F08AA1882329F0281B3109E1
:103100003CA32BA304C060E0CE010E9462178DA1F6
:1031100081508DA3288D2F5F288F4C893FA1340FBC
:103120008C85380F3A836B8D662361F070E0822FB7
:10313000992787FD90950E940E1F8C8D869F300DDC
:1031400011243A838A8190E0CB966BE370E00E9471
:103150000E1F8A833E893B83698D662371F0772732
:1031600067FD7095822F992787FD90950E940E1F0D
:103170008A8D869F300D11243B836D8D662391F0DF
:10318000822F992787FD909570E00E940E1FCB013A
:1031900062E070E00E940E1F2E8D9B81289F900D93
:1031A00011249B838B814F3339F08A300CF089E0F6
:1031B00087FD80E08B8301C01B82F894EA81F0E0F8
:1031C000E858F74FE491E093F50398A58D81989F17
:1031D000802D11249B81899F802D11249EA1899F80
:1031E000802D11248093F4038093F3037894DF916E
:1031F000CF91089560E00C9439186091F403662330
:1032000021F18091F7038F5F8093F7039091F5038D
:103210008917D8F08091F60391E089278093F6030F
:103220001092F7038091F203882369F090911801BE
:1032300083E4989F802D1124895B809318010E945C
:10324000EE1E9093F3030C94571708951F920F925C
:103250000FB60F9211242F933F934F935F936F9369
:103260007F938F939F93AF93BF93EF93FF930E94AE
:10327000FD18FF91EF91BF91AF919F918F917F9139
:103280006F915F914F913F912F910F900FBE0F90D3
:103290001F901895CF93DF93EC0160E00E947317A5
:1032A00081EC98E09E878D871B8A1A8A81E089834A
:1032B00089E08E8B198E1B8E1D8EDF91CF91089524
:1032C000CF93DF93EC0160E00E94731789EB98E0E5
:1032D0009E878D871B8A1A8A81E0898389E08E8B7D
:1032E000198E1B8E1D8EDF91CF910895CF93DF93A2
:1032F000EC0160E00E94731783EB98E09E878D8756
:103300001B8A1A8A81E0898389E08E8B198E1B8E35
:103310001D8EDF91CF910895FC01862F992787FD9F
:103320009095668170E06F5F7F4F0E940E1F8583CE
:1033300008951F920F920FB60F9211242F933F936F
:103340008F939F93AF93BF938091F9039091FA036A
:10335000A091FB03B091FC033091F80323E0230F0D
:103360002D3720F40196A11DB11D05C026E8230FBD
:103370000296A11DB11D2093F8038093F903909349
:10338000FA03A093FB03B093FC038091FD0390919B
:10339000FE03A091FF03B09100040196A11DB11D91
:1033A0008093FD039093FE03A093FF03B09300046A
:1033B000BF91AF919F918F913F912F910F900FBE31
:1033C0000F901F9018952FB7F8946091F9037091A2
:1033D000FA038091FB039091FC032FBF08953FB740
:1033E000F8948091FD039091FE03A091FF03B091AA
:1033F000000426B5A89B05C02F3F19F00196A11D1A
:10340000B11D3FBF6627782F892F9A2F620F711D3C
:10341000811D911D42E0660F771F881F991F4A95F5
:10342000D1F70895CF92DF92EF92FF92CF93DF937F
:103430006B017C010E94EF19EB01C114D104E1047E
:10344000F10489F00E94C01D0E94EF196C1B7D0BD6
:10345000683E734090F381E0C81AD108E108F10892
:10346000C851DC4FEACFDF91CF91FF90EF90DF9012
:10347000CF900895789484B5826084BD84B58160CE
:1034800084BD85B5826085BD85B5816085BDEEE66C
:10349000F0E0808181608083E1E8F0E0108280814B
:1034A00082608083808181608083E0E8F0E08081B9
:1034B00081608083E1EBF0E0808184608083E0EBD9
:1034C000F0E0808181608083EAE7F0E080818460C1
:1034D000808380818260808380818160808380811D
:1034E000806880831092C10008958E3008F08E505D
:1034F00087702091190190E4299F90011124822B5B
:1035000080937C0080917A00806480937A0080911F
:103510007A0086FDFCCF809178002091790090E0C0
:10352000922B08951F93CF93DF93182FEB0161E047
:103530000E941A1B209711F460E004C0CF3FD10510
:1035400039F461E0812FDF91CF911F910C94531BCF
:10355000E12FF0E0EB52F74FE491E330F9F048F45B
:10356000E130B9F0E230A1F584B5806284BDC8BD18
:1035700034C0E730E9F0E83019F1E43049F58091E2
:103580008000806280938000D0938B00C0938A007B
:1035900024C084B5806884BDC7BD1FC080918000F1
:1035A000806880938000D0938900C093880015C004
:1035B0008091B00080688093B000C093B3000DC0CC
:1035C0008091B00080628093B000C093B40005C0C9
:1035D000C038D1050CF0B5CFAFCFDF91CF911F919F
:1035E0000895833081F028F4813099F08230A1F081
:1035F00008958730A9F08830B9F08430D1F48091F3
:1036000080008F7D03C0809180008F778093800041
:10361000089584B58F7702C084B58F7D84BD0895E9
:103620008091B0008F7703C08091B0008F7D809330
:10363000B0000895CF93DF9390E0FC01E751F74F7E
:103640002491FC01E350F74F8491882349F190E0E5
:10365000880F991FFC01EB5DF64FA591B491855E33
:10366000964FFC01C591D4919FB7611108C0F894A1
:103670008C91209582238C93888182230AC06230AA
:1036800051F4F8948C91322F309583238C93888158
:10369000822B888304C0F8948C91822B8C939FBFDB
:1036A000DF91CF9108950F931F93CF93DF931F92D4
:1036B000CDB7DEB7282F30E0F901EB52F74F8491F8
:1036C000F901E751F74F1491F901E350F74F0491D5
:1036D0000023C9F0882321F069830E94F11A6981CF
:1036E000E02FF0E0EE0FFF1FE55EF64FA591B491DD
:1036F0009FB7F8948C91611103C01095812301C08C
:10370000812B8C939FBF0F90DF91CF911F910F91D1
:103710000895CF93DF93282F30E0F901EB52F74F54
:103720008491F901E751F74FD491F901E350F74F34
:10373000C491CC2391F081110E94F11AEC2FF0E09A
:10374000EE0FFF1FEF5EF64FA591B4912C912D2344
:1037500081E090E021F480E002C080E090E0DF9121
:10376000CF91089508950E943A1A0E94B21B0E94B8
:103770000C05C0E0D0E00E94F6072097E1F30E941C
:103780000000F9CFCF92DF92EF92FF920F931F9339
:10379000CF93DF936C017A01EB01E60EF71E00E098
:1037A00010E0CE15DF0561F06991D601ED91FC9135
:1037B0000190F081E02DC6010995080F191FF1CF86
:1037C000C801DF91CF911F910F91FF90EF90DF9093
:1037D000CF9008956115710581F0DB010D900020F7
:1037E000E9F7AD0141505109461B570BDC01ED9142
:1037F000FC910280F381E02D099480E090E008952F
:10380000EF92FF920F931F93CF93DF938C01FB01F5
:10381000C0E0D0E064917F018FEFE81AF80A6623D8
:1038200061F0D801ED91FC910190F081E02DC8018B
:103830000995C80FD91FF701EDCFCE01DF91CF91C8
:103840001F910F91FF90EF900895DC01ED91FC9195
:103850000190F081E02D09946AE471E00C94EA1B78
:103860000F931F93CF93DF93EC010E94001C8C01F8
:10387000CE010E942C1C800F911FDF91CF911F91D0
:103880000F9108950F931F93CF93DF93EC010E9444
:10389000EA1B8C01CE010E942C1C800F911FDF912E
:1038A000CF911F910F9108958F929F92AF92BF92E7
:1038B000CF92DF92EF92FF920F931F93CF93DF93FC
:1038C000CDB7DEB7A1970FB6F894DEBF0FBECDBF60
:1038D0007C01C42EE52FCB01D22E19A221E02D159B
:1038E00010F02AE0D22E8E010F5D1F4F8D2C912CEF
:1038F000A12CB12C6C2D7E2FA50194010E94221FBA
:103900008C2DD29E80191124015011098A3014F493
:10391000805D01C0895CF801808321153105410576
:10392000510521F0C22EE32FCA01E4CFB801C7012F
:103930000E94EA1BA1960FB6F894DEBF0FBECDBF62
:10394000DF91CF911F910F91FF90EF90DF90CF907B
:10395000BF90AF909F908F900895CF92DF92EF929B
:10396000FF920F931F93CF93DF93EC016A017B01CA
:103970002115310579F4E881F9810190F081E02D7C
:10398000642FDF91CF911F910F91FF90EF90DF9007
:10399000CF9009942A303105E9F477FF1AC06DE21F
:1039A0000E94251C8C0144275527BA014C195D093A
:1039B0006E097F092AE0CE010E94541C800F911FDE
:1039C000DF91CF911F910F91FF90EF90DF90CF90FB
:1039D00008952AE0B701A601CE01DF91CF911F9192
:1039E0000F91FF90EF90DF90CF900C94541C9A01B0
:1039F000AB01662757FD6095762F0C94AD1C0F9395
:103A00001F93CF93DF93EC019A01AB01662757FD1B
:103A10006095762F0E94AD1C8C01CE010E942C1C5B
:103A2000800F911FDF91CF911F910F910895211564
:103A3000310541F4DC01ED91FC910190F081E02D24
:103A4000642F09940C94541C9A01462F50E060E0B6
:103A500070E00C94171D9A01AB0160E070E00C94CB
:103A6000171D611571058105910511F00C94D71F83
:103A70000895CF93DF9300D000D0CDB7DEB79B0180
:103A8000AC01611571058105910569F069833A837F
:103A90004B835C830E94D21F29813A814B815C81D8
:103AA0000E94441F03C060E070E0CB010F900F90B4
:103AB0000F900F90DF91CF910895CF92DF92EF9208
:103AC000FF926B017C01621773078407950764F40A
:103AD000CA01B9016C197D098E099F090E94391D1F
:103AE0006C0D7D1D8E1D9F1DFF90EF90DF90CF9080
:103AF00008954F925F926F927F92AF92BF92CF9252
:103B0000DF92EF92FF920F931F93CF93DF93CDB786
:103B1000DEB729013A01621B730B840B950B2989CF
:103B20003A894B895C892A193B094C095D09298B23
:103B30003A8B4B8B5C8B9B01AC0169897A898B89B1
:103B40009C890E94DE1EE418F50806091709A801E1
:103B500097010E94441F2A0D3B1D4C1D5D1DCA018B
:103B6000B901DF91CF911F910F91FF90EF90DF90FE
:103B7000CF90BF90AF907F906F905F904F900895DF
:103B8000089598D088F09F5790F0B92F9927B75192
:103B9000A0F0D1F0660F771F881F991F1AF0BA9511
:103BA000C9F712C0B13081F09FD0B1E008959CC038
:103BB000672F782F8827B85F39F0B93FCCF3869507
:103BC00077956795B395D9F73EF490958095709564
:103BD00061957F4F8F4F9F4F0895E89409C097FBE1
:103BE0003EF490958095709561957F4F8F4F9F4FD4
:103BF0009923A9F0F92F96E9BB279395F695879518
:103C000077956795B795F111F8CFFAF4BB0F11F4DA
:103C100060FF1BC06F5F7F4F8F4F9F4F16C0882381
:103C200011F096E911C0772321F09EE8872F762FB7
:103C300005C0662371F096E8862F70E060E02AF0F8
:103C40009A95660F771F881FDAF7880F96958795E4
:103C500097F9089597F99F6780E870E060E008950C
:103C60009FEF80EC089500240A9416161706180694
:103C70000906089500240A94121613061406050670
:103C80000895092E0394000C11F4882352F0BB0F01
:103C900040F4BF2B11F460FF04C06F5F7F4F8F4F64
:103CA0009F4F089557FD9058440F551F59F05F3F9F
:103CB00071F04795880F97FB991F61F09F3F79F04E
:103CC00087950895121613061406551FF2CF4695D0
:103CD000F1DF08C0161617061806991FF1CF869552
:103CE0007105610508940895E894BB276627772736
:103CF000CB0197F908950BD0C4CFB5DF28F0BADF18
:103D000018F0952309F0A6CFABCF1124EECFCADF70
:103D1000A0F3959FD1F3950F50E0551F629FF001DE
:103D2000729FBB27F00DB11D639FAA27F00DB11D37
:103D3000AA1F649F6627B00DA11D661F829F2227C0
:103D4000B00DA11D621F739FB00DA11D621F839F47
:103D5000A00D611D221F749F3327A00D611D231F1D
:103D6000849F600D211D822F762F6A2F11249F576B
:103D700050408AF0E1F088234AF0EE0FFF1FBB1F8E
:103D8000661F771F881F91505040A9F79E3F51052D
:103D900070F060CFAACF5F3FECF3983EDCF38695DE
:103DA00077956795B795F795E7959F5FC1F7FE2BD8
:103DB000880F911D9695879597F90895DB018F934C
:103DC0009F930E94631FBF91AF91A29F800D911D91
:103DD000A39F900DB29F900D11240895991B79E037
:103DE00004C0991F961708F0961B881F7A95C9F78B
:103DF00080950895AA1BBB1B51E107C0AA1FBB1FDA
:103E0000A617B70710F0A61BB70B881F991F5A9566
:103E1000A9F780959095BC01CD01089597FB072ED9
:103E200016F4009407D077FD09D00E94FA1E07FC13
:103E300005D03EF4909581959F4F089570956195BA
:103E40007F4F0895A1E21A2EAA1BBB1BFD010DC0D6
:103E5000AA1FBB1FEE1FFF1FA217B307E407F5073A
:103E600020F0A21BB30BE40BF50B661F771F881F16
:103E7000991F1A9469F760957095809590959B01AC
:103E8000AC01BD01CF010895052E97FB1EF40094EF
:103E90000E945B1F57FD07D00E94221F07FC03D022
:103EA0004EF40C945B1F50954095309521953F4FF3
:103EB0004F4F5F4F089590958095709561957F4F16
:103EC0008F4F9F4F08950E94741FA59F900DB49F20
:103ED000900DA49F800D911D11240895EE0FFF1FDA
:103EE0000590F491E02D0994A29FB001B39FC00109
:103EF000A39F700D811D1124911DB29F700D811D16
:103F00001124911D08958F929F92AF92BF92CF92EC
:103F1000DF92EF92FF92CF93DF93EC01688179817A
:103F20008A819B81611571058105910521F464E207
:103F300079ED8BE597E02DE133EF41E050E00E9411
:103F4000441F49015A019B01AC01A7EAB1E40E9458
:103F5000631F6B017C01ACEEB4EFA50194010E94DC
:103F6000E31FC60ED71EE81EF91EF7FE06C081E04D
:103F7000C81AD108E10880E8F80AC882D982EA8222
:103F8000FB82C701B6019F77DF91CF91FF90EF9041
:103F9000DF90CF90BF90AF909F908F9008950E9438
:103FA000831F089586E091E00E94831F0895609327
:103FB0000601709307018093080190930901089509
:103FC000B7FF0C94631F0E94631F821B930B08951D
:043FD000F894FFCF93
:103FD40000000104800001000000012000FFFF0137
:103FE40001000200240014000101596F7520646966
:103FF4006564210054696D653A00206672616D65DF
:10400400732E00507265737320160000000000CBFD
:1040140010C21B4C4F41444552000D0A006E616EA4
:0A40240000696E66006F766600000A
:00000001FF
